{
	"SharedWallet.sol": {
		"SharedWallet": {
			"abi": [
				{
					"inputs": [],
					"stateMutability": "nonpayable",
					"type": "constructor"
				},
				{
					"inputs": [],
					"name": "allowance",
					"outputs": [
						{
							"internalType": "uint256",
							"name": "",
							"type": "uint256"
						}
					],
					"stateMutability": "view",
					"type": "function"
				},
				{
					"inputs": [
						{
							"internalType": "uint256",
							"name": "_amount",
							"type": "uint256"
						}
					],
					"name": "depositFunds",
					"outputs": [],
					"stateMutability": "nonpayable",
					"type": "function"
				},
				{
					"inputs": [],
					"name": "funds",
					"outputs": [
						{
							"internalType": "uint256",
							"name": "",
							"type": "uint256"
						}
					],
					"stateMutability": "view",
					"type": "function"
				},
				{
					"inputs": [],
					"name": "owner",
					"outputs": [
						{
							"internalType": "address",
							"name": "",
							"type": "address"
						}
					],
					"stateMutability": "view",
					"type": "function"
				},
				{
					"inputs": [
						{
							"internalType": "address payable",
							"name": "_to",
							"type": "address"
						},
						{
							"internalType": "uint256",
							"name": "_amount",
							"type": "uint256"
						}
					],
					"name": "ownerWithdrawFunds",
					"outputs": [],
					"stateMutability": "nonpayable",
					"type": "function"
				},
				{
					"inputs": [
						{
							"internalType": "uint256",
							"name": "_amount",
							"type": "uint256"
						}
					],
					"name": "withdrawFunds",
					"outputs": [],
					"stateMutability": "nonpayable",
					"type": "function"
				},
				{
					"stateMutability": "payable",
					"type": "receive"
				}
			],
			"devdoc": {
				"kind": "dev",
				"methods": {},
				"version": 1
			},
			"evm": {
				"assembly": "    /* \"SharedWallet.sol\":86:813  contract SharedWallet {... */\n  mstore(0x40, 0x80)\n    /* \"SharedWallet.sol\":188:195  1 ether */\n  0x0de0b6b3a7640000\n    /* \"SharedWallet.sol\":164:195  uint public allowance = 1 ether */\n  0x02\n  sstore\n    /* \"SharedWallet.sol\":202:251  constructor() {... */\n  callvalue\n  dup1\n  iszero\n  tag_1\n  jumpi\n  0x00\n  dup1\n  revert\ntag_1:\n  pop\n    /* \"SharedWallet.sol\":234:244  msg.sender */\n  caller\n    /* \"SharedWallet.sol\":226:231  owner */\n  0x00\n  dup1\n    /* \"SharedWallet.sol\":226:244  owner = msg.sender */\n  0x0100\n  exp\n  dup2\n  sload\n  dup2\n  0xffffffffffffffffffffffffffffffffffffffff\n  mul\n  not\n  and\n  swap1\n  dup4\n  0xffffffffffffffffffffffffffffffffffffffff\n  and\n  mul\n  or\n  swap1\n  sstore\n  pop\n    /* \"SharedWallet.sol\":86:813  contract SharedWallet {... */\n  dataSize(sub_0)\n  dup1\n  dataOffset(sub_0)\n  0x00\n  codecopy\n  0x00\n  return\nstop\n\nsub_0: assembly {\n        /* \"SharedWallet.sol\":86:813  contract SharedWallet {... */\n      mstore(0x40, 0x80)\n      jumpi(tag_1, lt(calldatasize, 0x04))\n      shr(0xe0, calldataload(0x00))\n      dup1\n      0x155dd5ee\n      eq\n      tag_3\n      jumpi\n      dup1\n      0x3b76594d\n      eq\n      tag_4\n      jumpi\n      dup1\n      0x8da5cb5b\n      eq\n      tag_5\n      jumpi\n      dup1\n      0xc89f2ce4\n      eq\n      tag_6\n      jumpi\n      dup1\n      0xdbd97d2e\n      eq\n      tag_7\n      jumpi\n      dup1\n      0xde242ff4\n      eq\n      tag_8\n      jumpi\n      jump(tag_2)\n    tag_1:\n      jumpi(tag_2, calldatasize)\n        /* \"SharedWallet.sol\":781:804  depositFunds(msg.value) */\n      tag_11\n        /* \"SharedWallet.sol\":794:803  msg.value */\n      callvalue\n        /* \"SharedWallet.sol\":781:793  depositFunds */\n      tag_12\n        /* \"SharedWallet.sol\":781:804  depositFunds(msg.value) */\n      jump\t// in\n    tag_11:\n        /* \"SharedWallet.sol\":86:813  contract SharedWallet {... */\n      stop\n    tag_2:\n      0x00\n      dup1\n      revert\n        /* \"SharedWallet.sol\":421:546  function withdrawFunds(uint _amount) public {... */\n    tag_3:\n      callvalue\n      dup1\n      iszero\n      tag_13\n      jumpi\n      0x00\n      dup1\n      revert\n    tag_13:\n      pop\n      tag_14\n      0x04\n      dup1\n      calldatasize\n      sub\n      dup2\n      add\n      swap1\n      tag_15\n      swap2\n      swap1\n      tag_16\n      jump\t// in\n    tag_15:\n      tag_17\n      jump\t// in\n    tag_14:\n      stop\n        /* \"SharedWallet.sol\":339:415  function depositFunds(uint _amount) public {... */\n    tag_4:\n      callvalue\n      dup1\n      iszero\n      tag_18\n      jumpi\n      0x00\n      dup1\n      revert\n    tag_18:\n      pop\n      tag_19\n      0x04\n      dup1\n      calldatasize\n      sub\n      dup2\n      add\n      swap1\n      tag_20\n      swap2\n      swap1\n      tag_16\n      jump\t// in\n    tag_20:\n      tag_12\n      jump\t// in\n    tag_19:\n      stop\n        /* \"SharedWallet.sol\":115:135  address public owner */\n    tag_5:\n      callvalue\n      dup1\n      iszero\n      tag_21\n      jumpi\n      0x00\n      dup1\n      revert\n    tag_21:\n      pop\n      tag_22\n      tag_23\n      jump\t// in\n    tag_22:\n      mload(0x40)\n      tag_24\n      swap2\n      swap1\n      tag_25\n      jump\t// in\n    tag_24:\n      mload(0x40)\n      dup1\n      swap2\n      sub\n      swap1\n      return\n        /* \"SharedWallet.sol\":141:158  uint public funds */\n    tag_6:\n      callvalue\n      dup1\n      iszero\n      tag_26\n      jumpi\n      0x00\n      dup1\n      revert\n    tag_26:\n      pop\n      tag_27\n      tag_28\n      jump\t// in\n    tag_27:\n      mload(0x40)\n      tag_29\n      swap2\n      swap1\n      tag_30\n      jump\t// in\n    tag_29:\n      mload(0x40)\n      dup1\n      swap2\n      sub\n      swap1\n      return\n        /* \"SharedWallet.sol\":552:738  function ownerWithdrawFunds(address payable _to, uint _amount) public onlyOwner {... */\n    tag_7:\n      callvalue\n      dup1\n      iszero\n      tag_31\n      jumpi\n      0x00\n      dup1\n      revert\n    tag_31:\n      pop\n      tag_32\n      0x04\n      dup1\n      calldatasize\n      sub\n      dup2\n      add\n      swap1\n      tag_33\n      swap2\n      swap1\n      tag_34\n      jump\t// in\n    tag_33:\n      tag_35\n      jump\t// in\n    tag_32:\n      stop\n        /* \"SharedWallet.sol\":164:195  uint public allowance = 1 ether */\n    tag_8:\n      callvalue\n      dup1\n      iszero\n      tag_36\n      jumpi\n      0x00\n      dup1\n      revert\n    tag_36:\n      pop\n      tag_37\n      tag_38\n      jump\t// in\n    tag_37:\n      mload(0x40)\n      tag_39\n      swap2\n      swap1\n      tag_30\n      jump\t// in\n    tag_39:\n      mload(0x40)\n      dup1\n      swap2\n      sub\n      swap1\n      return\n        /* \"SharedWallet.sol\":339:415  function depositFunds(uint _amount) public {... */\n    tag_12:\n        /* \"SharedWallet.sol\":401:408  _amount */\n      dup1\n        /* \"SharedWallet.sol\":392:397  funds */\n      0x01\n      0x00\n        /* \"SharedWallet.sol\":392:408  funds += _amount */\n      dup3\n      dup3\n      sload\n      tag_41\n      swap2\n      swap1\n      tag_42\n      jump\t// in\n    tag_41:\n      swap3\n      pop\n      pop\n      dup2\n      swap1\n      sstore\n      pop\n        /* \"SharedWallet.sol\":339:415  function depositFunds(uint _amount) public {... */\n      pop\n      jump\t// out\n        /* \"SharedWallet.sol\":421:546  function withdrawFunds(uint _amount) public {... */\n    tag_17:\n        /* \"SharedWallet.sol\":494:503  allowance */\n      sload(0x02)\n        /* \"SharedWallet.sol\":483:490  _amount */\n      dup2\n        /* \"SharedWallet.sol\":483:503  _amount <= allowance */\n      gt\n      iszero\n        /* \"SharedWallet.sol\":475:504  require(_amount <= allowance) */\n      tag_44\n      jumpi\n      0x00\n      dup1\n      revert\n    tag_44:\n        /* \"SharedWallet.sol\":523:530  _amount */\n      dup1\n        /* \"SharedWallet.sol\":514:519  funds */\n      0x01\n      0x00\n        /* \"SharedWallet.sol\":514:530  funds -= _amount */\n      dup3\n      dup3\n      sload\n      tag_45\n      swap2\n      swap1\n      tag_46\n      jump\t// in\n    tag_45:\n      swap3\n      pop\n      pop\n      dup2\n      swap1\n      sstore\n      pop\n        /* \"SharedWallet.sol\":421:546  function withdrawFunds(uint _amount) public {... */\n      pop\n      jump\t// out\n        /* \"SharedWallet.sol\":115:135  address public owner */\n    tag_23:\n      0x00\n      dup1\n      sload\n      swap1\n      0x0100\n      exp\n      swap1\n      div\n      0xffffffffffffffffffffffffffffffffffffffff\n      and\n      dup2\n      jump\t// out\n        /* \"SharedWallet.sol\":141:158  uint public funds */\n    tag_28:\n      sload(0x01)\n      dup2\n      jump\t// out\n        /* \"SharedWallet.sol\":552:738  function ownerWithdrawFunds(address payable _to, uint _amount) public onlyOwner {... */\n    tag_35:\n        /* \"SharedWallet.sol\":309:314  owner */\n      0x00\n      dup1\n      sload\n      swap1\n      0x0100\n      exp\n      swap1\n      div\n      0xffffffffffffffffffffffffffffffffffffffff\n      and\n        /* \"SharedWallet.sol\":295:314  msg.sender == owner */\n      0xffffffffffffffffffffffffffffffffffffffff\n      and\n        /* \"SharedWallet.sol\":295:305  msg.sender */\n      caller\n        /* \"SharedWallet.sol\":295:314  msg.sender == owner */\n      0xffffffffffffffffffffffffffffffffffffffff\n      and\n      eq\n        /* \"SharedWallet.sol\":287:315  require(msg.sender == owner) */\n      tag_48\n      jumpi\n      0x00\n      dup1\n      revert\n    tag_48:\n        /* \"SharedWallet.sol\":668:673  funds */\n      sload(0x01)\n        /* \"SharedWallet.sol\":657:664  _amount */\n      dup2\n        /* \"SharedWallet.sol\":649:654  funds */\n      sload(0x01)\n        /* \"SharedWallet.sol\":649:664  funds - _amount */\n      tag_50\n      swap2\n      swap1\n      tag_46\n      jump\t// in\n    tag_50:\n        /* \"SharedWallet.sol\":649:673  funds - _amount <= funds */\n      gt\n      iszero\n        /* \"SharedWallet.sol\":642:674  assert(funds - _amount <= funds) */\n      tag_51\n      jumpi\n      tag_52\n      tag_53\n      jump\t// in\n    tag_52:\n    tag_51:\n        /* \"SharedWallet.sol\":693:700  _amount */\n      dup1\n        /* \"SharedWallet.sol\":684:689  funds */\n      0x01\n      0x00\n        /* \"SharedWallet.sol\":684:700  funds -= _amount */\n      dup3\n      dup3\n      sload\n      tag_54\n      swap2\n      swap1\n      tag_46\n      jump\t// in\n    tag_54:\n      swap3\n      pop\n      pop\n      dup2\n      swap1\n      sstore\n      pop\n        /* \"SharedWallet.sol\":710:713  _to */\n      dup2\n        /* \"SharedWallet.sol\":710:722  _to.transfer */\n      0xffffffffffffffffffffffffffffffffffffffff\n      and\n        /* \"SharedWallet.sol\":710:731  _to.transfer(_amount) */\n      0x08fc\n        /* \"SharedWallet.sol\":723:730  _amount */\n      dup3\n        /* \"SharedWallet.sol\":710:731  _to.transfer(_amount) */\n      swap1\n      dup2\n      iszero\n      mul\n      swap1\n      mload(0x40)\n      0x00\n      mload(0x40)\n      dup1\n      dup4\n      sub\n      dup2\n      dup6\n      dup9\n      dup9\n      call\n      swap4\n      pop\n      pop\n      pop\n      pop\n      iszero\n      dup1\n      iszero\n      tag_56\n      jumpi\n      returndatasize\n      0x00\n      dup1\n      returndatacopy\n      revert(0x00, returndatasize)\n    tag_56:\n      pop\n        /* \"SharedWallet.sol\":552:738  function ownerWithdrawFunds(address payable _to, uint _amount) public onlyOwner {... */\n      pop\n      pop\n      jump\t// out\n        /* \"SharedWallet.sol\":164:195  uint public allowance = 1 ether */\n    tag_38:\n      sload(0x02)\n      dup2\n      jump\t// out\n        /* \"#utility.yul\":88:205   */\n    tag_58:\n        /* \"#utility.yul\":197:198   */\n      0x00\n        /* \"#utility.yul\":194:195   */\n      dup1\n        /* \"#utility.yul\":187:199   */\n      revert\n        /* \"#utility.yul\":334:411   */\n    tag_60:\n        /* \"#utility.yul\":371:378   */\n      0x00\n        /* \"#utility.yul\":400:405   */\n      dup2\n        /* \"#utility.yul\":389:405   */\n      swap1\n      pop\n        /* \"#utility.yul\":334:411   */\n      swap2\n      swap1\n      pop\n      jump\t// out\n        /* \"#utility.yul\":417:539   */\n    tag_61:\n        /* \"#utility.yul\":490:514   */\n      tag_77\n        /* \"#utility.yul\":508:513   */\n      dup2\n        /* \"#utility.yul\":490:514   */\n      tag_60\n      jump\t// in\n    tag_77:\n        /* \"#utility.yul\":483:488   */\n      dup2\n        /* \"#utility.yul\":480:515   */\n      eq\n        /* \"#utility.yul\":470:533   */\n      tag_78\n      jumpi\n        /* \"#utility.yul\":529:530   */\n      0x00\n        /* \"#utility.yul\":526:527   */\n      dup1\n        /* \"#utility.yul\":519:531   */\n      revert\n        /* \"#utility.yul\":470:533   */\n    tag_78:\n        /* \"#utility.yul\":417:539   */\n      pop\n      jump\t// out\n        /* \"#utility.yul\":545:684   */\n    tag_62:\n        /* \"#utility.yul\":591:596   */\n      0x00\n        /* \"#utility.yul\":629:635   */\n      dup2\n        /* \"#utility.yul\":616:636   */\n      calldataload\n        /* \"#utility.yul\":607:636   */\n      swap1\n      pop\n        /* \"#utility.yul\":645:678   */\n      tag_80\n        /* \"#utility.yul\":672:677   */\n      dup2\n        /* \"#utility.yul\":645:678   */\n      tag_61\n      jump\t// in\n    tag_80:\n        /* \"#utility.yul\":545:684   */\n      swap3\n      swap2\n      pop\n      pop\n      jump\t// out\n        /* \"#utility.yul\":690:1019   */\n    tag_16:\n        /* \"#utility.yul\":749:755   */\n      0x00\n        /* \"#utility.yul\":798:800   */\n      0x20\n        /* \"#utility.yul\":786:795   */\n      dup3\n        /* \"#utility.yul\":777:784   */\n      dup5\n        /* \"#utility.yul\":773:796   */\n      sub\n        /* \"#utility.yul\":769:801   */\n      slt\n        /* \"#utility.yul\":766:885   */\n      iszero\n      tag_82\n      jumpi\n        /* \"#utility.yul\":804:883   */\n      tag_83\n      tag_58\n      jump\t// in\n    tag_83:\n        /* \"#utility.yul\":766:885   */\n    tag_82:\n        /* \"#utility.yul\":924:925   */\n      0x00\n        /* \"#utility.yul\":949:1002   */\n      tag_84\n        /* \"#utility.yul\":994:1001   */\n      dup5\n        /* \"#utility.yul\":985:991   */\n      dup3\n        /* \"#utility.yul\":974:983   */\n      dup6\n        /* \"#utility.yul\":970:992   */\n      add\n        /* \"#utility.yul\":949:1002   */\n      tag_62\n      jump\t// in\n    tag_84:\n        /* \"#utility.yul\":939:1002   */\n      swap2\n      pop\n        /* \"#utility.yul\":895:1012   */\n      pop\n        /* \"#utility.yul\":690:1019   */\n      swap3\n      swap2\n      pop\n      pop\n      jump\t// out\n        /* \"#utility.yul\":1025:1151   */\n    tag_63:\n        /* \"#utility.yul\":1062:1069   */\n      0x00\n        /* \"#utility.yul\":1102:1144   */\n      0xffffffffffffffffffffffffffffffffffffffff\n        /* \"#utility.yul\":1095:1100   */\n      dup3\n        /* \"#utility.yul\":1091:1145   */\n      and\n        /* \"#utility.yul\":1080:1145   */\n      swap1\n      pop\n        /* \"#utility.yul\":1025:1151   */\n      swap2\n      swap1\n      pop\n      jump\t// out\n        /* \"#utility.yul\":1157:1253   */\n    tag_64:\n        /* \"#utility.yul\":1194:1201   */\n      0x00\n        /* \"#utility.yul\":1223:1247   */\n      tag_87\n        /* \"#utility.yul\":1241:1246   */\n      dup3\n        /* \"#utility.yul\":1223:1247   */\n      tag_63\n      jump\t// in\n    tag_87:\n        /* \"#utility.yul\":1212:1247   */\n      swap1\n      pop\n        /* \"#utility.yul\":1157:1253   */\n      swap2\n      swap1\n      pop\n      jump\t// out\n        /* \"#utility.yul\":1259:1377   */\n    tag_65:\n        /* \"#utility.yul\":1346:1370   */\n      tag_89\n        /* \"#utility.yul\":1364:1369   */\n      dup2\n        /* \"#utility.yul\":1346:1370   */\n      tag_64\n      jump\t// in\n    tag_89:\n        /* \"#utility.yul\":1341:1344   */\n      dup3\n        /* \"#utility.yul\":1334:1371   */\n      mstore\n        /* \"#utility.yul\":1259:1377   */\n      pop\n      pop\n      jump\t// out\n        /* \"#utility.yul\":1383:1605   */\n    tag_25:\n        /* \"#utility.yul\":1476:1480   */\n      0x00\n        /* \"#utility.yul\":1514:1516   */\n      0x20\n        /* \"#utility.yul\":1503:1512   */\n      dup3\n        /* \"#utility.yul\":1499:1517   */\n      add\n        /* \"#utility.yul\":1491:1517   */\n      swap1\n      pop\n        /* \"#utility.yul\":1527:1598   */\n      tag_91\n        /* \"#utility.yul\":1595:1596   */\n      0x00\n        /* \"#utility.yul\":1584:1593   */\n      dup4\n        /* \"#utility.yul\":1580:1597   */\n      add\n        /* \"#utility.yul\":1571:1577   */\n      dup5\n        /* \"#utility.yul\":1527:1598   */\n      tag_65\n      jump\t// in\n    tag_91:\n        /* \"#utility.yul\":1383:1605   */\n      swap3\n      swap2\n      pop\n      pop\n      jump\t// out\n        /* \"#utility.yul\":1611:1729   */\n    tag_66:\n        /* \"#utility.yul\":1698:1722   */\n      tag_93\n        /* \"#utility.yul\":1716:1721   */\n      dup2\n        /* \"#utility.yul\":1698:1722   */\n      tag_60\n      jump\t// in\n    tag_93:\n        /* \"#utility.yul\":1693:1696   */\n      dup3\n        /* \"#utility.yul\":1686:1723   */\n      mstore\n        /* \"#utility.yul\":1611:1729   */\n      pop\n      pop\n      jump\t// out\n        /* \"#utility.yul\":1735:1957   */\n    tag_30:\n        /* \"#utility.yul\":1828:1832   */\n      0x00\n        /* \"#utility.yul\":1866:1868   */\n      0x20\n        /* \"#utility.yul\":1855:1864   */\n      dup3\n        /* \"#utility.yul\":1851:1869   */\n      add\n        /* \"#utility.yul\":1843:1869   */\n      swap1\n      pop\n        /* \"#utility.yul\":1879:1950   */\n      tag_95\n        /* \"#utility.yul\":1947:1948   */\n      0x00\n        /* \"#utility.yul\":1936:1945   */\n      dup4\n        /* \"#utility.yul\":1932:1949   */\n      add\n        /* \"#utility.yul\":1923:1929   */\n      dup5\n        /* \"#utility.yul\":1879:1950   */\n      tag_66\n      jump\t// in\n    tag_95:\n        /* \"#utility.yul\":1735:1957   */\n      swap3\n      swap2\n      pop\n      pop\n      jump\t// out\n        /* \"#utility.yul\":1963:2067   */\n    tag_67:\n        /* \"#utility.yul\":2008:2015   */\n      0x00\n        /* \"#utility.yul\":2037:2061   */\n      tag_97\n        /* \"#utility.yul\":2055:2060   */\n      dup3\n        /* \"#utility.yul\":2037:2061   */\n      tag_63\n      jump\t// in\n    tag_97:\n        /* \"#utility.yul\":2026:2061   */\n      swap1\n      pop\n        /* \"#utility.yul\":1963:2067   */\n      swap2\n      swap1\n      pop\n      jump\t// out\n        /* \"#utility.yul\":2073:2211   */\n    tag_68:\n        /* \"#utility.yul\":2154:2186   */\n      tag_99\n        /* \"#utility.yul\":2180:2185   */\n      dup2\n        /* \"#utility.yul\":2154:2186   */\n      tag_67\n      jump\t// in\n    tag_99:\n        /* \"#utility.yul\":2147:2152   */\n      dup2\n        /* \"#utility.yul\":2144:2187   */\n      eq\n        /* \"#utility.yul\":2134:2205   */\n      tag_100\n      jumpi\n        /* \"#utility.yul\":2201:2202   */\n      0x00\n        /* \"#utility.yul\":2198:2199   */\n      dup1\n        /* \"#utility.yul\":2191:2203   */\n      revert\n        /* \"#utility.yul\":2134:2205   */\n    tag_100:\n        /* \"#utility.yul\":2073:2211   */\n      pop\n      jump\t// out\n        /* \"#utility.yul\":2217:2372   */\n    tag_69:\n        /* \"#utility.yul\":2271:2276   */\n      0x00\n        /* \"#utility.yul\":2309:2315   */\n      dup2\n        /* \"#utility.yul\":2296:2316   */\n      calldataload\n        /* \"#utility.yul\":2287:2316   */\n      swap1\n      pop\n        /* \"#utility.yul\":2325:2366   */\n      tag_102\n        /* \"#utility.yul\":2360:2365   */\n      dup2\n        /* \"#utility.yul\":2325:2366   */\n      tag_68\n      jump\t// in\n    tag_102:\n        /* \"#utility.yul\":2217:2372   */\n      swap3\n      swap2\n      pop\n      pop\n      jump\t// out\n        /* \"#utility.yul\":2378:2868   */\n    tag_34:\n        /* \"#utility.yul\":2454:2460   */\n      0x00\n        /* \"#utility.yul\":2462:2468   */\n      dup1\n        /* \"#utility.yul\":2511:2513   */\n      0x40\n        /* \"#utility.yul\":2499:2508   */\n      dup4\n        /* \"#utility.yul\":2490:2497   */\n      dup6\n        /* \"#utility.yul\":2486:2509   */\n      sub\n        /* \"#utility.yul\":2482:2514   */\n      slt\n        /* \"#utility.yul\":2479:2598   */\n      iszero\n      tag_104\n      jumpi\n        /* \"#utility.yul\":2517:2596   */\n      tag_105\n      tag_58\n      jump\t// in\n    tag_105:\n        /* \"#utility.yul\":2479:2598   */\n    tag_104:\n        /* \"#utility.yul\":2637:2638   */\n      0x00\n        /* \"#utility.yul\":2662:2723   */\n      tag_106\n        /* \"#utility.yul\":2715:2722   */\n      dup6\n        /* \"#utility.yul\":2706:2712   */\n      dup3\n        /* \"#utility.yul\":2695:2704   */\n      dup7\n        /* \"#utility.yul\":2691:2713   */\n      add\n        /* \"#utility.yul\":2662:2723   */\n      tag_69\n      jump\t// in\n    tag_106:\n        /* \"#utility.yul\":2652:2723   */\n      swap3\n      pop\n        /* \"#utility.yul\":2608:2733   */\n      pop\n        /* \"#utility.yul\":2772:2774   */\n      0x20\n        /* \"#utility.yul\":2798:2851   */\n      tag_107\n        /* \"#utility.yul\":2843:2850   */\n      dup6\n        /* \"#utility.yul\":2834:2840   */\n      dup3\n        /* \"#utility.yul\":2823:2832   */\n      dup7\n        /* \"#utility.yul\":2819:2841   */\n      add\n        /* \"#utility.yul\":2798:2851   */\n      tag_62\n      jump\t// in\n    tag_107:\n        /* \"#utility.yul\":2788:2851   */\n      swap2\n      pop\n        /* \"#utility.yul\":2743:2861   */\n      pop\n        /* \"#utility.yul\":2378:2868   */\n      swap3\n      pop\n      swap3\n      swap1\n      pop\n      jump\t// out\n        /* \"#utility.yul\":2874:3054   */\n    tag_70:\n        /* \"#utility.yul\":2922:2999   */\n      0x4e487b7100000000000000000000000000000000000000000000000000000000\n        /* \"#utility.yul\":2919:2920   */\n      0x00\n        /* \"#utility.yul\":2912:3000   */\n      mstore\n        /* \"#utility.yul\":3019:3023   */\n      0x11\n        /* \"#utility.yul\":3016:3017   */\n      0x04\n        /* \"#utility.yul\":3009:3024   */\n      mstore\n        /* \"#utility.yul\":3043:3047   */\n      0x24\n        /* \"#utility.yul\":3040:3041   */\n      0x00\n        /* \"#utility.yul\":3033:3048   */\n      revert\n        /* \"#utility.yul\":3060:3251   */\n    tag_42:\n        /* \"#utility.yul\":3100:3103   */\n      0x00\n        /* \"#utility.yul\":3119:3139   */\n      tag_110\n        /* \"#utility.yul\":3137:3138   */\n      dup3\n        /* \"#utility.yul\":3119:3139   */\n      tag_60\n      jump\t// in\n    tag_110:\n        /* \"#utility.yul\":3114:3139   */\n      swap2\n      pop\n        /* \"#utility.yul\":3153:3173   */\n      tag_111\n        /* \"#utility.yul\":3171:3172   */\n      dup4\n        /* \"#utility.yul\":3153:3173   */\n      tag_60\n      jump\t// in\n    tag_111:\n        /* \"#utility.yul\":3148:3173   */\n      swap3\n      pop\n        /* \"#utility.yul\":3196:3197   */\n      dup3\n        /* \"#utility.yul\":3193:3194   */\n      dup3\n        /* \"#utility.yul\":3189:3198   */\n      add\n        /* \"#utility.yul\":3182:3198   */\n      swap1\n      pop\n        /* \"#utility.yul\":3217:3220   */\n      dup1\n        /* \"#utility.yul\":3214:3215   */\n      dup3\n        /* \"#utility.yul\":3211:3221   */\n      gt\n        /* \"#utility.yul\":3208:3244   */\n      iszero\n      tag_112\n      jumpi\n        /* \"#utility.yul\":3224:3242   */\n      tag_113\n      tag_70\n      jump\t// in\n    tag_113:\n        /* \"#utility.yul\":3208:3244   */\n    tag_112:\n        /* \"#utility.yul\":3060:3251   */\n      swap3\n      swap2\n      pop\n      pop\n      jump\t// out\n        /* \"#utility.yul\":3257:3451   */\n    tag_46:\n        /* \"#utility.yul\":3297:3301   */\n      0x00\n        /* \"#utility.yul\":3317:3337   */\n      tag_115\n        /* \"#utility.yul\":3335:3336   */\n      dup3\n        /* \"#utility.yul\":3317:3337   */\n      tag_60\n      jump\t// in\n    tag_115:\n        /* \"#utility.yul\":3312:3337   */\n      swap2\n      pop\n        /* \"#utility.yul\":3351:3371   */\n      tag_116\n        /* \"#utility.yul\":3369:3370   */\n      dup4\n        /* \"#utility.yul\":3351:3371   */\n      tag_60\n      jump\t// in\n    tag_116:\n        /* \"#utility.yul\":3346:3371   */\n      swap3\n      pop\n        /* \"#utility.yul\":3395:3396   */\n      dup3\n        /* \"#utility.yul\":3392:3393   */\n      dup3\n        /* \"#utility.yul\":3388:3397   */\n      sub\n        /* \"#utility.yul\":3380:3397   */\n      swap1\n      pop\n        /* \"#utility.yul\":3419:3420   */\n      dup2\n        /* \"#utility.yul\":3413:3417   */\n      dup2\n        /* \"#utility.yul\":3410:3421   */\n      gt\n        /* \"#utility.yul\":3407:3444   */\n      iszero\n      tag_117\n      jumpi\n        /* \"#utility.yul\":3424:3442   */\n      tag_118\n      tag_70\n      jump\t// in\n    tag_118:\n        /* \"#utility.yul\":3407:3444   */\n    tag_117:\n        /* \"#utility.yul\":3257:3451   */\n      swap3\n      swap2\n      pop\n      pop\n      jump\t// out\n        /* \"#utility.yul\":3457:3637   */\n    tag_53:\n        /* \"#utility.yul\":3505:3582   */\n      0x4e487b7100000000000000000000000000000000000000000000000000000000\n        /* \"#utility.yul\":3502:3503   */\n      0x00\n        /* \"#utility.yul\":3495:3583   */\n      mstore\n        /* \"#utility.yul\":3602:3606   */\n      0x01\n        /* \"#utility.yul\":3599:3600   */\n      0x04\n        /* \"#utility.yul\":3592:3607   */\n      mstore\n        /* \"#utility.yul\":3626:3630   */\n      0x24\n        /* \"#utility.yul\":3623:3624   */\n      0x00\n        /* \"#utility.yul\":3616:3631   */\n      revert\n\n    auxdata: 0xa2646970667358221220bdb63fc87967a351fe4c4c058e33f9392af85cf1caed97af976d4475feeb757064736f6c63430008100033\n}\n",
				"bytecode": {
					"linkReferences": {},
					"object": "6080604052670de0b6b3a764000060025534801561001c57600080fd5b50336000806101000a81548173ffffffffffffffffffffffffffffffffffffffff021916908373ffffffffffffffffffffffffffffffffffffffff1602179055506105258061006c6000396000f3fe6080604052600436106100595760003560e01c8063155dd5ee1461006e5780633b76594d146100975780638da5cb5b146100c0578063c89f2ce4146100eb578063dbd97d2e14610116578063de242ff41461013f57610069565b36610069576100673461016a565b005b600080fd5b34801561007a57600080fd5b50610095600480360381019061009091906102f8565b610186565b005b3480156100a357600080fd5b506100be60048036038101906100b991906102f8565b61016a565b005b3480156100cc57600080fd5b506100d56101b1565b6040516100e29190610366565b60405180910390f35b3480156100f757600080fd5b506101006101d5565b60405161010d9190610390565b60405180910390f35b34801561012257600080fd5b5061013d600480360381019061013891906103e9565b6101db565b005b34801561014b57600080fd5b506101546102b7565b6040516101619190610390565b60405180910390f35b806001600082825461017c9190610458565b9250508190555050565b60025481111561019557600080fd5b80600160008282546101a7919061048c565b9250508190555050565b60008054906101000a900473ffffffffffffffffffffffffffffffffffffffff1681565b60015481565b60008054906101000a900473ffffffffffffffffffffffffffffffffffffffff1673ffffffffffffffffffffffffffffffffffffffff163373ffffffffffffffffffffffffffffffffffffffff161461023357600080fd5b60015481600154610244919061048c565b1115610253576102526104c0565b5b8060016000828254610265919061048c565b925050819055508173ffffffffffffffffffffffffffffffffffffffff166108fc829081150290604051600060405180830381858888f193505050501580156102b2573d6000803e3d6000fd5b505050565b60025481565b600080fd5b6000819050919050565b6102d5816102c2565b81146102e057600080fd5b50565b6000813590506102f2816102cc565b92915050565b60006020828403121561030e5761030d6102bd565b5b600061031c848285016102e3565b91505092915050565b600073ffffffffffffffffffffffffffffffffffffffff82169050919050565b600061035082610325565b9050919050565b61036081610345565b82525050565b600060208201905061037b6000830184610357565b92915050565b61038a816102c2565b82525050565b60006020820190506103a56000830184610381565b92915050565b60006103b682610325565b9050919050565b6103c6816103ab565b81146103d157600080fd5b50565b6000813590506103e3816103bd565b92915050565b60008060408385031215610400576103ff6102bd565b5b600061040e858286016103d4565b925050602061041f858286016102e3565b9150509250929050565b7f4e487b7100000000000000000000000000000000000000000000000000000000600052601160045260246000fd5b6000610463826102c2565b915061046e836102c2565b925082820190508082111561048657610485610429565b5b92915050565b6000610497826102c2565b91506104a2836102c2565b92508282039050818111156104ba576104b9610429565b5b92915050565b7f4e487b7100000000000000000000000000000000000000000000000000000000600052600160045260246000fdfea2646970667358221220bdb63fc87967a351fe4c4c058e33f9392af85cf1caed97af976d4475feeb757064736f6c63430008100033",
					"opcodes": "PUSH1 0x80 PUSH1 0x40 MSTORE PUSH8 0xDE0B6B3A7640000 PUSH1 0x2 SSTORE CALLVALUE DUP1 ISZERO PUSH2 0x1C JUMPI PUSH1 0x0 DUP1 REVERT JUMPDEST POP CALLER PUSH1 0x0 DUP1 PUSH2 0x100 EXP DUP2 SLOAD DUP2 PUSH20 0xFFFFFFFFFFFFFFFFFFFFFFFFFFFFFFFFFFFFFFFF MUL NOT AND SWAP1 DUP4 PUSH20 0xFFFFFFFFFFFFFFFFFFFFFFFFFFFFFFFFFFFFFFFF AND MUL OR SWAP1 SSTORE POP PUSH2 0x525 DUP1 PUSH2 0x6C PUSH1 0x0 CODECOPY PUSH1 0x0 RETURN INVALID PUSH1 0x80 PUSH1 0x40 MSTORE PUSH1 0x4 CALLDATASIZE LT PUSH2 0x59 JUMPI PUSH1 0x0 CALLDATALOAD PUSH1 0xE0 SHR DUP1 PUSH4 0x155DD5EE EQ PUSH2 0x6E JUMPI DUP1 PUSH4 0x3B76594D EQ PUSH2 0x97 JUMPI DUP1 PUSH4 0x8DA5CB5B EQ PUSH2 0xC0 JUMPI DUP1 PUSH4 0xC89F2CE4 EQ PUSH2 0xEB JUMPI DUP1 PUSH4 0xDBD97D2E EQ PUSH2 0x116 JUMPI DUP1 PUSH4 0xDE242FF4 EQ PUSH2 0x13F JUMPI PUSH2 0x69 JUMP JUMPDEST CALLDATASIZE PUSH2 0x69 JUMPI PUSH2 0x67 CALLVALUE PUSH2 0x16A JUMP JUMPDEST STOP JUMPDEST PUSH1 0x0 DUP1 REVERT JUMPDEST CALLVALUE DUP1 ISZERO PUSH2 0x7A JUMPI PUSH1 0x0 DUP1 REVERT JUMPDEST POP PUSH2 0x95 PUSH1 0x4 DUP1 CALLDATASIZE SUB DUP2 ADD SWAP1 PUSH2 0x90 SWAP2 SWAP1 PUSH2 0x2F8 JUMP JUMPDEST PUSH2 0x186 JUMP JUMPDEST STOP JUMPDEST CALLVALUE DUP1 ISZERO PUSH2 0xA3 JUMPI PUSH1 0x0 DUP1 REVERT JUMPDEST POP PUSH2 0xBE PUSH1 0x4 DUP1 CALLDATASIZE SUB DUP2 ADD SWAP1 PUSH2 0xB9 SWAP2 SWAP1 PUSH2 0x2F8 JUMP JUMPDEST PUSH2 0x16A JUMP JUMPDEST STOP JUMPDEST CALLVALUE DUP1 ISZERO PUSH2 0xCC JUMPI PUSH1 0x0 DUP1 REVERT JUMPDEST POP PUSH2 0xD5 PUSH2 0x1B1 JUMP JUMPDEST PUSH1 0x40 MLOAD PUSH2 0xE2 SWAP2 SWAP1 PUSH2 0x366 JUMP JUMPDEST PUSH1 0x40 MLOAD DUP1 SWAP2 SUB SWAP1 RETURN JUMPDEST CALLVALUE DUP1 ISZERO PUSH2 0xF7 JUMPI PUSH1 0x0 DUP1 REVERT JUMPDEST POP PUSH2 0x100 PUSH2 0x1D5 JUMP JUMPDEST PUSH1 0x40 MLOAD PUSH2 0x10D SWAP2 SWAP1 PUSH2 0x390 JUMP JUMPDEST PUSH1 0x40 MLOAD DUP1 SWAP2 SUB SWAP1 RETURN JUMPDEST CALLVALUE DUP1 ISZERO PUSH2 0x122 JUMPI PUSH1 0x0 DUP1 REVERT JUMPDEST POP PUSH2 0x13D PUSH1 0x4 DUP1 CALLDATASIZE SUB DUP2 ADD SWAP1 PUSH2 0x138 SWAP2 SWAP1 PUSH2 0x3E9 JUMP JUMPDEST PUSH2 0x1DB JUMP JUMPDEST STOP JUMPDEST CALLVALUE DUP1 ISZERO PUSH2 0x14B JUMPI PUSH1 0x0 DUP1 REVERT JUMPDEST POP PUSH2 0x154 PUSH2 0x2B7 JUMP JUMPDEST PUSH1 0x40 MLOAD PUSH2 0x161 SWAP2 SWAP1 PUSH2 0x390 JUMP JUMPDEST PUSH1 0x40 MLOAD DUP1 SWAP2 SUB SWAP1 RETURN JUMPDEST DUP1 PUSH1 0x1 PUSH1 0x0 DUP3 DUP3 SLOAD PUSH2 0x17C SWAP2 SWAP1 PUSH2 0x458 JUMP JUMPDEST SWAP3 POP POP DUP2 SWAP1 SSTORE POP POP JUMP JUMPDEST PUSH1 0x2 SLOAD DUP2 GT ISZERO PUSH2 0x195 JUMPI PUSH1 0x0 DUP1 REVERT JUMPDEST DUP1 PUSH1 0x1 PUSH1 0x0 DUP3 DUP3 SLOAD PUSH2 0x1A7 SWAP2 SWAP1 PUSH2 0x48C JUMP JUMPDEST SWAP3 POP POP DUP2 SWAP1 SSTORE POP POP JUMP JUMPDEST PUSH1 0x0 DUP1 SLOAD SWAP1 PUSH2 0x100 EXP SWAP1 DIV PUSH20 0xFFFFFFFFFFFFFFFFFFFFFFFFFFFFFFFFFFFFFFFF AND DUP2 JUMP JUMPDEST PUSH1 0x1 SLOAD DUP2 JUMP JUMPDEST PUSH1 0x0 DUP1 SLOAD SWAP1 PUSH2 0x100 EXP SWAP1 DIV PUSH20 0xFFFFFFFFFFFFFFFFFFFFFFFFFFFFFFFFFFFFFFFF AND PUSH20 0xFFFFFFFFFFFFFFFFFFFFFFFFFFFFFFFFFFFFFFFF AND CALLER PUSH20 0xFFFFFFFFFFFFFFFFFFFFFFFFFFFFFFFFFFFFFFFF AND EQ PUSH2 0x233 JUMPI PUSH1 0x0 DUP1 REVERT JUMPDEST PUSH1 0x1 SLOAD DUP2 PUSH1 0x1 SLOAD PUSH2 0x244 SWAP2 SWAP1 PUSH2 0x48C JUMP JUMPDEST GT ISZERO PUSH2 0x253 JUMPI PUSH2 0x252 PUSH2 0x4C0 JUMP JUMPDEST JUMPDEST DUP1 PUSH1 0x1 PUSH1 0x0 DUP3 DUP3 SLOAD PUSH2 0x265 SWAP2 SWAP1 PUSH2 0x48C JUMP JUMPDEST SWAP3 POP POP DUP2 SWAP1 SSTORE POP DUP2 PUSH20 0xFFFFFFFFFFFFFFFFFFFFFFFFFFFFFFFFFFFFFFFF AND PUSH2 0x8FC DUP3 SWAP1 DUP2 ISZERO MUL SWAP1 PUSH1 0x40 MLOAD PUSH1 0x0 PUSH1 0x40 MLOAD DUP1 DUP4 SUB DUP2 DUP6 DUP9 DUP9 CALL SWAP4 POP POP POP POP ISZERO DUP1 ISZERO PUSH2 0x2B2 JUMPI RETURNDATASIZE PUSH1 0x0 DUP1 RETURNDATACOPY RETURNDATASIZE PUSH1 0x0 REVERT JUMPDEST POP POP POP JUMP JUMPDEST PUSH1 0x2 SLOAD DUP2 JUMP JUMPDEST PUSH1 0x0 DUP1 REVERT JUMPDEST PUSH1 0x0 DUP2 SWAP1 POP SWAP2 SWAP1 POP JUMP JUMPDEST PUSH2 0x2D5 DUP2 PUSH2 0x2C2 JUMP JUMPDEST DUP2 EQ PUSH2 0x2E0 JUMPI PUSH1 0x0 DUP1 REVERT JUMPDEST POP JUMP JUMPDEST PUSH1 0x0 DUP2 CALLDATALOAD SWAP1 POP PUSH2 0x2F2 DUP2 PUSH2 0x2CC JUMP JUMPDEST SWAP3 SWAP2 POP POP JUMP JUMPDEST PUSH1 0x0 PUSH1 0x20 DUP3 DUP5 SUB SLT ISZERO PUSH2 0x30E JUMPI PUSH2 0x30D PUSH2 0x2BD JUMP JUMPDEST JUMPDEST PUSH1 0x0 PUSH2 0x31C DUP5 DUP3 DUP6 ADD PUSH2 0x2E3 JUMP JUMPDEST SWAP2 POP POP SWAP3 SWAP2 POP POP JUMP JUMPDEST PUSH1 0x0 PUSH20 0xFFFFFFFFFFFFFFFFFFFFFFFFFFFFFFFFFFFFFFFF DUP3 AND SWAP1 POP SWAP2 SWAP1 POP JUMP JUMPDEST PUSH1 0x0 PUSH2 0x350 DUP3 PUSH2 0x325 JUMP JUMPDEST SWAP1 POP SWAP2 SWAP1 POP JUMP JUMPDEST PUSH2 0x360 DUP2 PUSH2 0x345 JUMP JUMPDEST DUP3 MSTORE POP POP JUMP JUMPDEST PUSH1 0x0 PUSH1 0x20 DUP3 ADD SWAP1 POP PUSH2 0x37B PUSH1 0x0 DUP4 ADD DUP5 PUSH2 0x357 JUMP JUMPDEST SWAP3 SWAP2 POP POP JUMP JUMPDEST PUSH2 0x38A DUP2 PUSH2 0x2C2 JUMP JUMPDEST DUP3 MSTORE POP POP JUMP JUMPDEST PUSH1 0x0 PUSH1 0x20 DUP3 ADD SWAP1 POP PUSH2 0x3A5 PUSH1 0x0 DUP4 ADD DUP5 PUSH2 0x381 JUMP JUMPDEST SWAP3 SWAP2 POP POP JUMP JUMPDEST PUSH1 0x0 PUSH2 0x3B6 DUP3 PUSH2 0x325 JUMP JUMPDEST SWAP1 POP SWAP2 SWAP1 POP JUMP JUMPDEST PUSH2 0x3C6 DUP2 PUSH2 0x3AB JUMP JUMPDEST DUP2 EQ PUSH2 0x3D1 JUMPI PUSH1 0x0 DUP1 REVERT JUMPDEST POP JUMP JUMPDEST PUSH1 0x0 DUP2 CALLDATALOAD SWAP1 POP PUSH2 0x3E3 DUP2 PUSH2 0x3BD JUMP JUMPDEST SWAP3 SWAP2 POP POP JUMP JUMPDEST PUSH1 0x0 DUP1 PUSH1 0x40 DUP4 DUP6 SUB SLT ISZERO PUSH2 0x400 JUMPI PUSH2 0x3FF PUSH2 0x2BD JUMP JUMPDEST JUMPDEST PUSH1 0x0 PUSH2 0x40E DUP6 DUP3 DUP7 ADD PUSH2 0x3D4 JUMP JUMPDEST SWAP3 POP POP PUSH1 0x20 PUSH2 0x41F DUP6 DUP3 DUP7 ADD PUSH2 0x2E3 JUMP JUMPDEST SWAP2 POP POP SWAP3 POP SWAP3 SWAP1 POP JUMP JUMPDEST PUSH32 0x4E487B7100000000000000000000000000000000000000000000000000000000 PUSH1 0x0 MSTORE PUSH1 0x11 PUSH1 0x4 MSTORE PUSH1 0x24 PUSH1 0x0 REVERT JUMPDEST PUSH1 0x0 PUSH2 0x463 DUP3 PUSH2 0x2C2 JUMP JUMPDEST SWAP2 POP PUSH2 0x46E DUP4 PUSH2 0x2C2 JUMP JUMPDEST SWAP3 POP DUP3 DUP3 ADD SWAP1 POP DUP1 DUP3 GT ISZERO PUSH2 0x486 JUMPI PUSH2 0x485 PUSH2 0x429 JUMP JUMPDEST JUMPDEST SWAP3 SWAP2 POP POP JUMP JUMPDEST PUSH1 0x0 PUSH2 0x497 DUP3 PUSH2 0x2C2 JUMP JUMPDEST SWAP2 POP PUSH2 0x4A2 DUP4 PUSH2 0x2C2 JUMP JUMPDEST SWAP3 POP DUP3 DUP3 SUB SWAP1 POP DUP2 DUP2 GT ISZERO PUSH2 0x4BA JUMPI PUSH2 0x4B9 PUSH2 0x429 JUMP JUMPDEST JUMPDEST SWAP3 SWAP2 POP POP JUMP JUMPDEST PUSH32 0x4E487B7100000000000000000000000000000000000000000000000000000000 PUSH1 0x0 MSTORE PUSH1 0x1 PUSH1 0x4 MSTORE PUSH1 0x24 PUSH1 0x0 REVERT INVALID LOG2 PUSH5 0x6970667358 0x22 SLT KECCAK256 0xBD 0xB6 EXTCODEHASH 0xC8 PUSH26 0x67A351FE4C4C058E33F9392AF85CF1CAED97AF976D4475FEEB75 PUSH17 0x64736F6C63430008100033000000000000 "
				},
				"gasEstimates": {
					"creation": {
						"codeDepositCost": "263400",
						"executionCost": "46678",
						"totalCost": "310078"
					},
					"external": {
						"allowance()": "2517",
						"depositFunds(uint256)": "infinite",
						"funds()": "2473",
						"owner()": "2533",
						"ownerWithdrawFunds(address,uint256)": "infinite",
						"withdrawFunds(uint256)": "infinite"
					}
				},
				"methodIdentifiers": {
					"allowance()": "de242ff4",
					"depositFunds(uint256)": "3b76594d",
					"funds()": "c89f2ce4",
					"owner()": "8da5cb5b",
					"ownerWithdrawFunds(address,uint256)": "dbd97d2e",
					"withdrawFunds(uint256)": "155dd5ee"
				}
			},
			"storageLayout": {
				"storage": [
					{
						"astId": 3,
						"contract": "SharedWallet.sol:SharedWallet",
						"label": "owner",
						"offset": 0,
						"slot": "0",
						"type": "t_address"
					},
					{
						"astId": 5,
						"contract": "SharedWallet.sol:SharedWallet",
						"label": "funds",
						"offset": 0,
						"slot": "1",
						"type": "t_uint256"
					},
					{
						"astId": 8,
						"contract": "SharedWallet.sol:SharedWallet",
						"label": "allowance",
						"offset": 0,
						"slot": "2",
						"type": "t_uint256"
					}
				],
				"types": {
					"t_address": {
						"encoding": "inplace",
						"label": "address",
						"numberOfBytes": "20"
					},
					"t_uint256": {
						"encoding": "inplace",
						"label": "uint256",
						"numberOfBytes": "32"
					}
				}
			},
			"userdoc": {
				"kind": "user",
				"methods": {},
				"version": 1
			}
		}
	}
}