{
	"EventExample.sol": {
		"EventExample": {
			"abi": [
				{
					"inputs": [],
					"stateMutability": "nonpayable",
					"type": "constructor"
				},
				{
					"inputs": [
						{
							"internalType": "address",
							"name": "_to",
							"type": "address"
						},
						{
							"internalType": "uint256",
							"name": "_amount",
							"type": "uint256"
						}
					],
					"name": "sendToken",
					"outputs": [
						{
							"internalType": "bool",
							"name": "",
							"type": "bool"
						}
					],
					"stateMutability": "nonpayable",
					"type": "function"
				},
				{
					"inputs": [
						{
							"internalType": "address",
							"name": "",
							"type": "address"
						}
					],
					"name": "tokenBalance",
					"outputs": [
						{
							"internalType": "uint256",
							"name": "",
							"type": "uint256"
						}
					],
					"stateMutability": "view",
					"type": "function"
				}
			],
			"devdoc": {
				"kind": "dev",
				"methods": {},
				"version": 1
			},
			"evm": {
				"assembly": "    /* \"EventExample.sol\":58:369  contract EventExample {... */\n  mstore(0x40, 0x80)\n    /* \"EventExample.sol\":142:203  constructor() {... */\n  callvalue\n  dup1\n  iszero\n  tag_1\n  jumpi\n  0x00\n  dup1\n  revert\ntag_1:\n  pop\n    /* \"EventExample.sol\":193:196  100 */\n  0x64\n    /* \"EventExample.sol\":166:178  tokenBalance */\n  0x00\n    /* \"EventExample.sol\":166:190  tokenBalance[msg.sender] */\n  dup1\n    /* \"EventExample.sol\":179:189  msg.sender */\n  caller\n    /* \"EventExample.sol\":166:190  tokenBalance[msg.sender] */\n  0xffffffffffffffffffffffffffffffffffffffff\n  and\n  0xffffffffffffffffffffffffffffffffffffffff\n  and\n  dup2\n  mstore\n  0x20\n  add\n  swap1\n  dup2\n  mstore\n  0x20\n  add\n  0x00\n  keccak256\n    /* \"EventExample.sol\":166:196  tokenBalance[msg.sender] = 100 */\n  dup2\n  swap1\n  sstore\n  pop\n    /* \"EventExample.sol\":58:369  contract EventExample {... */\n  dataSize(sub_0)\n  dup1\n  dataOffset(sub_0)\n  0x00\n  codecopy\n  0x00\n  return\nstop\n\nsub_0: assembly {\n        /* \"EventExample.sol\":58:369  contract EventExample {... */\n      mstore(0x40, 0x80)\n      callvalue\n      dup1\n      iszero\n      tag_1\n      jumpi\n      0x00\n      dup1\n      revert\n    tag_1:\n      pop\n      jumpi(tag_2, lt(calldatasize, 0x04))\n      shr(0xe0, calldataload(0x00))\n      dup1\n      0x412664ae\n      eq\n      tag_3\n      jumpi\n      dup1\n      0xeedc966a\n      eq\n      tag_4\n      jumpi\n    tag_2:\n      0x00\n      dup1\n      revert\n        /* \"EventExample.sol\":209:367  function sendToken(address _to, uint _amount) public returns(bool) {... */\n    tag_3:\n      tag_5\n      0x04\n      dup1\n      calldatasize\n      sub\n      dup2\n      add\n      swap1\n      tag_6\n      swap2\n      swap1\n      tag_7\n      jump\t// in\n    tag_6:\n      tag_8\n      jump\t// in\n    tag_5:\n      mload(0x40)\n      tag_9\n      swap2\n      swap1\n      tag_10\n      jump\t// in\n    tag_9:\n      mload(0x40)\n      dup1\n      swap2\n      sub\n      swap1\n      return\n        /* \"EventExample.sol\":91:135  mapping(address => uint) public tokenBalance */\n    tag_4:\n      tag_11\n      0x04\n      dup1\n      calldatasize\n      sub\n      dup2\n      add\n      swap1\n      tag_12\n      swap2\n      swap1\n      tag_13\n      jump\t// in\n    tag_12:\n      tag_14\n      jump\t// in\n    tag_11:\n      mload(0x40)\n      tag_15\n      swap2\n      swap1\n      tag_16\n      jump\t// in\n    tag_15:\n      mload(0x40)\n      dup1\n      swap2\n      sub\n      swap1\n      return\n        /* \"EventExample.sol\":209:367  function sendToken(address _to, uint _amount) public returns(bool) {... */\n    tag_8:\n        /* \"EventExample.sol\":270:274  bool */\n      0x00\n        /* \"EventExample.sol\":322:329  _amount */\n      dup2\n        /* \"EventExample.sol\":294:306  tokenBalance */\n      0x00\n        /* \"EventExample.sol\":294:318  tokenBalance[msg.sender] */\n      dup1\n        /* \"EventExample.sol\":307:317  msg.sender */\n      caller\n        /* \"EventExample.sol\":294:318  tokenBalance[msg.sender] */\n      0xffffffffffffffffffffffffffffffffffffffff\n      and\n      0xffffffffffffffffffffffffffffffffffffffff\n      and\n      dup2\n      mstore\n      0x20\n      add\n      swap1\n      dup2\n      mstore\n      0x20\n      add\n      0x00\n      keccak256\n      sload\n        /* \"EventExample.sol\":294:329  tokenBalance[msg.sender] >= _amount */\n      lt\n      iszero\n        /* \"EventExample.sol\":286:351  require(tokenBalance[msg.sender] >= _amount, \"Not enough tokens\") */\n      tag_18\n      jumpi\n      mload(0x40)\n      0x08c379a000000000000000000000000000000000000000000000000000000000\n      dup2\n      mstore\n      0x04\n      add\n      tag_19\n      swap1\n      tag_20\n      jump\t// in\n    tag_19:\n      mload(0x40)\n      dup1\n      swap2\n      sub\n      swap1\n      revert\n    tag_18:\n        /* \"EventExample.sol\":209:367  function sendToken(address _to, uint _amount) public returns(bool) {... */\n      swap3\n      swap2\n      pop\n      pop\n      jump\t// out\n        /* \"EventExample.sol\":91:135  mapping(address => uint) public tokenBalance */\n    tag_14:\n      mstore(0x20, 0x00)\n      dup1\n      0x00\n      mstore\n      keccak256(0x00, 0x40)\n      0x00\n      swap2\n      pop\n      swap1\n      pop\n      sload\n      dup2\n      jump\t// out\n        /* \"#utility.yul\":7:146   */\n    tag_22:\n      0x00\n        /* \"#utility.yul\":91:97   */\n      dup2\n        /* \"#utility.yul\":78:98   */\n      calldataload\n        /* \"#utility.yul\":69:98   */\n      swap1\n      pop\n        /* \"#utility.yul\":107:140   */\n      tag_24\n        /* \"#utility.yul\":134:139   */\n      dup2\n        /* \"#utility.yul\":107:140   */\n      tag_25\n      jump\t// in\n    tag_24:\n        /* \"#utility.yul\":59:146   */\n      swap3\n      swap2\n      pop\n      pop\n      jump\t// out\n        /* \"#utility.yul\":152:291   */\n    tag_26:\n      0x00\n        /* \"#utility.yul\":236:242   */\n      dup2\n        /* \"#utility.yul\":223:243   */\n      calldataload\n        /* \"#utility.yul\":214:243   */\n      swap1\n      pop\n        /* \"#utility.yul\":252:285   */\n      tag_28\n        /* \"#utility.yul\":279:284   */\n      dup2\n        /* \"#utility.yul\":252:285   */\n      tag_29\n      jump\t// in\n    tag_28:\n        /* \"#utility.yul\":204:291   */\n      swap3\n      swap2\n      pop\n      pop\n      jump\t// out\n        /* \"#utility.yul\":297:559   */\n    tag_13:\n      0x00\n        /* \"#utility.yul\":405:407   */\n      0x20\n        /* \"#utility.yul\":393:402   */\n      dup3\n        /* \"#utility.yul\":384:391   */\n      dup5\n        /* \"#utility.yul\":380:403   */\n      sub\n        /* \"#utility.yul\":376:408   */\n      slt\n        /* \"#utility.yul\":373:375   */\n      iszero\n      tag_31\n      jumpi\n        /* \"#utility.yul\":421:422   */\n      0x00\n        /* \"#utility.yul\":418:419   */\n      dup1\n        /* \"#utility.yul\":411:423   */\n      revert\n        /* \"#utility.yul\":373:375   */\n    tag_31:\n        /* \"#utility.yul\":464:465   */\n      0x00\n        /* \"#utility.yul\":489:542   */\n      tag_32\n        /* \"#utility.yul\":534:541   */\n      dup5\n        /* \"#utility.yul\":525:531   */\n      dup3\n        /* \"#utility.yul\":514:523   */\n      dup6\n        /* \"#utility.yul\":510:532   */\n      add\n        /* \"#utility.yul\":489:542   */\n      tag_22\n      jump\t// in\n    tag_32:\n        /* \"#utility.yul\":479:542   */\n      swap2\n      pop\n        /* \"#utility.yul\":435:552   */\n      pop\n        /* \"#utility.yul\":363:559   */\n      swap3\n      swap2\n      pop\n      pop\n      jump\t// out\n        /* \"#utility.yul\":565:972   */\n    tag_7:\n      0x00\n      dup1\n        /* \"#utility.yul\":690:692   */\n      0x40\n        /* \"#utility.yul\":678:687   */\n      dup4\n        /* \"#utility.yul\":669:676   */\n      dup6\n        /* \"#utility.yul\":665:688   */\n      sub\n        /* \"#utility.yul\":661:693   */\n      slt\n        /* \"#utility.yul\":658:660   */\n      iszero\n      tag_34\n      jumpi\n        /* \"#utility.yul\":706:707   */\n      0x00\n        /* \"#utility.yul\":703:704   */\n      dup1\n        /* \"#utility.yul\":696:708   */\n      revert\n        /* \"#utility.yul\":658:660   */\n    tag_34:\n        /* \"#utility.yul\":749:750   */\n      0x00\n        /* \"#utility.yul\":774:827   */\n      tag_35\n        /* \"#utility.yul\":819:826   */\n      dup6\n        /* \"#utility.yul\":810:816   */\n      dup3\n        /* \"#utility.yul\":799:808   */\n      dup7\n        /* \"#utility.yul\":795:817   */\n      add\n        /* \"#utility.yul\":774:827   */\n      tag_22\n      jump\t// in\n    tag_35:\n        /* \"#utility.yul\":764:827   */\n      swap3\n      pop\n        /* \"#utility.yul\":720:837   */\n      pop\n        /* \"#utility.yul\":876:878   */\n      0x20\n        /* \"#utility.yul\":902:955   */\n      tag_36\n        /* \"#utility.yul\":947:954   */\n      dup6\n        /* \"#utility.yul\":938:944   */\n      dup3\n        /* \"#utility.yul\":927:936   */\n      dup7\n        /* \"#utility.yul\":923:945   */\n      add\n        /* \"#utility.yul\":902:955   */\n      tag_26\n      jump\t// in\n    tag_36:\n        /* \"#utility.yul\":892:955   */\n      swap2\n      pop\n        /* \"#utility.yul\":847:965   */\n      pop\n        /* \"#utility.yul\":648:972   */\n      swap3\n      pop\n      swap3\n      swap1\n      pop\n      jump\t// out\n        /* \"#utility.yul\":978:1087   */\n    tag_37:\n        /* \"#utility.yul\":1059:1080   */\n      tag_39\n        /* \"#utility.yul\":1074:1079   */\n      dup2\n        /* \"#utility.yul\":1059:1080   */\n      tag_40\n      jump\t// in\n    tag_39:\n        /* \"#utility.yul\":1054:1057   */\n      dup3\n        /* \"#utility.yul\":1047:1081   */\n      mstore\n        /* \"#utility.yul\":1037:1087   */\n      pop\n      pop\n      jump\t// out\n        /* \"#utility.yul\":1093:1459   */\n    tag_41:\n      0x00\n        /* \"#utility.yul\":1256:1323   */\n      tag_43\n        /* \"#utility.yul\":1320:1322   */\n      0x11\n        /* \"#utility.yul\":1315:1318   */\n      dup4\n        /* \"#utility.yul\":1256:1323   */\n      tag_44\n      jump\t// in\n    tag_43:\n        /* \"#utility.yul\":1249:1323   */\n      swap2\n      pop\n        /* \"#utility.yul\":1332:1425   */\n      tag_45\n        /* \"#utility.yul\":1421:1424   */\n      dup3\n        /* \"#utility.yul\":1332:1425   */\n      tag_46\n      jump\t// in\n    tag_45:\n        /* \"#utility.yul\":1450:1452   */\n      0x20\n        /* \"#utility.yul\":1445:1448   */\n      dup3\n        /* \"#utility.yul\":1441:1453   */\n      add\n        /* \"#utility.yul\":1434:1453   */\n      swap1\n      pop\n        /* \"#utility.yul\":1239:1459   */\n      swap2\n      swap1\n      pop\n      jump\t// out\n        /* \"#utility.yul\":1465:1583   */\n    tag_47:\n        /* \"#utility.yul\":1552:1576   */\n      tag_49\n        /* \"#utility.yul\":1570:1575   */\n      dup2\n        /* \"#utility.yul\":1552:1576   */\n      tag_50\n      jump\t// in\n    tag_49:\n        /* \"#utility.yul\":1547:1550   */\n      dup3\n        /* \"#utility.yul\":1540:1577   */\n      mstore\n        /* \"#utility.yul\":1530:1583   */\n      pop\n      pop\n      jump\t// out\n        /* \"#utility.yul\":1589:1799   */\n    tag_10:\n      0x00\n        /* \"#utility.yul\":1714:1716   */\n      0x20\n        /* \"#utility.yul\":1703:1712   */\n      dup3\n        /* \"#utility.yul\":1699:1717   */\n      add\n        /* \"#utility.yul\":1691:1717   */\n      swap1\n      pop\n        /* \"#utility.yul\":1727:1792   */\n      tag_52\n        /* \"#utility.yul\":1789:1790   */\n      0x00\n        /* \"#utility.yul\":1778:1787   */\n      dup4\n        /* \"#utility.yul\":1774:1791   */\n      add\n        /* \"#utility.yul\":1765:1771   */\n      dup5\n        /* \"#utility.yul\":1727:1792   */\n      tag_37\n      jump\t// in\n    tag_52:\n        /* \"#utility.yul\":1681:1799   */\n      swap3\n      swap2\n      pop\n      pop\n      jump\t// out\n        /* \"#utility.yul\":1805:2224   */\n    tag_20:\n      0x00\n        /* \"#utility.yul\":2009:2011   */\n      0x20\n        /* \"#utility.yul\":1998:2007   */\n      dup3\n        /* \"#utility.yul\":1994:2012   */\n      add\n        /* \"#utility.yul\":1986:2012   */\n      swap1\n      pop\n        /* \"#utility.yul\":2058:2067   */\n      dup2\n        /* \"#utility.yul\":2052:2056   */\n      dup2\n        /* \"#utility.yul\":2048:2068   */\n      sub\n        /* \"#utility.yul\":2044:2045   */\n      0x00\n        /* \"#utility.yul\":2033:2042   */\n      dup4\n        /* \"#utility.yul\":2029:2046   */\n      add\n        /* \"#utility.yul\":2022:2069   */\n      mstore\n        /* \"#utility.yul\":2086:2217   */\n      tag_54\n        /* \"#utility.yul\":2212:2216   */\n      dup2\n        /* \"#utility.yul\":2086:2217   */\n      tag_41\n      jump\t// in\n    tag_54:\n        /* \"#utility.yul\":2078:2217   */\n      swap1\n      pop\n        /* \"#utility.yul\":1976:2224   */\n      swap2\n      swap1\n      pop\n      jump\t// out\n        /* \"#utility.yul\":2230:2452   */\n    tag_16:\n      0x00\n        /* \"#utility.yul\":2361:2363   */\n      0x20\n        /* \"#utility.yul\":2350:2359   */\n      dup3\n        /* \"#utility.yul\":2346:2364   */\n      add\n        /* \"#utility.yul\":2338:2364   */\n      swap1\n      pop\n        /* \"#utility.yul\":2374:2445   */\n      tag_56\n        /* \"#utility.yul\":2442:2443   */\n      0x00\n        /* \"#utility.yul\":2431:2440   */\n      dup4\n        /* \"#utility.yul\":2427:2444   */\n      add\n        /* \"#utility.yul\":2418:2424   */\n      dup5\n        /* \"#utility.yul\":2374:2445   */\n      tag_47\n      jump\t// in\n    tag_56:\n        /* \"#utility.yul\":2328:2452   */\n      swap3\n      swap2\n      pop\n      pop\n      jump\t// out\n        /* \"#utility.yul\":2458:2627   */\n    tag_44:\n      0x00\n        /* \"#utility.yul\":2576:2582   */\n      dup3\n        /* \"#utility.yul\":2571:2574   */\n      dup3\n        /* \"#utility.yul\":2564:2583   */\n      mstore\n        /* \"#utility.yul\":2616:2620   */\n      0x20\n        /* \"#utility.yul\":2611:2614   */\n      dup3\n        /* \"#utility.yul\":2607:2621   */\n      add\n        /* \"#utility.yul\":2592:2621   */\n      swap1\n      pop\n        /* \"#utility.yul\":2554:2627   */\n      swap3\n      swap2\n      pop\n      pop\n      jump\t// out\n        /* \"#utility.yul\":2633:2729   */\n    tag_58:\n      0x00\n        /* \"#utility.yul\":2699:2723   */\n      tag_60\n        /* \"#utility.yul\":2717:2722   */\n      dup3\n        /* \"#utility.yul\":2699:2723   */\n      tag_61\n      jump\t// in\n    tag_60:\n        /* \"#utility.yul\":2688:2723   */\n      swap1\n      pop\n        /* \"#utility.yul\":2678:2729   */\n      swap2\n      swap1\n      pop\n      jump\t// out\n        /* \"#utility.yul\":2735:2825   */\n    tag_40:\n      0x00\n        /* \"#utility.yul\":2812:2817   */\n      dup2\n        /* \"#utility.yul\":2805:2818   */\n      iszero\n        /* \"#utility.yul\":2798:2819   */\n      iszero\n        /* \"#utility.yul\":2787:2819   */\n      swap1\n      pop\n        /* \"#utility.yul\":2777:2825   */\n      swap2\n      swap1\n      pop\n      jump\t// out\n        /* \"#utility.yul\":2831:2957   */\n    tag_61:\n      0x00\n        /* \"#utility.yul\":2908:2950   */\n      0xffffffffffffffffffffffffffffffffffffffff\n        /* \"#utility.yul\":2901:2906   */\n      dup3\n        /* \"#utility.yul\":2897:2951   */\n      and\n        /* \"#utility.yul\":2886:2951   */\n      swap1\n      pop\n        /* \"#utility.yul\":2876:2957   */\n      swap2\n      swap1\n      pop\n      jump\t// out\n        /* \"#utility.yul\":2963:3040   */\n    tag_50:\n      0x00\n        /* \"#utility.yul\":3029:3034   */\n      dup2\n        /* \"#utility.yul\":3018:3034   */\n      swap1\n      pop\n        /* \"#utility.yul\":3008:3040   */\n      swap2\n      swap1\n      pop\n      jump\t// out\n        /* \"#utility.yul\":3046:3213   */\n    tag_46:\n        /* \"#utility.yul\":3186:3205   */\n      0x4e6f7420656e6f75676820746f6b656e73000000000000000000000000000000\n        /* \"#utility.yul\":3182:3183   */\n      0x00\n        /* \"#utility.yul\":3174:3180   */\n      dup3\n        /* \"#utility.yul\":3170:3184   */\n      add\n        /* \"#utility.yul\":3163:3206   */\n      mstore\n        /* \"#utility.yul\":3152:3213   */\n      pop\n      jump\t// out\n        /* \"#utility.yul\":3219:3341   */\n    tag_25:\n        /* \"#utility.yul\":3292:3316   */\n      tag_67\n        /* \"#utility.yul\":3310:3315   */\n      dup2\n        /* \"#utility.yul\":3292:3316   */\n      tag_58\n      jump\t// in\n    tag_67:\n        /* \"#utility.yul\":3285:3290   */\n      dup2\n        /* \"#utility.yul\":3282:3317   */\n      eq\n        /* \"#utility.yul\":3272:3274   */\n      tag_68\n      jumpi\n        /* \"#utility.yul\":3331:3332   */\n      0x00\n        /* \"#utility.yul\":3328:3329   */\n      dup1\n        /* \"#utility.yul\":3321:3333   */\n      revert\n        /* \"#utility.yul\":3272:3274   */\n    tag_68:\n        /* \"#utility.yul\":3262:3341   */\n      pop\n      jump\t// out\n        /* \"#utility.yul\":3347:3469   */\n    tag_29:\n        /* \"#utility.yul\":3420:3444   */\n      tag_70\n        /* \"#utility.yul\":3438:3443   */\n      dup2\n        /* \"#utility.yul\":3420:3444   */\n      tag_50\n      jump\t// in\n    tag_70:\n        /* \"#utility.yul\":3413:3418   */\n      dup2\n        /* \"#utility.yul\":3410:3445   */\n      eq\n        /* \"#utility.yul\":3400:3402   */\n      tag_71\n      jumpi\n        /* \"#utility.yul\":3459:3460   */\n      0x00\n        /* \"#utility.yul\":3456:3457   */\n      dup1\n        /* \"#utility.yul\":3449:3461   */\n      revert\n        /* \"#utility.yul\":3400:3402   */\n    tag_71:\n        /* \"#utility.yul\":3390:3469   */\n      pop\n      jump\t// out\n\n    auxdata: 0xa26469706673582212206ae383148b0d2561e67c2df3fe672c21eb985c4191900a09d5aa6d4c532653b264736f6c63430008030033\n}\n",
				"bytecode": {
					"linkReferences": {},
					"object": "608060405234801561001057600080fd5b5060646000803373ffffffffffffffffffffffffffffffffffffffff1673ffffffffffffffffffffffffffffffffffffffff16815260200190815260200160002081905550610348806100646000396000f3fe608060405234801561001057600080fd5b50600436106100365760003560e01c8063412664ae1461003b578063eedc966a1461006b575b600080fd5b6100556004803603810190610050919061018f565b61009b565b604051610062919061020c565b60405180910390f35b61008560048036038101906100809190610166565b610124565b6040516100929190610247565b60405180910390f35b6000816000803373ffffffffffffffffffffffffffffffffffffffff1673ffffffffffffffffffffffffffffffffffffffff16815260200190815260200160002054101561011e576040517f08c379a000000000000000000000000000000000000000000000000000000000815260040161011590610227565b60405180910390fd5b92915050565b60006020528060005260406000206000915090505481565b60008135905061014b816102e4565b92915050565b600081359050610160816102fb565b92915050565b60006020828403121561017857600080fd5b60006101868482850161013c565b91505092915050565b600080604083850312156101a257600080fd5b60006101b08582860161013c565b92505060206101c185828601610151565b9150509250929050565b6101d481610285565b82525050565b60006101e7601183610262565b91506101f2826102bb565b602082019050919050565b610206816102b1565b82525050565b600060208201905061022160008301846101cb565b92915050565b60006020820190508181036000830152610240816101da565b9050919050565b600060208201905061025c60008301846101fd565b92915050565b600082825260208201905092915050565b600061027e82610291565b9050919050565b60008115159050919050565b600073ffffffffffffffffffffffffffffffffffffffff82169050919050565b6000819050919050565b7f4e6f7420656e6f75676820746f6b656e73000000000000000000000000000000600082015250565b6102ed81610273565b81146102f857600080fd5b50565b610304816102b1565b811461030f57600080fd5b5056fea26469706673582212206ae383148b0d2561e67c2df3fe672c21eb985c4191900a09d5aa6d4c532653b264736f6c63430008030033",
					"opcodes": "PUSH1 0x80 PUSH1 0x40 MSTORE CALLVALUE DUP1 ISZERO PUSH2 0x10 JUMPI PUSH1 0x0 DUP1 REVERT JUMPDEST POP PUSH1 0x64 PUSH1 0x0 DUP1 CALLER PUSH20 0xFFFFFFFFFFFFFFFFFFFFFFFFFFFFFFFFFFFFFFFF AND PUSH20 0xFFFFFFFFFFFFFFFFFFFFFFFFFFFFFFFFFFFFFFFF AND DUP2 MSTORE PUSH1 0x20 ADD SWAP1 DUP2 MSTORE PUSH1 0x20 ADD PUSH1 0x0 KECCAK256 DUP2 SWAP1 SSTORE POP PUSH2 0x348 DUP1 PUSH2 0x64 PUSH1 0x0 CODECOPY PUSH1 0x0 RETURN INVALID PUSH1 0x80 PUSH1 0x40 MSTORE CALLVALUE DUP1 ISZERO PUSH2 0x10 JUMPI PUSH1 0x0 DUP1 REVERT JUMPDEST POP PUSH1 0x4 CALLDATASIZE LT PUSH2 0x36 JUMPI PUSH1 0x0 CALLDATALOAD PUSH1 0xE0 SHR DUP1 PUSH4 0x412664AE EQ PUSH2 0x3B JUMPI DUP1 PUSH4 0xEEDC966A EQ PUSH2 0x6B JUMPI JUMPDEST PUSH1 0x0 DUP1 REVERT JUMPDEST PUSH2 0x55 PUSH1 0x4 DUP1 CALLDATASIZE SUB DUP2 ADD SWAP1 PUSH2 0x50 SWAP2 SWAP1 PUSH2 0x18F JUMP JUMPDEST PUSH2 0x9B JUMP JUMPDEST PUSH1 0x40 MLOAD PUSH2 0x62 SWAP2 SWAP1 PUSH2 0x20C JUMP JUMPDEST PUSH1 0x40 MLOAD DUP1 SWAP2 SUB SWAP1 RETURN JUMPDEST PUSH2 0x85 PUSH1 0x4 DUP1 CALLDATASIZE SUB DUP2 ADD SWAP1 PUSH2 0x80 SWAP2 SWAP1 PUSH2 0x166 JUMP JUMPDEST PUSH2 0x124 JUMP JUMPDEST PUSH1 0x40 MLOAD PUSH2 0x92 SWAP2 SWAP1 PUSH2 0x247 JUMP JUMPDEST PUSH1 0x40 MLOAD DUP1 SWAP2 SUB SWAP1 RETURN JUMPDEST PUSH1 0x0 DUP2 PUSH1 0x0 DUP1 CALLER PUSH20 0xFFFFFFFFFFFFFFFFFFFFFFFFFFFFFFFFFFFFFFFF AND PUSH20 0xFFFFFFFFFFFFFFFFFFFFFFFFFFFFFFFFFFFFFFFF AND DUP2 MSTORE PUSH1 0x20 ADD SWAP1 DUP2 MSTORE PUSH1 0x20 ADD PUSH1 0x0 KECCAK256 SLOAD LT ISZERO PUSH2 0x11E JUMPI PUSH1 0x40 MLOAD PUSH32 0x8C379A000000000000000000000000000000000000000000000000000000000 DUP2 MSTORE PUSH1 0x4 ADD PUSH2 0x115 SWAP1 PUSH2 0x227 JUMP JUMPDEST PUSH1 0x40 MLOAD DUP1 SWAP2 SUB SWAP1 REVERT JUMPDEST SWAP3 SWAP2 POP POP JUMP JUMPDEST PUSH1 0x0 PUSH1 0x20 MSTORE DUP1 PUSH1 0x0 MSTORE PUSH1 0x40 PUSH1 0x0 KECCAK256 PUSH1 0x0 SWAP2 POP SWAP1 POP SLOAD DUP2 JUMP JUMPDEST PUSH1 0x0 DUP2 CALLDATALOAD SWAP1 POP PUSH2 0x14B DUP2 PUSH2 0x2E4 JUMP JUMPDEST SWAP3 SWAP2 POP POP JUMP JUMPDEST PUSH1 0x0 DUP2 CALLDATALOAD SWAP1 POP PUSH2 0x160 DUP2 PUSH2 0x2FB JUMP JUMPDEST SWAP3 SWAP2 POP POP JUMP JUMPDEST PUSH1 0x0 PUSH1 0x20 DUP3 DUP5 SUB SLT ISZERO PUSH2 0x178 JUMPI PUSH1 0x0 DUP1 REVERT JUMPDEST PUSH1 0x0 PUSH2 0x186 DUP5 DUP3 DUP6 ADD PUSH2 0x13C JUMP JUMPDEST SWAP2 POP POP SWAP3 SWAP2 POP POP JUMP JUMPDEST PUSH1 0x0 DUP1 PUSH1 0x40 DUP4 DUP6 SUB SLT ISZERO PUSH2 0x1A2 JUMPI PUSH1 0x0 DUP1 REVERT JUMPDEST PUSH1 0x0 PUSH2 0x1B0 DUP6 DUP3 DUP7 ADD PUSH2 0x13C JUMP JUMPDEST SWAP3 POP POP PUSH1 0x20 PUSH2 0x1C1 DUP6 DUP3 DUP7 ADD PUSH2 0x151 JUMP JUMPDEST SWAP2 POP POP SWAP3 POP SWAP3 SWAP1 POP JUMP JUMPDEST PUSH2 0x1D4 DUP2 PUSH2 0x285 JUMP JUMPDEST DUP3 MSTORE POP POP JUMP JUMPDEST PUSH1 0x0 PUSH2 0x1E7 PUSH1 0x11 DUP4 PUSH2 0x262 JUMP JUMPDEST SWAP2 POP PUSH2 0x1F2 DUP3 PUSH2 0x2BB JUMP JUMPDEST PUSH1 0x20 DUP3 ADD SWAP1 POP SWAP2 SWAP1 POP JUMP JUMPDEST PUSH2 0x206 DUP2 PUSH2 0x2B1 JUMP JUMPDEST DUP3 MSTORE POP POP JUMP JUMPDEST PUSH1 0x0 PUSH1 0x20 DUP3 ADD SWAP1 POP PUSH2 0x221 PUSH1 0x0 DUP4 ADD DUP5 PUSH2 0x1CB JUMP JUMPDEST SWAP3 SWAP2 POP POP JUMP JUMPDEST PUSH1 0x0 PUSH1 0x20 DUP3 ADD SWAP1 POP DUP2 DUP2 SUB PUSH1 0x0 DUP4 ADD MSTORE PUSH2 0x240 DUP2 PUSH2 0x1DA JUMP JUMPDEST SWAP1 POP SWAP2 SWAP1 POP JUMP JUMPDEST PUSH1 0x0 PUSH1 0x20 DUP3 ADD SWAP1 POP PUSH2 0x25C PUSH1 0x0 DUP4 ADD DUP5 PUSH2 0x1FD JUMP JUMPDEST SWAP3 SWAP2 POP POP JUMP JUMPDEST PUSH1 0x0 DUP3 DUP3 MSTORE PUSH1 0x20 DUP3 ADD SWAP1 POP SWAP3 SWAP2 POP POP JUMP JUMPDEST PUSH1 0x0 PUSH2 0x27E DUP3 PUSH2 0x291 JUMP JUMPDEST SWAP1 POP SWAP2 SWAP1 POP JUMP JUMPDEST PUSH1 0x0 DUP2 ISZERO ISZERO SWAP1 POP SWAP2 SWAP1 POP JUMP JUMPDEST PUSH1 0x0 PUSH20 0xFFFFFFFFFFFFFFFFFFFFFFFFFFFFFFFFFFFFFFFF DUP3 AND SWAP1 POP SWAP2 SWAP1 POP JUMP JUMPDEST PUSH1 0x0 DUP2 SWAP1 POP SWAP2 SWAP1 POP JUMP JUMPDEST PUSH32 0x4E6F7420656E6F75676820746F6B656E73000000000000000000000000000000 PUSH1 0x0 DUP3 ADD MSTORE POP JUMP JUMPDEST PUSH2 0x2ED DUP2 PUSH2 0x273 JUMP JUMPDEST DUP2 EQ PUSH2 0x2F8 JUMPI PUSH1 0x0 DUP1 REVERT JUMPDEST POP JUMP JUMPDEST PUSH2 0x304 DUP2 PUSH2 0x2B1 JUMP JUMPDEST DUP2 EQ PUSH2 0x30F JUMPI PUSH1 0x0 DUP1 REVERT JUMPDEST POP JUMP INVALID LOG2 PUSH5 0x6970667358 0x22 SLT KECCAK256 PUSH11 0xE383148B0D2561E67C2DF3 INVALID PUSH8 0x2C21EB985C419190 EXP MULMOD 0xD5 0xAA PUSH14 0x4C532653B264736F6C6343000803 STOP CALLER "
				},
				"gasEstimates": {
					"creation": {
						"codeDepositCost": "168000",
						"executionCost": "20317",
						"totalCost": "188317"
					},
					"external": {
						"sendToken(address,uint256)": "1809",
						"tokenBalance(address)": "1514"
					}
				},
				"methodIdentifiers": {
					"sendToken(address,uint256)": "412664ae",
					"tokenBalance(address)": "eedc966a"
				}
			},
			"storageLayout": {
				"storage": [
					{
						"astId": 5,
						"contract": "EventExample.sol:EventExample",
						"label": "tokenBalance",
						"offset": 0,
						"slot": "0",
						"type": "t_mapping(t_address,t_uint256)"
					}
				],
				"types": {
					"t_address": {
						"encoding": "inplace",
						"label": "address",
						"numberOfBytes": "20"
					},
					"t_mapping(t_address,t_uint256)": {
						"encoding": "mapping",
						"key": "t_address",
						"label": "mapping(address => uint256)",
						"numberOfBytes": "32",
						"value": "t_uint256"
					},
					"t_uint256": {
						"encoding": "inplace",
						"label": "uint256",
						"numberOfBytes": "32"
					}
				}
			},
			"userdoc": {
				"kind": "user",
				"methods": {},
				"version": 1
			}
		}
	}
}