{
	"FunctionExample.sol": {
		"FunctionsExample": {
			"abi": [
				{
					"inputs": [],
					"stateMutability": "nonpayable",
					"type": "constructor"
				},
				{
					"inputs": [
						{
							"internalType": "address",
							"name": "",
							"type": "address"
						}
					],
					"name": "balanceReceived",
					"outputs": [
						{
							"internalType": "uint64",
							"name": "",
							"type": "uint64"
						}
					],
					"stateMutability": "view",
					"type": "function"
				},
				{
					"inputs": [],
					"name": "destroySmartContr4act",
					"outputs": [],
					"stateMutability": "nonpayable",
					"type": "function"
				},
				{
					"inputs": [],
					"name": "getOwner",
					"outputs": [
						{
							"internalType": "address",
							"name": "",
							"type": "address"
						}
					],
					"stateMutability": "view",
					"type": "function"
				},
				{
					"inputs": [],
					"name": "receiveMoney",
					"outputs": [],
					"stateMutability": "payable",
					"type": "function"
				},
				{
					"inputs": [
						{
							"internalType": "address payable",
							"name": "_to",
							"type": "address"
						},
						{
							"internalType": "uint64",
							"name": "_amount",
							"type": "uint64"
						}
					],
					"name": "withdrawMoney",
					"outputs": [],
					"stateMutability": "nonpayable",
					"type": "function"
				}
			],
			"devdoc": {
				"kind": "dev",
				"methods": {},
				"version": 1
			},
			"evm": {
				"assembly": "    /* \"FunctionExample.sol\":58:1064  contract FunctionsExample {... */\n  mstore(0x40, 0x80)\n    /* \"FunctionExample.sol\":174:232  constructor() {... */\n  callvalue\n  dup1\n  iszero\n  tag_1\n  jumpi\n  0x00\n  dup1\n  revert\ntag_1:\n  pop\n    /* \"FunctionExample.sol\":214:224  msg.sender */\n  caller\n    /* \"FunctionExample.sol\":198:203  owner */\n  0x01\n  0x00\n    /* \"FunctionExample.sol\":198:225  owner = payable(msg.sender) */\n  0x0100\n  exp\n  dup2\n  sload\n  dup2\n  0xffffffffffffffffffffffffffffffffffffffff\n  mul\n  not\n  and\n  swap1\n  dup4\n  0xffffffffffffffffffffffffffffffffffffffff\n  and\n  mul\n  or\n  swap1\n  sstore\n  pop\n    /* \"FunctionExample.sol\":58:1064  contract FunctionsExample {... */\n  dataSize(sub_0)\n  dup1\n  dataOffset(sub_0)\n  0x00\n  codecopy\n  0x00\n  return\nstop\n\nsub_0: assembly {\n        /* \"FunctionExample.sol\":58:1064  contract FunctionsExample {... */\n      mstore(0x40, 0x80)\n      jumpi(tag_1, lt(calldatasize, 0x04))\n      shr(0xe0, calldataload(0x00))\n      dup1\n      0x0ad19aeb\n      eq\n      tag_2\n      jumpi\n      dup1\n      0x6d26ec18\n      eq\n      tag_3\n      jumpi\n      dup1\n      0x893d20e8\n      eq\n      tag_4\n      jumpi\n      dup1\n      0xd18a42e1\n      eq\n      tag_5\n      jumpi\n      dup1\n      0xeef5da9c\n      eq\n      tag_6\n      jumpi\n    tag_1:\n      0x00\n      dup1\n      revert\n        /* \"FunctionExample.sol\":683:987  function withdrawMoney(address payable _to, uint64 _amount) public {... */\n    tag_2:\n      callvalue\n      dup1\n      iszero\n      tag_7\n      jumpi\n      0x00\n      dup1\n      revert\n    tag_7:\n      pop\n      tag_8\n      0x04\n      dup1\n      calldatasize\n      sub\n      dup2\n      add\n      swap1\n      tag_9\n      swap2\n      swap1\n      tag_10\n      jump\t// in\n    tag_9:\n      tag_11\n      jump\t// in\n    tag_8:\n      stop\n        /* \"FunctionExample.sol\":467:677  function receiveMoney() public payable {... */\n    tag_3:\n      tag_12\n      tag_13\n      jump\t// in\n    tag_12:\n      stop\n        /* \"FunctionExample.sol\":238:316  function getOwner() public view returns(address) {... */\n    tag_4:\n      callvalue\n      dup1\n      iszero\n      tag_14\n      jumpi\n      0x00\n      dup1\n      revert\n    tag_14:\n      pop\n      tag_15\n      tag_16\n      jump\t// in\n    tag_15:\n      mload(0x40)\n      tag_17\n      swap2\n      swap1\n      tag_18\n      jump\t// in\n    tag_17:\n      mload(0x40)\n      dup1\n      swap2\n      sub\n      swap1\n      return\n        /* \"FunctionExample.sol\":90:139  mapping(address => uint64) public balanceReceived */\n    tag_5:\n      callvalue\n      dup1\n      iszero\n      tag_19\n      jumpi\n      0x00\n      dup1\n      revert\n    tag_19:\n      pop\n      tag_20\n      0x04\n      dup1\n      calldatasize\n      sub\n      dup2\n      add\n      swap1\n      tag_21\n      swap2\n      swap1\n      tag_22\n      jump\t// in\n    tag_21:\n      tag_23\n      jump\t// in\n    tag_20:\n      mload(0x40)\n      tag_24\n      swap2\n      swap1\n      tag_25\n      jump\t// in\n    tag_24:\n      mload(0x40)\n      dup1\n      swap2\n      sub\n      swap1\n      return\n        /* \"FunctionExample.sol\":322:461  function destroySmartContr4act() public {... */\n    tag_6:\n      callvalue\n      dup1\n      iszero\n      tag_26\n      jumpi\n      0x00\n      dup1\n      revert\n    tag_26:\n      pop\n      tag_27\n      tag_28\n      jump\t// in\n    tag_27:\n      stop\n        /* \"FunctionExample.sol\":683:987  function withdrawMoney(address payable _to, uint64 _amount) public {... */\n    tag_11:\n        /* \"FunctionExample.sol\":779:794  balanceReceived */\n      0x00\n        /* \"FunctionExample.sol\":779:806  balanceReceived[msg.sender] */\n      dup1\n        /* \"FunctionExample.sol\":795:805  msg.sender */\n      caller\n        /* \"FunctionExample.sol\":779:806  balanceReceived[msg.sender] */\n      0xffffffffffffffffffffffffffffffffffffffff\n      and\n      0xffffffffffffffffffffffffffffffffffffffff\n      and\n      dup2\n      mstore\n      0x20\n      add\n      swap1\n      dup2\n      mstore\n      0x20\n      add\n      0x00\n      keccak256\n      0x00\n      swap1\n      sload\n      swap1\n      0x0100\n      exp\n      swap1\n      div\n      0xffffffffffffffff\n      and\n        /* \"FunctionExample.sol\":768:806  _amount <= balanceReceived[msg.sender] */\n      0xffffffffffffffff\n      and\n        /* \"FunctionExample.sol\":768:775  _amount */\n      dup2\n        /* \"FunctionExample.sol\":768:806  _amount <= balanceReceived[msg.sender] */\n      0xffffffffffffffff\n      and\n      gt\n      iszero\n        /* \"FunctionExample.sol\":760:815  require(_amount <= balanceReceived[msg.sender], \"Nope\") */\n      tag_30\n      jumpi\n      mload(0x40)\n      0x08c379a000000000000000000000000000000000000000000000000000000000\n      dup2\n      mstore\n      0x04\n      add\n      tag_31\n      swap1\n      tag_32\n      jump\t// in\n    tag_31:\n      mload(0x40)\n      dup1\n      swap2\n      sub\n      swap1\n      revert\n    tag_30:\n        /* \"FunctionExample.sol\":873:888  balanceReceived */\n      0x00\n        /* \"FunctionExample.sol\":873:900  balanceReceived[msg.sender] */\n      dup1\n        /* \"FunctionExample.sol\":889:899  msg.sender */\n      caller\n        /* \"FunctionExample.sol\":873:900  balanceReceived[msg.sender] */\n      0xffffffffffffffffffffffffffffffffffffffff\n      and\n      0xffffffffffffffffffffffffffffffffffffffff\n      and\n      dup2\n      mstore\n      0x20\n      add\n      swap1\n      dup2\n      mstore\n      0x20\n      add\n      0x00\n      keccak256\n      0x00\n      swap1\n      sload\n      swap1\n      0x0100\n      exp\n      swap1\n      div\n      0xffffffffffffffff\n      and\n        /* \"FunctionExample.sol\":832:900  balanceReceived[msg.sender] - _amount <= balanceReceived[msg.sender] */\n      0xffffffffffffffff\n      and\n        /* \"FunctionExample.sol\":862:869  _amount */\n      dup2\n        /* \"FunctionExample.sol\":832:847  balanceReceived */\n      0x00\n        /* \"FunctionExample.sol\":832:859  balanceReceived[msg.sender] */\n      dup1\n        /* \"FunctionExample.sol\":848:858  msg.sender */\n      caller\n        /* \"FunctionExample.sol\":832:859  balanceReceived[msg.sender] */\n      0xffffffffffffffffffffffffffffffffffffffff\n      and\n      0xffffffffffffffffffffffffffffffffffffffff\n      and\n      dup2\n      mstore\n      0x20\n      add\n      swap1\n      dup2\n      mstore\n      0x20\n      add\n      0x00\n      keccak256\n      0x00\n      swap1\n      sload\n      swap1\n      0x0100\n      exp\n      swap1\n      div\n      0xffffffffffffffff\n      and\n        /* \"FunctionExample.sol\":832:869  balanceReceived[msg.sender] - _amount */\n      tag_33\n      swap2\n      swap1\n      tag_34\n      jump\t// in\n    tag_33:\n        /* \"FunctionExample.sol\":832:900  balanceReceived[msg.sender] - _amount <= balanceReceived[msg.sender] */\n      0xffffffffffffffff\n      and\n      gt\n      iszero\n        /* \"FunctionExample.sol\":825:901  assert(balanceReceived[msg.sender] - _amount <= balanceReceived[msg.sender]) */\n      tag_35\n      jumpi\n      tag_36\n      tag_37\n      jump\t// in\n    tag_36:\n    tag_35:\n        /* \"FunctionExample.sol\":942:949  _amount */\n      dup1\n        /* \"FunctionExample.sol\":911:926  balanceReceived */\n      0x00\n        /* \"FunctionExample.sol\":911:938  balanceReceived[msg.sender] */\n      dup1\n        /* \"FunctionExample.sol\":927:937  msg.sender */\n      caller\n        /* \"FunctionExample.sol\":911:938  balanceReceived[msg.sender] */\n      0xffffffffffffffffffffffffffffffffffffffff\n      and\n      0xffffffffffffffffffffffffffffffffffffffff\n      and\n      dup2\n      mstore\n      0x20\n      add\n      swap1\n      dup2\n      mstore\n      0x20\n      add\n      0x00\n      keccak256\n      0x00\n        /* \"FunctionExample.sol\":911:949  balanceReceived[msg.sender] -= _amount */\n      dup3\n      dup3\n      dup3\n      swap1\n      sload\n      swap1\n      0x0100\n      exp\n      swap1\n      div\n      0xffffffffffffffff\n      and\n      tag_38\n      swap2\n      swap1\n      tag_34\n      jump\t// in\n    tag_38:\n      swap3\n      pop\n      0x0100\n      exp\n      dup2\n      sload\n      dup2\n      0xffffffffffffffff\n      mul\n      not\n      and\n      swap1\n      dup4\n      0xffffffffffffffff\n      and\n      mul\n      or\n      swap1\n      sstore\n      pop\n        /* \"FunctionExample.sol\":959:962  _to */\n      dup2\n        /* \"FunctionExample.sol\":959:971  _to.transfer */\n      0xffffffffffffffffffffffffffffffffffffffff\n      and\n        /* \"FunctionExample.sol\":959:980  _to.transfer(_amount) */\n      0x08fc\n        /* \"FunctionExample.sol\":972:979  _amount */\n      dup3\n        /* \"FunctionExample.sol\":959:980  _to.transfer(_amount) */\n      0xffffffffffffffff\n      and\n      swap1\n      dup2\n      iszero\n      mul\n      swap1\n      mload(0x40)\n      0x00\n      mload(0x40)\n      dup1\n      dup4\n      sub\n      dup2\n      dup6\n      dup9\n      dup9\n      call\n      swap4\n      pop\n      pop\n      pop\n      pop\n      iszero\n      dup1\n      iszero\n      tag_40\n      jumpi\n      returndatasize\n      0x00\n      dup1\n      returndatacopy\n      revert(0x00, returndatasize)\n    tag_40:\n      pop\n        /* \"FunctionExample.sol\":683:987  function withdrawMoney(address payable _to, uint64 _amount) public {... */\n      pop\n      pop\n      jump\t// out\n        /* \"FunctionExample.sol\":467:677  function receiveMoney() public payable {... */\n    tag_13:\n        /* \"FunctionExample.sol\":543:552  msg.value */\n      callvalue\n        /* \"FunctionExample.sol\":523:553  msg.value == uint64(msg.value) */\n      0xffffffffffffffff\n      and\n        /* \"FunctionExample.sol\":523:532  msg.value */\n      callvalue\n        /* \"FunctionExample.sol\":523:553  msg.value == uint64(msg.value) */\n      eq\n        /* \"FunctionExample.sol\":516:554  assert(msg.value == uint64(msg.value)) */\n      tag_42\n      jumpi\n      tag_43\n      tag_37\n      jump\t// in\n    tag_43:\n    tag_42:\n        /* \"FunctionExample.sol\":602:611  msg.value */\n      callvalue\n        /* \"FunctionExample.sol\":564:579  balanceReceived */\n      0x00\n        /* \"FunctionExample.sol\":564:591  balanceReceived[msg.sender] */\n      dup1\n        /* \"FunctionExample.sol\":580:590  msg.sender */\n      caller\n        /* \"FunctionExample.sol\":564:591  balanceReceived[msg.sender] */\n      0xffffffffffffffffffffffffffffffffffffffff\n      and\n      0xffffffffffffffffffffffffffffffffffffffff\n      and\n      dup2\n      mstore\n      0x20\n      add\n      swap1\n      dup2\n      mstore\n      0x20\n      add\n      0x00\n      keccak256\n      0x00\n        /* \"FunctionExample.sol\":564:612  balanceReceived[msg.sender] += uint64(msg.value) */\n      dup3\n      dup3\n      dup3\n      swap1\n      sload\n      swap1\n      0x0100\n      exp\n      swap1\n      div\n      0xffffffffffffffff\n      and\n      tag_44\n      swap2\n      swap1\n      tag_45\n      jump\t// in\n    tag_44:\n      swap3\n      pop\n      0x0100\n      exp\n      dup2\n      sload\n      dup2\n      0xffffffffffffffff\n      mul\n      not\n      and\n      swap1\n      dup4\n      0xffffffffffffffff\n      and\n      mul\n      or\n      swap1\n      sstore\n      pop\n        /* \"FunctionExample.sol\":660:669  msg.value */\n      callvalue\n        /* \"FunctionExample.sol\":629:644  balanceReceived */\n      0x00\n        /* \"FunctionExample.sol\":629:656  balanceReceived[msg.sender] */\n      dup1\n        /* \"FunctionExample.sol\":645:655  msg.sender */\n      caller\n        /* \"FunctionExample.sol\":629:656  balanceReceived[msg.sender] */\n      0xffffffffffffffffffffffffffffffffffffffff\n      and\n      0xffffffffffffffffffffffffffffffffffffffff\n      and\n      dup2\n      mstore\n      0x20\n      add\n      swap1\n      dup2\n      mstore\n      0x20\n      add\n      0x00\n      keccak256\n      0x00\n      swap1\n      sload\n      swap1\n      0x0100\n      exp\n      swap1\n      div\n      0xffffffffffffffff\n      and\n        /* \"FunctionExample.sol\":629:669  balanceReceived[msg.sender] >= msg.value */\n      0xffffffffffffffff\n      and\n      lt\n      iszero\n        /* \"FunctionExample.sol\":622:670  assert(balanceReceived[msg.sender] >= msg.value) */\n      tag_46\n      jumpi\n      tag_47\n      tag_37\n      jump\t// in\n    tag_47:\n    tag_46:\n        /* \"FunctionExample.sol\":467:677  function receiveMoney() public payable {... */\n      jump\t// out\n        /* \"FunctionExample.sol\":238:316  function getOwner() public view returns(address) {... */\n    tag_16:\n        /* \"FunctionExample.sol\":278:285  address */\n      0x00\n        /* \"FunctionExample.sol\":304:309  owner */\n      0x01\n      0x00\n      swap1\n      sload\n      swap1\n      0x0100\n      exp\n      swap1\n      div\n      0xffffffffffffffffffffffffffffffffffffffff\n      and\n        /* \"FunctionExample.sol\":297:309  return owner */\n      swap1\n      pop\n        /* \"FunctionExample.sol\":238:316  function getOwner() public view returns(address) {... */\n      swap1\n      jump\t// out\n        /* \"FunctionExample.sol\":90:139  mapping(address => uint64) public balanceReceived */\n    tag_23:\n      mstore(0x20, 0x00)\n      dup1\n      0x00\n      mstore\n      keccak256(0x00, 0x40)\n      0x00\n      swap2\n      pop\n      sload\n      swap1\n      0x0100\n      exp\n      swap1\n      div\n      0xffffffffffffffff\n      and\n      dup2\n      jump\t// out\n        /* \"FunctionExample.sol\":322:461  function destroySmartContr4act() public {... */\n    tag_28:\n        /* \"FunctionExample.sol\":394:399  owner */\n      0x01\n      0x00\n      swap1\n      sload\n      swap1\n      0x0100\n      exp\n      swap1\n      div\n      0xffffffffffffffffffffffffffffffffffffffff\n      and\n        /* \"FunctionExample.sol\":380:399  msg.sender == owner */\n      0xffffffffffffffffffffffffffffffffffffffff\n      and\n        /* \"FunctionExample.sol\":380:390  msg.sender */\n      caller\n        /* \"FunctionExample.sol\":380:399  msg.sender == owner */\n      0xffffffffffffffffffffffffffffffffffffffff\n      and\n      eq\n        /* \"FunctionExample.sol\":372:425  require(msg.sender == owner, \"you are not the owner\") */\n      tag_50\n      jumpi\n      mload(0x40)\n      0x08c379a000000000000000000000000000000000000000000000000000000000\n      dup2\n      mstore\n      0x04\n      add\n      tag_51\n      swap1\n      tag_52\n      jump\t// in\n    tag_51:\n      mload(0x40)\n      dup1\n      swap2\n      sub\n      swap1\n      revert\n    tag_50:\n        /* \"FunctionExample.sol\":448:453  owner */\n      0x01\n      0x00\n      swap1\n      sload\n      swap1\n      0x0100\n      exp\n      swap1\n      div\n      0xffffffffffffffffffffffffffffffffffffffff\n      and\n        /* \"FunctionExample.sol\":435:454  selfdestruct(owner) */\n      0xffffffffffffffffffffffffffffffffffffffff\n      and\n      selfdestruct\n        /* \"#utility.yul\":88:205   */\n    tag_54:\n        /* \"#utility.yul\":197:198   */\n      0x00\n        /* \"#utility.yul\":194:195   */\n      dup1\n        /* \"#utility.yul\":187:199   */\n      revert\n        /* \"#utility.yul\":334:460   */\n    tag_56:\n        /* \"#utility.yul\":371:378   */\n      0x00\n        /* \"#utility.yul\":411:453   */\n      0xffffffffffffffffffffffffffffffffffffffff\n        /* \"#utility.yul\":404:409   */\n      dup3\n        /* \"#utility.yul\":400:454   */\n      and\n        /* \"#utility.yul\":389:454   */\n      swap1\n      pop\n        /* \"#utility.yul\":334:460   */\n      swap2\n      swap1\n      pop\n      jump\t// out\n        /* \"#utility.yul\":466:570   */\n    tag_57:\n        /* \"#utility.yul\":511:518   */\n      0x00\n        /* \"#utility.yul\":540:564   */\n      tag_80\n        /* \"#utility.yul\":558:563   */\n      dup3\n        /* \"#utility.yul\":540:564   */\n      tag_56\n      jump\t// in\n    tag_80:\n        /* \"#utility.yul\":529:564   */\n      swap1\n      pop\n        /* \"#utility.yul\":466:570   */\n      swap2\n      swap1\n      pop\n      jump\t// out\n        /* \"#utility.yul\":576:714   */\n    tag_58:\n        /* \"#utility.yul\":657:689   */\n      tag_82\n        /* \"#utility.yul\":683:688   */\n      dup2\n        /* \"#utility.yul\":657:689   */\n      tag_57\n      jump\t// in\n    tag_82:\n        /* \"#utility.yul\":650:655   */\n      dup2\n        /* \"#utility.yul\":647:690   */\n      eq\n        /* \"#utility.yul\":637:708   */\n      tag_83\n      jumpi\n        /* \"#utility.yul\":704:705   */\n      0x00\n        /* \"#utility.yul\":701:702   */\n      dup1\n        /* \"#utility.yul\":694:706   */\n      revert\n        /* \"#utility.yul\":637:708   */\n    tag_83:\n        /* \"#utility.yul\":576:714   */\n      pop\n      jump\t// out\n        /* \"#utility.yul\":720:875   */\n    tag_59:\n        /* \"#utility.yul\":774:779   */\n      0x00\n        /* \"#utility.yul\":812:818   */\n      dup2\n        /* \"#utility.yul\":799:819   */\n      calldataload\n        /* \"#utility.yul\":790:819   */\n      swap1\n      pop\n        /* \"#utility.yul\":828:869   */\n      tag_85\n        /* \"#utility.yul\":863:868   */\n      dup2\n        /* \"#utility.yul\":828:869   */\n      tag_58\n      jump\t// in\n    tag_85:\n        /* \"#utility.yul\":720:875   */\n      swap3\n      swap2\n      pop\n      pop\n      jump\t// out\n        /* \"#utility.yul\":881:982   */\n    tag_60:\n        /* \"#utility.yul\":917:924   */\n      0x00\n        /* \"#utility.yul\":957:975   */\n      0xffffffffffffffff\n        /* \"#utility.yul\":950:955   */\n      dup3\n        /* \"#utility.yul\":946:976   */\n      and\n        /* \"#utility.yul\":935:976   */\n      swap1\n      pop\n        /* \"#utility.yul\":881:982   */\n      swap2\n      swap1\n      pop\n      jump\t// out\n        /* \"#utility.yul\":988:1108   */\n    tag_61:\n        /* \"#utility.yul\":1060:1083   */\n      tag_88\n        /* \"#utility.yul\":1077:1082   */\n      dup2\n        /* \"#utility.yul\":1060:1083   */\n      tag_60\n      jump\t// in\n    tag_88:\n        /* \"#utility.yul\":1053:1058   */\n      dup2\n        /* \"#utility.yul\":1050:1084   */\n      eq\n        /* \"#utility.yul\":1040:1102   */\n      tag_89\n      jumpi\n        /* \"#utility.yul\":1098:1099   */\n      0x00\n        /* \"#utility.yul\":1095:1096   */\n      dup1\n        /* \"#utility.yul\":1088:1100   */\n      revert\n        /* \"#utility.yul\":1040:1102   */\n    tag_89:\n        /* \"#utility.yul\":988:1108   */\n      pop\n      jump\t// out\n        /* \"#utility.yul\":1114:1251   */\n    tag_62:\n        /* \"#utility.yul\":1159:1164   */\n      0x00\n        /* \"#utility.yul\":1197:1203   */\n      dup2\n        /* \"#utility.yul\":1184:1204   */\n      calldataload\n        /* \"#utility.yul\":1175:1204   */\n      swap1\n      pop\n        /* \"#utility.yul\":1213:1245   */\n      tag_91\n        /* \"#utility.yul\":1239:1244   */\n      dup2\n        /* \"#utility.yul\":1213:1245   */\n      tag_61\n      jump\t// in\n    tag_91:\n        /* \"#utility.yul\":1114:1251   */\n      swap3\n      swap2\n      pop\n      pop\n      jump\t// out\n        /* \"#utility.yul\":1257:1745   */\n    tag_10:\n        /* \"#utility.yul\":1332:1338   */\n      0x00\n        /* \"#utility.yul\":1340:1346   */\n      dup1\n        /* \"#utility.yul\":1389:1391   */\n      0x40\n        /* \"#utility.yul\":1377:1386   */\n      dup4\n        /* \"#utility.yul\":1368:1375   */\n      dup6\n        /* \"#utility.yul\":1364:1387   */\n      sub\n        /* \"#utility.yul\":1360:1392   */\n      slt\n        /* \"#utility.yul\":1357:1476   */\n      iszero\n      tag_93\n      jumpi\n        /* \"#utility.yul\":1395:1474   */\n      tag_94\n      tag_54\n      jump\t// in\n    tag_94:\n        /* \"#utility.yul\":1357:1476   */\n    tag_93:\n        /* \"#utility.yul\":1515:1516   */\n      0x00\n        /* \"#utility.yul\":1540:1601   */\n      tag_95\n        /* \"#utility.yul\":1593:1600   */\n      dup6\n        /* \"#utility.yul\":1584:1590   */\n      dup3\n        /* \"#utility.yul\":1573:1582   */\n      dup7\n        /* \"#utility.yul\":1569:1591   */\n      add\n        /* \"#utility.yul\":1540:1601   */\n      tag_59\n      jump\t// in\n    tag_95:\n        /* \"#utility.yul\":1530:1601   */\n      swap3\n      pop\n        /* \"#utility.yul\":1486:1611   */\n      pop\n        /* \"#utility.yul\":1650:1652   */\n      0x20\n        /* \"#utility.yul\":1676:1728   */\n      tag_96\n        /* \"#utility.yul\":1720:1727   */\n      dup6\n        /* \"#utility.yul\":1711:1717   */\n      dup3\n        /* \"#utility.yul\":1700:1709   */\n      dup7\n        /* \"#utility.yul\":1696:1718   */\n      add\n        /* \"#utility.yul\":1676:1728   */\n      tag_62\n      jump\t// in\n    tag_96:\n        /* \"#utility.yul\":1666:1728   */\n      swap2\n      pop\n        /* \"#utility.yul\":1621:1738   */\n      pop\n        /* \"#utility.yul\":1257:1745   */\n      swap3\n      pop\n      swap3\n      swap1\n      pop\n      jump\t// out\n        /* \"#utility.yul\":1751:1847   */\n    tag_63:\n        /* \"#utility.yul\":1788:1795   */\n      0x00\n        /* \"#utility.yul\":1817:1841   */\n      tag_98\n        /* \"#utility.yul\":1835:1840   */\n      dup3\n        /* \"#utility.yul\":1817:1841   */\n      tag_56\n      jump\t// in\n    tag_98:\n        /* \"#utility.yul\":1806:1841   */\n      swap1\n      pop\n        /* \"#utility.yul\":1751:1847   */\n      swap2\n      swap1\n      pop\n      jump\t// out\n        /* \"#utility.yul\":1853:1971   */\n    tag_64:\n        /* \"#utility.yul\":1940:1964   */\n      tag_100\n        /* \"#utility.yul\":1958:1963   */\n      dup2\n        /* \"#utility.yul\":1940:1964   */\n      tag_63\n      jump\t// in\n    tag_100:\n        /* \"#utility.yul\":1935:1938   */\n      dup3\n        /* \"#utility.yul\":1928:1965   */\n      mstore\n        /* \"#utility.yul\":1853:1971   */\n      pop\n      pop\n      jump\t// out\n        /* \"#utility.yul\":1977:2199   */\n    tag_18:\n        /* \"#utility.yul\":2070:2074   */\n      0x00\n        /* \"#utility.yul\":2108:2110   */\n      0x20\n        /* \"#utility.yul\":2097:2106   */\n      dup3\n        /* \"#utility.yul\":2093:2111   */\n      add\n        /* \"#utility.yul\":2085:2111   */\n      swap1\n      pop\n        /* \"#utility.yul\":2121:2192   */\n      tag_102\n        /* \"#utility.yul\":2189:2190   */\n      0x00\n        /* \"#utility.yul\":2178:2187   */\n      dup4\n        /* \"#utility.yul\":2174:2191   */\n      add\n        /* \"#utility.yul\":2165:2171   */\n      dup5\n        /* \"#utility.yul\":2121:2192   */\n      tag_64\n      jump\t// in\n    tag_102:\n        /* \"#utility.yul\":1977:2199   */\n      swap3\n      swap2\n      pop\n      pop\n      jump\t// out\n        /* \"#utility.yul\":2205:2327   */\n    tag_65:\n        /* \"#utility.yul\":2278:2302   */\n      tag_104\n        /* \"#utility.yul\":2296:2301   */\n      dup2\n        /* \"#utility.yul\":2278:2302   */\n      tag_63\n      jump\t// in\n    tag_104:\n        /* \"#utility.yul\":2271:2276   */\n      dup2\n        /* \"#utility.yul\":2268:2303   */\n      eq\n        /* \"#utility.yul\":2258:2321   */\n      tag_105\n      jumpi\n        /* \"#utility.yul\":2317:2318   */\n      0x00\n        /* \"#utility.yul\":2314:2315   */\n      dup1\n        /* \"#utility.yul\":2307:2319   */\n      revert\n        /* \"#utility.yul\":2258:2321   */\n    tag_105:\n        /* \"#utility.yul\":2205:2327   */\n      pop\n      jump\t// out\n        /* \"#utility.yul\":2333:2472   */\n    tag_66:\n        /* \"#utility.yul\":2379:2384   */\n      0x00\n        /* \"#utility.yul\":2417:2423   */\n      dup2\n        /* \"#utility.yul\":2404:2424   */\n      calldataload\n        /* \"#utility.yul\":2395:2424   */\n      swap1\n      pop\n        /* \"#utility.yul\":2433:2466   */\n      tag_107\n        /* \"#utility.yul\":2460:2465   */\n      dup2\n        /* \"#utility.yul\":2433:2466   */\n      tag_65\n      jump\t// in\n    tag_107:\n        /* \"#utility.yul\":2333:2472   */\n      swap3\n      swap2\n      pop\n      pop\n      jump\t// out\n        /* \"#utility.yul\":2478:2807   */\n    tag_22:\n        /* \"#utility.yul\":2537:2543   */\n      0x00\n        /* \"#utility.yul\":2586:2588   */\n      0x20\n        /* \"#utility.yul\":2574:2583   */\n      dup3\n        /* \"#utility.yul\":2565:2572   */\n      dup5\n        /* \"#utility.yul\":2561:2584   */\n      sub\n        /* \"#utility.yul\":2557:2589   */\n      slt\n        /* \"#utility.yul\":2554:2673   */\n      iszero\n      tag_109\n      jumpi\n        /* \"#utility.yul\":2592:2671   */\n      tag_110\n      tag_54\n      jump\t// in\n    tag_110:\n        /* \"#utility.yul\":2554:2673   */\n    tag_109:\n        /* \"#utility.yul\":2712:2713   */\n      0x00\n        /* \"#utility.yul\":2737:2790   */\n      tag_111\n        /* \"#utility.yul\":2782:2789   */\n      dup5\n        /* \"#utility.yul\":2773:2779   */\n      dup3\n        /* \"#utility.yul\":2762:2771   */\n      dup6\n        /* \"#utility.yul\":2758:2780   */\n      add\n        /* \"#utility.yul\":2737:2790   */\n      tag_66\n      jump\t// in\n    tag_111:\n        /* \"#utility.yul\":2727:2790   */\n      swap2\n      pop\n        /* \"#utility.yul\":2683:2800   */\n      pop\n        /* \"#utility.yul\":2478:2807   */\n      swap3\n      swap2\n      pop\n      pop\n      jump\t// out\n        /* \"#utility.yul\":2813:2928   */\n    tag_67:\n        /* \"#utility.yul\":2898:2921   */\n      tag_113\n        /* \"#utility.yul\":2915:2920   */\n      dup2\n        /* \"#utility.yul\":2898:2921   */\n      tag_60\n      jump\t// in\n    tag_113:\n        /* \"#utility.yul\":2893:2896   */\n      dup3\n        /* \"#utility.yul\":2886:2922   */\n      mstore\n        /* \"#utility.yul\":2813:2928   */\n      pop\n      pop\n      jump\t// out\n        /* \"#utility.yul\":2934:3152   */\n    tag_25:\n        /* \"#utility.yul\":3025:3029   */\n      0x00\n        /* \"#utility.yul\":3063:3065   */\n      0x20\n        /* \"#utility.yul\":3052:3061   */\n      dup3\n        /* \"#utility.yul\":3048:3066   */\n      add\n        /* \"#utility.yul\":3040:3066   */\n      swap1\n      pop\n        /* \"#utility.yul\":3076:3145   */\n      tag_115\n        /* \"#utility.yul\":3142:3143   */\n      0x00\n        /* \"#utility.yul\":3131:3140   */\n      dup4\n        /* \"#utility.yul\":3127:3144   */\n      add\n        /* \"#utility.yul\":3118:3124   */\n      dup5\n        /* \"#utility.yul\":3076:3145   */\n      tag_67\n      jump\t// in\n    tag_115:\n        /* \"#utility.yul\":2934:3152   */\n      swap3\n      swap2\n      pop\n      pop\n      jump\t// out\n        /* \"#utility.yul\":3158:3327   */\n    tag_68:\n        /* \"#utility.yul\":3242:3253   */\n      0x00\n        /* \"#utility.yul\":3276:3282   */\n      dup3\n        /* \"#utility.yul\":3271:3274   */\n      dup3\n        /* \"#utility.yul\":3264:3283   */\n      mstore\n        /* \"#utility.yul\":3316:3320   */\n      0x20\n        /* \"#utility.yul\":3311:3314   */\n      dup3\n        /* \"#utility.yul\":3307:3321   */\n      add\n        /* \"#utility.yul\":3292:3321   */\n      swap1\n      pop\n        /* \"#utility.yul\":3158:3327   */\n      swap3\n      swap2\n      pop\n      pop\n      jump\t// out\n        /* \"#utility.yul\":3333:3487   */\n    tag_69:\n        /* \"#utility.yul\":3473:3479   */\n      0x4e6f706500000000000000000000000000000000000000000000000000000000\n        /* \"#utility.yul\":3469:3470   */\n      0x00\n        /* \"#utility.yul\":3461:3467   */\n      dup3\n        /* \"#utility.yul\":3457:3471   */\n      add\n        /* \"#utility.yul\":3450:3480   */\n      mstore\n        /* \"#utility.yul\":3333:3487   */\n      pop\n      jump\t// out\n        /* \"#utility.yul\":3493:3858   */\n    tag_70:\n        /* \"#utility.yul\":3635:3638   */\n      0x00\n        /* \"#utility.yul\":3656:3722   */\n      tag_119\n        /* \"#utility.yul\":3720:3721   */\n      0x04\n        /* \"#utility.yul\":3715:3718   */\n      dup4\n        /* \"#utility.yul\":3656:3722   */\n      tag_68\n      jump\t// in\n    tag_119:\n        /* \"#utility.yul\":3649:3722   */\n      swap2\n      pop\n        /* \"#utility.yul\":3731:3824   */\n      tag_120\n        /* \"#utility.yul\":3820:3823   */\n      dup3\n        /* \"#utility.yul\":3731:3824   */\n      tag_69\n      jump\t// in\n    tag_120:\n        /* \"#utility.yul\":3849:3851   */\n      0x20\n        /* \"#utility.yul\":3844:3847   */\n      dup3\n        /* \"#utility.yul\":3840:3852   */\n      add\n        /* \"#utility.yul\":3833:3852   */\n      swap1\n      pop\n        /* \"#utility.yul\":3493:3858   */\n      swap2\n      swap1\n      pop\n      jump\t// out\n        /* \"#utility.yul\":3864:4283   */\n    tag_32:\n        /* \"#utility.yul\":4030:4034   */\n      0x00\n        /* \"#utility.yul\":4068:4070   */\n      0x20\n        /* \"#utility.yul\":4057:4066   */\n      dup3\n        /* \"#utility.yul\":4053:4071   */\n      add\n        /* \"#utility.yul\":4045:4071   */\n      swap1\n      pop\n        /* \"#utility.yul\":4117:4126   */\n      dup2\n        /* \"#utility.yul\":4111:4115   */\n      dup2\n        /* \"#utility.yul\":4107:4127   */\n      sub\n        /* \"#utility.yul\":4103:4104   */\n      0x00\n        /* \"#utility.yul\":4092:4101   */\n      dup4\n        /* \"#utility.yul\":4088:4105   */\n      add\n        /* \"#utility.yul\":4081:4128   */\n      mstore\n        /* \"#utility.yul\":4145:4276   */\n      tag_122\n        /* \"#utility.yul\":4271:4275   */\n      dup2\n        /* \"#utility.yul\":4145:4276   */\n      tag_70\n      jump\t// in\n    tag_122:\n        /* \"#utility.yul\":4137:4276   */\n      swap1\n      pop\n        /* \"#utility.yul\":3864:4283   */\n      swap2\n      swap1\n      pop\n      jump\t// out\n        /* \"#utility.yul\":4289:4469   */\n    tag_71:\n        /* \"#utility.yul\":4337:4414   */\n      0x4e487b7100000000000000000000000000000000000000000000000000000000\n        /* \"#utility.yul\":4334:4335   */\n      0x00\n        /* \"#utility.yul\":4327:4415   */\n      mstore\n        /* \"#utility.yul\":4434:4438   */\n      0x11\n        /* \"#utility.yul\":4431:4432   */\n      0x04\n        /* \"#utility.yul\":4424:4439   */\n      mstore\n        /* \"#utility.yul\":4458:4462   */\n      0x24\n        /* \"#utility.yul\":4455:4456   */\n      0x00\n        /* \"#utility.yul\":4448:4463   */\n      revert\n        /* \"#utility.yul\":4475:4683   */\n    tag_34:\n        /* \"#utility.yul\":4514:4518   */\n      0x00\n        /* \"#utility.yul\":4534:4553   */\n      tag_125\n        /* \"#utility.yul\":4551:4552   */\n      dup3\n        /* \"#utility.yul\":4534:4553   */\n      tag_60\n      jump\t// in\n    tag_125:\n        /* \"#utility.yul\":4529:4553   */\n      swap2\n      pop\n        /* \"#utility.yul\":4567:4586   */\n      tag_126\n        /* \"#utility.yul\":4584:4585   */\n      dup4\n        /* \"#utility.yul\":4567:4586   */\n      tag_60\n      jump\t// in\n    tag_126:\n        /* \"#utility.yul\":4562:4586   */\n      swap3\n      pop\n        /* \"#utility.yul\":4610:4611   */\n      dup3\n        /* \"#utility.yul\":4607:4608   */\n      dup3\n        /* \"#utility.yul\":4603:4612   */\n      sub\n        /* \"#utility.yul\":4595:4612   */\n      swap1\n      pop\n        /* \"#utility.yul\":4634:4652   */\n      0xffffffffffffffff\n        /* \"#utility.yul\":4628:4632   */\n      dup2\n        /* \"#utility.yul\":4625:4653   */\n      gt\n        /* \"#utility.yul\":4622:4676   */\n      iszero\n      tag_127\n      jumpi\n        /* \"#utility.yul\":4656:4674   */\n      tag_128\n      tag_71\n      jump\t// in\n    tag_128:\n        /* \"#utility.yul\":4622:4676   */\n    tag_127:\n        /* \"#utility.yul\":4475:4683   */\n      swap3\n      swap2\n      pop\n      pop\n      jump\t// out\n        /* \"#utility.yul\":4689:4869   */\n    tag_37:\n        /* \"#utility.yul\":4737:4814   */\n      0x4e487b7100000000000000000000000000000000000000000000000000000000\n        /* \"#utility.yul\":4734:4735   */\n      0x00\n        /* \"#utility.yul\":4727:4815   */\n      mstore\n        /* \"#utility.yul\":4834:4838   */\n      0x01\n        /* \"#utility.yul\":4831:4832   */\n      0x04\n        /* \"#utility.yul\":4824:4839   */\n      mstore\n        /* \"#utility.yul\":4858:4862   */\n      0x24\n        /* \"#utility.yul\":4855:4856   */\n      0x00\n        /* \"#utility.yul\":4848:4863   */\n      revert\n        /* \"#utility.yul\":4875:5080   */\n    tag_45:\n        /* \"#utility.yul\":4914:4917   */\n      0x00\n        /* \"#utility.yul\":4933:4952   */\n      tag_131\n        /* \"#utility.yul\":4950:4951   */\n      dup3\n        /* \"#utility.yul\":4933:4952   */\n      tag_60\n      jump\t// in\n    tag_131:\n        /* \"#utility.yul\":4928:4952   */\n      swap2\n      pop\n        /* \"#utility.yul\":4966:4985   */\n      tag_132\n        /* \"#utility.yul\":4983:4984   */\n      dup4\n        /* \"#utility.yul\":4966:4985   */\n      tag_60\n      jump\t// in\n    tag_132:\n        /* \"#utility.yul\":4961:4985   */\n      swap3\n      pop\n        /* \"#utility.yul\":5008:5009   */\n      dup3\n        /* \"#utility.yul\":5005:5006   */\n      dup3\n        /* \"#utility.yul\":5001:5010   */\n      add\n        /* \"#utility.yul\":4994:5010   */\n      swap1\n      pop\n        /* \"#utility.yul\":5031:5049   */\n      0xffffffffffffffff\n        /* \"#utility.yul\":5026:5029   */\n      dup2\n        /* \"#utility.yul\":5023:5050   */\n      gt\n        /* \"#utility.yul\":5020:5073   */\n      iszero\n      tag_133\n      jumpi\n        /* \"#utility.yul\":5053:5071   */\n      tag_134\n      tag_71\n      jump\t// in\n    tag_134:\n        /* \"#utility.yul\":5020:5073   */\n    tag_133:\n        /* \"#utility.yul\":4875:5080   */\n      swap3\n      swap2\n      pop\n      pop\n      jump\t// out\n        /* \"#utility.yul\":5086:5257   */\n    tag_72:\n        /* \"#utility.yul\":5226:5249   */\n      0x796f7520617265206e6f7420746865206f776e65720000000000000000000000\n        /* \"#utility.yul\":5222:5223   */\n      0x00\n        /* \"#utility.yul\":5214:5220   */\n      dup3\n        /* \"#utility.yul\":5210:5224   */\n      add\n        /* \"#utility.yul\":5203:5250   */\n      mstore\n        /* \"#utility.yul\":5086:5257   */\n      pop\n      jump\t// out\n        /* \"#utility.yul\":5263:5629   */\n    tag_73:\n        /* \"#utility.yul\":5405:5408   */\n      0x00\n        /* \"#utility.yul\":5426:5493   */\n      tag_137\n        /* \"#utility.yul\":5490:5492   */\n      0x15\n        /* \"#utility.yul\":5485:5488   */\n      dup4\n        /* \"#utility.yul\":5426:5493   */\n      tag_68\n      jump\t// in\n    tag_137:\n        /* \"#utility.yul\":5419:5493   */\n      swap2\n      pop\n        /* \"#utility.yul\":5502:5595   */\n      tag_138\n        /* \"#utility.yul\":5591:5594   */\n      dup3\n        /* \"#utility.yul\":5502:5595   */\n      tag_72\n      jump\t// in\n    tag_138:\n        /* \"#utility.yul\":5620:5622   */\n      0x20\n        /* \"#utility.yul\":5615:5618   */\n      dup3\n        /* \"#utility.yul\":5611:5623   */\n      add\n        /* \"#utility.yul\":5604:5623   */\n      swap1\n      pop\n        /* \"#utility.yul\":5263:5629   */\n      swap2\n      swap1\n      pop\n      jump\t// out\n        /* \"#utility.yul\":5635:6054   */\n    tag_52:\n        /* \"#utility.yul\":5801:5805   */\n      0x00\n        /* \"#utility.yul\":5839:5841   */\n      0x20\n        /* \"#utility.yul\":5828:5837   */\n      dup3\n        /* \"#utility.yul\":5824:5842   */\n      add\n        /* \"#utility.yul\":5816:5842   */\n      swap1\n      pop\n        /* \"#utility.yul\":5888:5897   */\n      dup2\n        /* \"#utility.yul\":5882:5886   */\n      dup2\n        /* \"#utility.yul\":5878:5898   */\n      sub\n        /* \"#utility.yul\":5874:5875   */\n      0x00\n        /* \"#utility.yul\":5863:5872   */\n      dup4\n        /* \"#utility.yul\":5859:5876   */\n      add\n        /* \"#utility.yul\":5852:5899   */\n      mstore\n        /* \"#utility.yul\":5916:6047   */\n      tag_140\n        /* \"#utility.yul\":6042:6046   */\n      dup2\n        /* \"#utility.yul\":5916:6047   */\n      tag_73\n      jump\t// in\n    tag_140:\n        /* \"#utility.yul\":5908:6047   */\n      swap1\n      pop\n        /* \"#utility.yul\":5635:6054   */\n      swap2\n      swap1\n      pop\n      jump\t// out\n\n    auxdata: 0xa264697066735822122047ae44dec664790ed5838207d58e029f34f45d3712a0a03ceb2d1b7f9d188f8b64736f6c63430008100033\n}\n",
				"bytecode": {
					"linkReferences": {},
					"object": "608060405234801561001057600080fd5b5033600160006101000a81548173ffffffffffffffffffffffffffffffffffffffff021916908373ffffffffffffffffffffffffffffffffffffffff16021790555061091d806100616000396000f3fe60806040526004361061004a5760003560e01c80630ad19aeb1461004f5780636d26ec1814610078578063893d20e814610082578063d18a42e1146100ad578063eef5da9c146100ea575b600080fd5b34801561005b57600080fd5b5061007660048036038101906100719190610629565b610101565b005b61008061035a565b005b34801561008e57600080fd5b5061009761046a565b6040516100a4919061068a565b60405180910390f35b3480156100b957600080fd5b506100d460048036038101906100cf91906106d1565b610494565b6040516100e1919061070d565b60405180910390f35b3480156100f657600080fd5b506100ff6104bb565b005b6000803373ffffffffffffffffffffffffffffffffffffffff1673ffffffffffffffffffffffffffffffffffffffff16815260200190815260200160002060009054906101000a900467ffffffffffffffff1667ffffffffffffffff168167ffffffffffffffff1611156101aa576040517f08c379a00000000000000000000000000000000000000000000000000000000081526004016101a190610785565b60405180910390fd5b6000803373ffffffffffffffffffffffffffffffffffffffff1673ffffffffffffffffffffffffffffffffffffffff16815260200190815260200160002060009054906101000a900467ffffffffffffffff1667ffffffffffffffff16816000803373ffffffffffffffffffffffffffffffffffffffff1673ffffffffffffffffffffffffffffffffffffffff16815260200190815260200160002060009054906101000a900467ffffffffffffffff1661026591906107d4565b67ffffffffffffffff16111561027e5761027d610810565b5b806000803373ffffffffffffffffffffffffffffffffffffffff1673ffffffffffffffffffffffffffffffffffffffff16815260200190815260200160002060008282829054906101000a900467ffffffffffffffff166102df91906107d4565b92506101000a81548167ffffffffffffffff021916908367ffffffffffffffff1602179055508173ffffffffffffffffffffffffffffffffffffffff166108fc8267ffffffffffffffff169081150290604051600060405180830381858888f19350505050158015610355573d6000803e3d6000fd5b505050565b3467ffffffffffffffff16341461037457610373610810565b5b346000803373ffffffffffffffffffffffffffffffffffffffff1673ffffffffffffffffffffffffffffffffffffffff16815260200190815260200160002060008282829054906101000a900467ffffffffffffffff166103d5919061083f565b92506101000a81548167ffffffffffffffff021916908367ffffffffffffffff160217905550346000803373ffffffffffffffffffffffffffffffffffffffff1673ffffffffffffffffffffffffffffffffffffffff16815260200190815260200160002060009054906101000a900467ffffffffffffffff1667ffffffffffffffff16101561046857610467610810565b5b565b6000600160009054906101000a900473ffffffffffffffffffffffffffffffffffffffff16905090565b60006020528060005260406000206000915054906101000a900467ffffffffffffffff1681565b600160009054906101000a900473ffffffffffffffffffffffffffffffffffffffff1673ffffffffffffffffffffffffffffffffffffffff163373ffffffffffffffffffffffffffffffffffffffff161461054b576040517f08c379a0000000000000000000000000000000000000000000000000000000008152600401610542906108c7565b60405180910390fd5b600160009054906101000a900473ffffffffffffffffffffffffffffffffffffffff1673ffffffffffffffffffffffffffffffffffffffff16ff5b600080fd5b600073ffffffffffffffffffffffffffffffffffffffff82169050919050565b60006105b68261058b565b9050919050565b6105c6816105ab565b81146105d157600080fd5b50565b6000813590506105e3816105bd565b92915050565b600067ffffffffffffffff82169050919050565b610606816105e9565b811461061157600080fd5b50565b600081359050610623816105fd565b92915050565b600080604083850312156106405761063f610586565b5b600061064e858286016105d4565b925050602061065f85828601610614565b9150509250929050565b60006106748261058b565b9050919050565b61068481610669565b82525050565b600060208201905061069f600083018461067b565b92915050565b6106ae81610669565b81146106b957600080fd5b50565b6000813590506106cb816106a5565b92915050565b6000602082840312156106e7576106e6610586565b5b60006106f5848285016106bc565b91505092915050565b610707816105e9565b82525050565b600060208201905061072260008301846106fe565b92915050565b600082825260208201905092915050565b7f4e6f706500000000000000000000000000000000000000000000000000000000600082015250565b600061076f600483610728565b915061077a82610739565b602082019050919050565b6000602082019050818103600083015261079e81610762565b9050919050565b7f4e487b7100000000000000000000000000000000000000000000000000000000600052601160045260246000fd5b60006107df826105e9565b91506107ea836105e9565b9250828203905067ffffffffffffffff81111561080a576108096107a5565b5b92915050565b7f4e487b7100000000000000000000000000000000000000000000000000000000600052600160045260246000fd5b600061084a826105e9565b9150610855836105e9565b9250828201905067ffffffffffffffff811115610875576108746107a5565b5b92915050565b7f796f7520617265206e6f7420746865206f776e65720000000000000000000000600082015250565b60006108b1601583610728565b91506108bc8261087b565b602082019050919050565b600060208201905081810360008301526108e0816108a4565b905091905056fea264697066735822122047ae44dec664790ed5838207d58e029f34f45d3712a0a03ceb2d1b7f9d188f8b64736f6c63430008100033",
					"opcodes": "PUSH1 0x80 PUSH1 0x40 MSTORE CALLVALUE DUP1 ISZERO PUSH2 0x10 JUMPI PUSH1 0x0 DUP1 REVERT JUMPDEST POP CALLER PUSH1 0x1 PUSH1 0x0 PUSH2 0x100 EXP DUP2 SLOAD DUP2 PUSH20 0xFFFFFFFFFFFFFFFFFFFFFFFFFFFFFFFFFFFFFFFF MUL NOT AND SWAP1 DUP4 PUSH20 0xFFFFFFFFFFFFFFFFFFFFFFFFFFFFFFFFFFFFFFFF AND MUL OR SWAP1 SSTORE POP PUSH2 0x91D DUP1 PUSH2 0x61 PUSH1 0x0 CODECOPY PUSH1 0x0 RETURN INVALID PUSH1 0x80 PUSH1 0x40 MSTORE PUSH1 0x4 CALLDATASIZE LT PUSH2 0x4A JUMPI PUSH1 0x0 CALLDATALOAD PUSH1 0xE0 SHR DUP1 PUSH4 0xAD19AEB EQ PUSH2 0x4F JUMPI DUP1 PUSH4 0x6D26EC18 EQ PUSH2 0x78 JUMPI DUP1 PUSH4 0x893D20E8 EQ PUSH2 0x82 JUMPI DUP1 PUSH4 0xD18A42E1 EQ PUSH2 0xAD JUMPI DUP1 PUSH4 0xEEF5DA9C EQ PUSH2 0xEA JUMPI JUMPDEST PUSH1 0x0 DUP1 REVERT JUMPDEST CALLVALUE DUP1 ISZERO PUSH2 0x5B JUMPI PUSH1 0x0 DUP1 REVERT JUMPDEST POP PUSH2 0x76 PUSH1 0x4 DUP1 CALLDATASIZE SUB DUP2 ADD SWAP1 PUSH2 0x71 SWAP2 SWAP1 PUSH2 0x629 JUMP JUMPDEST PUSH2 0x101 JUMP JUMPDEST STOP JUMPDEST PUSH2 0x80 PUSH2 0x35A JUMP JUMPDEST STOP JUMPDEST CALLVALUE DUP1 ISZERO PUSH2 0x8E JUMPI PUSH1 0x0 DUP1 REVERT JUMPDEST POP PUSH2 0x97 PUSH2 0x46A JUMP JUMPDEST PUSH1 0x40 MLOAD PUSH2 0xA4 SWAP2 SWAP1 PUSH2 0x68A JUMP JUMPDEST PUSH1 0x40 MLOAD DUP1 SWAP2 SUB SWAP1 RETURN JUMPDEST CALLVALUE DUP1 ISZERO PUSH2 0xB9 JUMPI PUSH1 0x0 DUP1 REVERT JUMPDEST POP PUSH2 0xD4 PUSH1 0x4 DUP1 CALLDATASIZE SUB DUP2 ADD SWAP1 PUSH2 0xCF SWAP2 SWAP1 PUSH2 0x6D1 JUMP JUMPDEST PUSH2 0x494 JUMP JUMPDEST PUSH1 0x40 MLOAD PUSH2 0xE1 SWAP2 SWAP1 PUSH2 0x70D JUMP JUMPDEST PUSH1 0x40 MLOAD DUP1 SWAP2 SUB SWAP1 RETURN JUMPDEST CALLVALUE DUP1 ISZERO PUSH2 0xF6 JUMPI PUSH1 0x0 DUP1 REVERT JUMPDEST POP PUSH2 0xFF PUSH2 0x4BB JUMP JUMPDEST STOP JUMPDEST PUSH1 0x0 DUP1 CALLER PUSH20 0xFFFFFFFFFFFFFFFFFFFFFFFFFFFFFFFFFFFFFFFF AND PUSH20 0xFFFFFFFFFFFFFFFFFFFFFFFFFFFFFFFFFFFFFFFF AND DUP2 MSTORE PUSH1 0x20 ADD SWAP1 DUP2 MSTORE PUSH1 0x20 ADD PUSH1 0x0 KECCAK256 PUSH1 0x0 SWAP1 SLOAD SWAP1 PUSH2 0x100 EXP SWAP1 DIV PUSH8 0xFFFFFFFFFFFFFFFF AND PUSH8 0xFFFFFFFFFFFFFFFF AND DUP2 PUSH8 0xFFFFFFFFFFFFFFFF AND GT ISZERO PUSH2 0x1AA JUMPI PUSH1 0x40 MLOAD PUSH32 0x8C379A000000000000000000000000000000000000000000000000000000000 DUP2 MSTORE PUSH1 0x4 ADD PUSH2 0x1A1 SWAP1 PUSH2 0x785 JUMP JUMPDEST PUSH1 0x40 MLOAD DUP1 SWAP2 SUB SWAP1 REVERT JUMPDEST PUSH1 0x0 DUP1 CALLER PUSH20 0xFFFFFFFFFFFFFFFFFFFFFFFFFFFFFFFFFFFFFFFF AND PUSH20 0xFFFFFFFFFFFFFFFFFFFFFFFFFFFFFFFFFFFFFFFF AND DUP2 MSTORE PUSH1 0x20 ADD SWAP1 DUP2 MSTORE PUSH1 0x20 ADD PUSH1 0x0 KECCAK256 PUSH1 0x0 SWAP1 SLOAD SWAP1 PUSH2 0x100 EXP SWAP1 DIV PUSH8 0xFFFFFFFFFFFFFFFF AND PUSH8 0xFFFFFFFFFFFFFFFF AND DUP2 PUSH1 0x0 DUP1 CALLER PUSH20 0xFFFFFFFFFFFFFFFFFFFFFFFFFFFFFFFFFFFFFFFF AND PUSH20 0xFFFFFFFFFFFFFFFFFFFFFFFFFFFFFFFFFFFFFFFF AND DUP2 MSTORE PUSH1 0x20 ADD SWAP1 DUP2 MSTORE PUSH1 0x20 ADD PUSH1 0x0 KECCAK256 PUSH1 0x0 SWAP1 SLOAD SWAP1 PUSH2 0x100 EXP SWAP1 DIV PUSH8 0xFFFFFFFFFFFFFFFF AND PUSH2 0x265 SWAP2 SWAP1 PUSH2 0x7D4 JUMP JUMPDEST PUSH8 0xFFFFFFFFFFFFFFFF AND GT ISZERO PUSH2 0x27E JUMPI PUSH2 0x27D PUSH2 0x810 JUMP JUMPDEST JUMPDEST DUP1 PUSH1 0x0 DUP1 CALLER PUSH20 0xFFFFFFFFFFFFFFFFFFFFFFFFFFFFFFFFFFFFFFFF AND PUSH20 0xFFFFFFFFFFFFFFFFFFFFFFFFFFFFFFFFFFFFFFFF AND DUP2 MSTORE PUSH1 0x20 ADD SWAP1 DUP2 MSTORE PUSH1 0x20 ADD PUSH1 0x0 KECCAK256 PUSH1 0x0 DUP3 DUP3 DUP3 SWAP1 SLOAD SWAP1 PUSH2 0x100 EXP SWAP1 DIV PUSH8 0xFFFFFFFFFFFFFFFF AND PUSH2 0x2DF SWAP2 SWAP1 PUSH2 0x7D4 JUMP JUMPDEST SWAP3 POP PUSH2 0x100 EXP DUP2 SLOAD DUP2 PUSH8 0xFFFFFFFFFFFFFFFF MUL NOT AND SWAP1 DUP4 PUSH8 0xFFFFFFFFFFFFFFFF AND MUL OR SWAP1 SSTORE POP DUP2 PUSH20 0xFFFFFFFFFFFFFFFFFFFFFFFFFFFFFFFFFFFFFFFF AND PUSH2 0x8FC DUP3 PUSH8 0xFFFFFFFFFFFFFFFF AND SWAP1 DUP2 ISZERO MUL SWAP1 PUSH1 0x40 MLOAD PUSH1 0x0 PUSH1 0x40 MLOAD DUP1 DUP4 SUB DUP2 DUP6 DUP9 DUP9 CALL SWAP4 POP POP POP POP ISZERO DUP1 ISZERO PUSH2 0x355 JUMPI RETURNDATASIZE PUSH1 0x0 DUP1 RETURNDATACOPY RETURNDATASIZE PUSH1 0x0 REVERT JUMPDEST POP POP POP JUMP JUMPDEST CALLVALUE PUSH8 0xFFFFFFFFFFFFFFFF AND CALLVALUE EQ PUSH2 0x374 JUMPI PUSH2 0x373 PUSH2 0x810 JUMP JUMPDEST JUMPDEST CALLVALUE PUSH1 0x0 DUP1 CALLER PUSH20 0xFFFFFFFFFFFFFFFFFFFFFFFFFFFFFFFFFFFFFFFF AND PUSH20 0xFFFFFFFFFFFFFFFFFFFFFFFFFFFFFFFFFFFFFFFF AND DUP2 MSTORE PUSH1 0x20 ADD SWAP1 DUP2 MSTORE PUSH1 0x20 ADD PUSH1 0x0 KECCAK256 PUSH1 0x0 DUP3 DUP3 DUP3 SWAP1 SLOAD SWAP1 PUSH2 0x100 EXP SWAP1 DIV PUSH8 0xFFFFFFFFFFFFFFFF AND PUSH2 0x3D5 SWAP2 SWAP1 PUSH2 0x83F JUMP JUMPDEST SWAP3 POP PUSH2 0x100 EXP DUP2 SLOAD DUP2 PUSH8 0xFFFFFFFFFFFFFFFF MUL NOT AND SWAP1 DUP4 PUSH8 0xFFFFFFFFFFFFFFFF AND MUL OR SWAP1 SSTORE POP CALLVALUE PUSH1 0x0 DUP1 CALLER PUSH20 0xFFFFFFFFFFFFFFFFFFFFFFFFFFFFFFFFFFFFFFFF AND PUSH20 0xFFFFFFFFFFFFFFFFFFFFFFFFFFFFFFFFFFFFFFFF AND DUP2 MSTORE PUSH1 0x20 ADD SWAP1 DUP2 MSTORE PUSH1 0x20 ADD PUSH1 0x0 KECCAK256 PUSH1 0x0 SWAP1 SLOAD SWAP1 PUSH2 0x100 EXP SWAP1 DIV PUSH8 0xFFFFFFFFFFFFFFFF AND PUSH8 0xFFFFFFFFFFFFFFFF AND LT ISZERO PUSH2 0x468 JUMPI PUSH2 0x467 PUSH2 0x810 JUMP JUMPDEST JUMPDEST JUMP JUMPDEST PUSH1 0x0 PUSH1 0x1 PUSH1 0x0 SWAP1 SLOAD SWAP1 PUSH2 0x100 EXP SWAP1 DIV PUSH20 0xFFFFFFFFFFFFFFFFFFFFFFFFFFFFFFFFFFFFFFFF AND SWAP1 POP SWAP1 JUMP JUMPDEST PUSH1 0x0 PUSH1 0x20 MSTORE DUP1 PUSH1 0x0 MSTORE PUSH1 0x40 PUSH1 0x0 KECCAK256 PUSH1 0x0 SWAP2 POP SLOAD SWAP1 PUSH2 0x100 EXP SWAP1 DIV PUSH8 0xFFFFFFFFFFFFFFFF AND DUP2 JUMP JUMPDEST PUSH1 0x1 PUSH1 0x0 SWAP1 SLOAD SWAP1 PUSH2 0x100 EXP SWAP1 DIV PUSH20 0xFFFFFFFFFFFFFFFFFFFFFFFFFFFFFFFFFFFFFFFF AND PUSH20 0xFFFFFFFFFFFFFFFFFFFFFFFFFFFFFFFFFFFFFFFF AND CALLER PUSH20 0xFFFFFFFFFFFFFFFFFFFFFFFFFFFFFFFFFFFFFFFF AND EQ PUSH2 0x54B JUMPI PUSH1 0x40 MLOAD PUSH32 0x8C379A000000000000000000000000000000000000000000000000000000000 DUP2 MSTORE PUSH1 0x4 ADD PUSH2 0x542 SWAP1 PUSH2 0x8C7 JUMP JUMPDEST PUSH1 0x40 MLOAD DUP1 SWAP2 SUB SWAP1 REVERT JUMPDEST PUSH1 0x1 PUSH1 0x0 SWAP1 SLOAD SWAP1 PUSH2 0x100 EXP SWAP1 DIV PUSH20 0xFFFFFFFFFFFFFFFFFFFFFFFFFFFFFFFFFFFFFFFF AND PUSH20 0xFFFFFFFFFFFFFFFFFFFFFFFFFFFFFFFFFFFFFFFF AND SELFDESTRUCT JUMPDEST PUSH1 0x0 DUP1 REVERT JUMPDEST PUSH1 0x0 PUSH20 0xFFFFFFFFFFFFFFFFFFFFFFFFFFFFFFFFFFFFFFFF DUP3 AND SWAP1 POP SWAP2 SWAP1 POP JUMP JUMPDEST PUSH1 0x0 PUSH2 0x5B6 DUP3 PUSH2 0x58B JUMP JUMPDEST SWAP1 POP SWAP2 SWAP1 POP JUMP JUMPDEST PUSH2 0x5C6 DUP2 PUSH2 0x5AB JUMP JUMPDEST DUP2 EQ PUSH2 0x5D1 JUMPI PUSH1 0x0 DUP1 REVERT JUMPDEST POP JUMP JUMPDEST PUSH1 0x0 DUP2 CALLDATALOAD SWAP1 POP PUSH2 0x5E3 DUP2 PUSH2 0x5BD JUMP JUMPDEST SWAP3 SWAP2 POP POP JUMP JUMPDEST PUSH1 0x0 PUSH8 0xFFFFFFFFFFFFFFFF DUP3 AND SWAP1 POP SWAP2 SWAP1 POP JUMP JUMPDEST PUSH2 0x606 DUP2 PUSH2 0x5E9 JUMP JUMPDEST DUP2 EQ PUSH2 0x611 JUMPI PUSH1 0x0 DUP1 REVERT JUMPDEST POP JUMP JUMPDEST PUSH1 0x0 DUP2 CALLDATALOAD SWAP1 POP PUSH2 0x623 DUP2 PUSH2 0x5FD JUMP JUMPDEST SWAP3 SWAP2 POP POP JUMP JUMPDEST PUSH1 0x0 DUP1 PUSH1 0x40 DUP4 DUP6 SUB SLT ISZERO PUSH2 0x640 JUMPI PUSH2 0x63F PUSH2 0x586 JUMP JUMPDEST JUMPDEST PUSH1 0x0 PUSH2 0x64E DUP6 DUP3 DUP7 ADD PUSH2 0x5D4 JUMP JUMPDEST SWAP3 POP POP PUSH1 0x20 PUSH2 0x65F DUP6 DUP3 DUP7 ADD PUSH2 0x614 JUMP JUMPDEST SWAP2 POP POP SWAP3 POP SWAP3 SWAP1 POP JUMP JUMPDEST PUSH1 0x0 PUSH2 0x674 DUP3 PUSH2 0x58B JUMP JUMPDEST SWAP1 POP SWAP2 SWAP1 POP JUMP JUMPDEST PUSH2 0x684 DUP2 PUSH2 0x669 JUMP JUMPDEST DUP3 MSTORE POP POP JUMP JUMPDEST PUSH1 0x0 PUSH1 0x20 DUP3 ADD SWAP1 POP PUSH2 0x69F PUSH1 0x0 DUP4 ADD DUP5 PUSH2 0x67B JUMP JUMPDEST SWAP3 SWAP2 POP POP JUMP JUMPDEST PUSH2 0x6AE DUP2 PUSH2 0x669 JUMP JUMPDEST DUP2 EQ PUSH2 0x6B9 JUMPI PUSH1 0x0 DUP1 REVERT JUMPDEST POP JUMP JUMPDEST PUSH1 0x0 DUP2 CALLDATALOAD SWAP1 POP PUSH2 0x6CB DUP2 PUSH2 0x6A5 JUMP JUMPDEST SWAP3 SWAP2 POP POP JUMP JUMPDEST PUSH1 0x0 PUSH1 0x20 DUP3 DUP5 SUB SLT ISZERO PUSH2 0x6E7 JUMPI PUSH2 0x6E6 PUSH2 0x586 JUMP JUMPDEST JUMPDEST PUSH1 0x0 PUSH2 0x6F5 DUP5 DUP3 DUP6 ADD PUSH2 0x6BC JUMP JUMPDEST SWAP2 POP POP SWAP3 SWAP2 POP POP JUMP JUMPDEST PUSH2 0x707 DUP2 PUSH2 0x5E9 JUMP JUMPDEST DUP3 MSTORE POP POP JUMP JUMPDEST PUSH1 0x0 PUSH1 0x20 DUP3 ADD SWAP1 POP PUSH2 0x722 PUSH1 0x0 DUP4 ADD DUP5 PUSH2 0x6FE JUMP JUMPDEST SWAP3 SWAP2 POP POP JUMP JUMPDEST PUSH1 0x0 DUP3 DUP3 MSTORE PUSH1 0x20 DUP3 ADD SWAP1 POP SWAP3 SWAP2 POP POP JUMP JUMPDEST PUSH32 0x4E6F706500000000000000000000000000000000000000000000000000000000 PUSH1 0x0 DUP3 ADD MSTORE POP JUMP JUMPDEST PUSH1 0x0 PUSH2 0x76F PUSH1 0x4 DUP4 PUSH2 0x728 JUMP JUMPDEST SWAP2 POP PUSH2 0x77A DUP3 PUSH2 0x739 JUMP JUMPDEST PUSH1 0x20 DUP3 ADD SWAP1 POP SWAP2 SWAP1 POP JUMP JUMPDEST PUSH1 0x0 PUSH1 0x20 DUP3 ADD SWAP1 POP DUP2 DUP2 SUB PUSH1 0x0 DUP4 ADD MSTORE PUSH2 0x79E DUP2 PUSH2 0x762 JUMP JUMPDEST SWAP1 POP SWAP2 SWAP1 POP JUMP JUMPDEST PUSH32 0x4E487B7100000000000000000000000000000000000000000000000000000000 PUSH1 0x0 MSTORE PUSH1 0x11 PUSH1 0x4 MSTORE PUSH1 0x24 PUSH1 0x0 REVERT JUMPDEST PUSH1 0x0 PUSH2 0x7DF DUP3 PUSH2 0x5E9 JUMP JUMPDEST SWAP2 POP PUSH2 0x7EA DUP4 PUSH2 0x5E9 JUMP JUMPDEST SWAP3 POP DUP3 DUP3 SUB SWAP1 POP PUSH8 0xFFFFFFFFFFFFFFFF DUP2 GT ISZERO PUSH2 0x80A JUMPI PUSH2 0x809 PUSH2 0x7A5 JUMP JUMPDEST JUMPDEST SWAP3 SWAP2 POP POP JUMP JUMPDEST PUSH32 0x4E487B7100000000000000000000000000000000000000000000000000000000 PUSH1 0x0 MSTORE PUSH1 0x1 PUSH1 0x4 MSTORE PUSH1 0x24 PUSH1 0x0 REVERT JUMPDEST PUSH1 0x0 PUSH2 0x84A DUP3 PUSH2 0x5E9 JUMP JUMPDEST SWAP2 POP PUSH2 0x855 DUP4 PUSH2 0x5E9 JUMP JUMPDEST SWAP3 POP DUP3 DUP3 ADD SWAP1 POP PUSH8 0xFFFFFFFFFFFFFFFF DUP2 GT ISZERO PUSH2 0x875 JUMPI PUSH2 0x874 PUSH2 0x7A5 JUMP JUMPDEST JUMPDEST SWAP3 SWAP2 POP POP JUMP JUMPDEST PUSH32 0x796F7520617265206E6F7420746865206F776E65720000000000000000000000 PUSH1 0x0 DUP3 ADD MSTORE POP JUMP JUMPDEST PUSH1 0x0 PUSH2 0x8B1 PUSH1 0x15 DUP4 PUSH2 0x728 JUMP JUMPDEST SWAP2 POP PUSH2 0x8BC DUP3 PUSH2 0x87B JUMP JUMPDEST PUSH1 0x20 DUP3 ADD SWAP1 POP SWAP2 SWAP1 POP JUMP JUMPDEST PUSH1 0x0 PUSH1 0x20 DUP3 ADD SWAP1 POP DUP2 DUP2 SUB PUSH1 0x0 DUP4 ADD MSTORE PUSH2 0x8E0 DUP2 PUSH2 0x8A4 JUMP JUMPDEST SWAP1 POP SWAP2 SWAP1 POP JUMP INVALID LOG2 PUSH5 0x6970667358 0x22 SLT KECCAK256 SELFBALANCE 0xAE DIFFICULTY 0xDE 0xC6 PUSH5 0x790ED58382 SMOD 0xD5 DUP15 MUL SWAP16 CALLVALUE DELEGATECALL 0x5D CALLDATACOPY SLT LOG0 LOG0 EXTCODECOPY 0xEB 0x2D SHL PUSH32 0x9D188F8B64736F6C634300081000330000000000000000000000000000000000 "
				},
				"gasEstimates": {
					"creation": {
						"codeDepositCost": "466600",
						"executionCost": "24765",
						"totalCost": "491365"
					},
					"external": {
						"balanceReceived(address)": "2889",
						"destroySmartContr4act()": "32116",
						"getOwner()": "2544",
						"receiveMoney()": "infinite",
						"withdrawMoney(address,uint64)": "infinite"
					}
				},
				"methodIdentifiers": {
					"balanceReceived(address)": "d18a42e1",
					"destroySmartContr4act()": "eef5da9c",
					"getOwner()": "893d20e8",
					"receiveMoney()": "6d26ec18",
					"withdrawMoney(address,uint64)": "0ad19aeb"
				}
			},
			"storageLayout": {
				"storage": [
					{
						"astId": 5,
						"contract": "FunctionExample.sol:FunctionsExample",
						"label": "balanceReceived",
						"offset": 0,
						"slot": "0",
						"type": "t_mapping(t_address,t_uint64)"
					},
					{
						"astId": 7,
						"contract": "FunctionExample.sol:FunctionsExample",
						"label": "owner",
						"offset": 0,
						"slot": "1",
						"type": "t_address_payable"
					}
				],
				"types": {
					"t_address": {
						"encoding": "inplace",
						"label": "address",
						"numberOfBytes": "20"
					},
					"t_address_payable": {
						"encoding": "inplace",
						"label": "address payable",
						"numberOfBytes": "20"
					},
					"t_mapping(t_address,t_uint64)": {
						"encoding": "mapping",
						"key": "t_address",
						"label": "mapping(address => uint64)",
						"numberOfBytes": "32",
						"value": "t_uint64"
					},
					"t_uint64": {
						"encoding": "inplace",
						"label": "uint64",
						"numberOfBytes": "8"
					}
				}
			},
			"userdoc": {
				"kind": "user",
				"methods": {},
				"version": 1
			}
		}
	}
}