{
	"EventExample.sol": {
		"EventExample": {
			"abi": [
				{
					"inputs": [],
					"stateMutability": "nonpayable",
					"type": "constructor"
				},
				{
					"anonymous": false,
					"inputs": [
						{
							"indexed": false,
							"internalType": "address",
							"name": "_from",
							"type": "address"
						},
						{
							"indexed": false,
							"internalType": "address",
							"name": "_to",
							"type": "address"
						},
						{
							"indexed": false,
							"internalType": "uint256",
							"name": "_amount",
							"type": "uint256"
						}
					],
					"name": "TokensSent",
					"type": "event"
				},
				{
					"inputs": [
						{
							"internalType": "address",
							"name": "_to",
							"type": "address"
						},
						{
							"internalType": "uint256",
							"name": "_amount",
							"type": "uint256"
						}
					],
					"name": "sendToken",
					"outputs": [
						{
							"internalType": "bool",
							"name": "",
							"type": "bool"
						}
					],
					"stateMutability": "nonpayable",
					"type": "function"
				},
				{
					"inputs": [
						{
							"internalType": "address",
							"name": "",
							"type": "address"
						}
					],
					"name": "tokenBalance",
					"outputs": [
						{
							"internalType": "uint256",
							"name": "",
							"type": "uint256"
						}
					],
					"stateMutability": "view",
					"type": "function"
				}
			],
			"devdoc": {
				"kind": "dev",
				"methods": {},
				"version": 1
			},
			"evm": {
				"assembly": "    /* \"EventExample.sol\":58:684  contract EventExample {... */\n  mstore(0x40, 0x80)\n    /* \"EventExample.sol\":207:268  constructor() {... */\n  callvalue\n  dup1\n  iszero\n  tag_1\n  jumpi\n  0x00\n  dup1\n  revert\ntag_1:\n  pop\n    /* \"EventExample.sol\":258:261  100 */\n  0x64\n    /* \"EventExample.sol\":231:243  tokenBalance */\n  0x00\n    /* \"EventExample.sol\":231:255  tokenBalance[msg.sender] */\n  dup1\n    /* \"EventExample.sol\":244:254  msg.sender */\n  caller\n    /* \"EventExample.sol\":231:255  tokenBalance[msg.sender] */\n  0xffffffffffffffffffffffffffffffffffffffff\n  and\n  0xffffffffffffffffffffffffffffffffffffffff\n  and\n  dup2\n  mstore\n  0x20\n  add\n  swap1\n  dup2\n  mstore\n  0x20\n  add\n  0x00\n  keccak256\n    /* \"EventExample.sol\":231:261  tokenBalance[msg.sender] = 100 */\n  dup2\n  swap1\n  sstore\n  pop\n    /* \"EventExample.sol\":58:684  contract EventExample {... */\n  dataSize(sub_0)\n  dup1\n  dataOffset(sub_0)\n  0x00\n  codecopy\n  0x00\n  return\nstop\n\nsub_0: assembly {\n        /* \"EventExample.sol\":58:684  contract EventExample {... */\n      mstore(0x40, 0x80)\n      callvalue\n      dup1\n      iszero\n      tag_1\n      jumpi\n      0x00\n      dup1\n      revert\n    tag_1:\n      pop\n      jumpi(tag_2, lt(calldatasize, 0x04))\n      shr(0xe0, calldataload(0x00))\n      dup1\n      0x412664ae\n      eq\n      tag_3\n      jumpi\n      dup1\n      0xeedc966a\n      eq\n      tag_4\n      jumpi\n    tag_2:\n      0x00\n      dup1\n      revert\n        /* \"EventExample.sol\":274:682  function sendToken(address _to, uint _amount) public returns(bool) {... */\n    tag_3:\n      tag_5\n      0x04\n      dup1\n      calldatasize\n      sub\n      dup2\n      add\n      swap1\n      tag_6\n      swap2\n      swap1\n      tag_7\n      jump\t// in\n    tag_6:\n      tag_8\n      jump\t// in\n    tag_5:\n      mload(0x40)\n      tag_9\n      swap2\n      swap1\n      tag_10\n      jump\t// in\n    tag_9:\n      mload(0x40)\n      dup1\n      swap2\n      sub\n      swap1\n      return\n        /* \"EventExample.sol\":91:135  mapping(address => uint) public tokenBalance */\n    tag_4:\n      tag_11\n      0x04\n      dup1\n      calldatasize\n      sub\n      dup2\n      add\n      swap1\n      tag_12\n      swap2\n      swap1\n      tag_13\n      jump\t// in\n    tag_12:\n      tag_14\n      jump\t// in\n    tag_11:\n      mload(0x40)\n      tag_15\n      swap2\n      swap1\n      tag_16\n      jump\t// in\n    tag_15:\n      mload(0x40)\n      dup1\n      swap2\n      sub\n      swap1\n      return\n        /* \"EventExample.sol\":274:682  function sendToken(address _to, uint _amount) public returns(bool) {... */\n    tag_8:\n        /* \"EventExample.sol\":335:339  bool */\n      0x00\n        /* \"EventExample.sol\":387:394  _amount */\n      dup2\n        /* \"EventExample.sol\":359:371  tokenBalance */\n      0x00\n        /* \"EventExample.sol\":359:383  tokenBalance[msg.sender] */\n      dup1\n        /* \"EventExample.sol\":372:382  msg.sender */\n      caller\n        /* \"EventExample.sol\":359:383  tokenBalance[msg.sender] */\n      0xffffffffffffffffffffffffffffffffffffffff\n      and\n      0xffffffffffffffffffffffffffffffffffffffff\n      and\n      dup2\n      mstore\n      0x20\n      add\n      swap1\n      dup2\n      mstore\n      0x20\n      add\n      0x00\n      keccak256\n      sload\n        /* \"EventExample.sol\":359:394  tokenBalance[msg.sender] >= _amount */\n      lt\n      iszero\n        /* \"EventExample.sol\":351:416  require(tokenBalance[msg.sender] >= _amount, \"Not enough tokens\") */\n      tag_18\n      jumpi\n      mload(0x40)\n      0x08c379a000000000000000000000000000000000000000000000000000000000\n      dup2\n      mstore\n      0x04\n      add\n      tag_19\n      swap1\n      tag_20\n      jump\t// in\n    tag_19:\n      mload(0x40)\n      dup1\n      swap2\n      sub\n      swap1\n      revert\n    tag_18:\n        /* \"EventExample.sol\":464:476  tokenBalance */\n      0x00\n        /* \"EventExample.sol\":464:481  tokenBalance[_to] */\n      dup1\n        /* \"EventExample.sol\":477:480  _to */\n      dup5\n        /* \"EventExample.sol\":464:481  tokenBalance[_to] */\n      0xffffffffffffffffffffffffffffffffffffffff\n      and\n      0xffffffffffffffffffffffffffffffffffffffff\n      and\n      dup2\n      mstore\n      0x20\n      add\n      swap1\n      dup2\n      mstore\n      0x20\n      add\n      0x00\n      keccak256\n      sload\n        /* \"EventExample.sol\":453:460  _amount */\n      dup3\n        /* \"EventExample.sol\":433:445  tokenBalance */\n      0x00\n        /* \"EventExample.sol\":433:450  tokenBalance[_to] */\n      dup1\n        /* \"EventExample.sol\":446:449  _to */\n      dup7\n        /* \"EventExample.sol\":433:450  tokenBalance[_to] */\n      0xffffffffffffffffffffffffffffffffffffffff\n      and\n      0xffffffffffffffffffffffffffffffffffffffff\n      and\n      dup2\n      mstore\n      0x20\n      add\n      swap1\n      dup2\n      mstore\n      0x20\n      add\n      0x00\n      keccak256\n      sload\n        /* \"EventExample.sol\":433:460  tokenBalance[_to] + _amount */\n      tag_21\n      swap2\n      swap1\n      tag_22\n      jump\t// in\n    tag_21:\n        /* \"EventExample.sol\":433:481  tokenBalance[_to] + _amount >= tokenBalance[_to] */\n      lt\n      iszero\n        /* \"EventExample.sol\":426:482  assert(tokenBalance[_to] + _amount >= tokenBalance[_to]) */\n      tag_23\n      jumpi\n      mstore(0x00, 0x4e487b7100000000000000000000000000000000000000000000000000000000)\n      mstore(0x04, 0x01)\n      revert(0x00, 0x24)\n    tag_23:\n        /* \"EventExample.sol\":537:549  tokenBalance */\n      0x00\n        /* \"EventExample.sol\":537:561  tokenBalance[msg.sender] */\n      dup1\n        /* \"EventExample.sol\":550:560  msg.sender */\n      caller\n        /* \"EventExample.sol\":537:561  tokenBalance[msg.sender] */\n      0xffffffffffffffffffffffffffffffffffffffff\n      and\n      0xffffffffffffffffffffffffffffffffffffffff\n      and\n      dup2\n      mstore\n      0x20\n      add\n      swap1\n      dup2\n      mstore\n      0x20\n      add\n      0x00\n      keccak256\n      sload\n        /* \"EventExample.sol\":526:533  _amount */\n      dup3\n        /* \"EventExample.sol\":499:511  tokenBalance */\n      0x00\n        /* \"EventExample.sol\":499:523  tokenBalance[msg.sender] */\n      dup1\n        /* \"EventExample.sol\":512:522  msg.sender */\n      caller\n        /* \"EventExample.sol\":499:523  tokenBalance[msg.sender] */\n      0xffffffffffffffffffffffffffffffffffffffff\n      and\n      0xffffffffffffffffffffffffffffffffffffffff\n      and\n      dup2\n      mstore\n      0x20\n      add\n      swap1\n      dup2\n      mstore\n      0x20\n      add\n      0x00\n      keccak256\n      sload\n        /* \"EventExample.sol\":499:533  tokenBalance[msg.sender] - _amount */\n      tag_24\n      swap2\n      swap1\n      tag_25\n      jump\t// in\n    tag_24:\n        /* \"EventExample.sol\":499:561  tokenBalance[msg.sender] - _amount <= tokenBalance[msg.sender] */\n      gt\n      iszero\n        /* \"EventExample.sol\":492:562  assert(tokenBalance[msg.sender] - _amount <= tokenBalance[msg.sender]) */\n      tag_26\n      jumpi\n      mstore(0x00, 0x4e487b7100000000000000000000000000000000000000000000000000000000)\n      mstore(0x04, 0x01)\n      revert(0x00, 0x24)\n    tag_26:\n        /* \"EventExample.sol\":600:607  _amount */\n      dup2\n        /* \"EventExample.sol\":572:584  tokenBalance */\n      0x00\n        /* \"EventExample.sol\":572:596  tokenBalance[msg.sender] */\n      dup1\n        /* \"EventExample.sol\":585:595  msg.sender */\n      caller\n        /* \"EventExample.sol\":572:596  tokenBalance[msg.sender] */\n      0xffffffffffffffffffffffffffffffffffffffff\n      and\n      0xffffffffffffffffffffffffffffffffffffffff\n      and\n      dup2\n      mstore\n      0x20\n      add\n      swap1\n      dup2\n      mstore\n      0x20\n      add\n      0x00\n      keccak256\n      0x00\n        /* \"EventExample.sol\":572:607  tokenBalance[msg.sender] -= _amount */\n      dup3\n      dup3\n      sload\n      tag_27\n      swap2\n      swap1\n      tag_25\n      jump\t// in\n    tag_27:\n      swap3\n      pop\n      pop\n      dup2\n      swap1\n      sstore\n      pop\n        /* \"EventExample.sol\":638:645  _amount */\n      dup2\n        /* \"EventExample.sol\":617:629  tokenBalance */\n      0x00\n        /* \"EventExample.sol\":617:634  tokenBalance[_to] */\n      dup1\n        /* \"EventExample.sol\":630:633  _to */\n      dup6\n        /* \"EventExample.sol\":617:634  tokenBalance[_to] */\n      0xffffffffffffffffffffffffffffffffffffffff\n      and\n      0xffffffffffffffffffffffffffffffffffffffff\n      and\n      dup2\n      mstore\n      0x20\n      add\n      swap1\n      dup2\n      mstore\n      0x20\n      add\n      0x00\n      keccak256\n      0x00\n        /* \"EventExample.sol\":617:645  tokenBalance[_to] += _amount */\n      dup3\n      dup3\n      sload\n      tag_28\n      swap2\n      swap1\n      tag_22\n      jump\t// in\n    tag_28:\n      swap3\n      pop\n      pop\n      dup2\n      swap1\n      sstore\n      pop\n        /* \"EventExample.sol\":671:675  true */\n      0x01\n        /* \"EventExample.sol\":664:675  return true */\n      swap1\n      pop\n        /* \"EventExample.sol\":274:682  function sendToken(address _to, uint _amount) public returns(bool) {... */\n      swap3\n      swap2\n      pop\n      pop\n      jump\t// out\n        /* \"EventExample.sol\":91:135  mapping(address => uint) public tokenBalance */\n    tag_14:\n      mstore(0x20, 0x00)\n      dup1\n      0x00\n      mstore\n      keccak256(0x00, 0x40)\n      0x00\n      swap2\n      pop\n      swap1\n      pop\n      sload\n      dup2\n      jump\t// out\n        /* \"#utility.yul\":7:146   */\n    tag_30:\n      0x00\n        /* \"#utility.yul\":91:97   */\n      dup2\n        /* \"#utility.yul\":78:98   */\n      calldataload\n        /* \"#utility.yul\":69:98   */\n      swap1\n      pop\n        /* \"#utility.yul\":107:140   */\n      tag_32\n        /* \"#utility.yul\":134:139   */\n      dup2\n        /* \"#utility.yul\":107:140   */\n      tag_33\n      jump\t// in\n    tag_32:\n        /* \"#utility.yul\":59:146   */\n      swap3\n      swap2\n      pop\n      pop\n      jump\t// out\n        /* \"#utility.yul\":152:291   */\n    tag_34:\n      0x00\n        /* \"#utility.yul\":236:242   */\n      dup2\n        /* \"#utility.yul\":223:243   */\n      calldataload\n        /* \"#utility.yul\":214:243   */\n      swap1\n      pop\n        /* \"#utility.yul\":252:285   */\n      tag_36\n        /* \"#utility.yul\":279:284   */\n      dup2\n        /* \"#utility.yul\":252:285   */\n      tag_37\n      jump\t// in\n    tag_36:\n        /* \"#utility.yul\":204:291   */\n      swap3\n      swap2\n      pop\n      pop\n      jump\t// out\n        /* \"#utility.yul\":297:559   */\n    tag_13:\n      0x00\n        /* \"#utility.yul\":405:407   */\n      0x20\n        /* \"#utility.yul\":393:402   */\n      dup3\n        /* \"#utility.yul\":384:391   */\n      dup5\n        /* \"#utility.yul\":380:403   */\n      sub\n        /* \"#utility.yul\":376:408   */\n      slt\n        /* \"#utility.yul\":373:375   */\n      iszero\n      tag_39\n      jumpi\n        /* \"#utility.yul\":421:422   */\n      0x00\n        /* \"#utility.yul\":418:419   */\n      dup1\n        /* \"#utility.yul\":411:423   */\n      revert\n        /* \"#utility.yul\":373:375   */\n    tag_39:\n        /* \"#utility.yul\":464:465   */\n      0x00\n        /* \"#utility.yul\":489:542   */\n      tag_40\n        /* \"#utility.yul\":534:541   */\n      dup5\n        /* \"#utility.yul\":525:531   */\n      dup3\n        /* \"#utility.yul\":514:523   */\n      dup6\n        /* \"#utility.yul\":510:532   */\n      add\n        /* \"#utility.yul\":489:542   */\n      tag_30\n      jump\t// in\n    tag_40:\n        /* \"#utility.yul\":479:542   */\n      swap2\n      pop\n        /* \"#utility.yul\":435:552   */\n      pop\n        /* \"#utility.yul\":363:559   */\n      swap3\n      swap2\n      pop\n      pop\n      jump\t// out\n        /* \"#utility.yul\":565:972   */\n    tag_7:\n      0x00\n      dup1\n        /* \"#utility.yul\":690:692   */\n      0x40\n        /* \"#utility.yul\":678:687   */\n      dup4\n        /* \"#utility.yul\":669:676   */\n      dup6\n        /* \"#utility.yul\":665:688   */\n      sub\n        /* \"#utility.yul\":661:693   */\n      slt\n        /* \"#utility.yul\":658:660   */\n      iszero\n      tag_42\n      jumpi\n        /* \"#utility.yul\":706:707   */\n      0x00\n        /* \"#utility.yul\":703:704   */\n      dup1\n        /* \"#utility.yul\":696:708   */\n      revert\n        /* \"#utility.yul\":658:660   */\n    tag_42:\n        /* \"#utility.yul\":749:750   */\n      0x00\n        /* \"#utility.yul\":774:827   */\n      tag_43\n        /* \"#utility.yul\":819:826   */\n      dup6\n        /* \"#utility.yul\":810:816   */\n      dup3\n        /* \"#utility.yul\":799:808   */\n      dup7\n        /* \"#utility.yul\":795:817   */\n      add\n        /* \"#utility.yul\":774:827   */\n      tag_30\n      jump\t// in\n    tag_43:\n        /* \"#utility.yul\":764:827   */\n      swap3\n      pop\n        /* \"#utility.yul\":720:837   */\n      pop\n        /* \"#utility.yul\":876:878   */\n      0x20\n        /* \"#utility.yul\":902:955   */\n      tag_44\n        /* \"#utility.yul\":947:954   */\n      dup6\n        /* \"#utility.yul\":938:944   */\n      dup3\n        /* \"#utility.yul\":927:936   */\n      dup7\n        /* \"#utility.yul\":923:945   */\n      add\n        /* \"#utility.yul\":902:955   */\n      tag_34\n      jump\t// in\n    tag_44:\n        /* \"#utility.yul\":892:955   */\n      swap2\n      pop\n        /* \"#utility.yul\":847:965   */\n      pop\n        /* \"#utility.yul\":648:972   */\n      swap3\n      pop\n      swap3\n      swap1\n      pop\n      jump\t// out\n        /* \"#utility.yul\":978:1087   */\n    tag_45:\n        /* \"#utility.yul\":1059:1080   */\n      tag_47\n        /* \"#utility.yul\":1074:1079   */\n      dup2\n        /* \"#utility.yul\":1059:1080   */\n      tag_48\n      jump\t// in\n    tag_47:\n        /* \"#utility.yul\":1054:1057   */\n      dup3\n        /* \"#utility.yul\":1047:1081   */\n      mstore\n        /* \"#utility.yul\":1037:1087   */\n      pop\n      pop\n      jump\t// out\n        /* \"#utility.yul\":1093:1459   */\n    tag_49:\n      0x00\n        /* \"#utility.yul\":1256:1323   */\n      tag_51\n        /* \"#utility.yul\":1320:1322   */\n      0x11\n        /* \"#utility.yul\":1315:1318   */\n      dup4\n        /* \"#utility.yul\":1256:1323   */\n      tag_52\n      jump\t// in\n    tag_51:\n        /* \"#utility.yul\":1249:1323   */\n      swap2\n      pop\n        /* \"#utility.yul\":1332:1425   */\n      tag_53\n        /* \"#utility.yul\":1421:1424   */\n      dup3\n        /* \"#utility.yul\":1332:1425   */\n      tag_54\n      jump\t// in\n    tag_53:\n        /* \"#utility.yul\":1450:1452   */\n      0x20\n        /* \"#utility.yul\":1445:1448   */\n      dup3\n        /* \"#utility.yul\":1441:1453   */\n      add\n        /* \"#utility.yul\":1434:1453   */\n      swap1\n      pop\n        /* \"#utility.yul\":1239:1459   */\n      swap2\n      swap1\n      pop\n      jump\t// out\n        /* \"#utility.yul\":1465:1583   */\n    tag_55:\n        /* \"#utility.yul\":1552:1576   */\n      tag_57\n        /* \"#utility.yul\":1570:1575   */\n      dup2\n        /* \"#utility.yul\":1552:1576   */\n      tag_58\n      jump\t// in\n    tag_57:\n        /* \"#utility.yul\":1547:1550   */\n      dup3\n        /* \"#utility.yul\":1540:1577   */\n      mstore\n        /* \"#utility.yul\":1530:1583   */\n      pop\n      pop\n      jump\t// out\n        /* \"#utility.yul\":1589:1799   */\n    tag_10:\n      0x00\n        /* \"#utility.yul\":1714:1716   */\n      0x20\n        /* \"#utility.yul\":1703:1712   */\n      dup3\n        /* \"#utility.yul\":1699:1717   */\n      add\n        /* \"#utility.yul\":1691:1717   */\n      swap1\n      pop\n        /* \"#utility.yul\":1727:1792   */\n      tag_60\n        /* \"#utility.yul\":1789:1790   */\n      0x00\n        /* \"#utility.yul\":1778:1787   */\n      dup4\n        /* \"#utility.yul\":1774:1791   */\n      add\n        /* \"#utility.yul\":1765:1771   */\n      dup5\n        /* \"#utility.yul\":1727:1792   */\n      tag_45\n      jump\t// in\n    tag_60:\n        /* \"#utility.yul\":1681:1799   */\n      swap3\n      swap2\n      pop\n      pop\n      jump\t// out\n        /* \"#utility.yul\":1805:2224   */\n    tag_20:\n      0x00\n        /* \"#utility.yul\":2009:2011   */\n      0x20\n        /* \"#utility.yul\":1998:2007   */\n      dup3\n        /* \"#utility.yul\":1994:2012   */\n      add\n        /* \"#utility.yul\":1986:2012   */\n      swap1\n      pop\n        /* \"#utility.yul\":2058:2067   */\n      dup2\n        /* \"#utility.yul\":2052:2056   */\n      dup2\n        /* \"#utility.yul\":2048:2068   */\n      sub\n        /* \"#utility.yul\":2044:2045   */\n      0x00\n        /* \"#utility.yul\":2033:2042   */\n      dup4\n        /* \"#utility.yul\":2029:2046   */\n      add\n        /* \"#utility.yul\":2022:2069   */\n      mstore\n        /* \"#utility.yul\":2086:2217   */\n      tag_62\n        /* \"#utility.yul\":2212:2216   */\n      dup2\n        /* \"#utility.yul\":2086:2217   */\n      tag_49\n      jump\t// in\n    tag_62:\n        /* \"#utility.yul\":2078:2217   */\n      swap1\n      pop\n        /* \"#utility.yul\":1976:2224   */\n      swap2\n      swap1\n      pop\n      jump\t// out\n        /* \"#utility.yul\":2230:2452   */\n    tag_16:\n      0x00\n        /* \"#utility.yul\":2361:2363   */\n      0x20\n        /* \"#utility.yul\":2350:2359   */\n      dup3\n        /* \"#utility.yul\":2346:2364   */\n      add\n        /* \"#utility.yul\":2338:2364   */\n      swap1\n      pop\n        /* \"#utility.yul\":2374:2445   */\n      tag_64\n        /* \"#utility.yul\":2442:2443   */\n      0x00\n        /* \"#utility.yul\":2431:2440   */\n      dup4\n        /* \"#utility.yul\":2427:2444   */\n      add\n        /* \"#utility.yul\":2418:2424   */\n      dup5\n        /* \"#utility.yul\":2374:2445   */\n      tag_55\n      jump\t// in\n    tag_64:\n        /* \"#utility.yul\":2328:2452   */\n      swap3\n      swap2\n      pop\n      pop\n      jump\t// out\n        /* \"#utility.yul\":2458:2627   */\n    tag_52:\n      0x00\n        /* \"#utility.yul\":2576:2582   */\n      dup3\n        /* \"#utility.yul\":2571:2574   */\n      dup3\n        /* \"#utility.yul\":2564:2583   */\n      mstore\n        /* \"#utility.yul\":2616:2620   */\n      0x20\n        /* \"#utility.yul\":2611:2614   */\n      dup3\n        /* \"#utility.yul\":2607:2621   */\n      add\n        /* \"#utility.yul\":2592:2621   */\n      swap1\n      pop\n        /* \"#utility.yul\":2554:2627   */\n      swap3\n      swap2\n      pop\n      pop\n      jump\t// out\n        /* \"#utility.yul\":2633:2938   */\n    tag_22:\n      0x00\n        /* \"#utility.yul\":2692:2712   */\n      tag_67\n        /* \"#utility.yul\":2710:2711   */\n      dup3\n        /* \"#utility.yul\":2692:2712   */\n      tag_58\n      jump\t// in\n    tag_67:\n        /* \"#utility.yul\":2687:2712   */\n      swap2\n      pop\n        /* \"#utility.yul\":2726:2746   */\n      tag_68\n        /* \"#utility.yul\":2744:2745   */\n      dup4\n        /* \"#utility.yul\":2726:2746   */\n      tag_58\n      jump\t// in\n    tag_68:\n        /* \"#utility.yul\":2721:2746   */\n      swap3\n      pop\n        /* \"#utility.yul\":2880:2881   */\n      dup3\n        /* \"#utility.yul\":2812:2878   */\n      0xffffffffffffffffffffffffffffffffffffffffffffffffffffffffffffffff\n        /* \"#utility.yul\":2808:2882   */\n      sub\n        /* \"#utility.yul\":2805:2806   */\n      dup3\n        /* \"#utility.yul\":2802:2883   */\n      gt\n        /* \"#utility.yul\":2799:2801   */\n      iszero\n      tag_69\n      jumpi\n        /* \"#utility.yul\":2886:2904   */\n      tag_70\n      tag_71\n      jump\t// in\n    tag_70:\n        /* \"#utility.yul\":2799:2801   */\n    tag_69:\n        /* \"#utility.yul\":2930:2931   */\n      dup3\n        /* \"#utility.yul\":2927:2928   */\n      dup3\n        /* \"#utility.yul\":2923:2932   */\n      add\n        /* \"#utility.yul\":2916:2932   */\n      swap1\n      pop\n        /* \"#utility.yul\":2677:2938   */\n      swap3\n      swap2\n      pop\n      pop\n      jump\t// out\n        /* \"#utility.yul\":2944:3135   */\n    tag_25:\n      0x00\n        /* \"#utility.yul\":3004:3024   */\n      tag_73\n        /* \"#utility.yul\":3022:3023   */\n      dup3\n        /* \"#utility.yul\":3004:3024   */\n      tag_58\n      jump\t// in\n    tag_73:\n        /* \"#utility.yul\":2999:3024   */\n      swap2\n      pop\n        /* \"#utility.yul\":3038:3058   */\n      tag_74\n        /* \"#utility.yul\":3056:3057   */\n      dup4\n        /* \"#utility.yul\":3038:3058   */\n      tag_58\n      jump\t// in\n    tag_74:\n        /* \"#utility.yul\":3033:3058   */\n      swap3\n      pop\n        /* \"#utility.yul\":3077:3078   */\n      dup3\n        /* \"#utility.yul\":3074:3075   */\n      dup3\n        /* \"#utility.yul\":3071:3079   */\n      lt\n        /* \"#utility.yul\":3068:3070   */\n      iszero\n      tag_75\n      jumpi\n        /* \"#utility.yul\":3082:3100   */\n      tag_76\n      tag_71\n      jump\t// in\n    tag_76:\n        /* \"#utility.yul\":3068:3070   */\n    tag_75:\n        /* \"#utility.yul\":3127:3128   */\n      dup3\n        /* \"#utility.yul\":3124:3125   */\n      dup3\n        /* \"#utility.yul\":3120:3129   */\n      sub\n        /* \"#utility.yul\":3112:3129   */\n      swap1\n      pop\n        /* \"#utility.yul\":2989:3135   */\n      swap3\n      swap2\n      pop\n      pop\n      jump\t// out\n        /* \"#utility.yul\":3141:3237   */\n    tag_77:\n      0x00\n        /* \"#utility.yul\":3207:3231   */\n      tag_79\n        /* \"#utility.yul\":3225:3230   */\n      dup3\n        /* \"#utility.yul\":3207:3231   */\n      tag_80\n      jump\t// in\n    tag_79:\n        /* \"#utility.yul\":3196:3231   */\n      swap1\n      pop\n        /* \"#utility.yul\":3186:3237   */\n      swap2\n      swap1\n      pop\n      jump\t// out\n        /* \"#utility.yul\":3243:3333   */\n    tag_48:\n      0x00\n        /* \"#utility.yul\":3320:3325   */\n      dup2\n        /* \"#utility.yul\":3313:3326   */\n      iszero\n        /* \"#utility.yul\":3306:3327   */\n      iszero\n        /* \"#utility.yul\":3295:3327   */\n      swap1\n      pop\n        /* \"#utility.yul\":3285:3333   */\n      swap2\n      swap1\n      pop\n      jump\t// out\n        /* \"#utility.yul\":3339:3465   */\n    tag_80:\n      0x00\n        /* \"#utility.yul\":3416:3458   */\n      0xffffffffffffffffffffffffffffffffffffffff\n        /* \"#utility.yul\":3409:3414   */\n      dup3\n        /* \"#utility.yul\":3405:3459   */\n      and\n        /* \"#utility.yul\":3394:3459   */\n      swap1\n      pop\n        /* \"#utility.yul\":3384:3465   */\n      swap2\n      swap1\n      pop\n      jump\t// out\n        /* \"#utility.yul\":3471:3548   */\n    tag_58:\n      0x00\n        /* \"#utility.yul\":3537:3542   */\n      dup2\n        /* \"#utility.yul\":3526:3542   */\n      swap1\n      pop\n        /* \"#utility.yul\":3516:3548   */\n      swap2\n      swap1\n      pop\n      jump\t// out\n        /* \"#utility.yul\":3554:3734   */\n    tag_71:\n        /* \"#utility.yul\":3602:3679   */\n      0x4e487b7100000000000000000000000000000000000000000000000000000000\n        /* \"#utility.yul\":3599:3600   */\n      0x00\n        /* \"#utility.yul\":3592:3680   */\n      mstore\n        /* \"#utility.yul\":3699:3703   */\n      0x11\n        /* \"#utility.yul\":3696:3697   */\n      0x04\n        /* \"#utility.yul\":3689:3704   */\n      mstore\n        /* \"#utility.yul\":3723:3727   */\n      0x24\n        /* \"#utility.yul\":3720:3721   */\n      0x00\n        /* \"#utility.yul\":3713:3728   */\n      revert\n        /* \"#utility.yul\":3740:3907   */\n    tag_54:\n        /* \"#utility.yul\":3880:3899   */\n      0x4e6f7420656e6f75676820746f6b656e73000000000000000000000000000000\n        /* \"#utility.yul\":3876:3877   */\n      0x00\n        /* \"#utility.yul\":3868:3874   */\n      dup3\n        /* \"#utility.yul\":3864:3878   */\n      add\n        /* \"#utility.yul\":3857:3900   */\n      mstore\n        /* \"#utility.yul\":3846:3907   */\n      pop\n      jump\t// out\n        /* \"#utility.yul\":3913:4035   */\n    tag_33:\n        /* \"#utility.yul\":3986:4010   */\n      tag_87\n        /* \"#utility.yul\":4004:4009   */\n      dup2\n        /* \"#utility.yul\":3986:4010   */\n      tag_77\n      jump\t// in\n    tag_87:\n        /* \"#utility.yul\":3979:3984   */\n      dup2\n        /* \"#utility.yul\":3976:4011   */\n      eq\n        /* \"#utility.yul\":3966:3968   */\n      tag_88\n      jumpi\n        /* \"#utility.yul\":4025:4026   */\n      0x00\n        /* \"#utility.yul\":4022:4023   */\n      dup1\n        /* \"#utility.yul\":4015:4027   */\n      revert\n        /* \"#utility.yul\":3966:3968   */\n    tag_88:\n        /* \"#utility.yul\":3956:4035   */\n      pop\n      jump\t// out\n        /* \"#utility.yul\":4041:4163   */\n    tag_37:\n        /* \"#utility.yul\":4114:4138   */\n      tag_90\n        /* \"#utility.yul\":4132:4137   */\n      dup2\n        /* \"#utility.yul\":4114:4138   */\n      tag_58\n      jump\t// in\n    tag_90:\n        /* \"#utility.yul\":4107:4112   */\n      dup2\n        /* \"#utility.yul\":4104:4139   */\n      eq\n        /* \"#utility.yul\":4094:4096   */\n      tag_91\n      jumpi\n        /* \"#utility.yul\":4153:4154   */\n      0x00\n        /* \"#utility.yul\":4150:4151   */\n      dup1\n        /* \"#utility.yul\":4143:4155   */\n      revert\n        /* \"#utility.yul\":4094:4096   */\n    tag_91:\n        /* \"#utility.yul\":4084:4163   */\n      pop\n      jump\t// out\n\n    auxdata: 0xa2646970667358221220677156647d503312ee1d7c3a5cfa03896247ad2093057a876f1fc3c351f3567764736f6c63430008030033\n}\n",
				"bytecode": {
					"linkReferences": {},
					"object": "608060405234801561001057600080fd5b5060646000803373ffffffffffffffffffffffffffffffffffffffff1673ffffffffffffffffffffffffffffffffffffffff1681526020019081526020016000208190555061062b806100646000396000f3fe608060405234801561001057600080fd5b50600436106100365760003560e01c8063412664ae1461003b578063eedc966a1461006b575b600080fd5b610055600480360381019061005091906103b9565b61009b565b6040516100629190610436565b60405180910390f35b61008560048036038101906100809190610390565b61034e565b6040516100929190610471565b60405180910390f35b6000816000803373ffffffffffffffffffffffffffffffffffffffff1673ffffffffffffffffffffffffffffffffffffffff16815260200190815260200160002054101561011e576040517f08c379a000000000000000000000000000000000000000000000000000000000815260040161011590610451565b60405180910390fd5b6000808473ffffffffffffffffffffffffffffffffffffffff1673ffffffffffffffffffffffffffffffffffffffff16815260200190815260200160002054826000808673ffffffffffffffffffffffffffffffffffffffff1673ffffffffffffffffffffffffffffffffffffffff168152602001908152602001600020546101a7919061049d565b10156101dc577f4e487b7100000000000000000000000000000000000000000000000000000000600052600160045260246000fd5b6000803373ffffffffffffffffffffffffffffffffffffffff1673ffffffffffffffffffffffffffffffffffffffff16815260200190815260200160002054826000803373ffffffffffffffffffffffffffffffffffffffff1673ffffffffffffffffffffffffffffffffffffffff1681526020019081526020016000205461026591906104f3565b111561029a577f4e487b7100000000000000000000000000000000000000000000000000000000600052600160045260246000fd5b816000803373ffffffffffffffffffffffffffffffffffffffff1673ffffffffffffffffffffffffffffffffffffffff16815260200190815260200160002060008282546102e891906104f3565b92505081905550816000808573ffffffffffffffffffffffffffffffffffffffff1673ffffffffffffffffffffffffffffffffffffffff168152602001908152602001600020600082825461033d919061049d565b925050819055506001905092915050565b60006020528060005260406000206000915090505481565b600081359050610375816105c7565b92915050565b60008135905061038a816105de565b92915050565b6000602082840312156103a257600080fd5b60006103b084828501610366565b91505092915050565b600080604083850312156103cc57600080fd5b60006103da85828601610366565b92505060206103eb8582860161037b565b9150509250929050565b6103fe81610539565b82525050565b600061041160118361048c565b915061041c8261059e565b602082019050919050565b61043081610565565b82525050565b600060208201905061044b60008301846103f5565b92915050565b6000602082019050818103600083015261046a81610404565b9050919050565b60006020820190506104866000830184610427565b92915050565b600082825260208201905092915050565b60006104a882610565565b91506104b383610565565b9250827fffffffffffffffffffffffffffffffffffffffffffffffffffffffffffffffff038211156104e8576104e761056f565b5b828201905092915050565b60006104fe82610565565b915061050983610565565b92508282101561051c5761051b61056f565b5b828203905092915050565b600061053282610545565b9050919050565b60008115159050919050565b600073ffffffffffffffffffffffffffffffffffffffff82169050919050565b6000819050919050565b7f4e487b7100000000000000000000000000000000000000000000000000000000600052601160045260246000fd5b7f4e6f7420656e6f75676820746f6b656e73000000000000000000000000000000600082015250565b6105d081610527565b81146105db57600080fd5b50565b6105e781610565565b81146105f257600080fd5b5056fea2646970667358221220677156647d503312ee1d7c3a5cfa03896247ad2093057a876f1fc3c351f3567764736f6c63430008030033",
					"opcodes": "PUSH1 0x80 PUSH1 0x40 MSTORE CALLVALUE DUP1 ISZERO PUSH2 0x10 JUMPI PUSH1 0x0 DUP1 REVERT JUMPDEST POP PUSH1 0x64 PUSH1 0x0 DUP1 CALLER PUSH20 0xFFFFFFFFFFFFFFFFFFFFFFFFFFFFFFFFFFFFFFFF AND PUSH20 0xFFFFFFFFFFFFFFFFFFFFFFFFFFFFFFFFFFFFFFFF AND DUP2 MSTORE PUSH1 0x20 ADD SWAP1 DUP2 MSTORE PUSH1 0x20 ADD PUSH1 0x0 KECCAK256 DUP2 SWAP1 SSTORE POP PUSH2 0x62B DUP1 PUSH2 0x64 PUSH1 0x0 CODECOPY PUSH1 0x0 RETURN INVALID PUSH1 0x80 PUSH1 0x40 MSTORE CALLVALUE DUP1 ISZERO PUSH2 0x10 JUMPI PUSH1 0x0 DUP1 REVERT JUMPDEST POP PUSH1 0x4 CALLDATASIZE LT PUSH2 0x36 JUMPI PUSH1 0x0 CALLDATALOAD PUSH1 0xE0 SHR DUP1 PUSH4 0x412664AE EQ PUSH2 0x3B JUMPI DUP1 PUSH4 0xEEDC966A EQ PUSH2 0x6B JUMPI JUMPDEST PUSH1 0x0 DUP1 REVERT JUMPDEST PUSH2 0x55 PUSH1 0x4 DUP1 CALLDATASIZE SUB DUP2 ADD SWAP1 PUSH2 0x50 SWAP2 SWAP1 PUSH2 0x3B9 JUMP JUMPDEST PUSH2 0x9B JUMP JUMPDEST PUSH1 0x40 MLOAD PUSH2 0x62 SWAP2 SWAP1 PUSH2 0x436 JUMP JUMPDEST PUSH1 0x40 MLOAD DUP1 SWAP2 SUB SWAP1 RETURN JUMPDEST PUSH2 0x85 PUSH1 0x4 DUP1 CALLDATASIZE SUB DUP2 ADD SWAP1 PUSH2 0x80 SWAP2 SWAP1 PUSH2 0x390 JUMP JUMPDEST PUSH2 0x34E JUMP JUMPDEST PUSH1 0x40 MLOAD PUSH2 0x92 SWAP2 SWAP1 PUSH2 0x471 JUMP JUMPDEST PUSH1 0x40 MLOAD DUP1 SWAP2 SUB SWAP1 RETURN JUMPDEST PUSH1 0x0 DUP2 PUSH1 0x0 DUP1 CALLER PUSH20 0xFFFFFFFFFFFFFFFFFFFFFFFFFFFFFFFFFFFFFFFF AND PUSH20 0xFFFFFFFFFFFFFFFFFFFFFFFFFFFFFFFFFFFFFFFF AND DUP2 MSTORE PUSH1 0x20 ADD SWAP1 DUP2 MSTORE PUSH1 0x20 ADD PUSH1 0x0 KECCAK256 SLOAD LT ISZERO PUSH2 0x11E JUMPI PUSH1 0x40 MLOAD PUSH32 0x8C379A000000000000000000000000000000000000000000000000000000000 DUP2 MSTORE PUSH1 0x4 ADD PUSH2 0x115 SWAP1 PUSH2 0x451 JUMP JUMPDEST PUSH1 0x40 MLOAD DUP1 SWAP2 SUB SWAP1 REVERT JUMPDEST PUSH1 0x0 DUP1 DUP5 PUSH20 0xFFFFFFFFFFFFFFFFFFFFFFFFFFFFFFFFFFFFFFFF AND PUSH20 0xFFFFFFFFFFFFFFFFFFFFFFFFFFFFFFFFFFFFFFFF AND DUP2 MSTORE PUSH1 0x20 ADD SWAP1 DUP2 MSTORE PUSH1 0x20 ADD PUSH1 0x0 KECCAK256 SLOAD DUP3 PUSH1 0x0 DUP1 DUP7 PUSH20 0xFFFFFFFFFFFFFFFFFFFFFFFFFFFFFFFFFFFFFFFF AND PUSH20 0xFFFFFFFFFFFFFFFFFFFFFFFFFFFFFFFFFFFFFFFF AND DUP2 MSTORE PUSH1 0x20 ADD SWAP1 DUP2 MSTORE PUSH1 0x20 ADD PUSH1 0x0 KECCAK256 SLOAD PUSH2 0x1A7 SWAP2 SWAP1 PUSH2 0x49D JUMP JUMPDEST LT ISZERO PUSH2 0x1DC JUMPI PUSH32 0x4E487B7100000000000000000000000000000000000000000000000000000000 PUSH1 0x0 MSTORE PUSH1 0x1 PUSH1 0x4 MSTORE PUSH1 0x24 PUSH1 0x0 REVERT JUMPDEST PUSH1 0x0 DUP1 CALLER PUSH20 0xFFFFFFFFFFFFFFFFFFFFFFFFFFFFFFFFFFFFFFFF AND PUSH20 0xFFFFFFFFFFFFFFFFFFFFFFFFFFFFFFFFFFFFFFFF AND DUP2 MSTORE PUSH1 0x20 ADD SWAP1 DUP2 MSTORE PUSH1 0x20 ADD PUSH1 0x0 KECCAK256 SLOAD DUP3 PUSH1 0x0 DUP1 CALLER PUSH20 0xFFFFFFFFFFFFFFFFFFFFFFFFFFFFFFFFFFFFFFFF AND PUSH20 0xFFFFFFFFFFFFFFFFFFFFFFFFFFFFFFFFFFFFFFFF AND DUP2 MSTORE PUSH1 0x20 ADD SWAP1 DUP2 MSTORE PUSH1 0x20 ADD PUSH1 0x0 KECCAK256 SLOAD PUSH2 0x265 SWAP2 SWAP1 PUSH2 0x4F3 JUMP JUMPDEST GT ISZERO PUSH2 0x29A JUMPI PUSH32 0x4E487B7100000000000000000000000000000000000000000000000000000000 PUSH1 0x0 MSTORE PUSH1 0x1 PUSH1 0x4 MSTORE PUSH1 0x24 PUSH1 0x0 REVERT JUMPDEST DUP2 PUSH1 0x0 DUP1 CALLER PUSH20 0xFFFFFFFFFFFFFFFFFFFFFFFFFFFFFFFFFFFFFFFF AND PUSH20 0xFFFFFFFFFFFFFFFFFFFFFFFFFFFFFFFFFFFFFFFF AND DUP2 MSTORE PUSH1 0x20 ADD SWAP1 DUP2 MSTORE PUSH1 0x20 ADD PUSH1 0x0 KECCAK256 PUSH1 0x0 DUP3 DUP3 SLOAD PUSH2 0x2E8 SWAP2 SWAP1 PUSH2 0x4F3 JUMP JUMPDEST SWAP3 POP POP DUP2 SWAP1 SSTORE POP DUP2 PUSH1 0x0 DUP1 DUP6 PUSH20 0xFFFFFFFFFFFFFFFFFFFFFFFFFFFFFFFFFFFFFFFF AND PUSH20 0xFFFFFFFFFFFFFFFFFFFFFFFFFFFFFFFFFFFFFFFF AND DUP2 MSTORE PUSH1 0x20 ADD SWAP1 DUP2 MSTORE PUSH1 0x20 ADD PUSH1 0x0 KECCAK256 PUSH1 0x0 DUP3 DUP3 SLOAD PUSH2 0x33D SWAP2 SWAP1 PUSH2 0x49D JUMP JUMPDEST SWAP3 POP POP DUP2 SWAP1 SSTORE POP PUSH1 0x1 SWAP1 POP SWAP3 SWAP2 POP POP JUMP JUMPDEST PUSH1 0x0 PUSH1 0x20 MSTORE DUP1 PUSH1 0x0 MSTORE PUSH1 0x40 PUSH1 0x0 KECCAK256 PUSH1 0x0 SWAP2 POP SWAP1 POP SLOAD DUP2 JUMP JUMPDEST PUSH1 0x0 DUP2 CALLDATALOAD SWAP1 POP PUSH2 0x375 DUP2 PUSH2 0x5C7 JUMP JUMPDEST SWAP3 SWAP2 POP POP JUMP JUMPDEST PUSH1 0x0 DUP2 CALLDATALOAD SWAP1 POP PUSH2 0x38A DUP2 PUSH2 0x5DE JUMP JUMPDEST SWAP3 SWAP2 POP POP JUMP JUMPDEST PUSH1 0x0 PUSH1 0x20 DUP3 DUP5 SUB SLT ISZERO PUSH2 0x3A2 JUMPI PUSH1 0x0 DUP1 REVERT JUMPDEST PUSH1 0x0 PUSH2 0x3B0 DUP5 DUP3 DUP6 ADD PUSH2 0x366 JUMP JUMPDEST SWAP2 POP POP SWAP3 SWAP2 POP POP JUMP JUMPDEST PUSH1 0x0 DUP1 PUSH1 0x40 DUP4 DUP6 SUB SLT ISZERO PUSH2 0x3CC JUMPI PUSH1 0x0 DUP1 REVERT JUMPDEST PUSH1 0x0 PUSH2 0x3DA DUP6 DUP3 DUP7 ADD PUSH2 0x366 JUMP JUMPDEST SWAP3 POP POP PUSH1 0x20 PUSH2 0x3EB DUP6 DUP3 DUP7 ADD PUSH2 0x37B JUMP JUMPDEST SWAP2 POP POP SWAP3 POP SWAP3 SWAP1 POP JUMP JUMPDEST PUSH2 0x3FE DUP2 PUSH2 0x539 JUMP JUMPDEST DUP3 MSTORE POP POP JUMP JUMPDEST PUSH1 0x0 PUSH2 0x411 PUSH1 0x11 DUP4 PUSH2 0x48C JUMP JUMPDEST SWAP2 POP PUSH2 0x41C DUP3 PUSH2 0x59E JUMP JUMPDEST PUSH1 0x20 DUP3 ADD SWAP1 POP SWAP2 SWAP1 POP JUMP JUMPDEST PUSH2 0x430 DUP2 PUSH2 0x565 JUMP JUMPDEST DUP3 MSTORE POP POP JUMP JUMPDEST PUSH1 0x0 PUSH1 0x20 DUP3 ADD SWAP1 POP PUSH2 0x44B PUSH1 0x0 DUP4 ADD DUP5 PUSH2 0x3F5 JUMP JUMPDEST SWAP3 SWAP2 POP POP JUMP JUMPDEST PUSH1 0x0 PUSH1 0x20 DUP3 ADD SWAP1 POP DUP2 DUP2 SUB PUSH1 0x0 DUP4 ADD MSTORE PUSH2 0x46A DUP2 PUSH2 0x404 JUMP JUMPDEST SWAP1 POP SWAP2 SWAP1 POP JUMP JUMPDEST PUSH1 0x0 PUSH1 0x20 DUP3 ADD SWAP1 POP PUSH2 0x486 PUSH1 0x0 DUP4 ADD DUP5 PUSH2 0x427 JUMP JUMPDEST SWAP3 SWAP2 POP POP JUMP JUMPDEST PUSH1 0x0 DUP3 DUP3 MSTORE PUSH1 0x20 DUP3 ADD SWAP1 POP SWAP3 SWAP2 POP POP JUMP JUMPDEST PUSH1 0x0 PUSH2 0x4A8 DUP3 PUSH2 0x565 JUMP JUMPDEST SWAP2 POP PUSH2 0x4B3 DUP4 PUSH2 0x565 JUMP JUMPDEST SWAP3 POP DUP3 PUSH32 0xFFFFFFFFFFFFFFFFFFFFFFFFFFFFFFFFFFFFFFFFFFFFFFFFFFFFFFFFFFFFFFFF SUB DUP3 GT ISZERO PUSH2 0x4E8 JUMPI PUSH2 0x4E7 PUSH2 0x56F JUMP JUMPDEST JUMPDEST DUP3 DUP3 ADD SWAP1 POP SWAP3 SWAP2 POP POP JUMP JUMPDEST PUSH1 0x0 PUSH2 0x4FE DUP3 PUSH2 0x565 JUMP JUMPDEST SWAP2 POP PUSH2 0x509 DUP4 PUSH2 0x565 JUMP JUMPDEST SWAP3 POP DUP3 DUP3 LT ISZERO PUSH2 0x51C JUMPI PUSH2 0x51B PUSH2 0x56F JUMP JUMPDEST JUMPDEST DUP3 DUP3 SUB SWAP1 POP SWAP3 SWAP2 POP POP JUMP JUMPDEST PUSH1 0x0 PUSH2 0x532 DUP3 PUSH2 0x545 JUMP JUMPDEST SWAP1 POP SWAP2 SWAP1 POP JUMP JUMPDEST PUSH1 0x0 DUP2 ISZERO ISZERO SWAP1 POP SWAP2 SWAP1 POP JUMP JUMPDEST PUSH1 0x0 PUSH20 0xFFFFFFFFFFFFFFFFFFFFFFFFFFFFFFFFFFFFFFFF DUP3 AND SWAP1 POP SWAP2 SWAP1 POP JUMP JUMPDEST PUSH1 0x0 DUP2 SWAP1 POP SWAP2 SWAP1 POP JUMP JUMPDEST PUSH32 0x4E487B7100000000000000000000000000000000000000000000000000000000 PUSH1 0x0 MSTORE PUSH1 0x11 PUSH1 0x4 MSTORE PUSH1 0x24 PUSH1 0x0 REVERT JUMPDEST PUSH32 0x4E6F7420656E6F75676820746F6B656E73000000000000000000000000000000 PUSH1 0x0 DUP3 ADD MSTORE POP JUMP JUMPDEST PUSH2 0x5D0 DUP2 PUSH2 0x527 JUMP JUMPDEST DUP2 EQ PUSH2 0x5DB JUMPI PUSH1 0x0 DUP1 REVERT JUMPDEST POP JUMP JUMPDEST PUSH2 0x5E7 DUP2 PUSH2 0x565 JUMP JUMPDEST DUP2 EQ PUSH2 0x5F2 JUMPI PUSH1 0x0 DUP1 REVERT JUMPDEST POP JUMP INVALID LOG2 PUSH5 0x6970667358 0x22 SLT KECCAK256 PUSH8 0x7156647D503312EE SAR PUSH29 0x3A5CFA03896247AD2093057A876F1FC3C351F3567764736F6C63430008 SUB STOP CALLER "
				},
				"gasEstimates": {
					"creation": {
						"codeDepositCost": "315800",
						"executionCost": "20458",
						"totalCost": "336258"
					},
					"external": {
						"sendToken(address,uint256)": "infinite",
						"tokenBalance(address)": "1514"
					}
				},
				"methodIdentifiers": {
					"sendToken(address,uint256)": "412664ae",
					"tokenBalance(address)": "eedc966a"
				}
			},
			"storageLayout": {
				"storage": [
					{
						"astId": 5,
						"contract": "EventExample.sol:EventExample",
						"label": "tokenBalance",
						"offset": 0,
						"slot": "0",
						"type": "t_mapping(t_address,t_uint256)"
					}
				],
				"types": {
					"t_address": {
						"encoding": "inplace",
						"label": "address",
						"numberOfBytes": "20"
					},
					"t_mapping(t_address,t_uint256)": {
						"encoding": "mapping",
						"key": "t_address",
						"label": "mapping(address => uint256)",
						"numberOfBytes": "32",
						"value": "t_uint256"
					},
					"t_uint256": {
						"encoding": "inplace",
						"label": "uint256",
						"numberOfBytes": "32"
					}
				}
			},
			"userdoc": {
				"kind": "user",
				"methods": {},
				"version": 1
			}
		}
	}
}