{
	"SharedWallet.sol": {
		"SharedWallet": {
			"abi": [
				{
					"inputs": [],
					"stateMutability": "nonpayable",
					"type": "constructor"
				},
				{
					"inputs": [],
					"name": "allowance",
					"outputs": [
						{
							"internalType": "uint256",
							"name": "",
							"type": "uint256"
						}
					],
					"stateMutability": "view",
					"type": "function"
				},
				{
					"inputs": [
						{
							"internalType": "uint256",
							"name": "_amount",
							"type": "uint256"
						}
					],
					"name": "depositFunds",
					"outputs": [],
					"stateMutability": "nonpayable",
					"type": "function"
				},
				{
					"inputs": [],
					"name": "funds",
					"outputs": [
						{
							"internalType": "uint256",
							"name": "",
							"type": "uint256"
						}
					],
					"stateMutability": "view",
					"type": "function"
				},
				{
					"inputs": [],
					"name": "owner",
					"outputs": [
						{
							"internalType": "address",
							"name": "",
							"type": "address"
						}
					],
					"stateMutability": "view",
					"type": "function"
				},
				{
					"inputs": [
						{
							"internalType": "address payable",
							"name": "_to",
							"type": "address"
						},
						{
							"internalType": "uint256",
							"name": "_amount",
							"type": "uint256"
						}
					],
					"name": "ownerWithdrawFunds",
					"outputs": [],
					"stateMutability": "nonpayable",
					"type": "function"
				},
				{
					"inputs": [
						{
							"internalType": "address payable",
							"name": "_to",
							"type": "address"
						},
						{
							"internalType": "uint256",
							"name": "_amount",
							"type": "uint256"
						}
					],
					"name": "withdrawFunds",
					"outputs": [],
					"stateMutability": "nonpayable",
					"type": "function"
				},
				{
					"stateMutability": "payable",
					"type": "receive"
				}
			],
			"devdoc": {
				"kind": "dev",
				"methods": {},
				"version": 1
			},
			"evm": {
				"assembly": "    /* \"SharedWallet.sol\":86:902  contract SharedWallet {... */\n  mstore(0x40, 0x80)\n    /* \"SharedWallet.sol\":188:195  1 ether */\n  0x0de0b6b3a7640000\n    /* \"SharedWallet.sol\":164:195  uint public allowance = 1 ether */\n  0x02\n  sstore\n    /* \"SharedWallet.sol\":202:251  constructor() {... */\n  callvalue\n  dup1\n  iszero\n  tag_1\n  jumpi\n  0x00\n  dup1\n  revert\ntag_1:\n  pop\n    /* \"SharedWallet.sol\":234:244  msg.sender */\n  caller\n    /* \"SharedWallet.sol\":226:231  owner */\n  0x00\n  dup1\n    /* \"SharedWallet.sol\":226:244  owner = msg.sender */\n  0x0100\n  exp\n  dup2\n  sload\n  dup2\n  0xffffffffffffffffffffffffffffffffffffffff\n  mul\n  not\n  and\n  swap1\n  dup4\n  0xffffffffffffffffffffffffffffffffffffffff\n  and\n  mul\n  or\n  swap1\n  sstore\n  pop\n    /* \"SharedWallet.sol\":86:902  contract SharedWallet {... */\n  dataSize(sub_0)\n  dup1\n  dataOffset(sub_0)\n  0x00\n  codecopy\n  0x00\n  return\nstop\n\nsub_0: assembly {\n        /* \"SharedWallet.sol\":86:902  contract SharedWallet {... */\n      mstore(0x40, 0x80)\n      jumpi(tag_1, lt(calldatasize, 0x04))\n      shr(0xe0, calldataload(0x00))\n      dup1\n      0x3b76594d\n      eq\n      tag_3\n      jumpi\n      dup1\n      0x8da5cb5b\n      eq\n      tag_4\n      jumpi\n      dup1\n      0xc1075329\n      eq\n      tag_5\n      jumpi\n      dup1\n      0xc89f2ce4\n      eq\n      tag_6\n      jumpi\n      dup1\n      0xdbd97d2e\n      eq\n      tag_7\n      jumpi\n      dup1\n      0xde242ff4\n      eq\n      tag_8\n      jumpi\n      jump(tag_2)\n    tag_1:\n      jumpi(tag_2, calldatasize)\n        /* \"SharedWallet.sol\":870:893  depositFunds(msg.value) */\n      tag_11\n        /* \"SharedWallet.sol\":883:892  msg.value */\n      callvalue\n        /* \"SharedWallet.sol\":870:882  depositFunds */\n      tag_12\n        /* \"SharedWallet.sol\":870:893  depositFunds(msg.value) */\n      jump\t// in\n    tag_11:\n        /* \"SharedWallet.sol\":86:902  contract SharedWallet {... */\n      stop\n    tag_2:\n      0x00\n      dup1\n      revert\n        /* \"SharedWallet.sol\":343:419  function depositFunds(uint _amount) public {... */\n    tag_3:\n      callvalue\n      dup1\n      iszero\n      tag_13\n      jumpi\n      0x00\n      dup1\n      revert\n    tag_13:\n      pop\n      tag_14\n      0x04\n      dup1\n      calldatasize\n      sub\n      dup2\n      add\n      swap1\n      tag_15\n      swap2\n      swap1\n      tag_16\n      jump\t// in\n    tag_15:\n      tag_12\n      jump\t// in\n    tag_14:\n      stop\n        /* \"SharedWallet.sol\":115:135  address public owner */\n    tag_4:\n      callvalue\n      dup1\n      iszero\n      tag_17\n      jumpi\n      0x00\n      dup1\n      revert\n    tag_17:\n      pop\n      tag_18\n      tag_19\n      jump\t// in\n    tag_18:\n      mload(0x40)\n      tag_20\n      swap2\n      swap1\n      tag_21\n      jump\t// in\n    tag_20:\n      mload(0x40)\n      dup1\n      swap2\n      sub\n      swap1\n      return\n        /* \"SharedWallet.sol\":425:635  function withdrawFunds(address payable _to, uint _amount) public {... */\n    tag_5:\n      callvalue\n      dup1\n      iszero\n      tag_22\n      jumpi\n      0x00\n      dup1\n      revert\n    tag_22:\n      pop\n      tag_23\n      0x04\n      dup1\n      calldatasize\n      sub\n      dup2\n      add\n      swap1\n      tag_24\n      swap2\n      swap1\n      tag_25\n      jump\t// in\n    tag_24:\n      tag_26\n      jump\t// in\n    tag_23:\n      stop\n        /* \"SharedWallet.sol\":141:158  uint public funds */\n    tag_6:\n      callvalue\n      dup1\n      iszero\n      tag_27\n      jumpi\n      0x00\n      dup1\n      revert\n    tag_27:\n      pop\n      tag_28\n      tag_29\n      jump\t// in\n    tag_28:\n      mload(0x40)\n      tag_30\n      swap2\n      swap1\n      tag_31\n      jump\t// in\n    tag_30:\n      mload(0x40)\n      dup1\n      swap2\n      sub\n      swap1\n      return\n        /* \"SharedWallet.sol\":641:827  function ownerWithdrawFunds(address payable _to, uint _amount) public onlyOwner {... */\n    tag_7:\n      callvalue\n      dup1\n      iszero\n      tag_32\n      jumpi\n      0x00\n      dup1\n      revert\n    tag_32:\n      pop\n      tag_33\n      0x04\n      dup1\n      calldatasize\n      sub\n      dup2\n      add\n      swap1\n      tag_34\n      swap2\n      swap1\n      tag_25\n      jump\t// in\n    tag_34:\n      tag_35\n      jump\t// in\n    tag_33:\n      stop\n        /* \"SharedWallet.sol\":164:195  uint public allowance = 1 ether */\n    tag_8:\n      callvalue\n      dup1\n      iszero\n      tag_36\n      jumpi\n      0x00\n      dup1\n      revert\n    tag_36:\n      pop\n      tag_37\n      tag_38\n      jump\t// in\n    tag_37:\n      mload(0x40)\n      tag_39\n      swap2\n      swap1\n      tag_31\n      jump\t// in\n    tag_39:\n      mload(0x40)\n      dup1\n      swap2\n      sub\n      swap1\n      return\n        /* \"SharedWallet.sol\":343:419  function depositFunds(uint _amount) public {... */\n    tag_12:\n        /* \"SharedWallet.sol\":405:412  _amount */\n      dup1\n        /* \"SharedWallet.sol\":396:401  funds */\n      0x01\n      0x00\n        /* \"SharedWallet.sol\":396:412  funds += _amount */\n      dup3\n      dup3\n      sload\n      tag_41\n      swap2\n      swap1\n      tag_42\n      jump\t// in\n    tag_41:\n      swap3\n      pop\n      pop\n      dup2\n      swap1\n      sstore\n      pop\n        /* \"SharedWallet.sol\":343:419  function depositFunds(uint _amount) public {... */\n      pop\n      jump\t// out\n        /* \"SharedWallet.sol\":115:135  address public owner */\n    tag_19:\n      0x00\n      dup1\n      sload\n      swap1\n      0x0100\n      exp\n      swap1\n      div\n      0xffffffffffffffffffffffffffffffffffffffff\n      and\n      dup2\n      jump\t// out\n        /* \"SharedWallet.sol\":425:635  function withdrawFunds(address payable _to, uint _amount) public {... */\n    tag_26:\n        /* \"SharedWallet.sol\":519:528  allowance */\n      sload(0x02)\n        /* \"SharedWallet.sol\":508:515  _amount */\n      dup2\n        /* \"SharedWallet.sol\":508:528  _amount <= allowance */\n      gt\n      iszero\n        /* \"SharedWallet.sol\":500:529  require(_amount <= allowance) */\n      tag_44\n      jumpi\n      0x00\n      dup1\n      revert\n    tag_44:\n        /* \"SharedWallet.sol\":565:570  funds */\n      sload(0x01)\n        /* \"SharedWallet.sol\":554:561  _amount */\n      dup2\n        /* \"SharedWallet.sol\":546:551  funds */\n      sload(0x01)\n        /* \"SharedWallet.sol\":546:561  funds - _amount */\n      tag_45\n      swap2\n      swap1\n      tag_46\n      jump\t// in\n    tag_45:\n        /* \"SharedWallet.sol\":546:570  funds - _amount <= funds */\n      gt\n      iszero\n        /* \"SharedWallet.sol\":539:571  assert(funds - _amount <= funds) */\n      tag_47\n      jumpi\n      tag_48\n      tag_49\n      jump\t// in\n    tag_48:\n    tag_47:\n        /* \"SharedWallet.sol\":590:597  _amount */\n      dup1\n        /* \"SharedWallet.sol\":581:586  funds */\n      0x01\n      0x00\n        /* \"SharedWallet.sol\":581:597  funds -= _amount */\n      dup3\n      dup3\n      sload\n      tag_50\n      swap2\n      swap1\n      tag_46\n      jump\t// in\n    tag_50:\n      swap3\n      pop\n      pop\n      dup2\n      swap1\n      sstore\n      pop\n        /* \"SharedWallet.sol\":607:610  _to */\n      dup2\n        /* \"SharedWallet.sol\":607:619  _to.transfer */\n      0xffffffffffffffffffffffffffffffffffffffff\n      and\n        /* \"SharedWallet.sol\":607:628  _to.transfer(_amount) */\n      0x08fc\n        /* \"SharedWallet.sol\":620:627  _amount */\n      dup3\n        /* \"SharedWallet.sol\":607:628  _to.transfer(_amount) */\n      swap1\n      dup2\n      iszero\n      mul\n      swap1\n      mload(0x40)\n      0x00\n      mload(0x40)\n      dup1\n      dup4\n      sub\n      dup2\n      dup6\n      dup9\n      dup9\n      call\n      swap4\n      pop\n      pop\n      pop\n      pop\n      iszero\n      dup1\n      iszero\n      tag_52\n      jumpi\n      returndatasize\n      0x00\n      dup1\n      returndatacopy\n      revert(0x00, returndatasize)\n    tag_52:\n      pop\n        /* \"SharedWallet.sol\":425:635  function withdrawFunds(address payable _to, uint _amount) public {... */\n      pop\n      pop\n      jump\t// out\n        /* \"SharedWallet.sol\":141:158  uint public funds */\n    tag_29:\n      sload(0x01)\n      dup2\n      jump\t// out\n        /* \"SharedWallet.sol\":641:827  function ownerWithdrawFunds(address payable _to, uint _amount) public onlyOwner {... */\n    tag_35:\n        /* \"SharedWallet.sol\":309:314  owner */\n      0x00\n      dup1\n      sload\n      swap1\n      0x0100\n      exp\n      swap1\n      div\n      0xffffffffffffffffffffffffffffffffffffffff\n      and\n        /* \"SharedWallet.sol\":295:314  msg.sender == owner */\n      0xffffffffffffffffffffffffffffffffffffffff\n      and\n        /* \"SharedWallet.sol\":295:305  msg.sender */\n      caller\n        /* \"SharedWallet.sol\":295:314  msg.sender == owner */\n      0xffffffffffffffffffffffffffffffffffffffff\n      and\n      eq\n        /* \"SharedWallet.sol\":287:319  require(msg.sender == owner, \"\") */\n      tag_54\n      jumpi\n      mload(0x40)\n      0x08c379a000000000000000000000000000000000000000000000000000000000\n      dup2\n      mstore\n      0x04\n      add\n      tag_55\n      swap1\n      tag_56\n      jump\t// in\n    tag_55:\n      mload(0x40)\n      dup1\n      swap2\n      sub\n      swap1\n      revert\n    tag_54:\n        /* \"SharedWallet.sol\":757:762  funds */\n      sload(0x01)\n        /* \"SharedWallet.sol\":746:753  _amount */\n      dup2\n        /* \"SharedWallet.sol\":738:743  funds */\n      sload(0x01)\n        /* \"SharedWallet.sol\":738:753  funds - _amount */\n      tag_58\n      swap2\n      swap1\n      tag_46\n      jump\t// in\n    tag_58:\n        /* \"SharedWallet.sol\":738:762  funds - _amount <= funds */\n      gt\n      iszero\n        /* \"SharedWallet.sol\":731:763  assert(funds - _amount <= funds) */\n      tag_59\n      jumpi\n      tag_60\n      tag_49\n      jump\t// in\n    tag_60:\n    tag_59:\n        /* \"SharedWallet.sol\":782:789  _amount */\n      dup1\n        /* \"SharedWallet.sol\":773:778  funds */\n      0x01\n      0x00\n        /* \"SharedWallet.sol\":773:789  funds -= _amount */\n      dup3\n      dup3\n      sload\n      tag_61\n      swap2\n      swap1\n      tag_46\n      jump\t// in\n    tag_61:\n      swap3\n      pop\n      pop\n      dup2\n      swap1\n      sstore\n      pop\n        /* \"SharedWallet.sol\":799:802  _to */\n      dup2\n        /* \"SharedWallet.sol\":799:811  _to.transfer */\n      0xffffffffffffffffffffffffffffffffffffffff\n      and\n        /* \"SharedWallet.sol\":799:820  _to.transfer(_amount) */\n      0x08fc\n        /* \"SharedWallet.sol\":812:819  _amount */\n      dup3\n        /* \"SharedWallet.sol\":799:820  _to.transfer(_amount) */\n      swap1\n      dup2\n      iszero\n      mul\n      swap1\n      mload(0x40)\n      0x00\n      mload(0x40)\n      dup1\n      dup4\n      sub\n      dup2\n      dup6\n      dup9\n      dup9\n      call\n      swap4\n      pop\n      pop\n      pop\n      pop\n      iszero\n      dup1\n      iszero\n      tag_63\n      jumpi\n      returndatasize\n      0x00\n      dup1\n      returndatacopy\n      revert(0x00, returndatasize)\n    tag_63:\n      pop\n        /* \"SharedWallet.sol\":641:827  function ownerWithdrawFunds(address payable _to, uint _amount) public onlyOwner {... */\n      pop\n      pop\n      jump\t// out\n        /* \"SharedWallet.sol\":164:195  uint public allowance = 1 ether */\n    tag_38:\n      sload(0x02)\n      dup2\n      jump\t// out\n        /* \"#utility.yul\":88:205   */\n    tag_65:\n        /* \"#utility.yul\":197:198   */\n      0x00\n        /* \"#utility.yul\":194:195   */\n      dup1\n        /* \"#utility.yul\":187:199   */\n      revert\n        /* \"#utility.yul\":334:411   */\n    tag_67:\n        /* \"#utility.yul\":371:378   */\n      0x00\n        /* \"#utility.yul\":400:405   */\n      dup2\n        /* \"#utility.yul\":389:405   */\n      swap1\n      pop\n        /* \"#utility.yul\":334:411   */\n      swap2\n      swap1\n      pop\n      jump\t// out\n        /* \"#utility.yul\":417:539   */\n    tag_68:\n        /* \"#utility.yul\":490:514   */\n      tag_87\n        /* \"#utility.yul\":508:513   */\n      dup2\n        /* \"#utility.yul\":490:514   */\n      tag_67\n      jump\t// in\n    tag_87:\n        /* \"#utility.yul\":483:488   */\n      dup2\n        /* \"#utility.yul\":480:515   */\n      eq\n        /* \"#utility.yul\":470:533   */\n      tag_88\n      jumpi\n        /* \"#utility.yul\":529:530   */\n      0x00\n        /* \"#utility.yul\":526:527   */\n      dup1\n        /* \"#utility.yul\":519:531   */\n      revert\n        /* \"#utility.yul\":470:533   */\n    tag_88:\n        /* \"#utility.yul\":417:539   */\n      pop\n      jump\t// out\n        /* \"#utility.yul\":545:684   */\n    tag_69:\n        /* \"#utility.yul\":591:596   */\n      0x00\n        /* \"#utility.yul\":629:635   */\n      dup2\n        /* \"#utility.yul\":616:636   */\n      calldataload\n        /* \"#utility.yul\":607:636   */\n      swap1\n      pop\n        /* \"#utility.yul\":645:678   */\n      tag_90\n        /* \"#utility.yul\":672:677   */\n      dup2\n        /* \"#utility.yul\":645:678   */\n      tag_68\n      jump\t// in\n    tag_90:\n        /* \"#utility.yul\":545:684   */\n      swap3\n      swap2\n      pop\n      pop\n      jump\t// out\n        /* \"#utility.yul\":690:1019   */\n    tag_16:\n        /* \"#utility.yul\":749:755   */\n      0x00\n        /* \"#utility.yul\":798:800   */\n      0x20\n        /* \"#utility.yul\":786:795   */\n      dup3\n        /* \"#utility.yul\":777:784   */\n      dup5\n        /* \"#utility.yul\":773:796   */\n      sub\n        /* \"#utility.yul\":769:801   */\n      slt\n        /* \"#utility.yul\":766:885   */\n      iszero\n      tag_92\n      jumpi\n        /* \"#utility.yul\":804:883   */\n      tag_93\n      tag_65\n      jump\t// in\n    tag_93:\n        /* \"#utility.yul\":766:885   */\n    tag_92:\n        /* \"#utility.yul\":924:925   */\n      0x00\n        /* \"#utility.yul\":949:1002   */\n      tag_94\n        /* \"#utility.yul\":994:1001   */\n      dup5\n        /* \"#utility.yul\":985:991   */\n      dup3\n        /* \"#utility.yul\":974:983   */\n      dup6\n        /* \"#utility.yul\":970:992   */\n      add\n        /* \"#utility.yul\":949:1002   */\n      tag_69\n      jump\t// in\n    tag_94:\n        /* \"#utility.yul\":939:1002   */\n      swap2\n      pop\n        /* \"#utility.yul\":895:1012   */\n      pop\n        /* \"#utility.yul\":690:1019   */\n      swap3\n      swap2\n      pop\n      pop\n      jump\t// out\n        /* \"#utility.yul\":1025:1151   */\n    tag_70:\n        /* \"#utility.yul\":1062:1069   */\n      0x00\n        /* \"#utility.yul\":1102:1144   */\n      0xffffffffffffffffffffffffffffffffffffffff\n        /* \"#utility.yul\":1095:1100   */\n      dup3\n        /* \"#utility.yul\":1091:1145   */\n      and\n        /* \"#utility.yul\":1080:1145   */\n      swap1\n      pop\n        /* \"#utility.yul\":1025:1151   */\n      swap2\n      swap1\n      pop\n      jump\t// out\n        /* \"#utility.yul\":1157:1253   */\n    tag_71:\n        /* \"#utility.yul\":1194:1201   */\n      0x00\n        /* \"#utility.yul\":1223:1247   */\n      tag_97\n        /* \"#utility.yul\":1241:1246   */\n      dup3\n        /* \"#utility.yul\":1223:1247   */\n      tag_70\n      jump\t// in\n    tag_97:\n        /* \"#utility.yul\":1212:1247   */\n      swap1\n      pop\n        /* \"#utility.yul\":1157:1253   */\n      swap2\n      swap1\n      pop\n      jump\t// out\n        /* \"#utility.yul\":1259:1377   */\n    tag_72:\n        /* \"#utility.yul\":1346:1370   */\n      tag_99\n        /* \"#utility.yul\":1364:1369   */\n      dup2\n        /* \"#utility.yul\":1346:1370   */\n      tag_71\n      jump\t// in\n    tag_99:\n        /* \"#utility.yul\":1341:1344   */\n      dup3\n        /* \"#utility.yul\":1334:1371   */\n      mstore\n        /* \"#utility.yul\":1259:1377   */\n      pop\n      pop\n      jump\t// out\n        /* \"#utility.yul\":1383:1605   */\n    tag_21:\n        /* \"#utility.yul\":1476:1480   */\n      0x00\n        /* \"#utility.yul\":1514:1516   */\n      0x20\n        /* \"#utility.yul\":1503:1512   */\n      dup3\n        /* \"#utility.yul\":1499:1517   */\n      add\n        /* \"#utility.yul\":1491:1517   */\n      swap1\n      pop\n        /* \"#utility.yul\":1527:1598   */\n      tag_101\n        /* \"#utility.yul\":1595:1596   */\n      0x00\n        /* \"#utility.yul\":1584:1593   */\n      dup4\n        /* \"#utility.yul\":1580:1597   */\n      add\n        /* \"#utility.yul\":1571:1577   */\n      dup5\n        /* \"#utility.yul\":1527:1598   */\n      tag_72\n      jump\t// in\n    tag_101:\n        /* \"#utility.yul\":1383:1605   */\n      swap3\n      swap2\n      pop\n      pop\n      jump\t// out\n        /* \"#utility.yul\":1611:1715   */\n    tag_73:\n        /* \"#utility.yul\":1656:1663   */\n      0x00\n        /* \"#utility.yul\":1685:1709   */\n      tag_103\n        /* \"#utility.yul\":1703:1708   */\n      dup3\n        /* \"#utility.yul\":1685:1709   */\n      tag_70\n      jump\t// in\n    tag_103:\n        /* \"#utility.yul\":1674:1709   */\n      swap1\n      pop\n        /* \"#utility.yul\":1611:1715   */\n      swap2\n      swap1\n      pop\n      jump\t// out\n        /* \"#utility.yul\":1721:1859   */\n    tag_74:\n        /* \"#utility.yul\":1802:1834   */\n      tag_105\n        /* \"#utility.yul\":1828:1833   */\n      dup2\n        /* \"#utility.yul\":1802:1834   */\n      tag_73\n      jump\t// in\n    tag_105:\n        /* \"#utility.yul\":1795:1800   */\n      dup2\n        /* \"#utility.yul\":1792:1835   */\n      eq\n        /* \"#utility.yul\":1782:1853   */\n      tag_106\n      jumpi\n        /* \"#utility.yul\":1849:1850   */\n      0x00\n        /* \"#utility.yul\":1846:1847   */\n      dup1\n        /* \"#utility.yul\":1839:1851   */\n      revert\n        /* \"#utility.yul\":1782:1853   */\n    tag_106:\n        /* \"#utility.yul\":1721:1859   */\n      pop\n      jump\t// out\n        /* \"#utility.yul\":1865:2020   */\n    tag_75:\n        /* \"#utility.yul\":1919:1924   */\n      0x00\n        /* \"#utility.yul\":1957:1963   */\n      dup2\n        /* \"#utility.yul\":1944:1964   */\n      calldataload\n        /* \"#utility.yul\":1935:1964   */\n      swap1\n      pop\n        /* \"#utility.yul\":1973:2014   */\n      tag_108\n        /* \"#utility.yul\":2008:2013   */\n      dup2\n        /* \"#utility.yul\":1973:2014   */\n      tag_74\n      jump\t// in\n    tag_108:\n        /* \"#utility.yul\":1865:2020   */\n      swap3\n      swap2\n      pop\n      pop\n      jump\t// out\n        /* \"#utility.yul\":2026:2516   */\n    tag_25:\n        /* \"#utility.yul\":2102:2108   */\n      0x00\n        /* \"#utility.yul\":2110:2116   */\n      dup1\n        /* \"#utility.yul\":2159:2161   */\n      0x40\n        /* \"#utility.yul\":2147:2156   */\n      dup4\n        /* \"#utility.yul\":2138:2145   */\n      dup6\n        /* \"#utility.yul\":2134:2157   */\n      sub\n        /* \"#utility.yul\":2130:2162   */\n      slt\n        /* \"#utility.yul\":2127:2246   */\n      iszero\n      tag_110\n      jumpi\n        /* \"#utility.yul\":2165:2244   */\n      tag_111\n      tag_65\n      jump\t// in\n    tag_111:\n        /* \"#utility.yul\":2127:2246   */\n    tag_110:\n        /* \"#utility.yul\":2285:2286   */\n      0x00\n        /* \"#utility.yul\":2310:2371   */\n      tag_112\n        /* \"#utility.yul\":2363:2370   */\n      dup6\n        /* \"#utility.yul\":2354:2360   */\n      dup3\n        /* \"#utility.yul\":2343:2352   */\n      dup7\n        /* \"#utility.yul\":2339:2361   */\n      add\n        /* \"#utility.yul\":2310:2371   */\n      tag_75\n      jump\t// in\n    tag_112:\n        /* \"#utility.yul\":2300:2371   */\n      swap3\n      pop\n        /* \"#utility.yul\":2256:2381   */\n      pop\n        /* \"#utility.yul\":2420:2422   */\n      0x20\n        /* \"#utility.yul\":2446:2499   */\n      tag_113\n        /* \"#utility.yul\":2491:2498   */\n      dup6\n        /* \"#utility.yul\":2482:2488   */\n      dup3\n        /* \"#utility.yul\":2471:2480   */\n      dup7\n        /* \"#utility.yul\":2467:2489   */\n      add\n        /* \"#utility.yul\":2446:2499   */\n      tag_69\n      jump\t// in\n    tag_113:\n        /* \"#utility.yul\":2436:2499   */\n      swap2\n      pop\n        /* \"#utility.yul\":2391:2509   */\n      pop\n        /* \"#utility.yul\":2026:2516   */\n      swap3\n      pop\n      swap3\n      swap1\n      pop\n      jump\t// out\n        /* \"#utility.yul\":2522:2640   */\n    tag_76:\n        /* \"#utility.yul\":2609:2633   */\n      tag_115\n        /* \"#utility.yul\":2627:2632   */\n      dup2\n        /* \"#utility.yul\":2609:2633   */\n      tag_67\n      jump\t// in\n    tag_115:\n        /* \"#utility.yul\":2604:2607   */\n      dup3\n        /* \"#utility.yul\":2597:2634   */\n      mstore\n        /* \"#utility.yul\":2522:2640   */\n      pop\n      pop\n      jump\t// out\n        /* \"#utility.yul\":2646:2868   */\n    tag_31:\n        /* \"#utility.yul\":2739:2743   */\n      0x00\n        /* \"#utility.yul\":2777:2779   */\n      0x20\n        /* \"#utility.yul\":2766:2775   */\n      dup3\n        /* \"#utility.yul\":2762:2780   */\n      add\n        /* \"#utility.yul\":2754:2780   */\n      swap1\n      pop\n        /* \"#utility.yul\":2790:2861   */\n      tag_117\n        /* \"#utility.yul\":2858:2859   */\n      0x00\n        /* \"#utility.yul\":2847:2856   */\n      dup4\n        /* \"#utility.yul\":2843:2860   */\n      add\n        /* \"#utility.yul\":2834:2840   */\n      dup5\n        /* \"#utility.yul\":2790:2861   */\n      tag_76\n      jump\t// in\n    tag_117:\n        /* \"#utility.yul\":2646:2868   */\n      swap3\n      swap2\n      pop\n      pop\n      jump\t// out\n        /* \"#utility.yul\":2874:3054   */\n    tag_77:\n        /* \"#utility.yul\":2922:2999   */\n      0x4e487b7100000000000000000000000000000000000000000000000000000000\n        /* \"#utility.yul\":2919:2920   */\n      0x00\n        /* \"#utility.yul\":2912:3000   */\n      mstore\n        /* \"#utility.yul\":3019:3023   */\n      0x11\n        /* \"#utility.yul\":3016:3017   */\n      0x04\n        /* \"#utility.yul\":3009:3024   */\n      mstore\n        /* \"#utility.yul\":3043:3047   */\n      0x24\n        /* \"#utility.yul\":3040:3041   */\n      0x00\n        /* \"#utility.yul\":3033:3048   */\n      revert\n        /* \"#utility.yul\":3060:3251   */\n    tag_42:\n        /* \"#utility.yul\":3100:3103   */\n      0x00\n        /* \"#utility.yul\":3119:3139   */\n      tag_120\n        /* \"#utility.yul\":3137:3138   */\n      dup3\n        /* \"#utility.yul\":3119:3139   */\n      tag_67\n      jump\t// in\n    tag_120:\n        /* \"#utility.yul\":3114:3139   */\n      swap2\n      pop\n        /* \"#utility.yul\":3153:3173   */\n      tag_121\n        /* \"#utility.yul\":3171:3172   */\n      dup4\n        /* \"#utility.yul\":3153:3173   */\n      tag_67\n      jump\t// in\n    tag_121:\n        /* \"#utility.yul\":3148:3173   */\n      swap3\n      pop\n        /* \"#utility.yul\":3196:3197   */\n      dup3\n        /* \"#utility.yul\":3193:3194   */\n      dup3\n        /* \"#utility.yul\":3189:3198   */\n      add\n        /* \"#utility.yul\":3182:3198   */\n      swap1\n      pop\n        /* \"#utility.yul\":3217:3220   */\n      dup1\n        /* \"#utility.yul\":3214:3215   */\n      dup3\n        /* \"#utility.yul\":3211:3221   */\n      gt\n        /* \"#utility.yul\":3208:3244   */\n      iszero\n      tag_122\n      jumpi\n        /* \"#utility.yul\":3224:3242   */\n      tag_123\n      tag_77\n      jump\t// in\n    tag_123:\n        /* \"#utility.yul\":3208:3244   */\n    tag_122:\n        /* \"#utility.yul\":3060:3251   */\n      swap3\n      swap2\n      pop\n      pop\n      jump\t// out\n        /* \"#utility.yul\":3257:3451   */\n    tag_46:\n        /* \"#utility.yul\":3297:3301   */\n      0x00\n        /* \"#utility.yul\":3317:3337   */\n      tag_125\n        /* \"#utility.yul\":3335:3336   */\n      dup3\n        /* \"#utility.yul\":3317:3337   */\n      tag_67\n      jump\t// in\n    tag_125:\n        /* \"#utility.yul\":3312:3337   */\n      swap2\n      pop\n        /* \"#utility.yul\":3351:3371   */\n      tag_126\n        /* \"#utility.yul\":3369:3370   */\n      dup4\n        /* \"#utility.yul\":3351:3371   */\n      tag_67\n      jump\t// in\n    tag_126:\n        /* \"#utility.yul\":3346:3371   */\n      swap3\n      pop\n        /* \"#utility.yul\":3395:3396   */\n      dup3\n        /* \"#utility.yul\":3392:3393   */\n      dup3\n        /* \"#utility.yul\":3388:3397   */\n      sub\n        /* \"#utility.yul\":3380:3397   */\n      swap1\n      pop\n        /* \"#utility.yul\":3419:3420   */\n      dup2\n        /* \"#utility.yul\":3413:3417   */\n      dup2\n        /* \"#utility.yul\":3410:3421   */\n      gt\n        /* \"#utility.yul\":3407:3444   */\n      iszero\n      tag_127\n      jumpi\n        /* \"#utility.yul\":3424:3442   */\n      tag_128\n      tag_77\n      jump\t// in\n    tag_128:\n        /* \"#utility.yul\":3407:3444   */\n    tag_127:\n        /* \"#utility.yul\":3257:3451   */\n      swap3\n      swap2\n      pop\n      pop\n      jump\t// out\n        /* \"#utility.yul\":3457:3637   */\n    tag_49:\n        /* \"#utility.yul\":3505:3582   */\n      0x4e487b7100000000000000000000000000000000000000000000000000000000\n        /* \"#utility.yul\":3502:3503   */\n      0x00\n        /* \"#utility.yul\":3495:3583   */\n      mstore\n        /* \"#utility.yul\":3602:3606   */\n      0x01\n        /* \"#utility.yul\":3599:3600   */\n      0x04\n        /* \"#utility.yul\":3592:3607   */\n      mstore\n        /* \"#utility.yul\":3626:3630   */\n      0x24\n        /* \"#utility.yul\":3623:3624   */\n      0x00\n        /* \"#utility.yul\":3616:3631   */\n      revert\n        /* \"#utility.yul\":3643:3812   */\n    tag_78:\n        /* \"#utility.yul\":3727:3738   */\n      0x00\n        /* \"#utility.yul\":3761:3767   */\n      dup3\n        /* \"#utility.yul\":3756:3759   */\n      dup3\n        /* \"#utility.yul\":3749:3768   */\n      mstore\n        /* \"#utility.yul\":3801:3805   */\n      0x20\n        /* \"#utility.yul\":3796:3799   */\n      dup3\n        /* \"#utility.yul\":3792:3806   */\n      add\n        /* \"#utility.yul\":3777:3806   */\n      swap1\n      pop\n        /* \"#utility.yul\":3643:3812   */\n      swap3\n      swap2\n      pop\n      pop\n      jump\t// out\n        /* \"#utility.yul\":3818:3932   */\n    tag_79:\n      pop\n      jump\t// out\n        /* \"#utility.yul\":3938:4302   */\n    tag_80:\n        /* \"#utility.yul\":4080:4083   */\n      0x00\n        /* \"#utility.yul\":4101:4167   */\n      tag_133\n        /* \"#utility.yul\":4165:4166   */\n      0x00\n        /* \"#utility.yul\":4160:4163   */\n      dup4\n        /* \"#utility.yul\":4101:4167   */\n      tag_78\n      jump\t// in\n    tag_133:\n        /* \"#utility.yul\":4094:4167   */\n      swap2\n      pop\n        /* \"#utility.yul\":4176:4269   */\n      tag_134\n        /* \"#utility.yul\":4265:4268   */\n      dup3\n        /* \"#utility.yul\":4176:4269   */\n      tag_79\n      jump\t// in\n    tag_134:\n        /* \"#utility.yul\":4294:4295   */\n      0x00\n        /* \"#utility.yul\":4289:4292   */\n      dup3\n        /* \"#utility.yul\":4285:4296   */\n      add\n        /* \"#utility.yul\":4278:4296   */\n      swap1\n      pop\n        /* \"#utility.yul\":3938:4302   */\n      swap2\n      swap1\n      pop\n      jump\t// out\n        /* \"#utility.yul\":4308:4727   */\n    tag_56:\n        /* \"#utility.yul\":4474:4478   */\n      0x00\n        /* \"#utility.yul\":4512:4514   */\n      0x20\n        /* \"#utility.yul\":4501:4510   */\n      dup3\n        /* \"#utility.yul\":4497:4515   */\n      add\n        /* \"#utility.yul\":4489:4515   */\n      swap1\n      pop\n        /* \"#utility.yul\":4561:4570   */\n      dup2\n        /* \"#utility.yul\":4555:4559   */\n      dup2\n        /* \"#utility.yul\":4551:4571   */\n      sub\n        /* \"#utility.yul\":4547:4548   */\n      0x00\n        /* \"#utility.yul\":4536:4545   */\n      dup4\n        /* \"#utility.yul\":4532:4549   */\n      add\n        /* \"#utility.yul\":4525:4572   */\n      mstore\n        /* \"#utility.yul\":4589:4720   */\n      tag_136\n        /* \"#utility.yul\":4715:4719   */\n      dup2\n        /* \"#utility.yul\":4589:4720   */\n      tag_80\n      jump\t// in\n    tag_136:\n        /* \"#utility.yul\":4581:4720   */\n      swap1\n      pop\n        /* \"#utility.yul\":4308:4727   */\n      swap2\n      swap1\n      pop\n      jump\t// out\n\n    auxdata: 0xa2646970667358221220b0a720d7f69f0e36c73e610c527b3af9ff3d3cf626ab3063e3fc36ebb550e7ee64736f6c63430008100033\n}\n",
				"bytecode": {
					"linkReferences": {},
					"object": "6080604052670de0b6b3a764000060025534801561001c57600080fd5b50336000806101000a81548173ffffffffffffffffffffffffffffffffffffffff021916908373ffffffffffffffffffffffffffffffffffffffff16021790555061061a8061006c6000396000f3fe6080604052600436106100595760003560e01c80633b76594d1461006e5780638da5cb5b14610097578063c1075329146100c2578063c89f2ce4146100eb578063dbd97d2e14610116578063de242ff41461013f57610069565b36610069576100673461016a565b005b600080fd5b34801561007a57600080fd5b5061009560048036038101906100909190610396565b61016a565b005b3480156100a357600080fd5b506100ac610186565b6040516100b99190610404565b60405180910390f35b3480156100ce57600080fd5b506100e960048036038101906100e4919061045d565b6101aa565b005b3480156100f757600080fd5b5061010061023d565b60405161010d91906104ac565b60405180910390f35b34801561012257600080fd5b5061013d6004803603810190610138919061045d565b610243565b005b34801561014b57600080fd5b50610154610355565b60405161016191906104ac565b60405180910390f35b806001600082825461017c91906104f6565b9250508190555050565b60008054906101000a900473ffffffffffffffffffffffffffffffffffffffff1681565b6002548111156101b957600080fd5b600154816001546101ca919061052a565b11156101d9576101d861055e565b5b80600160008282546101eb919061052a565b925050819055508173ffffffffffffffffffffffffffffffffffffffff166108fc829081150290604051600060405180830381858888f19350505050158015610238573d6000803e3d6000fd5b505050565b60015481565b60008054906101000a900473ffffffffffffffffffffffffffffffffffffffff1673ffffffffffffffffffffffffffffffffffffffff163373ffffffffffffffffffffffffffffffffffffffff16146102d1576040517f08c379a00000000000000000000000000000000000000000000000000000000081526004016102c8906105c4565b60405180910390fd5b600154816001546102e2919061052a565b11156102f1576102f061055e565b5b8060016000828254610303919061052a565b925050819055508173ffffffffffffffffffffffffffffffffffffffff166108fc829081150290604051600060405180830381858888f19350505050158015610350573d6000803e3d6000fd5b505050565b60025481565b600080fd5b6000819050919050565b61037381610360565b811461037e57600080fd5b50565b6000813590506103908161036a565b92915050565b6000602082840312156103ac576103ab61035b565b5b60006103ba84828501610381565b91505092915050565b600073ffffffffffffffffffffffffffffffffffffffff82169050919050565b60006103ee826103c3565b9050919050565b6103fe816103e3565b82525050565b600060208201905061041960008301846103f5565b92915050565b600061042a826103c3565b9050919050565b61043a8161041f565b811461044557600080fd5b50565b60008135905061045781610431565b92915050565b600080604083850312156104745761047361035b565b5b600061048285828601610448565b925050602061049385828601610381565b9150509250929050565b6104a681610360565b82525050565b60006020820190506104c1600083018461049d565b92915050565b7f4e487b7100000000000000000000000000000000000000000000000000000000600052601160045260246000fd5b600061050182610360565b915061050c83610360565b9250828201905080821115610524576105236104c7565b5b92915050565b600061053582610360565b915061054083610360565b9250828203905081811115610558576105576104c7565b5b92915050565b7f4e487b7100000000000000000000000000000000000000000000000000000000600052600160045260246000fd5b600082825260208201905092915050565b50565b60006105ae60008361058d565b91506105b98261059e565b600082019050919050565b600060208201905081810360008301526105dd816105a1565b905091905056fea2646970667358221220b0a720d7f69f0e36c73e610c527b3af9ff3d3cf626ab3063e3fc36ebb550e7ee64736f6c63430008100033",
					"opcodes": "PUSH1 0x80 PUSH1 0x40 MSTORE PUSH8 0xDE0B6B3A7640000 PUSH1 0x2 SSTORE CALLVALUE DUP1 ISZERO PUSH2 0x1C JUMPI PUSH1 0x0 DUP1 REVERT JUMPDEST POP CALLER PUSH1 0x0 DUP1 PUSH2 0x100 EXP DUP2 SLOAD DUP2 PUSH20 0xFFFFFFFFFFFFFFFFFFFFFFFFFFFFFFFFFFFFFFFF MUL NOT AND SWAP1 DUP4 PUSH20 0xFFFFFFFFFFFFFFFFFFFFFFFFFFFFFFFFFFFFFFFF AND MUL OR SWAP1 SSTORE POP PUSH2 0x61A DUP1 PUSH2 0x6C PUSH1 0x0 CODECOPY PUSH1 0x0 RETURN INVALID PUSH1 0x80 PUSH1 0x40 MSTORE PUSH1 0x4 CALLDATASIZE LT PUSH2 0x59 JUMPI PUSH1 0x0 CALLDATALOAD PUSH1 0xE0 SHR DUP1 PUSH4 0x3B76594D EQ PUSH2 0x6E JUMPI DUP1 PUSH4 0x8DA5CB5B EQ PUSH2 0x97 JUMPI DUP1 PUSH4 0xC1075329 EQ PUSH2 0xC2 JUMPI DUP1 PUSH4 0xC89F2CE4 EQ PUSH2 0xEB JUMPI DUP1 PUSH4 0xDBD97D2E EQ PUSH2 0x116 JUMPI DUP1 PUSH4 0xDE242FF4 EQ PUSH2 0x13F JUMPI PUSH2 0x69 JUMP JUMPDEST CALLDATASIZE PUSH2 0x69 JUMPI PUSH2 0x67 CALLVALUE PUSH2 0x16A JUMP JUMPDEST STOP JUMPDEST PUSH1 0x0 DUP1 REVERT JUMPDEST CALLVALUE DUP1 ISZERO PUSH2 0x7A JUMPI PUSH1 0x0 DUP1 REVERT JUMPDEST POP PUSH2 0x95 PUSH1 0x4 DUP1 CALLDATASIZE SUB DUP2 ADD SWAP1 PUSH2 0x90 SWAP2 SWAP1 PUSH2 0x396 JUMP JUMPDEST PUSH2 0x16A JUMP JUMPDEST STOP JUMPDEST CALLVALUE DUP1 ISZERO PUSH2 0xA3 JUMPI PUSH1 0x0 DUP1 REVERT JUMPDEST POP PUSH2 0xAC PUSH2 0x186 JUMP JUMPDEST PUSH1 0x40 MLOAD PUSH2 0xB9 SWAP2 SWAP1 PUSH2 0x404 JUMP JUMPDEST PUSH1 0x40 MLOAD DUP1 SWAP2 SUB SWAP1 RETURN JUMPDEST CALLVALUE DUP1 ISZERO PUSH2 0xCE JUMPI PUSH1 0x0 DUP1 REVERT JUMPDEST POP PUSH2 0xE9 PUSH1 0x4 DUP1 CALLDATASIZE SUB DUP2 ADD SWAP1 PUSH2 0xE4 SWAP2 SWAP1 PUSH2 0x45D JUMP JUMPDEST PUSH2 0x1AA JUMP JUMPDEST STOP JUMPDEST CALLVALUE DUP1 ISZERO PUSH2 0xF7 JUMPI PUSH1 0x0 DUP1 REVERT JUMPDEST POP PUSH2 0x100 PUSH2 0x23D JUMP JUMPDEST PUSH1 0x40 MLOAD PUSH2 0x10D SWAP2 SWAP1 PUSH2 0x4AC JUMP JUMPDEST PUSH1 0x40 MLOAD DUP1 SWAP2 SUB SWAP1 RETURN JUMPDEST CALLVALUE DUP1 ISZERO PUSH2 0x122 JUMPI PUSH1 0x0 DUP1 REVERT JUMPDEST POP PUSH2 0x13D PUSH1 0x4 DUP1 CALLDATASIZE SUB DUP2 ADD SWAP1 PUSH2 0x138 SWAP2 SWAP1 PUSH2 0x45D JUMP JUMPDEST PUSH2 0x243 JUMP JUMPDEST STOP JUMPDEST CALLVALUE DUP1 ISZERO PUSH2 0x14B JUMPI PUSH1 0x0 DUP1 REVERT JUMPDEST POP PUSH2 0x154 PUSH2 0x355 JUMP JUMPDEST PUSH1 0x40 MLOAD PUSH2 0x161 SWAP2 SWAP1 PUSH2 0x4AC JUMP JUMPDEST PUSH1 0x40 MLOAD DUP1 SWAP2 SUB SWAP1 RETURN JUMPDEST DUP1 PUSH1 0x1 PUSH1 0x0 DUP3 DUP3 SLOAD PUSH2 0x17C SWAP2 SWAP1 PUSH2 0x4F6 JUMP JUMPDEST SWAP3 POP POP DUP2 SWAP1 SSTORE POP POP JUMP JUMPDEST PUSH1 0x0 DUP1 SLOAD SWAP1 PUSH2 0x100 EXP SWAP1 DIV PUSH20 0xFFFFFFFFFFFFFFFFFFFFFFFFFFFFFFFFFFFFFFFF AND DUP2 JUMP JUMPDEST PUSH1 0x2 SLOAD DUP2 GT ISZERO PUSH2 0x1B9 JUMPI PUSH1 0x0 DUP1 REVERT JUMPDEST PUSH1 0x1 SLOAD DUP2 PUSH1 0x1 SLOAD PUSH2 0x1CA SWAP2 SWAP1 PUSH2 0x52A JUMP JUMPDEST GT ISZERO PUSH2 0x1D9 JUMPI PUSH2 0x1D8 PUSH2 0x55E JUMP JUMPDEST JUMPDEST DUP1 PUSH1 0x1 PUSH1 0x0 DUP3 DUP3 SLOAD PUSH2 0x1EB SWAP2 SWAP1 PUSH2 0x52A JUMP JUMPDEST SWAP3 POP POP DUP2 SWAP1 SSTORE POP DUP2 PUSH20 0xFFFFFFFFFFFFFFFFFFFFFFFFFFFFFFFFFFFFFFFF AND PUSH2 0x8FC DUP3 SWAP1 DUP2 ISZERO MUL SWAP1 PUSH1 0x40 MLOAD PUSH1 0x0 PUSH1 0x40 MLOAD DUP1 DUP4 SUB DUP2 DUP6 DUP9 DUP9 CALL SWAP4 POP POP POP POP ISZERO DUP1 ISZERO PUSH2 0x238 JUMPI RETURNDATASIZE PUSH1 0x0 DUP1 RETURNDATACOPY RETURNDATASIZE PUSH1 0x0 REVERT JUMPDEST POP POP POP JUMP JUMPDEST PUSH1 0x1 SLOAD DUP2 JUMP JUMPDEST PUSH1 0x0 DUP1 SLOAD SWAP1 PUSH2 0x100 EXP SWAP1 DIV PUSH20 0xFFFFFFFFFFFFFFFFFFFFFFFFFFFFFFFFFFFFFFFF AND PUSH20 0xFFFFFFFFFFFFFFFFFFFFFFFFFFFFFFFFFFFFFFFF AND CALLER PUSH20 0xFFFFFFFFFFFFFFFFFFFFFFFFFFFFFFFFFFFFFFFF AND EQ PUSH2 0x2D1 JUMPI PUSH1 0x40 MLOAD PUSH32 0x8C379A000000000000000000000000000000000000000000000000000000000 DUP2 MSTORE PUSH1 0x4 ADD PUSH2 0x2C8 SWAP1 PUSH2 0x5C4 JUMP JUMPDEST PUSH1 0x40 MLOAD DUP1 SWAP2 SUB SWAP1 REVERT JUMPDEST PUSH1 0x1 SLOAD DUP2 PUSH1 0x1 SLOAD PUSH2 0x2E2 SWAP2 SWAP1 PUSH2 0x52A JUMP JUMPDEST GT ISZERO PUSH2 0x2F1 JUMPI PUSH2 0x2F0 PUSH2 0x55E JUMP JUMPDEST JUMPDEST DUP1 PUSH1 0x1 PUSH1 0x0 DUP3 DUP3 SLOAD PUSH2 0x303 SWAP2 SWAP1 PUSH2 0x52A JUMP JUMPDEST SWAP3 POP POP DUP2 SWAP1 SSTORE POP DUP2 PUSH20 0xFFFFFFFFFFFFFFFFFFFFFFFFFFFFFFFFFFFFFFFF AND PUSH2 0x8FC DUP3 SWAP1 DUP2 ISZERO MUL SWAP1 PUSH1 0x40 MLOAD PUSH1 0x0 PUSH1 0x40 MLOAD DUP1 DUP4 SUB DUP2 DUP6 DUP9 DUP9 CALL SWAP4 POP POP POP POP ISZERO DUP1 ISZERO PUSH2 0x350 JUMPI RETURNDATASIZE PUSH1 0x0 DUP1 RETURNDATACOPY RETURNDATASIZE PUSH1 0x0 REVERT JUMPDEST POP POP POP JUMP JUMPDEST PUSH1 0x2 SLOAD DUP2 JUMP JUMPDEST PUSH1 0x0 DUP1 REVERT JUMPDEST PUSH1 0x0 DUP2 SWAP1 POP SWAP2 SWAP1 POP JUMP JUMPDEST PUSH2 0x373 DUP2 PUSH2 0x360 JUMP JUMPDEST DUP2 EQ PUSH2 0x37E JUMPI PUSH1 0x0 DUP1 REVERT JUMPDEST POP JUMP JUMPDEST PUSH1 0x0 DUP2 CALLDATALOAD SWAP1 POP PUSH2 0x390 DUP2 PUSH2 0x36A JUMP JUMPDEST SWAP3 SWAP2 POP POP JUMP JUMPDEST PUSH1 0x0 PUSH1 0x20 DUP3 DUP5 SUB SLT ISZERO PUSH2 0x3AC JUMPI PUSH2 0x3AB PUSH2 0x35B JUMP JUMPDEST JUMPDEST PUSH1 0x0 PUSH2 0x3BA DUP5 DUP3 DUP6 ADD PUSH2 0x381 JUMP JUMPDEST SWAP2 POP POP SWAP3 SWAP2 POP POP JUMP JUMPDEST PUSH1 0x0 PUSH20 0xFFFFFFFFFFFFFFFFFFFFFFFFFFFFFFFFFFFFFFFF DUP3 AND SWAP1 POP SWAP2 SWAP1 POP JUMP JUMPDEST PUSH1 0x0 PUSH2 0x3EE DUP3 PUSH2 0x3C3 JUMP JUMPDEST SWAP1 POP SWAP2 SWAP1 POP JUMP JUMPDEST PUSH2 0x3FE DUP2 PUSH2 0x3E3 JUMP JUMPDEST DUP3 MSTORE POP POP JUMP JUMPDEST PUSH1 0x0 PUSH1 0x20 DUP3 ADD SWAP1 POP PUSH2 0x419 PUSH1 0x0 DUP4 ADD DUP5 PUSH2 0x3F5 JUMP JUMPDEST SWAP3 SWAP2 POP POP JUMP JUMPDEST PUSH1 0x0 PUSH2 0x42A DUP3 PUSH2 0x3C3 JUMP JUMPDEST SWAP1 POP SWAP2 SWAP1 POP JUMP JUMPDEST PUSH2 0x43A DUP2 PUSH2 0x41F JUMP JUMPDEST DUP2 EQ PUSH2 0x445 JUMPI PUSH1 0x0 DUP1 REVERT JUMPDEST POP JUMP JUMPDEST PUSH1 0x0 DUP2 CALLDATALOAD SWAP1 POP PUSH2 0x457 DUP2 PUSH2 0x431 JUMP JUMPDEST SWAP3 SWAP2 POP POP JUMP JUMPDEST PUSH1 0x0 DUP1 PUSH1 0x40 DUP4 DUP6 SUB SLT ISZERO PUSH2 0x474 JUMPI PUSH2 0x473 PUSH2 0x35B JUMP JUMPDEST JUMPDEST PUSH1 0x0 PUSH2 0x482 DUP6 DUP3 DUP7 ADD PUSH2 0x448 JUMP JUMPDEST SWAP3 POP POP PUSH1 0x20 PUSH2 0x493 DUP6 DUP3 DUP7 ADD PUSH2 0x381 JUMP JUMPDEST SWAP2 POP POP SWAP3 POP SWAP3 SWAP1 POP JUMP JUMPDEST PUSH2 0x4A6 DUP2 PUSH2 0x360 JUMP JUMPDEST DUP3 MSTORE POP POP JUMP JUMPDEST PUSH1 0x0 PUSH1 0x20 DUP3 ADD SWAP1 POP PUSH2 0x4C1 PUSH1 0x0 DUP4 ADD DUP5 PUSH2 0x49D JUMP JUMPDEST SWAP3 SWAP2 POP POP JUMP JUMPDEST PUSH32 0x4E487B7100000000000000000000000000000000000000000000000000000000 PUSH1 0x0 MSTORE PUSH1 0x11 PUSH1 0x4 MSTORE PUSH1 0x24 PUSH1 0x0 REVERT JUMPDEST PUSH1 0x0 PUSH2 0x501 DUP3 PUSH2 0x360 JUMP JUMPDEST SWAP2 POP PUSH2 0x50C DUP4 PUSH2 0x360 JUMP JUMPDEST SWAP3 POP DUP3 DUP3 ADD SWAP1 POP DUP1 DUP3 GT ISZERO PUSH2 0x524 JUMPI PUSH2 0x523 PUSH2 0x4C7 JUMP JUMPDEST JUMPDEST SWAP3 SWAP2 POP POP JUMP JUMPDEST PUSH1 0x0 PUSH2 0x535 DUP3 PUSH2 0x360 JUMP JUMPDEST SWAP2 POP PUSH2 0x540 DUP4 PUSH2 0x360 JUMP JUMPDEST SWAP3 POP DUP3 DUP3 SUB SWAP1 POP DUP2 DUP2 GT ISZERO PUSH2 0x558 JUMPI PUSH2 0x557 PUSH2 0x4C7 JUMP JUMPDEST JUMPDEST SWAP3 SWAP2 POP POP JUMP JUMPDEST PUSH32 0x4E487B7100000000000000000000000000000000000000000000000000000000 PUSH1 0x0 MSTORE PUSH1 0x1 PUSH1 0x4 MSTORE PUSH1 0x24 PUSH1 0x0 REVERT JUMPDEST PUSH1 0x0 DUP3 DUP3 MSTORE PUSH1 0x20 DUP3 ADD SWAP1 POP SWAP3 SWAP2 POP POP JUMP JUMPDEST POP JUMP JUMPDEST PUSH1 0x0 PUSH2 0x5AE PUSH1 0x0 DUP4 PUSH2 0x58D JUMP JUMPDEST SWAP2 POP PUSH2 0x5B9 DUP3 PUSH2 0x59E JUMP JUMPDEST PUSH1 0x0 DUP3 ADD SWAP1 POP SWAP2 SWAP1 POP JUMP JUMPDEST PUSH1 0x0 PUSH1 0x20 DUP3 ADD SWAP1 POP DUP2 DUP2 SUB PUSH1 0x0 DUP4 ADD MSTORE PUSH2 0x5DD DUP2 PUSH2 0x5A1 JUMP JUMPDEST SWAP1 POP SWAP2 SWAP1 POP JUMP INVALID LOG2 PUSH5 0x6970667358 0x22 SLT KECCAK256 0xB0 0xA7 KECCAK256 0xD7 0xF6 SWAP16 0xE CALLDATASIZE 0xC7 RETURNDATACOPY PUSH2 0xC52 PUSH28 0x3AF9FF3D3CF626AB3063E3FC36EBB550E7EE64736F6C634300081000 CALLER "
				},
				"gasEstimates": {
					"creation": {
						"codeDepositCost": "312400",
						"executionCost": "46721",
						"totalCost": "359121"
					},
					"external": {
						"allowance()": "2517",
						"depositFunds(uint256)": "infinite",
						"funds()": "2473",
						"owner()": "2511",
						"ownerWithdrawFunds(address,uint256)": "infinite",
						"withdrawFunds(address,uint256)": "infinite"
					}
				},
				"methodIdentifiers": {
					"allowance()": "de242ff4",
					"depositFunds(uint256)": "3b76594d",
					"funds()": "c89f2ce4",
					"owner()": "8da5cb5b",
					"ownerWithdrawFunds(address,uint256)": "dbd97d2e",
					"withdrawFunds(address,uint256)": "c1075329"
				}
			},
			"storageLayout": {
				"storage": [
					{
						"astId": 3,
						"contract": "SharedWallet.sol:SharedWallet",
						"label": "owner",
						"offset": 0,
						"slot": "0",
						"type": "t_address"
					},
					{
						"astId": 5,
						"contract": "SharedWallet.sol:SharedWallet",
						"label": "funds",
						"offset": 0,
						"slot": "1",
						"type": "t_uint256"
					},
					{
						"astId": 8,
						"contract": "SharedWallet.sol:SharedWallet",
						"label": "allowance",
						"offset": 0,
						"slot": "2",
						"type": "t_uint256"
					}
				],
				"types": {
					"t_address": {
						"encoding": "inplace",
						"label": "address",
						"numberOfBytes": "20"
					},
					"t_uint256": {
						"encoding": "inplace",
						"label": "uint256",
						"numberOfBytes": "32"
					}
				}
			},
			"userdoc": {
				"kind": "user",
				"methods": {},
				"version": 1
			}
		}
	}
}