{
	"FunctionExample.sol": {
		"FunctionsExample": {
			"abi": [
				{
					"inputs": [],
					"stateMutability": "nonpayable",
					"type": "constructor"
				},
				{
					"inputs": [
						{
							"internalType": "address",
							"name": "",
							"type": "address"
						}
					],
					"name": "balanceReceived",
					"outputs": [
						{
							"internalType": "uint64",
							"name": "",
							"type": "uint64"
						}
					],
					"stateMutability": "view",
					"type": "function"
				},
				{
					"inputs": [
						{
							"internalType": "uint256",
							"name": "_amountInWei",
							"type": "uint256"
						}
					],
					"name": "convertWeiToEther",
					"outputs": [
						{
							"internalType": "uint256",
							"name": "",
							"type": "uint256"
						}
					],
					"stateMutability": "pure",
					"type": "function"
				},
				{
					"inputs": [],
					"name": "destroySmartContr4act",
					"outputs": [],
					"stateMutability": "nonpayable",
					"type": "function"
				},
				{
					"inputs": [],
					"name": "getOwner",
					"outputs": [
						{
							"internalType": "address",
							"name": "",
							"type": "address"
						}
					],
					"stateMutability": "view",
					"type": "function"
				},
				{
					"inputs": [],
					"name": "receiveMoney",
					"outputs": [],
					"stateMutability": "payable",
					"type": "function"
				},
				{
					"inputs": [
						{
							"internalType": "address payable",
							"name": "_to",
							"type": "address"
						},
						{
							"internalType": "uint64",
							"name": "_amount",
							"type": "uint64"
						}
					],
					"name": "withdrawMoney",
					"outputs": [],
					"stateMutability": "nonpayable",
					"type": "function"
				}
			],
			"devdoc": {
				"kind": "dev",
				"methods": {},
				"version": 1
			},
			"evm": {
				"assembly": "    /* \"FunctionExample.sol\":58:1189  contract FunctionsExample {... */\n  mstore(0x40, 0x80)\n    /* \"FunctionExample.sol\":174:232  constructor() {... */\n  callvalue\n  dup1\n  iszero\n  tag_1\n  jumpi\n  0x00\n  dup1\n  revert\ntag_1:\n  pop\n    /* \"FunctionExample.sol\":214:224  msg.sender */\n  caller\n    /* \"FunctionExample.sol\":198:203  owner */\n  0x01\n  0x00\n    /* \"FunctionExample.sol\":198:225  owner = payable(msg.sender) */\n  0x0100\n  exp\n  dup2\n  sload\n  dup2\n  0xffffffffffffffffffffffffffffffffffffffff\n  mul\n  not\n  and\n  swap1\n  dup4\n  0xffffffffffffffffffffffffffffffffffffffff\n  and\n  mul\n  or\n  swap1\n  sstore\n  pop\n    /* \"FunctionExample.sol\":58:1189  contract FunctionsExample {... */\n  dataSize(sub_0)\n  dup1\n  dataOffset(sub_0)\n  0x00\n  codecopy\n  0x00\n  return\nstop\n\nsub_0: assembly {\n        /* \"FunctionExample.sol\":58:1189  contract FunctionsExample {... */\n      mstore(0x40, 0x80)\n      jumpi(tag_1, lt(calldatasize, 0x04))\n      shr(0xe0, calldataload(0x00))\n      dup1\n      0x0ad19aeb\n      eq\n      tag_2\n      jumpi\n      dup1\n      0x395a6063\n      eq\n      tag_3\n      jumpi\n      dup1\n      0x6d26ec18\n      eq\n      tag_4\n      jumpi\n      dup1\n      0x893d20e8\n      eq\n      tag_5\n      jumpi\n      dup1\n      0xd18a42e1\n      eq\n      tag_6\n      jumpi\n      dup1\n      0xeef5da9c\n      eq\n      tag_7\n      jumpi\n    tag_1:\n      0x00\n      dup1\n      revert\n        /* \"FunctionExample.sol\":808:1112  function withdrawMoney(address payable _to, uint64 _amount) public {... */\n    tag_2:\n      callvalue\n      dup1\n      iszero\n      tag_8\n      jumpi\n      0x00\n      dup1\n      revert\n    tag_8:\n      pop\n      tag_9\n      0x04\n      dup1\n      calldatasize\n      sub\n      dup2\n      add\n      swap1\n      tag_10\n      swap2\n      swap1\n      tag_11\n      jump\t// in\n    tag_10:\n      tag_12\n      jump\t// in\n    tag_9:\n      stop\n        /* \"FunctionExample.sol\":322:441  function convertWeiToEther(uint _amountInWei) public pure returns(uint) {... */\n    tag_3:\n      callvalue\n      dup1\n      iszero\n      tag_13\n      jumpi\n      0x00\n      dup1\n      revert\n    tag_13:\n      pop\n      tag_14\n      0x04\n      dup1\n      calldatasize\n      sub\n      dup2\n      add\n      swap1\n      tag_15\n      swap2\n      swap1\n      tag_16\n      jump\t// in\n    tag_15:\n      tag_17\n      jump\t// in\n    tag_14:\n      mload(0x40)\n      tag_18\n      swap2\n      swap1\n      tag_19\n      jump\t// in\n    tag_18:\n      mload(0x40)\n      dup1\n      swap2\n      sub\n      swap1\n      return\n        /* \"FunctionExample.sol\":592:802  function receiveMoney() public payable {... */\n    tag_4:\n      tag_20\n      tag_21\n      jump\t// in\n    tag_20:\n      stop\n        /* \"FunctionExample.sol\":238:316  function getOwner() public view returns(address) {... */\n    tag_5:\n      callvalue\n      dup1\n      iszero\n      tag_22\n      jumpi\n      0x00\n      dup1\n      revert\n    tag_22:\n      pop\n      tag_23\n      tag_24\n      jump\t// in\n    tag_23:\n      mload(0x40)\n      tag_25\n      swap2\n      swap1\n      tag_26\n      jump\t// in\n    tag_25:\n      mload(0x40)\n      dup1\n      swap2\n      sub\n      swap1\n      return\n        /* \"FunctionExample.sol\":90:139  mapping(address => uint64) public balanceReceived */\n    tag_6:\n      callvalue\n      dup1\n      iszero\n      tag_27\n      jumpi\n      0x00\n      dup1\n      revert\n    tag_27:\n      pop\n      tag_28\n      0x04\n      dup1\n      calldatasize\n      sub\n      dup2\n      add\n      swap1\n      tag_29\n      swap2\n      swap1\n      tag_30\n      jump\t// in\n    tag_29:\n      tag_31\n      jump\t// in\n    tag_28:\n      mload(0x40)\n      tag_32\n      swap2\n      swap1\n      tag_33\n      jump\t// in\n    tag_32:\n      mload(0x40)\n      dup1\n      swap2\n      sub\n      swap1\n      return\n        /* \"FunctionExample.sol\":447:586  function destroySmartContr4act() public {... */\n    tag_7:\n      callvalue\n      dup1\n      iszero\n      tag_34\n      jumpi\n      0x00\n      dup1\n      revert\n    tag_34:\n      pop\n      tag_35\n      tag_36\n      jump\t// in\n    tag_35:\n      stop\n        /* \"FunctionExample.sol\":808:1112  function withdrawMoney(address payable _to, uint64 _amount) public {... */\n    tag_12:\n        /* \"FunctionExample.sol\":904:919  balanceReceived */\n      0x00\n        /* \"FunctionExample.sol\":904:931  balanceReceived[msg.sender] */\n      dup1\n        /* \"FunctionExample.sol\":920:930  msg.sender */\n      caller\n        /* \"FunctionExample.sol\":904:931  balanceReceived[msg.sender] */\n      0xffffffffffffffffffffffffffffffffffffffff\n      and\n      0xffffffffffffffffffffffffffffffffffffffff\n      and\n      dup2\n      mstore\n      0x20\n      add\n      swap1\n      dup2\n      mstore\n      0x20\n      add\n      0x00\n      keccak256\n      0x00\n      swap1\n      sload\n      swap1\n      0x0100\n      exp\n      swap1\n      div\n      0xffffffffffffffff\n      and\n        /* \"FunctionExample.sol\":893:931  _amount <= balanceReceived[msg.sender] */\n      0xffffffffffffffff\n      and\n        /* \"FunctionExample.sol\":893:900  _amount */\n      dup2\n        /* \"FunctionExample.sol\":893:931  _amount <= balanceReceived[msg.sender] */\n      0xffffffffffffffff\n      and\n      gt\n      iszero\n        /* \"FunctionExample.sol\":885:940  require(_amount <= balanceReceived[msg.sender], \"Nope\") */\n      tag_38\n      jumpi\n      mload(0x40)\n      0x08c379a000000000000000000000000000000000000000000000000000000000\n      dup2\n      mstore\n      0x04\n      add\n      tag_39\n      swap1\n      tag_40\n      jump\t// in\n    tag_39:\n      mload(0x40)\n      dup1\n      swap2\n      sub\n      swap1\n      revert\n    tag_38:\n        /* \"FunctionExample.sol\":998:1013  balanceReceived */\n      0x00\n        /* \"FunctionExample.sol\":998:1025  balanceReceived[msg.sender] */\n      dup1\n        /* \"FunctionExample.sol\":1014:1024  msg.sender */\n      caller\n        /* \"FunctionExample.sol\":998:1025  balanceReceived[msg.sender] */\n      0xffffffffffffffffffffffffffffffffffffffff\n      and\n      0xffffffffffffffffffffffffffffffffffffffff\n      and\n      dup2\n      mstore\n      0x20\n      add\n      swap1\n      dup2\n      mstore\n      0x20\n      add\n      0x00\n      keccak256\n      0x00\n      swap1\n      sload\n      swap1\n      0x0100\n      exp\n      swap1\n      div\n      0xffffffffffffffff\n      and\n        /* \"FunctionExample.sol\":957:1025  balanceReceived[msg.sender] - _amount <= balanceReceived[msg.sender] */\n      0xffffffffffffffff\n      and\n        /* \"FunctionExample.sol\":987:994  _amount */\n      dup2\n        /* \"FunctionExample.sol\":957:972  balanceReceived */\n      0x00\n        /* \"FunctionExample.sol\":957:984  balanceReceived[msg.sender] */\n      dup1\n        /* \"FunctionExample.sol\":973:983  msg.sender */\n      caller\n        /* \"FunctionExample.sol\":957:984  balanceReceived[msg.sender] */\n      0xffffffffffffffffffffffffffffffffffffffff\n      and\n      0xffffffffffffffffffffffffffffffffffffffff\n      and\n      dup2\n      mstore\n      0x20\n      add\n      swap1\n      dup2\n      mstore\n      0x20\n      add\n      0x00\n      keccak256\n      0x00\n      swap1\n      sload\n      swap1\n      0x0100\n      exp\n      swap1\n      div\n      0xffffffffffffffff\n      and\n        /* \"FunctionExample.sol\":957:994  balanceReceived[msg.sender] - _amount */\n      tag_41\n      swap2\n      swap1\n      tag_42\n      jump\t// in\n    tag_41:\n        /* \"FunctionExample.sol\":957:1025  balanceReceived[msg.sender] - _amount <= balanceReceived[msg.sender] */\n      0xffffffffffffffff\n      and\n      gt\n      iszero\n        /* \"FunctionExample.sol\":950:1026  assert(balanceReceived[msg.sender] - _amount <= balanceReceived[msg.sender]) */\n      tag_43\n      jumpi\n      tag_44\n      tag_45\n      jump\t// in\n    tag_44:\n    tag_43:\n        /* \"FunctionExample.sol\":1067:1074  _amount */\n      dup1\n        /* \"FunctionExample.sol\":1036:1051  balanceReceived */\n      0x00\n        /* \"FunctionExample.sol\":1036:1063  balanceReceived[msg.sender] */\n      dup1\n        /* \"FunctionExample.sol\":1052:1062  msg.sender */\n      caller\n        /* \"FunctionExample.sol\":1036:1063  balanceReceived[msg.sender] */\n      0xffffffffffffffffffffffffffffffffffffffff\n      and\n      0xffffffffffffffffffffffffffffffffffffffff\n      and\n      dup2\n      mstore\n      0x20\n      add\n      swap1\n      dup2\n      mstore\n      0x20\n      add\n      0x00\n      keccak256\n      0x00\n        /* \"FunctionExample.sol\":1036:1074  balanceReceived[msg.sender] -= _amount */\n      dup3\n      dup3\n      dup3\n      swap1\n      sload\n      swap1\n      0x0100\n      exp\n      swap1\n      div\n      0xffffffffffffffff\n      and\n      tag_46\n      swap2\n      swap1\n      tag_42\n      jump\t// in\n    tag_46:\n      swap3\n      pop\n      0x0100\n      exp\n      dup2\n      sload\n      dup2\n      0xffffffffffffffff\n      mul\n      not\n      and\n      swap1\n      dup4\n      0xffffffffffffffff\n      and\n      mul\n      or\n      swap1\n      sstore\n      pop\n        /* \"FunctionExample.sol\":1084:1087  _to */\n      dup2\n        /* \"FunctionExample.sol\":1084:1096  _to.transfer */\n      0xffffffffffffffffffffffffffffffffffffffff\n      and\n        /* \"FunctionExample.sol\":1084:1105  _to.transfer(_amount) */\n      0x08fc\n        /* \"FunctionExample.sol\":1097:1104  _amount */\n      dup3\n        /* \"FunctionExample.sol\":1084:1105  _to.transfer(_amount) */\n      0xffffffffffffffff\n      and\n      swap1\n      dup2\n      iszero\n      mul\n      swap1\n      mload(0x40)\n      0x00\n      mload(0x40)\n      dup1\n      dup4\n      sub\n      dup2\n      dup6\n      dup9\n      dup9\n      call\n      swap4\n      pop\n      pop\n      pop\n      pop\n      iszero\n      dup1\n      iszero\n      tag_48\n      jumpi\n      returndatasize\n      0x00\n      dup1\n      returndatacopy\n      revert(0x00, returndatasize)\n    tag_48:\n      pop\n        /* \"FunctionExample.sol\":808:1112  function withdrawMoney(address payable _to, uint64 _amount) public {... */\n      pop\n      pop\n      jump\t// out\n        /* \"FunctionExample.sol\":322:441  function convertWeiToEther(uint _amountInWei) public pure returns(uint) {... */\n    tag_17:\n        /* \"FunctionExample.sol\":388:392  uint */\n      0x00\n        /* \"FunctionExample.sol\":426:433  1 ether */\n      0x0de0b6b3a7640000\n        /* \"FunctionExample.sol\":411:423  _amountInWei */\n      dup3\n        /* \"FunctionExample.sol\":411:433  _amountInWei / 1 ether */\n      tag_50\n      swap2\n      swap1\n      tag_51\n      jump\t// in\n    tag_50:\n        /* \"FunctionExample.sol\":404:433  return _amountInWei / 1 ether */\n      swap1\n      pop\n        /* \"FunctionExample.sol\":322:441  function convertWeiToEther(uint _amountInWei) public pure returns(uint) {... */\n      swap2\n      swap1\n      pop\n      jump\t// out\n        /* \"FunctionExample.sol\":592:802  function receiveMoney() public payable {... */\n    tag_21:\n        /* \"FunctionExample.sol\":668:677  msg.value */\n      callvalue\n        /* \"FunctionExample.sol\":648:678  msg.value == uint64(msg.value) */\n      0xffffffffffffffff\n      and\n        /* \"FunctionExample.sol\":648:657  msg.value */\n      callvalue\n        /* \"FunctionExample.sol\":648:678  msg.value == uint64(msg.value) */\n      eq\n        /* \"FunctionExample.sol\":641:679  assert(msg.value == uint64(msg.value)) */\n      tag_53\n      jumpi\n      tag_54\n      tag_45\n      jump\t// in\n    tag_54:\n    tag_53:\n        /* \"FunctionExample.sol\":727:736  msg.value */\n      callvalue\n        /* \"FunctionExample.sol\":689:704  balanceReceived */\n      0x00\n        /* \"FunctionExample.sol\":689:716  balanceReceived[msg.sender] */\n      dup1\n        /* \"FunctionExample.sol\":705:715  msg.sender */\n      caller\n        /* \"FunctionExample.sol\":689:716  balanceReceived[msg.sender] */\n      0xffffffffffffffffffffffffffffffffffffffff\n      and\n      0xffffffffffffffffffffffffffffffffffffffff\n      and\n      dup2\n      mstore\n      0x20\n      add\n      swap1\n      dup2\n      mstore\n      0x20\n      add\n      0x00\n      keccak256\n      0x00\n        /* \"FunctionExample.sol\":689:737  balanceReceived[msg.sender] += uint64(msg.value) */\n      dup3\n      dup3\n      dup3\n      swap1\n      sload\n      swap1\n      0x0100\n      exp\n      swap1\n      div\n      0xffffffffffffffff\n      and\n      tag_55\n      swap2\n      swap1\n      tag_56\n      jump\t// in\n    tag_55:\n      swap3\n      pop\n      0x0100\n      exp\n      dup2\n      sload\n      dup2\n      0xffffffffffffffff\n      mul\n      not\n      and\n      swap1\n      dup4\n      0xffffffffffffffff\n      and\n      mul\n      or\n      swap1\n      sstore\n      pop\n        /* \"FunctionExample.sol\":785:794  msg.value */\n      callvalue\n        /* \"FunctionExample.sol\":754:769  balanceReceived */\n      0x00\n        /* \"FunctionExample.sol\":754:781  balanceReceived[msg.sender] */\n      dup1\n        /* \"FunctionExample.sol\":770:780  msg.sender */\n      caller\n        /* \"FunctionExample.sol\":754:781  balanceReceived[msg.sender] */\n      0xffffffffffffffffffffffffffffffffffffffff\n      and\n      0xffffffffffffffffffffffffffffffffffffffff\n      and\n      dup2\n      mstore\n      0x20\n      add\n      swap1\n      dup2\n      mstore\n      0x20\n      add\n      0x00\n      keccak256\n      0x00\n      swap1\n      sload\n      swap1\n      0x0100\n      exp\n      swap1\n      div\n      0xffffffffffffffff\n      and\n        /* \"FunctionExample.sol\":754:794  balanceReceived[msg.sender] >= msg.value */\n      0xffffffffffffffff\n      and\n      lt\n      iszero\n        /* \"FunctionExample.sol\":747:795  assert(balanceReceived[msg.sender] >= msg.value) */\n      tag_57\n      jumpi\n      tag_58\n      tag_45\n      jump\t// in\n    tag_58:\n    tag_57:\n        /* \"FunctionExample.sol\":592:802  function receiveMoney() public payable {... */\n      jump\t// out\n        /* \"FunctionExample.sol\":238:316  function getOwner() public view returns(address) {... */\n    tag_24:\n        /* \"FunctionExample.sol\":278:285  address */\n      0x00\n        /* \"FunctionExample.sol\":304:309  owner */\n      0x01\n      0x00\n      swap1\n      sload\n      swap1\n      0x0100\n      exp\n      swap1\n      div\n      0xffffffffffffffffffffffffffffffffffffffff\n      and\n        /* \"FunctionExample.sol\":297:309  return owner */\n      swap1\n      pop\n        /* \"FunctionExample.sol\":238:316  function getOwner() public view returns(address) {... */\n      swap1\n      jump\t// out\n        /* \"FunctionExample.sol\":90:139  mapping(address => uint64) public balanceReceived */\n    tag_31:\n      mstore(0x20, 0x00)\n      dup1\n      0x00\n      mstore\n      keccak256(0x00, 0x40)\n      0x00\n      swap2\n      pop\n      sload\n      swap1\n      0x0100\n      exp\n      swap1\n      div\n      0xffffffffffffffff\n      and\n      dup2\n      jump\t// out\n        /* \"FunctionExample.sol\":447:586  function destroySmartContr4act() public {... */\n    tag_36:\n        /* \"FunctionExample.sol\":519:524  owner */\n      0x01\n      0x00\n      swap1\n      sload\n      swap1\n      0x0100\n      exp\n      swap1\n      div\n      0xffffffffffffffffffffffffffffffffffffffff\n      and\n        /* \"FunctionExample.sol\":505:524  msg.sender == owner */\n      0xffffffffffffffffffffffffffffffffffffffff\n      and\n        /* \"FunctionExample.sol\":505:515  msg.sender */\n      caller\n        /* \"FunctionExample.sol\":505:524  msg.sender == owner */\n      0xffffffffffffffffffffffffffffffffffffffff\n      and\n      eq\n        /* \"FunctionExample.sol\":497:550  require(msg.sender == owner, \"you are not the owner\") */\n      tag_61\n      jumpi\n      mload(0x40)\n      0x08c379a000000000000000000000000000000000000000000000000000000000\n      dup2\n      mstore\n      0x04\n      add\n      tag_62\n      swap1\n      tag_63\n      jump\t// in\n    tag_62:\n      mload(0x40)\n      dup1\n      swap2\n      sub\n      swap1\n      revert\n    tag_61:\n        /* \"FunctionExample.sol\":573:578  owner */\n      0x01\n      0x00\n      swap1\n      sload\n      swap1\n      0x0100\n      exp\n      swap1\n      div\n      0xffffffffffffffffffffffffffffffffffffffff\n      and\n        /* \"FunctionExample.sol\":560:579  selfdestruct(owner) */\n      0xffffffffffffffffffffffffffffffffffffffff\n      and\n      selfdestruct\n        /* \"#utility.yul\":88:205   */\n    tag_65:\n        /* \"#utility.yul\":197:198   */\n      0x00\n        /* \"#utility.yul\":194:195   */\n      dup1\n        /* \"#utility.yul\":187:199   */\n      revert\n        /* \"#utility.yul\":334:460   */\n    tag_67:\n        /* \"#utility.yul\":371:378   */\n      0x00\n        /* \"#utility.yul\":411:453   */\n      0xffffffffffffffffffffffffffffffffffffffff\n        /* \"#utility.yul\":404:409   */\n      dup3\n        /* \"#utility.yul\":400:454   */\n      and\n        /* \"#utility.yul\":389:454   */\n      swap1\n      pop\n        /* \"#utility.yul\":334:460   */\n      swap2\n      swap1\n      pop\n      jump\t// out\n        /* \"#utility.yul\":466:570   */\n    tag_68:\n        /* \"#utility.yul\":511:518   */\n      0x00\n        /* \"#utility.yul\":540:564   */\n      tag_96\n        /* \"#utility.yul\":558:563   */\n      dup3\n        /* \"#utility.yul\":540:564   */\n      tag_67\n      jump\t// in\n    tag_96:\n        /* \"#utility.yul\":529:564   */\n      swap1\n      pop\n        /* \"#utility.yul\":466:570   */\n      swap2\n      swap1\n      pop\n      jump\t// out\n        /* \"#utility.yul\":576:714   */\n    tag_69:\n        /* \"#utility.yul\":657:689   */\n      tag_98\n        /* \"#utility.yul\":683:688   */\n      dup2\n        /* \"#utility.yul\":657:689   */\n      tag_68\n      jump\t// in\n    tag_98:\n        /* \"#utility.yul\":650:655   */\n      dup2\n        /* \"#utility.yul\":647:690   */\n      eq\n        /* \"#utility.yul\":637:708   */\n      tag_99\n      jumpi\n        /* \"#utility.yul\":704:705   */\n      0x00\n        /* \"#utility.yul\":701:702   */\n      dup1\n        /* \"#utility.yul\":694:706   */\n      revert\n        /* \"#utility.yul\":637:708   */\n    tag_99:\n        /* \"#utility.yul\":576:714   */\n      pop\n      jump\t// out\n        /* \"#utility.yul\":720:875   */\n    tag_70:\n        /* \"#utility.yul\":774:779   */\n      0x00\n        /* \"#utility.yul\":812:818   */\n      dup2\n        /* \"#utility.yul\":799:819   */\n      calldataload\n        /* \"#utility.yul\":790:819   */\n      swap1\n      pop\n        /* \"#utility.yul\":828:869   */\n      tag_101\n        /* \"#utility.yul\":863:868   */\n      dup2\n        /* \"#utility.yul\":828:869   */\n      tag_69\n      jump\t// in\n    tag_101:\n        /* \"#utility.yul\":720:875   */\n      swap3\n      swap2\n      pop\n      pop\n      jump\t// out\n        /* \"#utility.yul\":881:982   */\n    tag_71:\n        /* \"#utility.yul\":917:924   */\n      0x00\n        /* \"#utility.yul\":957:975   */\n      0xffffffffffffffff\n        /* \"#utility.yul\":950:955   */\n      dup3\n        /* \"#utility.yul\":946:976   */\n      and\n        /* \"#utility.yul\":935:976   */\n      swap1\n      pop\n        /* \"#utility.yul\":881:982   */\n      swap2\n      swap1\n      pop\n      jump\t// out\n        /* \"#utility.yul\":988:1108   */\n    tag_72:\n        /* \"#utility.yul\":1060:1083   */\n      tag_104\n        /* \"#utility.yul\":1077:1082   */\n      dup2\n        /* \"#utility.yul\":1060:1083   */\n      tag_71\n      jump\t// in\n    tag_104:\n        /* \"#utility.yul\":1053:1058   */\n      dup2\n        /* \"#utility.yul\":1050:1084   */\n      eq\n        /* \"#utility.yul\":1040:1102   */\n      tag_105\n      jumpi\n        /* \"#utility.yul\":1098:1099   */\n      0x00\n        /* \"#utility.yul\":1095:1096   */\n      dup1\n        /* \"#utility.yul\":1088:1100   */\n      revert\n        /* \"#utility.yul\":1040:1102   */\n    tag_105:\n        /* \"#utility.yul\":988:1108   */\n      pop\n      jump\t// out\n        /* \"#utility.yul\":1114:1251   */\n    tag_73:\n        /* \"#utility.yul\":1159:1164   */\n      0x00\n        /* \"#utility.yul\":1197:1203   */\n      dup2\n        /* \"#utility.yul\":1184:1204   */\n      calldataload\n        /* \"#utility.yul\":1175:1204   */\n      swap1\n      pop\n        /* \"#utility.yul\":1213:1245   */\n      tag_107\n        /* \"#utility.yul\":1239:1244   */\n      dup2\n        /* \"#utility.yul\":1213:1245   */\n      tag_72\n      jump\t// in\n    tag_107:\n        /* \"#utility.yul\":1114:1251   */\n      swap3\n      swap2\n      pop\n      pop\n      jump\t// out\n        /* \"#utility.yul\":1257:1745   */\n    tag_11:\n        /* \"#utility.yul\":1332:1338   */\n      0x00\n        /* \"#utility.yul\":1340:1346   */\n      dup1\n        /* \"#utility.yul\":1389:1391   */\n      0x40\n        /* \"#utility.yul\":1377:1386   */\n      dup4\n        /* \"#utility.yul\":1368:1375   */\n      dup6\n        /* \"#utility.yul\":1364:1387   */\n      sub\n        /* \"#utility.yul\":1360:1392   */\n      slt\n        /* \"#utility.yul\":1357:1476   */\n      iszero\n      tag_109\n      jumpi\n        /* \"#utility.yul\":1395:1474   */\n      tag_110\n      tag_65\n      jump\t// in\n    tag_110:\n        /* \"#utility.yul\":1357:1476   */\n    tag_109:\n        /* \"#utility.yul\":1515:1516   */\n      0x00\n        /* \"#utility.yul\":1540:1601   */\n      tag_111\n        /* \"#utility.yul\":1593:1600   */\n      dup6\n        /* \"#utility.yul\":1584:1590   */\n      dup3\n        /* \"#utility.yul\":1573:1582   */\n      dup7\n        /* \"#utility.yul\":1569:1591   */\n      add\n        /* \"#utility.yul\":1540:1601   */\n      tag_70\n      jump\t// in\n    tag_111:\n        /* \"#utility.yul\":1530:1601   */\n      swap3\n      pop\n        /* \"#utility.yul\":1486:1611   */\n      pop\n        /* \"#utility.yul\":1650:1652   */\n      0x20\n        /* \"#utility.yul\":1676:1728   */\n      tag_112\n        /* \"#utility.yul\":1720:1727   */\n      dup6\n        /* \"#utility.yul\":1711:1717   */\n      dup3\n        /* \"#utility.yul\":1700:1709   */\n      dup7\n        /* \"#utility.yul\":1696:1718   */\n      add\n        /* \"#utility.yul\":1676:1728   */\n      tag_73\n      jump\t// in\n    tag_112:\n        /* \"#utility.yul\":1666:1728   */\n      swap2\n      pop\n        /* \"#utility.yul\":1621:1738   */\n      pop\n        /* \"#utility.yul\":1257:1745   */\n      swap3\n      pop\n      swap3\n      swap1\n      pop\n      jump\t// out\n        /* \"#utility.yul\":1751:1828   */\n    tag_74:\n        /* \"#utility.yul\":1788:1795   */\n      0x00\n        /* \"#utility.yul\":1817:1822   */\n      dup2\n        /* \"#utility.yul\":1806:1822   */\n      swap1\n      pop\n        /* \"#utility.yul\":1751:1828   */\n      swap2\n      swap1\n      pop\n      jump\t// out\n        /* \"#utility.yul\":1834:1956   */\n    tag_75:\n        /* \"#utility.yul\":1907:1931   */\n      tag_115\n        /* \"#utility.yul\":1925:1930   */\n      dup2\n        /* \"#utility.yul\":1907:1931   */\n      tag_74\n      jump\t// in\n    tag_115:\n        /* \"#utility.yul\":1900:1905   */\n      dup2\n        /* \"#utility.yul\":1897:1932   */\n      eq\n        /* \"#utility.yul\":1887:1950   */\n      tag_116\n      jumpi\n        /* \"#utility.yul\":1946:1947   */\n      0x00\n        /* \"#utility.yul\":1943:1944   */\n      dup1\n        /* \"#utility.yul\":1936:1948   */\n      revert\n        /* \"#utility.yul\":1887:1950   */\n    tag_116:\n        /* \"#utility.yul\":1834:1956   */\n      pop\n      jump\t// out\n        /* \"#utility.yul\":1962:2101   */\n    tag_76:\n        /* \"#utility.yul\":2008:2013   */\n      0x00\n        /* \"#utility.yul\":2046:2052   */\n      dup2\n        /* \"#utility.yul\":2033:2053   */\n      calldataload\n        /* \"#utility.yul\":2024:2053   */\n      swap1\n      pop\n        /* \"#utility.yul\":2062:2095   */\n      tag_118\n        /* \"#utility.yul\":2089:2094   */\n      dup2\n        /* \"#utility.yul\":2062:2095   */\n      tag_75\n      jump\t// in\n    tag_118:\n        /* \"#utility.yul\":1962:2101   */\n      swap3\n      swap2\n      pop\n      pop\n      jump\t// out\n        /* \"#utility.yul\":2107:2436   */\n    tag_16:\n        /* \"#utility.yul\":2166:2172   */\n      0x00\n        /* \"#utility.yul\":2215:2217   */\n      0x20\n        /* \"#utility.yul\":2203:2212   */\n      dup3\n        /* \"#utility.yul\":2194:2201   */\n      dup5\n        /* \"#utility.yul\":2190:2213   */\n      sub\n        /* \"#utility.yul\":2186:2218   */\n      slt\n        /* \"#utility.yul\":2183:2302   */\n      iszero\n      tag_120\n      jumpi\n        /* \"#utility.yul\":2221:2300   */\n      tag_121\n      tag_65\n      jump\t// in\n    tag_121:\n        /* \"#utility.yul\":2183:2302   */\n    tag_120:\n        /* \"#utility.yul\":2341:2342   */\n      0x00\n        /* \"#utility.yul\":2366:2419   */\n      tag_122\n        /* \"#utility.yul\":2411:2418   */\n      dup5\n        /* \"#utility.yul\":2402:2408   */\n      dup3\n        /* \"#utility.yul\":2391:2400   */\n      dup6\n        /* \"#utility.yul\":2387:2409   */\n      add\n        /* \"#utility.yul\":2366:2419   */\n      tag_76\n      jump\t// in\n    tag_122:\n        /* \"#utility.yul\":2356:2419   */\n      swap2\n      pop\n        /* \"#utility.yul\":2312:2429   */\n      pop\n        /* \"#utility.yul\":2107:2436   */\n      swap3\n      swap2\n      pop\n      pop\n      jump\t// out\n        /* \"#utility.yul\":2442:2560   */\n    tag_77:\n        /* \"#utility.yul\":2529:2553   */\n      tag_124\n        /* \"#utility.yul\":2547:2552   */\n      dup2\n        /* \"#utility.yul\":2529:2553   */\n      tag_74\n      jump\t// in\n    tag_124:\n        /* \"#utility.yul\":2524:2527   */\n      dup3\n        /* \"#utility.yul\":2517:2554   */\n      mstore\n        /* \"#utility.yul\":2442:2560   */\n      pop\n      pop\n      jump\t// out\n        /* \"#utility.yul\":2566:2788   */\n    tag_19:\n        /* \"#utility.yul\":2659:2663   */\n      0x00\n        /* \"#utility.yul\":2697:2699   */\n      0x20\n        /* \"#utility.yul\":2686:2695   */\n      dup3\n        /* \"#utility.yul\":2682:2700   */\n      add\n        /* \"#utility.yul\":2674:2700   */\n      swap1\n      pop\n        /* \"#utility.yul\":2710:2781   */\n      tag_126\n        /* \"#utility.yul\":2778:2779   */\n      0x00\n        /* \"#utility.yul\":2767:2776   */\n      dup4\n        /* \"#utility.yul\":2763:2780   */\n      add\n        /* \"#utility.yul\":2754:2760   */\n      dup5\n        /* \"#utility.yul\":2710:2781   */\n      tag_77\n      jump\t// in\n    tag_126:\n        /* \"#utility.yul\":2566:2788   */\n      swap3\n      swap2\n      pop\n      pop\n      jump\t// out\n        /* \"#utility.yul\":2794:2890   */\n    tag_78:\n        /* \"#utility.yul\":2831:2838   */\n      0x00\n        /* \"#utility.yul\":2860:2884   */\n      tag_128\n        /* \"#utility.yul\":2878:2883   */\n      dup3\n        /* \"#utility.yul\":2860:2884   */\n      tag_67\n      jump\t// in\n    tag_128:\n        /* \"#utility.yul\":2849:2884   */\n      swap1\n      pop\n        /* \"#utility.yul\":2794:2890   */\n      swap2\n      swap1\n      pop\n      jump\t// out\n        /* \"#utility.yul\":2896:3014   */\n    tag_79:\n        /* \"#utility.yul\":2983:3007   */\n      tag_130\n        /* \"#utility.yul\":3001:3006   */\n      dup2\n        /* \"#utility.yul\":2983:3007   */\n      tag_78\n      jump\t// in\n    tag_130:\n        /* \"#utility.yul\":2978:2981   */\n      dup3\n        /* \"#utility.yul\":2971:3008   */\n      mstore\n        /* \"#utility.yul\":2896:3014   */\n      pop\n      pop\n      jump\t// out\n        /* \"#utility.yul\":3020:3242   */\n    tag_26:\n        /* \"#utility.yul\":3113:3117   */\n      0x00\n        /* \"#utility.yul\":3151:3153   */\n      0x20\n        /* \"#utility.yul\":3140:3149   */\n      dup3\n        /* \"#utility.yul\":3136:3154   */\n      add\n        /* \"#utility.yul\":3128:3154   */\n      swap1\n      pop\n        /* \"#utility.yul\":3164:3235   */\n      tag_132\n        /* \"#utility.yul\":3232:3233   */\n      0x00\n        /* \"#utility.yul\":3221:3230   */\n      dup4\n        /* \"#utility.yul\":3217:3234   */\n      add\n        /* \"#utility.yul\":3208:3214   */\n      dup5\n        /* \"#utility.yul\":3164:3235   */\n      tag_79\n      jump\t// in\n    tag_132:\n        /* \"#utility.yul\":3020:3242   */\n      swap3\n      swap2\n      pop\n      pop\n      jump\t// out\n        /* \"#utility.yul\":3248:3370   */\n    tag_80:\n        /* \"#utility.yul\":3321:3345   */\n      tag_134\n        /* \"#utility.yul\":3339:3344   */\n      dup2\n        /* \"#utility.yul\":3321:3345   */\n      tag_78\n      jump\t// in\n    tag_134:\n        /* \"#utility.yul\":3314:3319   */\n      dup2\n        /* \"#utility.yul\":3311:3346   */\n      eq\n        /* \"#utility.yul\":3301:3364   */\n      tag_135\n      jumpi\n        /* \"#utility.yul\":3360:3361   */\n      0x00\n        /* \"#utility.yul\":3357:3358   */\n      dup1\n        /* \"#utility.yul\":3350:3362   */\n      revert\n        /* \"#utility.yul\":3301:3364   */\n    tag_135:\n        /* \"#utility.yul\":3248:3370   */\n      pop\n      jump\t// out\n        /* \"#utility.yul\":3376:3515   */\n    tag_81:\n        /* \"#utility.yul\":3422:3427   */\n      0x00\n        /* \"#utility.yul\":3460:3466   */\n      dup2\n        /* \"#utility.yul\":3447:3467   */\n      calldataload\n        /* \"#utility.yul\":3438:3467   */\n      swap1\n      pop\n        /* \"#utility.yul\":3476:3509   */\n      tag_137\n        /* \"#utility.yul\":3503:3508   */\n      dup2\n        /* \"#utility.yul\":3476:3509   */\n      tag_80\n      jump\t// in\n    tag_137:\n        /* \"#utility.yul\":3376:3515   */\n      swap3\n      swap2\n      pop\n      pop\n      jump\t// out\n        /* \"#utility.yul\":3521:3850   */\n    tag_30:\n        /* \"#utility.yul\":3580:3586   */\n      0x00\n        /* \"#utility.yul\":3629:3631   */\n      0x20\n        /* \"#utility.yul\":3617:3626   */\n      dup3\n        /* \"#utility.yul\":3608:3615   */\n      dup5\n        /* \"#utility.yul\":3604:3627   */\n      sub\n        /* \"#utility.yul\":3600:3632   */\n      slt\n        /* \"#utility.yul\":3597:3716   */\n      iszero\n      tag_139\n      jumpi\n        /* \"#utility.yul\":3635:3714   */\n      tag_140\n      tag_65\n      jump\t// in\n    tag_140:\n        /* \"#utility.yul\":3597:3716   */\n    tag_139:\n        /* \"#utility.yul\":3755:3756   */\n      0x00\n        /* \"#utility.yul\":3780:3833   */\n      tag_141\n        /* \"#utility.yul\":3825:3832   */\n      dup5\n        /* \"#utility.yul\":3816:3822   */\n      dup3\n        /* \"#utility.yul\":3805:3814   */\n      dup6\n        /* \"#utility.yul\":3801:3823   */\n      add\n        /* \"#utility.yul\":3780:3833   */\n      tag_81\n      jump\t// in\n    tag_141:\n        /* \"#utility.yul\":3770:3833   */\n      swap2\n      pop\n        /* \"#utility.yul\":3726:3843   */\n      pop\n        /* \"#utility.yul\":3521:3850   */\n      swap3\n      swap2\n      pop\n      pop\n      jump\t// out\n        /* \"#utility.yul\":3856:3971   */\n    tag_82:\n        /* \"#utility.yul\":3941:3964   */\n      tag_143\n        /* \"#utility.yul\":3958:3963   */\n      dup2\n        /* \"#utility.yul\":3941:3964   */\n      tag_71\n      jump\t// in\n    tag_143:\n        /* \"#utility.yul\":3936:3939   */\n      dup3\n        /* \"#utility.yul\":3929:3965   */\n      mstore\n        /* \"#utility.yul\":3856:3971   */\n      pop\n      pop\n      jump\t// out\n        /* \"#utility.yul\":3977:4195   */\n    tag_33:\n        /* \"#utility.yul\":4068:4072   */\n      0x00\n        /* \"#utility.yul\":4106:4108   */\n      0x20\n        /* \"#utility.yul\":4095:4104   */\n      dup3\n        /* \"#utility.yul\":4091:4109   */\n      add\n        /* \"#utility.yul\":4083:4109   */\n      swap1\n      pop\n        /* \"#utility.yul\":4119:4188   */\n      tag_145\n        /* \"#utility.yul\":4185:4186   */\n      0x00\n        /* \"#utility.yul\":4174:4183   */\n      dup4\n        /* \"#utility.yul\":4170:4187   */\n      add\n        /* \"#utility.yul\":4161:4167   */\n      dup5\n        /* \"#utility.yul\":4119:4188   */\n      tag_82\n      jump\t// in\n    tag_145:\n        /* \"#utility.yul\":3977:4195   */\n      swap3\n      swap2\n      pop\n      pop\n      jump\t// out\n        /* \"#utility.yul\":4201:4370   */\n    tag_83:\n        /* \"#utility.yul\":4285:4296   */\n      0x00\n        /* \"#utility.yul\":4319:4325   */\n      dup3\n        /* \"#utility.yul\":4314:4317   */\n      dup3\n        /* \"#utility.yul\":4307:4326   */\n      mstore\n        /* \"#utility.yul\":4359:4363   */\n      0x20\n        /* \"#utility.yul\":4354:4357   */\n      dup3\n        /* \"#utility.yul\":4350:4364   */\n      add\n        /* \"#utility.yul\":4335:4364   */\n      swap1\n      pop\n        /* \"#utility.yul\":4201:4370   */\n      swap3\n      swap2\n      pop\n      pop\n      jump\t// out\n        /* \"#utility.yul\":4376:4530   */\n    tag_84:\n        /* \"#utility.yul\":4516:4522   */\n      0x4e6f706500000000000000000000000000000000000000000000000000000000\n        /* \"#utility.yul\":4512:4513   */\n      0x00\n        /* \"#utility.yul\":4504:4510   */\n      dup3\n        /* \"#utility.yul\":4500:4514   */\n      add\n        /* \"#utility.yul\":4493:4523   */\n      mstore\n        /* \"#utility.yul\":4376:4530   */\n      pop\n      jump\t// out\n        /* \"#utility.yul\":4536:4901   */\n    tag_85:\n        /* \"#utility.yul\":4678:4681   */\n      0x00\n        /* \"#utility.yul\":4699:4765   */\n      tag_149\n        /* \"#utility.yul\":4763:4764   */\n      0x04\n        /* \"#utility.yul\":4758:4761   */\n      dup4\n        /* \"#utility.yul\":4699:4765   */\n      tag_83\n      jump\t// in\n    tag_149:\n        /* \"#utility.yul\":4692:4765   */\n      swap2\n      pop\n        /* \"#utility.yul\":4774:4867   */\n      tag_150\n        /* \"#utility.yul\":4863:4866   */\n      dup3\n        /* \"#utility.yul\":4774:4867   */\n      tag_84\n      jump\t// in\n    tag_150:\n        /* \"#utility.yul\":4892:4894   */\n      0x20\n        /* \"#utility.yul\":4887:4890   */\n      dup3\n        /* \"#utility.yul\":4883:4895   */\n      add\n        /* \"#utility.yul\":4876:4895   */\n      swap1\n      pop\n        /* \"#utility.yul\":4536:4901   */\n      swap2\n      swap1\n      pop\n      jump\t// out\n        /* \"#utility.yul\":4907:5326   */\n    tag_40:\n        /* \"#utility.yul\":5073:5077   */\n      0x00\n        /* \"#utility.yul\":5111:5113   */\n      0x20\n        /* \"#utility.yul\":5100:5109   */\n      dup3\n        /* \"#utility.yul\":5096:5114   */\n      add\n        /* \"#utility.yul\":5088:5114   */\n      swap1\n      pop\n        /* \"#utility.yul\":5160:5169   */\n      dup2\n        /* \"#utility.yul\":5154:5158   */\n      dup2\n        /* \"#utility.yul\":5150:5170   */\n      sub\n        /* \"#utility.yul\":5146:5147   */\n      0x00\n        /* \"#utility.yul\":5135:5144   */\n      dup4\n        /* \"#utility.yul\":5131:5148   */\n      add\n        /* \"#utility.yul\":5124:5171   */\n      mstore\n        /* \"#utility.yul\":5188:5319   */\n      tag_152\n        /* \"#utility.yul\":5314:5318   */\n      dup2\n        /* \"#utility.yul\":5188:5319   */\n      tag_85\n      jump\t// in\n    tag_152:\n        /* \"#utility.yul\":5180:5319   */\n      swap1\n      pop\n        /* \"#utility.yul\":4907:5326   */\n      swap2\n      swap1\n      pop\n      jump\t// out\n        /* \"#utility.yul\":5332:5512   */\n    tag_86:\n        /* \"#utility.yul\":5380:5457   */\n      0x4e487b7100000000000000000000000000000000000000000000000000000000\n        /* \"#utility.yul\":5377:5378   */\n      0x00\n        /* \"#utility.yul\":5370:5458   */\n      mstore\n        /* \"#utility.yul\":5477:5481   */\n      0x11\n        /* \"#utility.yul\":5474:5475   */\n      0x04\n        /* \"#utility.yul\":5467:5482   */\n      mstore\n        /* \"#utility.yul\":5501:5505   */\n      0x24\n        /* \"#utility.yul\":5498:5499   */\n      0x00\n        /* \"#utility.yul\":5491:5506   */\n      revert\n        /* \"#utility.yul\":5518:5726   */\n    tag_42:\n        /* \"#utility.yul\":5557:5561   */\n      0x00\n        /* \"#utility.yul\":5577:5596   */\n      tag_155\n        /* \"#utility.yul\":5594:5595   */\n      dup3\n        /* \"#utility.yul\":5577:5596   */\n      tag_71\n      jump\t// in\n    tag_155:\n        /* \"#utility.yul\":5572:5596   */\n      swap2\n      pop\n        /* \"#utility.yul\":5610:5629   */\n      tag_156\n        /* \"#utility.yul\":5627:5628   */\n      dup4\n        /* \"#utility.yul\":5610:5629   */\n      tag_71\n      jump\t// in\n    tag_156:\n        /* \"#utility.yul\":5605:5629   */\n      swap3\n      pop\n        /* \"#utility.yul\":5653:5654   */\n      dup3\n        /* \"#utility.yul\":5650:5651   */\n      dup3\n        /* \"#utility.yul\":5646:5655   */\n      sub\n        /* \"#utility.yul\":5638:5655   */\n      swap1\n      pop\n        /* \"#utility.yul\":5677:5695   */\n      0xffffffffffffffff\n        /* \"#utility.yul\":5671:5675   */\n      dup2\n        /* \"#utility.yul\":5668:5696   */\n      gt\n        /* \"#utility.yul\":5665:5719   */\n      iszero\n      tag_157\n      jumpi\n        /* \"#utility.yul\":5699:5717   */\n      tag_158\n      tag_86\n      jump\t// in\n    tag_158:\n        /* \"#utility.yul\":5665:5719   */\n    tag_157:\n        /* \"#utility.yul\":5518:5726   */\n      swap3\n      swap2\n      pop\n      pop\n      jump\t// out\n        /* \"#utility.yul\":5732:5912   */\n    tag_45:\n        /* \"#utility.yul\":5780:5857   */\n      0x4e487b7100000000000000000000000000000000000000000000000000000000\n        /* \"#utility.yul\":5777:5778   */\n      0x00\n        /* \"#utility.yul\":5770:5858   */\n      mstore\n        /* \"#utility.yul\":5877:5881   */\n      0x01\n        /* \"#utility.yul\":5874:5875   */\n      0x04\n        /* \"#utility.yul\":5867:5882   */\n      mstore\n        /* \"#utility.yul\":5901:5905   */\n      0x24\n        /* \"#utility.yul\":5898:5899   */\n      0x00\n        /* \"#utility.yul\":5891:5906   */\n      revert\n        /* \"#utility.yul\":5918:6098   */\n    tag_87:\n        /* \"#utility.yul\":5966:6043   */\n      0x4e487b7100000000000000000000000000000000000000000000000000000000\n        /* \"#utility.yul\":5963:5964   */\n      0x00\n        /* \"#utility.yul\":5956:6044   */\n      mstore\n        /* \"#utility.yul\":6063:6067   */\n      0x12\n        /* \"#utility.yul\":6060:6061   */\n      0x04\n        /* \"#utility.yul\":6053:6068   */\n      mstore\n        /* \"#utility.yul\":6087:6091   */\n      0x24\n        /* \"#utility.yul\":6084:6085   */\n      0x00\n        /* \"#utility.yul\":6077:6092   */\n      revert\n        /* \"#utility.yul\":6104:6289   */\n    tag_51:\n        /* \"#utility.yul\":6144:6145   */\n      0x00\n        /* \"#utility.yul\":6161:6181   */\n      tag_162\n        /* \"#utility.yul\":6179:6180   */\n      dup3\n        /* \"#utility.yul\":6161:6181   */\n      tag_74\n      jump\t// in\n    tag_162:\n        /* \"#utility.yul\":6156:6181   */\n      swap2\n      pop\n        /* \"#utility.yul\":6195:6215   */\n      tag_163\n        /* \"#utility.yul\":6213:6214   */\n      dup4\n        /* \"#utility.yul\":6195:6215   */\n      tag_74\n      jump\t// in\n    tag_163:\n        /* \"#utility.yul\":6190:6215   */\n      swap3\n      pop\n        /* \"#utility.yul\":6234:6235   */\n      dup3\n        /* \"#utility.yul\":6224:6259   */\n      tag_164\n      jumpi\n        /* \"#utility.yul\":6239:6257   */\n      tag_165\n      tag_87\n      jump\t// in\n    tag_165:\n        /* \"#utility.yul\":6224:6259   */\n    tag_164:\n        /* \"#utility.yul\":6281:6282   */\n      dup3\n        /* \"#utility.yul\":6278:6279   */\n      dup3\n        /* \"#utility.yul\":6274:6283   */\n      div\n        /* \"#utility.yul\":6269:6283   */\n      swap1\n      pop\n        /* \"#utility.yul\":6104:6289   */\n      swap3\n      swap2\n      pop\n      pop\n      jump\t// out\n        /* \"#utility.yul\":6295:6500   */\n    tag_56:\n        /* \"#utility.yul\":6334:6337   */\n      0x00\n        /* \"#utility.yul\":6353:6372   */\n      tag_167\n        /* \"#utility.yul\":6370:6371   */\n      dup3\n        /* \"#utility.yul\":6353:6372   */\n      tag_71\n      jump\t// in\n    tag_167:\n        /* \"#utility.yul\":6348:6372   */\n      swap2\n      pop\n        /* \"#utility.yul\":6386:6405   */\n      tag_168\n        /* \"#utility.yul\":6403:6404   */\n      dup4\n        /* \"#utility.yul\":6386:6405   */\n      tag_71\n      jump\t// in\n    tag_168:\n        /* \"#utility.yul\":6381:6405   */\n      swap3\n      pop\n        /* \"#utility.yul\":6428:6429   */\n      dup3\n        /* \"#utility.yul\":6425:6426   */\n      dup3\n        /* \"#utility.yul\":6421:6430   */\n      add\n        /* \"#utility.yul\":6414:6430   */\n      swap1\n      pop\n        /* \"#utility.yul\":6451:6469   */\n      0xffffffffffffffff\n        /* \"#utility.yul\":6446:6449   */\n      dup2\n        /* \"#utility.yul\":6443:6470   */\n      gt\n        /* \"#utility.yul\":6440:6493   */\n      iszero\n      tag_169\n      jumpi\n        /* \"#utility.yul\":6473:6491   */\n      tag_170\n      tag_86\n      jump\t// in\n    tag_170:\n        /* \"#utility.yul\":6440:6493   */\n    tag_169:\n        /* \"#utility.yul\":6295:6500   */\n      swap3\n      swap2\n      pop\n      pop\n      jump\t// out\n        /* \"#utility.yul\":6506:6677   */\n    tag_88:\n        /* \"#utility.yul\":6646:6669   */\n      0x796f7520617265206e6f7420746865206f776e65720000000000000000000000\n        /* \"#utility.yul\":6642:6643   */\n      0x00\n        /* \"#utility.yul\":6634:6640   */\n      dup3\n        /* \"#utility.yul\":6630:6644   */\n      add\n        /* \"#utility.yul\":6623:6670   */\n      mstore\n        /* \"#utility.yul\":6506:6677   */\n      pop\n      jump\t// out\n        /* \"#utility.yul\":6683:7049   */\n    tag_89:\n        /* \"#utility.yul\":6825:6828   */\n      0x00\n        /* \"#utility.yul\":6846:6913   */\n      tag_173\n        /* \"#utility.yul\":6910:6912   */\n      0x15\n        /* \"#utility.yul\":6905:6908   */\n      dup4\n        /* \"#utility.yul\":6846:6913   */\n      tag_83\n      jump\t// in\n    tag_173:\n        /* \"#utility.yul\":6839:6913   */\n      swap2\n      pop\n        /* \"#utility.yul\":6922:7015   */\n      tag_174\n        /* \"#utility.yul\":7011:7014   */\n      dup3\n        /* \"#utility.yul\":6922:7015   */\n      tag_88\n      jump\t// in\n    tag_174:\n        /* \"#utility.yul\":7040:7042   */\n      0x20\n        /* \"#utility.yul\":7035:7038   */\n      dup3\n        /* \"#utility.yul\":7031:7043   */\n      add\n        /* \"#utility.yul\":7024:7043   */\n      swap1\n      pop\n        /* \"#utility.yul\":6683:7049   */\n      swap2\n      swap1\n      pop\n      jump\t// out\n        /* \"#utility.yul\":7055:7474   */\n    tag_63:\n        /* \"#utility.yul\":7221:7225   */\n      0x00\n        /* \"#utility.yul\":7259:7261   */\n      0x20\n        /* \"#utility.yul\":7248:7257   */\n      dup3\n        /* \"#utility.yul\":7244:7262   */\n      add\n        /* \"#utility.yul\":7236:7262   */\n      swap1\n      pop\n        /* \"#utility.yul\":7308:7317   */\n      dup2\n        /* \"#utility.yul\":7302:7306   */\n      dup2\n        /* \"#utility.yul\":7298:7318   */\n      sub\n        /* \"#utility.yul\":7294:7295   */\n      0x00\n        /* \"#utility.yul\":7283:7292   */\n      dup4\n        /* \"#utility.yul\":7279:7296   */\n      add\n        /* \"#utility.yul\":7272:7319   */\n      mstore\n        /* \"#utility.yul\":7336:7467   */\n      tag_176\n        /* \"#utility.yul\":7462:7466   */\n      dup2\n        /* \"#utility.yul\":7336:7467   */\n      tag_89\n      jump\t// in\n    tag_176:\n        /* \"#utility.yul\":7328:7467   */\n      swap1\n      pop\n        /* \"#utility.yul\":7055:7474   */\n      swap2\n      swap1\n      pop\n      jump\t// out\n\n    auxdata: 0xa264697066735822122075a86e114621a2b457db9e0eb4be2c9fcf63f9af0b7017ebf38a2ec3be2788e064736f6c63430008100033\n}\n",
				"bytecode": {
					"linkReferences": {},
					"object": "608060405234801561001057600080fd5b5033600160006101000a81548173ffffffffffffffffffffffffffffffffffffffff021916908373ffffffffffffffffffffffffffffffffffffffff160217905550610a6f806100616000396000f3fe6080604052600436106100555760003560e01c80630ad19aeb1461005a578063395a6063146100835780636d26ec18146100c0578063893d20e8146100ca578063d18a42e1146100f5578063eef5da9c14610132575b600080fd5b34801561006657600080fd5b50610081600480360381019061007c919061068e565b610149565b005b34801561008f57600080fd5b506100aa60048036038101906100a59190610704565b6103a2565b6040516100b79190610740565b60405180910390f35b6100c86103bf565b005b3480156100d657600080fd5b506100df6104cf565b6040516100ec919061077c565b60405180910390f35b34801561010157600080fd5b5061011c600480360381019061011791906107c3565b6104f9565b60405161012991906107ff565b60405180910390f35b34801561013e57600080fd5b50610147610520565b005b6000803373ffffffffffffffffffffffffffffffffffffffff1673ffffffffffffffffffffffffffffffffffffffff16815260200190815260200160002060009054906101000a900467ffffffffffffffff1667ffffffffffffffff168167ffffffffffffffff1611156101f2576040517f08c379a00000000000000000000000000000000000000000000000000000000081526004016101e990610877565b60405180910390fd5b6000803373ffffffffffffffffffffffffffffffffffffffff1673ffffffffffffffffffffffffffffffffffffffff16815260200190815260200160002060009054906101000a900467ffffffffffffffff1667ffffffffffffffff16816000803373ffffffffffffffffffffffffffffffffffffffff1673ffffffffffffffffffffffffffffffffffffffff16815260200190815260200160002060009054906101000a900467ffffffffffffffff166102ad91906108c6565b67ffffffffffffffff1611156102c6576102c5610902565b5b806000803373ffffffffffffffffffffffffffffffffffffffff1673ffffffffffffffffffffffffffffffffffffffff16815260200190815260200160002060008282829054906101000a900467ffffffffffffffff1661032791906108c6565b92506101000a81548167ffffffffffffffff021916908367ffffffffffffffff1602179055508173ffffffffffffffffffffffffffffffffffffffff166108fc8267ffffffffffffffff169081150290604051600060405180830381858888f1935050505015801561039d573d6000803e3d6000fd5b505050565b6000670de0b6b3a7640000826103b89190610960565b9050919050565b3467ffffffffffffffff1634146103d9576103d8610902565b5b346000803373ffffffffffffffffffffffffffffffffffffffff1673ffffffffffffffffffffffffffffffffffffffff16815260200190815260200160002060008282829054906101000a900467ffffffffffffffff1661043a9190610991565b92506101000a81548167ffffffffffffffff021916908367ffffffffffffffff160217905550346000803373ffffffffffffffffffffffffffffffffffffffff1673ffffffffffffffffffffffffffffffffffffffff16815260200190815260200160002060009054906101000a900467ffffffffffffffff1667ffffffffffffffff1610156104cd576104cc610902565b5b565b6000600160009054906101000a900473ffffffffffffffffffffffffffffffffffffffff16905090565b60006020528060005260406000206000915054906101000a900467ffffffffffffffff1681565b600160009054906101000a900473ffffffffffffffffffffffffffffffffffffffff1673ffffffffffffffffffffffffffffffffffffffff163373ffffffffffffffffffffffffffffffffffffffff16146105b0576040517f08c379a00000000000000000000000000000000000000000000000000000000081526004016105a790610a19565b60405180910390fd5b600160009054906101000a900473ffffffffffffffffffffffffffffffffffffffff1673ffffffffffffffffffffffffffffffffffffffff16ff5b600080fd5b600073ffffffffffffffffffffffffffffffffffffffff82169050919050565b600061061b826105f0565b9050919050565b61062b81610610565b811461063657600080fd5b50565b60008135905061064881610622565b92915050565b600067ffffffffffffffff82169050919050565b61066b8161064e565b811461067657600080fd5b50565b60008135905061068881610662565b92915050565b600080604083850312156106a5576106a46105eb565b5b60006106b385828601610639565b92505060206106c485828601610679565b9150509250929050565b6000819050919050565b6106e1816106ce565b81146106ec57600080fd5b50565b6000813590506106fe816106d8565b92915050565b60006020828403121561071a576107196105eb565b5b6000610728848285016106ef565b91505092915050565b61073a816106ce565b82525050565b60006020820190506107556000830184610731565b92915050565b6000610766826105f0565b9050919050565b6107768161075b565b82525050565b6000602082019050610791600083018461076d565b92915050565b6107a08161075b565b81146107ab57600080fd5b50565b6000813590506107bd81610797565b92915050565b6000602082840312156107d9576107d86105eb565b5b60006107e7848285016107ae565b91505092915050565b6107f98161064e565b82525050565b600060208201905061081460008301846107f0565b92915050565b600082825260208201905092915050565b7f4e6f706500000000000000000000000000000000000000000000000000000000600082015250565b600061086160048361081a565b915061086c8261082b565b602082019050919050565b6000602082019050818103600083015261089081610854565b9050919050565b7f4e487b7100000000000000000000000000000000000000000000000000000000600052601160045260246000fd5b60006108d18261064e565b91506108dc8361064e565b9250828203905067ffffffffffffffff8111156108fc576108fb610897565b5b92915050565b7f4e487b7100000000000000000000000000000000000000000000000000000000600052600160045260246000fd5b7f4e487b7100000000000000000000000000000000000000000000000000000000600052601260045260246000fd5b600061096b826106ce565b9150610976836106ce565b92508261098657610985610931565b5b828204905092915050565b600061099c8261064e565b91506109a78361064e565b9250828201905067ffffffffffffffff8111156109c7576109c6610897565b5b92915050565b7f796f7520617265206e6f7420746865206f776e65720000000000000000000000600082015250565b6000610a0360158361081a565b9150610a0e826109cd565b602082019050919050565b60006020820190508181036000830152610a32816109f6565b905091905056fea264697066735822122075a86e114621a2b457db9e0eb4be2c9fcf63f9af0b7017ebf38a2ec3be2788e064736f6c63430008100033",
					"opcodes": "PUSH1 0x80 PUSH1 0x40 MSTORE CALLVALUE DUP1 ISZERO PUSH2 0x10 JUMPI PUSH1 0x0 DUP1 REVERT JUMPDEST POP CALLER PUSH1 0x1 PUSH1 0x0 PUSH2 0x100 EXP DUP2 SLOAD DUP2 PUSH20 0xFFFFFFFFFFFFFFFFFFFFFFFFFFFFFFFFFFFFFFFF MUL NOT AND SWAP1 DUP4 PUSH20 0xFFFFFFFFFFFFFFFFFFFFFFFFFFFFFFFFFFFFFFFF AND MUL OR SWAP1 SSTORE POP PUSH2 0xA6F DUP1 PUSH2 0x61 PUSH1 0x0 CODECOPY PUSH1 0x0 RETURN INVALID PUSH1 0x80 PUSH1 0x40 MSTORE PUSH1 0x4 CALLDATASIZE LT PUSH2 0x55 JUMPI PUSH1 0x0 CALLDATALOAD PUSH1 0xE0 SHR DUP1 PUSH4 0xAD19AEB EQ PUSH2 0x5A JUMPI DUP1 PUSH4 0x395A6063 EQ PUSH2 0x83 JUMPI DUP1 PUSH4 0x6D26EC18 EQ PUSH2 0xC0 JUMPI DUP1 PUSH4 0x893D20E8 EQ PUSH2 0xCA JUMPI DUP1 PUSH4 0xD18A42E1 EQ PUSH2 0xF5 JUMPI DUP1 PUSH4 0xEEF5DA9C EQ PUSH2 0x132 JUMPI JUMPDEST PUSH1 0x0 DUP1 REVERT JUMPDEST CALLVALUE DUP1 ISZERO PUSH2 0x66 JUMPI PUSH1 0x0 DUP1 REVERT JUMPDEST POP PUSH2 0x81 PUSH1 0x4 DUP1 CALLDATASIZE SUB DUP2 ADD SWAP1 PUSH2 0x7C SWAP2 SWAP1 PUSH2 0x68E JUMP JUMPDEST PUSH2 0x149 JUMP JUMPDEST STOP JUMPDEST CALLVALUE DUP1 ISZERO PUSH2 0x8F JUMPI PUSH1 0x0 DUP1 REVERT JUMPDEST POP PUSH2 0xAA PUSH1 0x4 DUP1 CALLDATASIZE SUB DUP2 ADD SWAP1 PUSH2 0xA5 SWAP2 SWAP1 PUSH2 0x704 JUMP JUMPDEST PUSH2 0x3A2 JUMP JUMPDEST PUSH1 0x40 MLOAD PUSH2 0xB7 SWAP2 SWAP1 PUSH2 0x740 JUMP JUMPDEST PUSH1 0x40 MLOAD DUP1 SWAP2 SUB SWAP1 RETURN JUMPDEST PUSH2 0xC8 PUSH2 0x3BF JUMP JUMPDEST STOP JUMPDEST CALLVALUE DUP1 ISZERO PUSH2 0xD6 JUMPI PUSH1 0x0 DUP1 REVERT JUMPDEST POP PUSH2 0xDF PUSH2 0x4CF JUMP JUMPDEST PUSH1 0x40 MLOAD PUSH2 0xEC SWAP2 SWAP1 PUSH2 0x77C JUMP JUMPDEST PUSH1 0x40 MLOAD DUP1 SWAP2 SUB SWAP1 RETURN JUMPDEST CALLVALUE DUP1 ISZERO PUSH2 0x101 JUMPI PUSH1 0x0 DUP1 REVERT JUMPDEST POP PUSH2 0x11C PUSH1 0x4 DUP1 CALLDATASIZE SUB DUP2 ADD SWAP1 PUSH2 0x117 SWAP2 SWAP1 PUSH2 0x7C3 JUMP JUMPDEST PUSH2 0x4F9 JUMP JUMPDEST PUSH1 0x40 MLOAD PUSH2 0x129 SWAP2 SWAP1 PUSH2 0x7FF JUMP JUMPDEST PUSH1 0x40 MLOAD DUP1 SWAP2 SUB SWAP1 RETURN JUMPDEST CALLVALUE DUP1 ISZERO PUSH2 0x13E JUMPI PUSH1 0x0 DUP1 REVERT JUMPDEST POP PUSH2 0x147 PUSH2 0x520 JUMP JUMPDEST STOP JUMPDEST PUSH1 0x0 DUP1 CALLER PUSH20 0xFFFFFFFFFFFFFFFFFFFFFFFFFFFFFFFFFFFFFFFF AND PUSH20 0xFFFFFFFFFFFFFFFFFFFFFFFFFFFFFFFFFFFFFFFF AND DUP2 MSTORE PUSH1 0x20 ADD SWAP1 DUP2 MSTORE PUSH1 0x20 ADD PUSH1 0x0 KECCAK256 PUSH1 0x0 SWAP1 SLOAD SWAP1 PUSH2 0x100 EXP SWAP1 DIV PUSH8 0xFFFFFFFFFFFFFFFF AND PUSH8 0xFFFFFFFFFFFFFFFF AND DUP2 PUSH8 0xFFFFFFFFFFFFFFFF AND GT ISZERO PUSH2 0x1F2 JUMPI PUSH1 0x40 MLOAD PUSH32 0x8C379A000000000000000000000000000000000000000000000000000000000 DUP2 MSTORE PUSH1 0x4 ADD PUSH2 0x1E9 SWAP1 PUSH2 0x877 JUMP JUMPDEST PUSH1 0x40 MLOAD DUP1 SWAP2 SUB SWAP1 REVERT JUMPDEST PUSH1 0x0 DUP1 CALLER PUSH20 0xFFFFFFFFFFFFFFFFFFFFFFFFFFFFFFFFFFFFFFFF AND PUSH20 0xFFFFFFFFFFFFFFFFFFFFFFFFFFFFFFFFFFFFFFFF AND DUP2 MSTORE PUSH1 0x20 ADD SWAP1 DUP2 MSTORE PUSH1 0x20 ADD PUSH1 0x0 KECCAK256 PUSH1 0x0 SWAP1 SLOAD SWAP1 PUSH2 0x100 EXP SWAP1 DIV PUSH8 0xFFFFFFFFFFFFFFFF AND PUSH8 0xFFFFFFFFFFFFFFFF AND DUP2 PUSH1 0x0 DUP1 CALLER PUSH20 0xFFFFFFFFFFFFFFFFFFFFFFFFFFFFFFFFFFFFFFFF AND PUSH20 0xFFFFFFFFFFFFFFFFFFFFFFFFFFFFFFFFFFFFFFFF AND DUP2 MSTORE PUSH1 0x20 ADD SWAP1 DUP2 MSTORE PUSH1 0x20 ADD PUSH1 0x0 KECCAK256 PUSH1 0x0 SWAP1 SLOAD SWAP1 PUSH2 0x100 EXP SWAP1 DIV PUSH8 0xFFFFFFFFFFFFFFFF AND PUSH2 0x2AD SWAP2 SWAP1 PUSH2 0x8C6 JUMP JUMPDEST PUSH8 0xFFFFFFFFFFFFFFFF AND GT ISZERO PUSH2 0x2C6 JUMPI PUSH2 0x2C5 PUSH2 0x902 JUMP JUMPDEST JUMPDEST DUP1 PUSH1 0x0 DUP1 CALLER PUSH20 0xFFFFFFFFFFFFFFFFFFFFFFFFFFFFFFFFFFFFFFFF AND PUSH20 0xFFFFFFFFFFFFFFFFFFFFFFFFFFFFFFFFFFFFFFFF AND DUP2 MSTORE PUSH1 0x20 ADD SWAP1 DUP2 MSTORE PUSH1 0x20 ADD PUSH1 0x0 KECCAK256 PUSH1 0x0 DUP3 DUP3 DUP3 SWAP1 SLOAD SWAP1 PUSH2 0x100 EXP SWAP1 DIV PUSH8 0xFFFFFFFFFFFFFFFF AND PUSH2 0x327 SWAP2 SWAP1 PUSH2 0x8C6 JUMP JUMPDEST SWAP3 POP PUSH2 0x100 EXP DUP2 SLOAD DUP2 PUSH8 0xFFFFFFFFFFFFFFFF MUL NOT AND SWAP1 DUP4 PUSH8 0xFFFFFFFFFFFFFFFF AND MUL OR SWAP1 SSTORE POP DUP2 PUSH20 0xFFFFFFFFFFFFFFFFFFFFFFFFFFFFFFFFFFFFFFFF AND PUSH2 0x8FC DUP3 PUSH8 0xFFFFFFFFFFFFFFFF AND SWAP1 DUP2 ISZERO MUL SWAP1 PUSH1 0x40 MLOAD PUSH1 0x0 PUSH1 0x40 MLOAD DUP1 DUP4 SUB DUP2 DUP6 DUP9 DUP9 CALL SWAP4 POP POP POP POP ISZERO DUP1 ISZERO PUSH2 0x39D JUMPI RETURNDATASIZE PUSH1 0x0 DUP1 RETURNDATACOPY RETURNDATASIZE PUSH1 0x0 REVERT JUMPDEST POP POP POP JUMP JUMPDEST PUSH1 0x0 PUSH8 0xDE0B6B3A7640000 DUP3 PUSH2 0x3B8 SWAP2 SWAP1 PUSH2 0x960 JUMP JUMPDEST SWAP1 POP SWAP2 SWAP1 POP JUMP JUMPDEST CALLVALUE PUSH8 0xFFFFFFFFFFFFFFFF AND CALLVALUE EQ PUSH2 0x3D9 JUMPI PUSH2 0x3D8 PUSH2 0x902 JUMP JUMPDEST JUMPDEST CALLVALUE PUSH1 0x0 DUP1 CALLER PUSH20 0xFFFFFFFFFFFFFFFFFFFFFFFFFFFFFFFFFFFFFFFF AND PUSH20 0xFFFFFFFFFFFFFFFFFFFFFFFFFFFFFFFFFFFFFFFF AND DUP2 MSTORE PUSH1 0x20 ADD SWAP1 DUP2 MSTORE PUSH1 0x20 ADD PUSH1 0x0 KECCAK256 PUSH1 0x0 DUP3 DUP3 DUP3 SWAP1 SLOAD SWAP1 PUSH2 0x100 EXP SWAP1 DIV PUSH8 0xFFFFFFFFFFFFFFFF AND PUSH2 0x43A SWAP2 SWAP1 PUSH2 0x991 JUMP JUMPDEST SWAP3 POP PUSH2 0x100 EXP DUP2 SLOAD DUP2 PUSH8 0xFFFFFFFFFFFFFFFF MUL NOT AND SWAP1 DUP4 PUSH8 0xFFFFFFFFFFFFFFFF AND MUL OR SWAP1 SSTORE POP CALLVALUE PUSH1 0x0 DUP1 CALLER PUSH20 0xFFFFFFFFFFFFFFFFFFFFFFFFFFFFFFFFFFFFFFFF AND PUSH20 0xFFFFFFFFFFFFFFFFFFFFFFFFFFFFFFFFFFFFFFFF AND DUP2 MSTORE PUSH1 0x20 ADD SWAP1 DUP2 MSTORE PUSH1 0x20 ADD PUSH1 0x0 KECCAK256 PUSH1 0x0 SWAP1 SLOAD SWAP1 PUSH2 0x100 EXP SWAP1 DIV PUSH8 0xFFFFFFFFFFFFFFFF AND PUSH8 0xFFFFFFFFFFFFFFFF AND LT ISZERO PUSH2 0x4CD JUMPI PUSH2 0x4CC PUSH2 0x902 JUMP JUMPDEST JUMPDEST JUMP JUMPDEST PUSH1 0x0 PUSH1 0x1 PUSH1 0x0 SWAP1 SLOAD SWAP1 PUSH2 0x100 EXP SWAP1 DIV PUSH20 0xFFFFFFFFFFFFFFFFFFFFFFFFFFFFFFFFFFFFFFFF AND SWAP1 POP SWAP1 JUMP JUMPDEST PUSH1 0x0 PUSH1 0x20 MSTORE DUP1 PUSH1 0x0 MSTORE PUSH1 0x40 PUSH1 0x0 KECCAK256 PUSH1 0x0 SWAP2 POP SLOAD SWAP1 PUSH2 0x100 EXP SWAP1 DIV PUSH8 0xFFFFFFFFFFFFFFFF AND DUP2 JUMP JUMPDEST PUSH1 0x1 PUSH1 0x0 SWAP1 SLOAD SWAP1 PUSH2 0x100 EXP SWAP1 DIV PUSH20 0xFFFFFFFFFFFFFFFFFFFFFFFFFFFFFFFFFFFFFFFF AND PUSH20 0xFFFFFFFFFFFFFFFFFFFFFFFFFFFFFFFFFFFFFFFF AND CALLER PUSH20 0xFFFFFFFFFFFFFFFFFFFFFFFFFFFFFFFFFFFFFFFF AND EQ PUSH2 0x5B0 JUMPI PUSH1 0x40 MLOAD PUSH32 0x8C379A000000000000000000000000000000000000000000000000000000000 DUP2 MSTORE PUSH1 0x4 ADD PUSH2 0x5A7 SWAP1 PUSH2 0xA19 JUMP JUMPDEST PUSH1 0x40 MLOAD DUP1 SWAP2 SUB SWAP1 REVERT JUMPDEST PUSH1 0x1 PUSH1 0x0 SWAP1 SLOAD SWAP1 PUSH2 0x100 EXP SWAP1 DIV PUSH20 0xFFFFFFFFFFFFFFFFFFFFFFFFFFFFFFFFFFFFFFFF AND PUSH20 0xFFFFFFFFFFFFFFFFFFFFFFFFFFFFFFFFFFFFFFFF AND SELFDESTRUCT JUMPDEST PUSH1 0x0 DUP1 REVERT JUMPDEST PUSH1 0x0 PUSH20 0xFFFFFFFFFFFFFFFFFFFFFFFFFFFFFFFFFFFFFFFF DUP3 AND SWAP1 POP SWAP2 SWAP1 POP JUMP JUMPDEST PUSH1 0x0 PUSH2 0x61B DUP3 PUSH2 0x5F0 JUMP JUMPDEST SWAP1 POP SWAP2 SWAP1 POP JUMP JUMPDEST PUSH2 0x62B DUP2 PUSH2 0x610 JUMP JUMPDEST DUP2 EQ PUSH2 0x636 JUMPI PUSH1 0x0 DUP1 REVERT JUMPDEST POP JUMP JUMPDEST PUSH1 0x0 DUP2 CALLDATALOAD SWAP1 POP PUSH2 0x648 DUP2 PUSH2 0x622 JUMP JUMPDEST SWAP3 SWAP2 POP POP JUMP JUMPDEST PUSH1 0x0 PUSH8 0xFFFFFFFFFFFFFFFF DUP3 AND SWAP1 POP SWAP2 SWAP1 POP JUMP JUMPDEST PUSH2 0x66B DUP2 PUSH2 0x64E JUMP JUMPDEST DUP2 EQ PUSH2 0x676 JUMPI PUSH1 0x0 DUP1 REVERT JUMPDEST POP JUMP JUMPDEST PUSH1 0x0 DUP2 CALLDATALOAD SWAP1 POP PUSH2 0x688 DUP2 PUSH2 0x662 JUMP JUMPDEST SWAP3 SWAP2 POP POP JUMP JUMPDEST PUSH1 0x0 DUP1 PUSH1 0x40 DUP4 DUP6 SUB SLT ISZERO PUSH2 0x6A5 JUMPI PUSH2 0x6A4 PUSH2 0x5EB JUMP JUMPDEST JUMPDEST PUSH1 0x0 PUSH2 0x6B3 DUP6 DUP3 DUP7 ADD PUSH2 0x639 JUMP JUMPDEST SWAP3 POP POP PUSH1 0x20 PUSH2 0x6C4 DUP6 DUP3 DUP7 ADD PUSH2 0x679 JUMP JUMPDEST SWAP2 POP POP SWAP3 POP SWAP3 SWAP1 POP JUMP JUMPDEST PUSH1 0x0 DUP2 SWAP1 POP SWAP2 SWAP1 POP JUMP JUMPDEST PUSH2 0x6E1 DUP2 PUSH2 0x6CE JUMP JUMPDEST DUP2 EQ PUSH2 0x6EC JUMPI PUSH1 0x0 DUP1 REVERT JUMPDEST POP JUMP JUMPDEST PUSH1 0x0 DUP2 CALLDATALOAD SWAP1 POP PUSH2 0x6FE DUP2 PUSH2 0x6D8 JUMP JUMPDEST SWAP3 SWAP2 POP POP JUMP JUMPDEST PUSH1 0x0 PUSH1 0x20 DUP3 DUP5 SUB SLT ISZERO PUSH2 0x71A JUMPI PUSH2 0x719 PUSH2 0x5EB JUMP JUMPDEST JUMPDEST PUSH1 0x0 PUSH2 0x728 DUP5 DUP3 DUP6 ADD PUSH2 0x6EF JUMP JUMPDEST SWAP2 POP POP SWAP3 SWAP2 POP POP JUMP JUMPDEST PUSH2 0x73A DUP2 PUSH2 0x6CE JUMP JUMPDEST DUP3 MSTORE POP POP JUMP JUMPDEST PUSH1 0x0 PUSH1 0x20 DUP3 ADD SWAP1 POP PUSH2 0x755 PUSH1 0x0 DUP4 ADD DUP5 PUSH2 0x731 JUMP JUMPDEST SWAP3 SWAP2 POP POP JUMP JUMPDEST PUSH1 0x0 PUSH2 0x766 DUP3 PUSH2 0x5F0 JUMP JUMPDEST SWAP1 POP SWAP2 SWAP1 POP JUMP JUMPDEST PUSH2 0x776 DUP2 PUSH2 0x75B JUMP JUMPDEST DUP3 MSTORE POP POP JUMP JUMPDEST PUSH1 0x0 PUSH1 0x20 DUP3 ADD SWAP1 POP PUSH2 0x791 PUSH1 0x0 DUP4 ADD DUP5 PUSH2 0x76D JUMP JUMPDEST SWAP3 SWAP2 POP POP JUMP JUMPDEST PUSH2 0x7A0 DUP2 PUSH2 0x75B JUMP JUMPDEST DUP2 EQ PUSH2 0x7AB JUMPI PUSH1 0x0 DUP1 REVERT JUMPDEST POP JUMP JUMPDEST PUSH1 0x0 DUP2 CALLDATALOAD SWAP1 POP PUSH2 0x7BD DUP2 PUSH2 0x797 JUMP JUMPDEST SWAP3 SWAP2 POP POP JUMP JUMPDEST PUSH1 0x0 PUSH1 0x20 DUP3 DUP5 SUB SLT ISZERO PUSH2 0x7D9 JUMPI PUSH2 0x7D8 PUSH2 0x5EB JUMP JUMPDEST JUMPDEST PUSH1 0x0 PUSH2 0x7E7 DUP5 DUP3 DUP6 ADD PUSH2 0x7AE JUMP JUMPDEST SWAP2 POP POP SWAP3 SWAP2 POP POP JUMP JUMPDEST PUSH2 0x7F9 DUP2 PUSH2 0x64E JUMP JUMPDEST DUP3 MSTORE POP POP JUMP JUMPDEST PUSH1 0x0 PUSH1 0x20 DUP3 ADD SWAP1 POP PUSH2 0x814 PUSH1 0x0 DUP4 ADD DUP5 PUSH2 0x7F0 JUMP JUMPDEST SWAP3 SWAP2 POP POP JUMP JUMPDEST PUSH1 0x0 DUP3 DUP3 MSTORE PUSH1 0x20 DUP3 ADD SWAP1 POP SWAP3 SWAP2 POP POP JUMP JUMPDEST PUSH32 0x4E6F706500000000000000000000000000000000000000000000000000000000 PUSH1 0x0 DUP3 ADD MSTORE POP JUMP JUMPDEST PUSH1 0x0 PUSH2 0x861 PUSH1 0x4 DUP4 PUSH2 0x81A JUMP JUMPDEST SWAP2 POP PUSH2 0x86C DUP3 PUSH2 0x82B JUMP JUMPDEST PUSH1 0x20 DUP3 ADD SWAP1 POP SWAP2 SWAP1 POP JUMP JUMPDEST PUSH1 0x0 PUSH1 0x20 DUP3 ADD SWAP1 POP DUP2 DUP2 SUB PUSH1 0x0 DUP4 ADD MSTORE PUSH2 0x890 DUP2 PUSH2 0x854 JUMP JUMPDEST SWAP1 POP SWAP2 SWAP1 POP JUMP JUMPDEST PUSH32 0x4E487B7100000000000000000000000000000000000000000000000000000000 PUSH1 0x0 MSTORE PUSH1 0x11 PUSH1 0x4 MSTORE PUSH1 0x24 PUSH1 0x0 REVERT JUMPDEST PUSH1 0x0 PUSH2 0x8D1 DUP3 PUSH2 0x64E JUMP JUMPDEST SWAP2 POP PUSH2 0x8DC DUP4 PUSH2 0x64E JUMP JUMPDEST SWAP3 POP DUP3 DUP3 SUB SWAP1 POP PUSH8 0xFFFFFFFFFFFFFFFF DUP2 GT ISZERO PUSH2 0x8FC JUMPI PUSH2 0x8FB PUSH2 0x897 JUMP JUMPDEST JUMPDEST SWAP3 SWAP2 POP POP JUMP JUMPDEST PUSH32 0x4E487B7100000000000000000000000000000000000000000000000000000000 PUSH1 0x0 MSTORE PUSH1 0x1 PUSH1 0x4 MSTORE PUSH1 0x24 PUSH1 0x0 REVERT JUMPDEST PUSH32 0x4E487B7100000000000000000000000000000000000000000000000000000000 PUSH1 0x0 MSTORE PUSH1 0x12 PUSH1 0x4 MSTORE PUSH1 0x24 PUSH1 0x0 REVERT JUMPDEST PUSH1 0x0 PUSH2 0x96B DUP3 PUSH2 0x6CE JUMP JUMPDEST SWAP2 POP PUSH2 0x976 DUP4 PUSH2 0x6CE JUMP JUMPDEST SWAP3 POP DUP3 PUSH2 0x986 JUMPI PUSH2 0x985 PUSH2 0x931 JUMP JUMPDEST JUMPDEST DUP3 DUP3 DIV SWAP1 POP SWAP3 SWAP2 POP POP JUMP JUMPDEST PUSH1 0x0 PUSH2 0x99C DUP3 PUSH2 0x64E JUMP JUMPDEST SWAP2 POP PUSH2 0x9A7 DUP4 PUSH2 0x64E JUMP JUMPDEST SWAP3 POP DUP3 DUP3 ADD SWAP1 POP PUSH8 0xFFFFFFFFFFFFFFFF DUP2 GT ISZERO PUSH2 0x9C7 JUMPI PUSH2 0x9C6 PUSH2 0x897 JUMP JUMPDEST JUMPDEST SWAP3 SWAP2 POP POP JUMP JUMPDEST PUSH32 0x796F7520617265206E6F7420746865206F776E65720000000000000000000000 PUSH1 0x0 DUP3 ADD MSTORE POP JUMP JUMPDEST PUSH1 0x0 PUSH2 0xA03 PUSH1 0x15 DUP4 PUSH2 0x81A JUMP JUMPDEST SWAP2 POP PUSH2 0xA0E DUP3 PUSH2 0x9CD JUMP JUMPDEST PUSH1 0x20 DUP3 ADD SWAP1 POP SWAP2 SWAP1 POP JUMP JUMPDEST PUSH1 0x0 PUSH1 0x20 DUP3 ADD SWAP1 POP DUP2 DUP2 SUB PUSH1 0x0 DUP4 ADD MSTORE PUSH2 0xA32 DUP2 PUSH2 0x9F6 JUMP JUMPDEST SWAP1 POP SWAP2 SWAP1 POP JUMP INVALID LOG2 PUSH5 0x6970667358 0x22 SLT KECCAK256 PUSH22 0xA86E114621A2B457DB9E0EB4BE2C9FCF63F9AF0B7017 0xEB RETURN DUP11 0x2E 0xC3 0xBE 0x27 DUP9 0xE0 PUSH5 0x736F6C6343 STOP ADDMOD LT STOP CALLER "
				},
				"gasEstimates": {
					"creation": {
						"codeDepositCost": "534200",
						"executionCost": "24834",
						"totalCost": "559034"
					},
					"external": {
						"balanceReceived(address)": "2911",
						"convertWeiToEther(uint256)": "infinite",
						"destroySmartContr4act()": "32138",
						"getOwner()": "2566",
						"receiveMoney()": "infinite",
						"withdrawMoney(address,uint64)": "infinite"
					}
				},
				"methodIdentifiers": {
					"balanceReceived(address)": "d18a42e1",
					"convertWeiToEther(uint256)": "395a6063",
					"destroySmartContr4act()": "eef5da9c",
					"getOwner()": "893d20e8",
					"receiveMoney()": "6d26ec18",
					"withdrawMoney(address,uint64)": "0ad19aeb"
				}
			},
			"storageLayout": {
				"storage": [
					{
						"astId": 5,
						"contract": "FunctionExample.sol:FunctionsExample",
						"label": "balanceReceived",
						"offset": 0,
						"slot": "0",
						"type": "t_mapping(t_address,t_uint64)"
					},
					{
						"astId": 7,
						"contract": "FunctionExample.sol:FunctionsExample",
						"label": "owner",
						"offset": 0,
						"slot": "1",
						"type": "t_address_payable"
					}
				],
				"types": {
					"t_address": {
						"encoding": "inplace",
						"label": "address",
						"numberOfBytes": "20"
					},
					"t_address_payable": {
						"encoding": "inplace",
						"label": "address payable",
						"numberOfBytes": "20"
					},
					"t_mapping(t_address,t_uint64)": {
						"encoding": "mapping",
						"key": "t_address",
						"label": "mapping(address => uint64)",
						"numberOfBytes": "32",
						"value": "t_uint64"
					},
					"t_uint64": {
						"encoding": "inplace",
						"label": "uint64",
						"numberOfBytes": "8"
					}
				}
			},
			"userdoc": {
				"kind": "user",
				"methods": {},
				"version": 1
			}
		}
	}
}