{
	"FunctionExample.sol": {
		"FunctionsExample": {
			"abi": [
				{
					"inputs": [],
					"stateMutability": "nonpayable",
					"type": "constructor"
				},
				{
					"inputs": [
						{
							"internalType": "address",
							"name": "",
							"type": "address"
						}
					],
					"name": "balanceReceived",
					"outputs": [
						{
							"internalType": "uint256",
							"name": "",
							"type": "uint256"
						}
					],
					"stateMutability": "view",
					"type": "function"
				},
				{
					"inputs": [],
					"name": "destroySmartContract",
					"outputs": [],
					"stateMutability": "nonpayable",
					"type": "function"
				},
				{
					"inputs": [],
					"name": "receiveMoney",
					"outputs": [],
					"stateMutability": "payable",
					"type": "function"
				},
				{
					"inputs": [
						{
							"internalType": "address payable",
							"name": "_to",
							"type": "address"
						},
						{
							"internalType": "uint256",
							"name": "_amount",
							"type": "uint256"
						}
					],
					"name": "withdrawMoney",
					"outputs": [],
					"stateMutability": "nonpayable",
					"type": "function"
				},
				{
					"stateMutability": "payable",
					"type": "receive"
				}
			],
			"devdoc": {
				"kind": "dev",
				"methods": {},
				"version": 1
			},
			"evm": {
				"assembly": "    /* \"FunctionExample.sol\":58:952  contract FunctionsExample {... */\n  mstore(0x40, 0x80)\n    /* \"FunctionExample.sol\":172:230  constructor() {... */\n  callvalue\n  dup1\n  iszero\n  tag_1\n  jumpi\n  0x00\n  dup1\n  revert\ntag_1:\n  pop\n    /* \"FunctionExample.sol\":212:222  msg.sender */\n  caller\n    /* \"FunctionExample.sol\":196:201  owner */\n  0x01\n  0x00\n    /* \"FunctionExample.sol\":196:223  owner = payable(msg.sender) */\n  0x0100\n  exp\n  dup2\n  sload\n  dup2\n  0xffffffffffffffffffffffffffffffffffffffff\n  mul\n  not\n  and\n  swap1\n  dup4\n  0xffffffffffffffffffffffffffffffffffffffff\n  and\n  mul\n  or\n  swap1\n  sstore\n  pop\n    /* \"FunctionExample.sol\":58:952  contract FunctionsExample {... */\n  dataSize(sub_0)\n  dup1\n  dataOffset(sub_0)\n  0x00\n  codecopy\n  0x00\n  return\nstop\n\nsub_0: assembly {\n        /* \"FunctionExample.sol\":58:952  contract FunctionsExample {... */\n      mstore(0x40, 0x80)\n      jumpi(tag_1, lt(calldatasize, 0x04))\n      shr(0xe0, calldataload(0x00))\n      dup1\n      0x6d26ec18\n      eq\n      tag_3\n      jumpi\n      dup1\n      0x85474728\n      eq\n      tag_4\n      jumpi\n      dup1\n      0xd18a42e1\n      eq\n      tag_5\n      jumpi\n      dup1\n      0xf274c897\n      eq\n      tag_6\n      jumpi\n      jump(tag_2)\n    tag_1:\n      jumpi(tag_2, calldatasize)\n        /* \"FunctionExample.sol\":929:943  receiveMoney() */\n      tag_9\n        /* \"FunctionExample.sol\":929:941  receiveMoney */\n      tag_10\n        /* \"FunctionExample.sol\":929:943  receiveMoney() */\n      jump\t// in\n    tag_9:\n        /* \"FunctionExample.sol\":58:952  contract FunctionsExample {... */\n      stop\n    tag_2:\n      0x00\n      dup1\n      revert\n        /* \"FunctionExample.sol\":380:564  function receiveMoney() public payable {... */\n    tag_3:\n      tag_11\n      tag_10\n      jump\t// in\n    tag_11:\n      stop\n        /* \"FunctionExample.sol\":236:374  function destroySmartContract() public {... */\n    tag_4:\n      callvalue\n      dup1\n      iszero\n      tag_12\n      jumpi\n      0x00\n      dup1\n      revert\n    tag_12:\n      pop\n      tag_13\n      tag_14\n      jump\t// in\n    tag_13:\n      stop\n        /* \"FunctionExample.sol\":91:138  mapping(address => uint) public balanceReceived */\n    tag_5:\n      callvalue\n      dup1\n      iszero\n      tag_15\n      jumpi\n      0x00\n      dup1\n      revert\n    tag_15:\n      pop\n      tag_16\n      0x04\n      dup1\n      calldatasize\n      sub\n      dup2\n      add\n      swap1\n      tag_17\n      swap2\n      swap1\n      tag_18\n      jump\t// in\n    tag_17:\n      tag_19\n      jump\t// in\n    tag_16:\n      mload(0x40)\n      tag_20\n      swap2\n      swap1\n      tag_21\n      jump\t// in\n    tag_20:\n      mload(0x40)\n      dup1\n      swap2\n      sub\n      swap1\n      return\n        /* \"FunctionExample.sol\":570:885  function withdrawMoney(address payable _to, uint _amount) public {... */\n    tag_6:\n      callvalue\n      dup1\n      iszero\n      tag_22\n      jumpi\n      0x00\n      dup1\n      revert\n    tag_22:\n      pop\n      tag_23\n      0x04\n      dup1\n      calldatasize\n      sub\n      dup2\n      add\n      swap1\n      tag_24\n      swap2\n      swap1\n      tag_25\n      jump\t// in\n    tag_24:\n      tag_26\n      jump\t// in\n    tag_23:\n      stop\n        /* \"FunctionExample.sol\":380:564  function receiveMoney() public payable {... */\n    tag_10:\n        /* \"FunctionExample.sol\":479:494  balanceReceived */\n      0x00\n        /* \"FunctionExample.sol\":479:506  balanceReceived[msg.sender] */\n      dup1\n        /* \"FunctionExample.sol\":495:505  msg.sender */\n      caller\n        /* \"FunctionExample.sol\":479:506  balanceReceived[msg.sender] */\n      0xffffffffffffffffffffffffffffffffffffffff\n      and\n      0xffffffffffffffffffffffffffffffffffffffff\n      and\n      dup2\n      mstore\n      0x20\n      add\n      swap1\n      dup2\n      mstore\n      0x20\n      add\n      0x00\n      keccak256\n      sload\n        /* \"FunctionExample.sol\":466:475  msg.value */\n      callvalue\n        /* \"FunctionExample.sol\":436:451  balanceReceived */\n      0x00\n        /* \"FunctionExample.sol\":436:463  balanceReceived[msg.sender] */\n      dup1\n        /* \"FunctionExample.sol\":452:462  msg.sender */\n      caller\n        /* \"FunctionExample.sol\":436:463  balanceReceived[msg.sender] */\n      0xffffffffffffffffffffffffffffffffffffffff\n      and\n      0xffffffffffffffffffffffffffffffffffffffff\n      and\n      dup2\n      mstore\n      0x20\n      add\n      swap1\n      dup2\n      mstore\n      0x20\n      add\n      0x00\n      keccak256\n      sload\n        /* \"FunctionExample.sol\":436:475  balanceReceived[msg.sender] + msg.value */\n      tag_28\n      swap2\n      swap1\n      tag_29\n      jump\t// in\n    tag_28:\n        /* \"FunctionExample.sol\":436:506  balanceReceived[msg.sender] + msg.value >= balanceReceived[msg.sender] */\n      lt\n      iszero\n        /* \"FunctionExample.sol\":429:507  assert(balanceReceived[msg.sender] + msg.value >= balanceReceived[msg.sender]) */\n      tag_30\n      jumpi\n      mstore(0x00, 0x4e487b7100000000000000000000000000000000000000000000000000000000)\n      mstore(0x04, 0x01)\n      revert(0x00, 0x24)\n    tag_30:\n        /* \"FunctionExample.sol\":548:557  msg.value */\n      callvalue\n        /* \"FunctionExample.sol\":517:532  balanceReceived */\n      0x00\n        /* \"FunctionExample.sol\":517:544  balanceReceived[msg.sender] */\n      dup1\n        /* \"FunctionExample.sol\":533:543  msg.sender */\n      caller\n        /* \"FunctionExample.sol\":517:544  balanceReceived[msg.sender] */\n      0xffffffffffffffffffffffffffffffffffffffff\n      and\n      0xffffffffffffffffffffffffffffffffffffffff\n      and\n      dup2\n      mstore\n      0x20\n      add\n      swap1\n      dup2\n      mstore\n      0x20\n      add\n      0x00\n      keccak256\n      0x00\n        /* \"FunctionExample.sol\":517:557  balanceReceived[msg.sender] += msg.value */\n      dup3\n      dup3\n      sload\n      tag_31\n      swap2\n      swap1\n      tag_29\n      jump\t// in\n    tag_31:\n      swap3\n      pop\n      pop\n      dup2\n      swap1\n      sstore\n      pop\n        /* \"FunctionExample.sol\":380:564  function receiveMoney() public payable {... */\n      jump\t// out\n        /* \"FunctionExample.sol\":236:374  function destroySmartContract() public {... */\n    tag_14:\n        /* \"FunctionExample.sol\":307:312  owner */\n      0x01\n      0x00\n      swap1\n      sload\n      swap1\n      0x0100\n      exp\n      swap1\n      div\n      0xffffffffffffffffffffffffffffffffffffffff\n      and\n        /* \"FunctionExample.sol\":293:312  msg.sender == owner */\n      0xffffffffffffffffffffffffffffffffffffffff\n      and\n        /* \"FunctionExample.sol\":293:303  msg.sender */\n      caller\n        /* \"FunctionExample.sol\":293:312  msg.sender == owner */\n      0xffffffffffffffffffffffffffffffffffffffff\n      and\n      eq\n        /* \"FunctionExample.sol\":285:338  require(msg.sender == owner, \"You are not the owner\") */\n      tag_33\n      jumpi\n      mload(0x40)\n      0x08c379a000000000000000000000000000000000000000000000000000000000\n      dup2\n      mstore\n      0x04\n      add\n      tag_34\n      swap1\n      tag_35\n      jump\t// in\n    tag_34:\n      mload(0x40)\n      dup1\n      swap2\n      sub\n      swap1\n      revert\n    tag_33:\n        /* \"FunctionExample.sol\":361:366  owner */\n      0x01\n      0x00\n      swap1\n      sload\n      swap1\n      0x0100\n      exp\n      swap1\n      div\n      0xffffffffffffffffffffffffffffffffffffffff\n      and\n        /* \"FunctionExample.sol\":348:367  selfdestruct(owner) */\n      0xffffffffffffffffffffffffffffffffffffffff\n      and\n      selfdestruct\n        /* \"FunctionExample.sol\":91:138  mapping(address => uint) public balanceReceived */\n    tag_19:\n      mstore(0x20, 0x00)\n      dup1\n      0x00\n      mstore\n      keccak256(0x00, 0x40)\n      0x00\n      swap2\n      pop\n      swap1\n      pop\n      sload\n      dup2\n      jump\t// out\n        /* \"FunctionExample.sol\":570:885  function withdrawMoney(address payable _to, uint _amount) public {... */\n    tag_26:\n        /* \"FunctionExample.sol\":664:679  balanceReceived */\n      0x00\n        /* \"FunctionExample.sol\":664:691  balanceReceived[msg.sender] */\n      dup1\n        /* \"FunctionExample.sol\":680:690  msg.sender */\n      caller\n        /* \"FunctionExample.sol\":664:691  balanceReceived[msg.sender] */\n      0xffffffffffffffffffffffffffffffffffffffff\n      and\n      0xffffffffffffffffffffffffffffffffffffffff\n      and\n      dup2\n      mstore\n      0x20\n      add\n      swap1\n      dup2\n      mstore\n      0x20\n      add\n      0x00\n      keccak256\n      sload\n        /* \"FunctionExample.sol\":653:660  _amount */\n      dup2\n        /* \"FunctionExample.sol\":653:691  _amount <= balanceReceived[msg.sender] */\n      gt\n      iszero\n        /* \"FunctionExample.sol\":645:713  require(_amount <= balanceReceived[msg.sender], \"not enough funds.\") */\n      tag_37\n      jumpi\n      mload(0x40)\n      0x08c379a000000000000000000000000000000000000000000000000000000000\n      dup2\n      mstore\n      0x04\n      add\n      tag_38\n      swap1\n      tag_39\n      jump\t// in\n    tag_38:\n      mload(0x40)\n      dup1\n      swap2\n      sub\n      swap1\n      revert\n    tag_37:\n        /* \"FunctionExample.sol\":791:798  _amount */\n      dup1\n        /* \"FunctionExample.sol\":761:776  balanceReceived */\n      0x00\n        /* \"FunctionExample.sol\":761:788  balanceReceived[msg.sender] */\n      dup1\n        /* \"FunctionExample.sol\":777:787  msg.sender */\n      caller\n        /* \"FunctionExample.sol\":761:788  balanceReceived[msg.sender] */\n      0xffffffffffffffffffffffffffffffffffffffff\n      and\n      0xffffffffffffffffffffffffffffffffffffffff\n      and\n      dup2\n      mstore\n      0x20\n      add\n      swap1\n      dup2\n      mstore\n      0x20\n      add\n      0x00\n      keccak256\n      sload\n        /* \"FunctionExample.sol\":761:798  balanceReceived[msg.sender] - _amount */\n      tag_40\n      swap2\n      swap1\n      tag_41\n      jump\t// in\n    tag_40:\n        /* \"FunctionExample.sol\":730:745  balanceReceived */\n      0x00\n        /* \"FunctionExample.sol\":730:757  balanceReceived[msg.sender] */\n      dup1\n        /* \"FunctionExample.sol\":746:756  msg.sender */\n      caller\n        /* \"FunctionExample.sol\":730:757  balanceReceived[msg.sender] */\n      0xffffffffffffffffffffffffffffffffffffffff\n      and\n      0xffffffffffffffffffffffffffffffffffffffff\n      and\n      dup2\n      mstore\n      0x20\n      add\n      swap1\n      dup2\n      mstore\n      0x20\n      add\n      0x00\n      keccak256\n      sload\n        /* \"FunctionExample.sol\":730:798  balanceReceived[msg.sender] >= balanceReceived[msg.sender] - _amount */\n      lt\n      iszero\n        /* \"FunctionExample.sol\":723:799  assert(balanceReceived[msg.sender] >= balanceReceived[msg.sender] - _amount) */\n      tag_42\n      jumpi\n      mstore(0x00, 0x4e487b7100000000000000000000000000000000000000000000000000000000)\n      mstore(0x04, 0x01)\n      revert(0x00, 0x24)\n    tag_42:\n        /* \"FunctionExample.sol\":840:847  _amount */\n      dup1\n        /* \"FunctionExample.sol\":809:824  balanceReceived */\n      0x00\n        /* \"FunctionExample.sol\":809:836  balanceReceived[msg.sender] */\n      dup1\n        /* \"FunctionExample.sol\":825:835  msg.sender */\n      caller\n        /* \"FunctionExample.sol\":809:836  balanceReceived[msg.sender] */\n      0xffffffffffffffffffffffffffffffffffffffff\n      and\n      0xffffffffffffffffffffffffffffffffffffffff\n      and\n      dup2\n      mstore\n      0x20\n      add\n      swap1\n      dup2\n      mstore\n      0x20\n      add\n      0x00\n      keccak256\n      0x00\n        /* \"FunctionExample.sol\":809:847  balanceReceived[msg.sender] -= _amount */\n      dup3\n      dup3\n      sload\n      tag_43\n      swap2\n      swap1\n      tag_41\n      jump\t// in\n    tag_43:\n      swap3\n      pop\n      pop\n      dup2\n      swap1\n      sstore\n      pop\n        /* \"FunctionExample.sol\":857:860  _to */\n      dup2\n        /* \"FunctionExample.sol\":857:869  _to.transfer */\n      0xffffffffffffffffffffffffffffffffffffffff\n      and\n        /* \"FunctionExample.sol\":857:878  _to.transfer(_amount) */\n      0x08fc\n        /* \"FunctionExample.sol\":870:877  _amount */\n      dup3\n        /* \"FunctionExample.sol\":857:878  _to.transfer(_amount) */\n      swap1\n      dup2\n      iszero\n      mul\n      swap1\n      mload(0x40)\n      0x00\n      mload(0x40)\n      dup1\n      dup4\n      sub\n      dup2\n      dup6\n      dup9\n      dup9\n      call\n      swap4\n      pop\n      pop\n      pop\n      pop\n      iszero\n      dup1\n      iszero\n      tag_45\n      jumpi\n      returndatasize\n      0x00\n      dup1\n      returndatacopy\n      revert(0x00, returndatasize)\n    tag_45:\n      pop\n        /* \"FunctionExample.sol\":570:885  function withdrawMoney(address payable _to, uint _amount) public {... */\n      pop\n      pop\n      jump\t// out\n        /* \"#utility.yul\":7:146   */\n    tag_47:\n      0x00\n        /* \"#utility.yul\":91:97   */\n      dup2\n        /* \"#utility.yul\":78:98   */\n      calldataload\n        /* \"#utility.yul\":69:98   */\n      swap1\n      pop\n        /* \"#utility.yul\":107:140   */\n      tag_49\n        /* \"#utility.yul\":134:139   */\n      dup2\n        /* \"#utility.yul\":107:140   */\n      tag_50\n      jump\t// in\n    tag_49:\n        /* \"#utility.yul\":59:146   */\n      swap3\n      swap2\n      pop\n      pop\n      jump\t// out\n        /* \"#utility.yul\":152:307   */\n    tag_51:\n      0x00\n        /* \"#utility.yul\":244:250   */\n      dup2\n        /* \"#utility.yul\":231:251   */\n      calldataload\n        /* \"#utility.yul\":222:251   */\n      swap1\n      pop\n        /* \"#utility.yul\":260:301   */\n      tag_53\n        /* \"#utility.yul\":295:300   */\n      dup2\n        /* \"#utility.yul\":260:301   */\n      tag_54\n      jump\t// in\n    tag_53:\n        /* \"#utility.yul\":212:307   */\n      swap3\n      swap2\n      pop\n      pop\n      jump\t// out\n        /* \"#utility.yul\":313:452   */\n    tag_55:\n      0x00\n        /* \"#utility.yul\":397:403   */\n      dup2\n        /* \"#utility.yul\":384:404   */\n      calldataload\n        /* \"#utility.yul\":375:404   */\n      swap1\n      pop\n        /* \"#utility.yul\":413:446   */\n      tag_57\n        /* \"#utility.yul\":440:445   */\n      dup2\n        /* \"#utility.yul\":413:446   */\n      tag_58\n      jump\t// in\n    tag_57:\n        /* \"#utility.yul\":365:452   */\n      swap3\n      swap2\n      pop\n      pop\n      jump\t// out\n        /* \"#utility.yul\":458:720   */\n    tag_18:\n      0x00\n        /* \"#utility.yul\":566:568   */\n      0x20\n        /* \"#utility.yul\":554:563   */\n      dup3\n        /* \"#utility.yul\":545:552   */\n      dup5\n        /* \"#utility.yul\":541:564   */\n      sub\n        /* \"#utility.yul\":537:569   */\n      slt\n        /* \"#utility.yul\":534:536   */\n      iszero\n      tag_60\n      jumpi\n        /* \"#utility.yul\":582:583   */\n      0x00\n        /* \"#utility.yul\":579:580   */\n      dup1\n        /* \"#utility.yul\":572:584   */\n      revert\n        /* \"#utility.yul\":534:536   */\n    tag_60:\n        /* \"#utility.yul\":625:626   */\n      0x00\n        /* \"#utility.yul\":650:703   */\n      tag_61\n        /* \"#utility.yul\":695:702   */\n      dup5\n        /* \"#utility.yul\":686:692   */\n      dup3\n        /* \"#utility.yul\":675:684   */\n      dup6\n        /* \"#utility.yul\":671:693   */\n      add\n        /* \"#utility.yul\":650:703   */\n      tag_47\n      jump\t// in\n    tag_61:\n        /* \"#utility.yul\":640:703   */\n      swap2\n      pop\n        /* \"#utility.yul\":596:713   */\n      pop\n        /* \"#utility.yul\":524:720   */\n      swap3\n      swap2\n      pop\n      pop\n      jump\t// out\n        /* \"#utility.yul\":726:1149   */\n    tag_25:\n      0x00\n      dup1\n        /* \"#utility.yul\":859:861   */\n      0x40\n        /* \"#utility.yul\":847:856   */\n      dup4\n        /* \"#utility.yul\":838:845   */\n      dup6\n        /* \"#utility.yul\":834:857   */\n      sub\n        /* \"#utility.yul\":830:862   */\n      slt\n        /* \"#utility.yul\":827:829   */\n      iszero\n      tag_63\n      jumpi\n        /* \"#utility.yul\":875:876   */\n      0x00\n        /* \"#utility.yul\":872:873   */\n      dup1\n        /* \"#utility.yul\":865:877   */\n      revert\n        /* \"#utility.yul\":827:829   */\n    tag_63:\n        /* \"#utility.yul\":918:919   */\n      0x00\n        /* \"#utility.yul\":943:1004   */\n      tag_64\n        /* \"#utility.yul\":996:1003   */\n      dup6\n        /* \"#utility.yul\":987:993   */\n      dup3\n        /* \"#utility.yul\":976:985   */\n      dup7\n        /* \"#utility.yul\":972:994   */\n      add\n        /* \"#utility.yul\":943:1004   */\n      tag_51\n      jump\t// in\n    tag_64:\n        /* \"#utility.yul\":933:1004   */\n      swap3\n      pop\n        /* \"#utility.yul\":889:1014   */\n      pop\n        /* \"#utility.yul\":1053:1055   */\n      0x20\n        /* \"#utility.yul\":1079:1132   */\n      tag_65\n        /* \"#utility.yul\":1124:1131   */\n      dup6\n        /* \"#utility.yul\":1115:1121   */\n      dup3\n        /* \"#utility.yul\":1104:1113   */\n      dup7\n        /* \"#utility.yul\":1100:1122   */\n      add\n        /* \"#utility.yul\":1079:1132   */\n      tag_55\n      jump\t// in\n    tag_65:\n        /* \"#utility.yul\":1069:1132   */\n      swap2\n      pop\n        /* \"#utility.yul\":1024:1142   */\n      pop\n        /* \"#utility.yul\":817:1149   */\n      swap3\n      pop\n      swap3\n      swap1\n      pop\n      jump\t// out\n        /* \"#utility.yul\":1155:1521   */\n    tag_66:\n      0x00\n        /* \"#utility.yul\":1318:1385   */\n      tag_68\n        /* \"#utility.yul\":1382:1384   */\n      0x11\n        /* \"#utility.yul\":1377:1380   */\n      dup4\n        /* \"#utility.yul\":1318:1385   */\n      tag_69\n      jump\t// in\n    tag_68:\n        /* \"#utility.yul\":1311:1385   */\n      swap2\n      pop\n        /* \"#utility.yul\":1394:1487   */\n      tag_70\n        /* \"#utility.yul\":1483:1486   */\n      dup3\n        /* \"#utility.yul\":1394:1487   */\n      tag_71\n      jump\t// in\n    tag_70:\n        /* \"#utility.yul\":1512:1514   */\n      0x20\n        /* \"#utility.yul\":1507:1510   */\n      dup3\n        /* \"#utility.yul\":1503:1515   */\n      add\n        /* \"#utility.yul\":1496:1515   */\n      swap1\n      pop\n        /* \"#utility.yul\":1301:1521   */\n      swap2\n      swap1\n      pop\n      jump\t// out\n        /* \"#utility.yul\":1527:1893   */\n    tag_72:\n      0x00\n        /* \"#utility.yul\":1690:1757   */\n      tag_74\n        /* \"#utility.yul\":1754:1756   */\n      0x15\n        /* \"#utility.yul\":1749:1752   */\n      dup4\n        /* \"#utility.yul\":1690:1757   */\n      tag_69\n      jump\t// in\n    tag_74:\n        /* \"#utility.yul\":1683:1757   */\n      swap2\n      pop\n        /* \"#utility.yul\":1766:1859   */\n      tag_75\n        /* \"#utility.yul\":1855:1858   */\n      dup3\n        /* \"#utility.yul\":1766:1859   */\n      tag_76\n      jump\t// in\n    tag_75:\n        /* \"#utility.yul\":1884:1886   */\n      0x20\n        /* \"#utility.yul\":1879:1882   */\n      dup3\n        /* \"#utility.yul\":1875:1887   */\n      add\n        /* \"#utility.yul\":1868:1887   */\n      swap1\n      pop\n        /* \"#utility.yul\":1673:1893   */\n      swap2\n      swap1\n      pop\n      jump\t// out\n        /* \"#utility.yul\":1899:2017   */\n    tag_77:\n        /* \"#utility.yul\":1986:2010   */\n      tag_79\n        /* \"#utility.yul\":2004:2009   */\n      dup2\n        /* \"#utility.yul\":1986:2010   */\n      tag_80\n      jump\t// in\n    tag_79:\n        /* \"#utility.yul\":1981:1984   */\n      dup3\n        /* \"#utility.yul\":1974:2011   */\n      mstore\n        /* \"#utility.yul\":1964:2017   */\n      pop\n      pop\n      jump\t// out\n        /* \"#utility.yul\":2023:2442   */\n    tag_39:\n      0x00\n        /* \"#utility.yul\":2227:2229   */\n      0x20\n        /* \"#utility.yul\":2216:2225   */\n      dup3\n        /* \"#utility.yul\":2212:2230   */\n      add\n        /* \"#utility.yul\":2204:2230   */\n      swap1\n      pop\n        /* \"#utility.yul\":2276:2285   */\n      dup2\n        /* \"#utility.yul\":2270:2274   */\n      dup2\n        /* \"#utility.yul\":2266:2286   */\n      sub\n        /* \"#utility.yul\":2262:2263   */\n      0x00\n        /* \"#utility.yul\":2251:2260   */\n      dup4\n        /* \"#utility.yul\":2247:2264   */\n      add\n        /* \"#utility.yul\":2240:2287   */\n      mstore\n        /* \"#utility.yul\":2304:2435   */\n      tag_82\n        /* \"#utility.yul\":2430:2434   */\n      dup2\n        /* \"#utility.yul\":2304:2435   */\n      tag_66\n      jump\t// in\n    tag_82:\n        /* \"#utility.yul\":2296:2435   */\n      swap1\n      pop\n        /* \"#utility.yul\":2194:2442   */\n      swap2\n      swap1\n      pop\n      jump\t// out\n        /* \"#utility.yul\":2448:2867   */\n    tag_35:\n      0x00\n        /* \"#utility.yul\":2652:2654   */\n      0x20\n        /* \"#utility.yul\":2641:2650   */\n      dup3\n        /* \"#utility.yul\":2637:2655   */\n      add\n        /* \"#utility.yul\":2629:2655   */\n      swap1\n      pop\n        /* \"#utility.yul\":2701:2710   */\n      dup2\n        /* \"#utility.yul\":2695:2699   */\n      dup2\n        /* \"#utility.yul\":2691:2711   */\n      sub\n        /* \"#utility.yul\":2687:2688   */\n      0x00\n        /* \"#utility.yul\":2676:2685   */\n      dup4\n        /* \"#utility.yul\":2672:2689   */\n      add\n        /* \"#utility.yul\":2665:2712   */\n      mstore\n        /* \"#utility.yul\":2729:2860   */\n      tag_84\n        /* \"#utility.yul\":2855:2859   */\n      dup2\n        /* \"#utility.yul\":2729:2860   */\n      tag_72\n      jump\t// in\n    tag_84:\n        /* \"#utility.yul\":2721:2860   */\n      swap1\n      pop\n        /* \"#utility.yul\":2619:2867   */\n      swap2\n      swap1\n      pop\n      jump\t// out\n        /* \"#utility.yul\":2873:3095   */\n    tag_21:\n      0x00\n        /* \"#utility.yul\":3004:3006   */\n      0x20\n        /* \"#utility.yul\":2993:3002   */\n      dup3\n        /* \"#utility.yul\":2989:3007   */\n      add\n        /* \"#utility.yul\":2981:3007   */\n      swap1\n      pop\n        /* \"#utility.yul\":3017:3088   */\n      tag_86\n        /* \"#utility.yul\":3085:3086   */\n      0x00\n        /* \"#utility.yul\":3074:3083   */\n      dup4\n        /* \"#utility.yul\":3070:3087   */\n      add\n        /* \"#utility.yul\":3061:3067   */\n      dup5\n        /* \"#utility.yul\":3017:3088   */\n      tag_77\n      jump\t// in\n    tag_86:\n        /* \"#utility.yul\":2971:3095   */\n      swap3\n      swap2\n      pop\n      pop\n      jump\t// out\n        /* \"#utility.yul\":3101:3270   */\n    tag_69:\n      0x00\n        /* \"#utility.yul\":3219:3225   */\n      dup3\n        /* \"#utility.yul\":3214:3217   */\n      dup3\n        /* \"#utility.yul\":3207:3226   */\n      mstore\n        /* \"#utility.yul\":3259:3263   */\n      0x20\n        /* \"#utility.yul\":3254:3257   */\n      dup3\n        /* \"#utility.yul\":3250:3264   */\n      add\n        /* \"#utility.yul\":3235:3264   */\n      swap1\n      pop\n        /* \"#utility.yul\":3197:3270   */\n      swap3\n      swap2\n      pop\n      pop\n      jump\t// out\n        /* \"#utility.yul\":3276:3581   */\n    tag_29:\n      0x00\n        /* \"#utility.yul\":3335:3355   */\n      tag_89\n        /* \"#utility.yul\":3353:3354   */\n      dup3\n        /* \"#utility.yul\":3335:3355   */\n      tag_80\n      jump\t// in\n    tag_89:\n        /* \"#utility.yul\":3330:3355   */\n      swap2\n      pop\n        /* \"#utility.yul\":3369:3389   */\n      tag_90\n        /* \"#utility.yul\":3387:3388   */\n      dup4\n        /* \"#utility.yul\":3369:3389   */\n      tag_80\n      jump\t// in\n    tag_90:\n        /* \"#utility.yul\":3364:3389   */\n      swap3\n      pop\n        /* \"#utility.yul\":3523:3524   */\n      dup3\n        /* \"#utility.yul\":3455:3521   */\n      0xffffffffffffffffffffffffffffffffffffffffffffffffffffffffffffffff\n        /* \"#utility.yul\":3451:3525   */\n      sub\n        /* \"#utility.yul\":3448:3449   */\n      dup3\n        /* \"#utility.yul\":3445:3526   */\n      gt\n        /* \"#utility.yul\":3442:3444   */\n      iszero\n      tag_91\n      jumpi\n        /* \"#utility.yul\":3529:3547   */\n      tag_92\n      tag_93\n      jump\t// in\n    tag_92:\n        /* \"#utility.yul\":3442:3444   */\n    tag_91:\n        /* \"#utility.yul\":3573:3574   */\n      dup3\n        /* \"#utility.yul\":3570:3571   */\n      dup3\n        /* \"#utility.yul\":3566:3575   */\n      add\n        /* \"#utility.yul\":3559:3575   */\n      swap1\n      pop\n        /* \"#utility.yul\":3320:3581   */\n      swap3\n      swap2\n      pop\n      pop\n      jump\t// out\n        /* \"#utility.yul\":3587:3778   */\n    tag_41:\n      0x00\n        /* \"#utility.yul\":3647:3667   */\n      tag_95\n        /* \"#utility.yul\":3665:3666   */\n      dup3\n        /* \"#utility.yul\":3647:3667   */\n      tag_80\n      jump\t// in\n    tag_95:\n        /* \"#utility.yul\":3642:3667   */\n      swap2\n      pop\n        /* \"#utility.yul\":3681:3701   */\n      tag_96\n        /* \"#utility.yul\":3699:3700   */\n      dup4\n        /* \"#utility.yul\":3681:3701   */\n      tag_80\n      jump\t// in\n    tag_96:\n        /* \"#utility.yul\":3676:3701   */\n      swap3\n      pop\n        /* \"#utility.yul\":3720:3721   */\n      dup3\n        /* \"#utility.yul\":3717:3718   */\n      dup3\n        /* \"#utility.yul\":3714:3722   */\n      lt\n        /* \"#utility.yul\":3711:3713   */\n      iszero\n      tag_97\n      jumpi\n        /* \"#utility.yul\":3725:3743   */\n      tag_98\n      tag_93\n      jump\t// in\n    tag_98:\n        /* \"#utility.yul\":3711:3713   */\n    tag_97:\n        /* \"#utility.yul\":3770:3771   */\n      dup3\n        /* \"#utility.yul\":3767:3768   */\n      dup3\n        /* \"#utility.yul\":3763:3772   */\n      sub\n        /* \"#utility.yul\":3755:3772   */\n      swap1\n      pop\n        /* \"#utility.yul\":3632:3778   */\n      swap3\n      swap2\n      pop\n      pop\n      jump\t// out\n        /* \"#utility.yul\":3784:3880   */\n    tag_99:\n      0x00\n        /* \"#utility.yul\":3850:3874   */\n      tag_101\n        /* \"#utility.yul\":3868:3873   */\n      dup3\n        /* \"#utility.yul\":3850:3874   */\n      tag_102\n      jump\t// in\n    tag_101:\n        /* \"#utility.yul\":3839:3874   */\n      swap1\n      pop\n        /* \"#utility.yul\":3829:3880   */\n      swap2\n      swap1\n      pop\n      jump\t// out\n        /* \"#utility.yul\":3886:3990   */\n    tag_103:\n      0x00\n        /* \"#utility.yul\":3960:3984   */\n      tag_105\n        /* \"#utility.yul\":3978:3983   */\n      dup3\n        /* \"#utility.yul\":3960:3984   */\n      tag_102\n      jump\t// in\n    tag_105:\n        /* \"#utility.yul\":3949:3984   */\n      swap1\n      pop\n        /* \"#utility.yul\":3939:3990   */\n      swap2\n      swap1\n      pop\n      jump\t// out\n        /* \"#utility.yul\":3996:4122   */\n    tag_102:\n      0x00\n        /* \"#utility.yul\":4073:4115   */\n      0xffffffffffffffffffffffffffffffffffffffff\n        /* \"#utility.yul\":4066:4071   */\n      dup3\n        /* \"#utility.yul\":4062:4116   */\n      and\n        /* \"#utility.yul\":4051:4116   */\n      swap1\n      pop\n        /* \"#utility.yul\":4041:4122   */\n      swap2\n      swap1\n      pop\n      jump\t// out\n        /* \"#utility.yul\":4128:4205   */\n    tag_80:\n      0x00\n        /* \"#utility.yul\":4194:4199   */\n      dup2\n        /* \"#utility.yul\":4183:4199   */\n      swap1\n      pop\n        /* \"#utility.yul\":4173:4205   */\n      swap2\n      swap1\n      pop\n      jump\t// out\n        /* \"#utility.yul\":4211:4391   */\n    tag_93:\n        /* \"#utility.yul\":4259:4336   */\n      0x4e487b7100000000000000000000000000000000000000000000000000000000\n        /* \"#utility.yul\":4256:4257   */\n      0x00\n        /* \"#utility.yul\":4249:4337   */\n      mstore\n        /* \"#utility.yul\":4356:4360   */\n      0x11\n        /* \"#utility.yul\":4353:4354   */\n      0x04\n        /* \"#utility.yul\":4346:4361   */\n      mstore\n        /* \"#utility.yul\":4380:4384   */\n      0x24\n        /* \"#utility.yul\":4377:4378   */\n      0x00\n        /* \"#utility.yul\":4370:4385   */\n      revert\n        /* \"#utility.yul\":4397:4564   */\n    tag_71:\n        /* \"#utility.yul\":4537:4556   */\n      0x6e6f7420656e6f7567682066756e64732e000000000000000000000000000000\n        /* \"#utility.yul\":4533:4534   */\n      0x00\n        /* \"#utility.yul\":4525:4531   */\n      dup3\n        /* \"#utility.yul\":4521:4535   */\n      add\n        /* \"#utility.yul\":4514:4557   */\n      mstore\n        /* \"#utility.yul\":4503:4564   */\n      pop\n      jump\t// out\n        /* \"#utility.yul\":4570:4741   */\n    tag_76:\n        /* \"#utility.yul\":4710:4733   */\n      0x596f7520617265206e6f7420746865206f776e65720000000000000000000000\n        /* \"#utility.yul\":4706:4707   */\n      0x00\n        /* \"#utility.yul\":4698:4704   */\n      dup3\n        /* \"#utility.yul\":4694:4708   */\n      add\n        /* \"#utility.yul\":4687:4734   */\n      mstore\n        /* \"#utility.yul\":4676:4741   */\n      pop\n      jump\t// out\n        /* \"#utility.yul\":4747:4869   */\n    tag_50:\n        /* \"#utility.yul\":4820:4844   */\n      tag_112\n        /* \"#utility.yul\":4838:4843   */\n      dup2\n        /* \"#utility.yul\":4820:4844   */\n      tag_99\n      jump\t// in\n    tag_112:\n        /* \"#utility.yul\":4813:4818   */\n      dup2\n        /* \"#utility.yul\":4810:4845   */\n      eq\n        /* \"#utility.yul\":4800:4802   */\n      tag_113\n      jumpi\n        /* \"#utility.yul\":4859:4860   */\n      0x00\n        /* \"#utility.yul\":4856:4857   */\n      dup1\n        /* \"#utility.yul\":4849:4861   */\n      revert\n        /* \"#utility.yul\":4800:4802   */\n    tag_113:\n        /* \"#utility.yul\":4790:4869   */\n      pop\n      jump\t// out\n        /* \"#utility.yul\":4875:5013   */\n    tag_54:\n        /* \"#utility.yul\":4956:4988   */\n      tag_115\n        /* \"#utility.yul\":4982:4987   */\n      dup2\n        /* \"#utility.yul\":4956:4988   */\n      tag_103\n      jump\t// in\n    tag_115:\n        /* \"#utility.yul\":4949:4954   */\n      dup2\n        /* \"#utility.yul\":4946:4989   */\n      eq\n        /* \"#utility.yul\":4936:4938   */\n      tag_116\n      jumpi\n        /* \"#utility.yul\":5003:5004   */\n      0x00\n        /* \"#utility.yul\":5000:5001   */\n      dup1\n        /* \"#utility.yul\":4993:5005   */\n      revert\n        /* \"#utility.yul\":4936:4938   */\n    tag_116:\n        /* \"#utility.yul\":4926:5013   */\n      pop\n      jump\t// out\n        /* \"#utility.yul\":5019:5141   */\n    tag_58:\n        /* \"#utility.yul\":5092:5116   */\n      tag_118\n        /* \"#utility.yul\":5110:5115   */\n      dup2\n        /* \"#utility.yul\":5092:5116   */\n      tag_80\n      jump\t// in\n    tag_118:\n        /* \"#utility.yul\":5085:5090   */\n      dup2\n        /* \"#utility.yul\":5082:5117   */\n      eq\n        /* \"#utility.yul\":5072:5074   */\n      tag_119\n      jumpi\n        /* \"#utility.yul\":5131:5132   */\n      0x00\n        /* \"#utility.yul\":5128:5129   */\n      dup1\n        /* \"#utility.yul\":5121:5133   */\n      revert\n        /* \"#utility.yul\":5072:5074   */\n    tag_119:\n        /* \"#utility.yul\":5062:5141   */\n      pop\n      jump\t// out\n\n    auxdata: 0xa264697066735822122094493bc1489635aa35e315947b5cec2a3d0554c387ab5168722ebf857c0cbbb764736f6c63430008030033\n}\n",
				"bytecode": {
					"linkReferences": {},
					"object": "608060405234801561001057600080fd5b5033600160006101000a81548173ffffffffffffffffffffffffffffffffffffffff021916908373ffffffffffffffffffffffffffffffffffffffff1602179055506107ee806100616000396000f3fe6080604052600436106100435760003560e01c80636d26ec18146100575780638547472814610061578063d18a42e114610078578063f274c897146100b557610052565b36610052576100506100de565b005b600080fd5b61005f6100de565b005b34801561006d57600080fd5b506100766101f3565b005b34801561008457600080fd5b5061009f600480360381019061009a91906104f4565b6102be565b6040516100ac91906105ee565b60405180910390f35b3480156100c157600080fd5b506100dc60048036038101906100d7919061051d565b6102d6565b005b6000803373ffffffffffffffffffffffffffffffffffffffff1673ffffffffffffffffffffffffffffffffffffffff16815260200190815260200160002054346000803373ffffffffffffffffffffffffffffffffffffffff1673ffffffffffffffffffffffffffffffffffffffff16815260200190815260200160002054610167919061061a565b101561019c577f4e487b7100000000000000000000000000000000000000000000000000000000600052600160045260246000fd5b346000803373ffffffffffffffffffffffffffffffffffffffff1673ffffffffffffffffffffffffffffffffffffffff16815260200190815260200160002060008282546101ea919061061a565b92505081905550565b600160009054906101000a900473ffffffffffffffffffffffffffffffffffffffff1673ffffffffffffffffffffffffffffffffffffffff163373ffffffffffffffffffffffffffffffffffffffff1614610283576040517f08c379a000000000000000000000000000000000000000000000000000000000815260040161027a906105ce565b60405180910390fd5b600160009054906101000a900473ffffffffffffffffffffffffffffffffffffffff1673ffffffffffffffffffffffffffffffffffffffff16ff5b60006020528060005260406000206000915090505481565b6000803373ffffffffffffffffffffffffffffffffffffffff1673ffffffffffffffffffffffffffffffffffffffff16815260200190815260200160002054811115610357576040517f08c379a000000000000000000000000000000000000000000000000000000000815260040161034e906105ae565b60405180910390fd5b806000803373ffffffffffffffffffffffffffffffffffffffff1673ffffffffffffffffffffffffffffffffffffffff168152602001908152602001600020546103a19190610670565b6000803373ffffffffffffffffffffffffffffffffffffffff1673ffffffffffffffffffffffffffffffffffffffff168152602001908152602001600020541015610415577f4e487b7100000000000000000000000000000000000000000000000000000000600052600160045260246000fd5b806000803373ffffffffffffffffffffffffffffffffffffffff1673ffffffffffffffffffffffffffffffffffffffff16815260200190815260200160002060008282546104639190610670565b925050819055508173ffffffffffffffffffffffffffffffffffffffff166108fc829081150290604051600060405180830381858888f193505050501580156104b0573d6000803e3d6000fd5b505050565b6000813590506104c481610773565b92915050565b6000813590506104d98161078a565b92915050565b6000813590506104ee816107a1565b92915050565b60006020828403121561050657600080fd5b6000610514848285016104b5565b91505092915050565b6000806040838503121561053057600080fd5b600061053e858286016104ca565b925050602061054f858286016104df565b9150509250929050565b6000610566601183610609565b915061057182610721565b602082019050919050565b6000610589601583610609565b91506105948261074a565b602082019050919050565b6105a8816106e8565b82525050565b600060208201905081810360008301526105c781610559565b9050919050565b600060208201905081810360008301526105e78161057c565b9050919050565b6000602082019050610603600083018461059f565b92915050565b600082825260208201905092915050565b6000610625826106e8565b9150610630836106e8565b9250827fffffffffffffffffffffffffffffffffffffffffffffffffffffffffffffffff03821115610665576106646106f2565b5b828201905092915050565b600061067b826106e8565b9150610686836106e8565b925082821015610699576106986106f2565b5b828203905092915050565b60006106af826106c8565b9050919050565b60006106c1826106c8565b9050919050565b600073ffffffffffffffffffffffffffffffffffffffff82169050919050565b6000819050919050565b7f4e487b7100000000000000000000000000000000000000000000000000000000600052601160045260246000fd5b7f6e6f7420656e6f7567682066756e64732e000000000000000000000000000000600082015250565b7f596f7520617265206e6f7420746865206f776e65720000000000000000000000600082015250565b61077c816106a4565b811461078757600080fd5b50565b610793816106b6565b811461079e57600080fd5b50565b6107aa816106e8565b81146107b557600080fd5b5056fea264697066735822122094493bc1489635aa35e315947b5cec2a3d0554c387ab5168722ebf857c0cbbb764736f6c63430008030033",
					"opcodes": "PUSH1 0x80 PUSH1 0x40 MSTORE CALLVALUE DUP1 ISZERO PUSH2 0x10 JUMPI PUSH1 0x0 DUP1 REVERT JUMPDEST POP CALLER PUSH1 0x1 PUSH1 0x0 PUSH2 0x100 EXP DUP2 SLOAD DUP2 PUSH20 0xFFFFFFFFFFFFFFFFFFFFFFFFFFFFFFFFFFFFFFFF MUL NOT AND SWAP1 DUP4 PUSH20 0xFFFFFFFFFFFFFFFFFFFFFFFFFFFFFFFFFFFFFFFF AND MUL OR SWAP1 SSTORE POP PUSH2 0x7EE DUP1 PUSH2 0x61 PUSH1 0x0 CODECOPY PUSH1 0x0 RETURN INVALID PUSH1 0x80 PUSH1 0x40 MSTORE PUSH1 0x4 CALLDATASIZE LT PUSH2 0x43 JUMPI PUSH1 0x0 CALLDATALOAD PUSH1 0xE0 SHR DUP1 PUSH4 0x6D26EC18 EQ PUSH2 0x57 JUMPI DUP1 PUSH4 0x85474728 EQ PUSH2 0x61 JUMPI DUP1 PUSH4 0xD18A42E1 EQ PUSH2 0x78 JUMPI DUP1 PUSH4 0xF274C897 EQ PUSH2 0xB5 JUMPI PUSH2 0x52 JUMP JUMPDEST CALLDATASIZE PUSH2 0x52 JUMPI PUSH2 0x50 PUSH2 0xDE JUMP JUMPDEST STOP JUMPDEST PUSH1 0x0 DUP1 REVERT JUMPDEST PUSH2 0x5F PUSH2 0xDE JUMP JUMPDEST STOP JUMPDEST CALLVALUE DUP1 ISZERO PUSH2 0x6D JUMPI PUSH1 0x0 DUP1 REVERT JUMPDEST POP PUSH2 0x76 PUSH2 0x1F3 JUMP JUMPDEST STOP JUMPDEST CALLVALUE DUP1 ISZERO PUSH2 0x84 JUMPI PUSH1 0x0 DUP1 REVERT JUMPDEST POP PUSH2 0x9F PUSH1 0x4 DUP1 CALLDATASIZE SUB DUP2 ADD SWAP1 PUSH2 0x9A SWAP2 SWAP1 PUSH2 0x4F4 JUMP JUMPDEST PUSH2 0x2BE JUMP JUMPDEST PUSH1 0x40 MLOAD PUSH2 0xAC SWAP2 SWAP1 PUSH2 0x5EE JUMP JUMPDEST PUSH1 0x40 MLOAD DUP1 SWAP2 SUB SWAP1 RETURN JUMPDEST CALLVALUE DUP1 ISZERO PUSH2 0xC1 JUMPI PUSH1 0x0 DUP1 REVERT JUMPDEST POP PUSH2 0xDC PUSH1 0x4 DUP1 CALLDATASIZE SUB DUP2 ADD SWAP1 PUSH2 0xD7 SWAP2 SWAP1 PUSH2 0x51D JUMP JUMPDEST PUSH2 0x2D6 JUMP JUMPDEST STOP JUMPDEST PUSH1 0x0 DUP1 CALLER PUSH20 0xFFFFFFFFFFFFFFFFFFFFFFFFFFFFFFFFFFFFFFFF AND PUSH20 0xFFFFFFFFFFFFFFFFFFFFFFFFFFFFFFFFFFFFFFFF AND DUP2 MSTORE PUSH1 0x20 ADD SWAP1 DUP2 MSTORE PUSH1 0x20 ADD PUSH1 0x0 KECCAK256 SLOAD CALLVALUE PUSH1 0x0 DUP1 CALLER PUSH20 0xFFFFFFFFFFFFFFFFFFFFFFFFFFFFFFFFFFFFFFFF AND PUSH20 0xFFFFFFFFFFFFFFFFFFFFFFFFFFFFFFFFFFFFFFFF AND DUP2 MSTORE PUSH1 0x20 ADD SWAP1 DUP2 MSTORE PUSH1 0x20 ADD PUSH1 0x0 KECCAK256 SLOAD PUSH2 0x167 SWAP2 SWAP1 PUSH2 0x61A JUMP JUMPDEST LT ISZERO PUSH2 0x19C JUMPI PUSH32 0x4E487B7100000000000000000000000000000000000000000000000000000000 PUSH1 0x0 MSTORE PUSH1 0x1 PUSH1 0x4 MSTORE PUSH1 0x24 PUSH1 0x0 REVERT JUMPDEST CALLVALUE PUSH1 0x0 DUP1 CALLER PUSH20 0xFFFFFFFFFFFFFFFFFFFFFFFFFFFFFFFFFFFFFFFF AND PUSH20 0xFFFFFFFFFFFFFFFFFFFFFFFFFFFFFFFFFFFFFFFF AND DUP2 MSTORE PUSH1 0x20 ADD SWAP1 DUP2 MSTORE PUSH1 0x20 ADD PUSH1 0x0 KECCAK256 PUSH1 0x0 DUP3 DUP3 SLOAD PUSH2 0x1EA SWAP2 SWAP1 PUSH2 0x61A JUMP JUMPDEST SWAP3 POP POP DUP2 SWAP1 SSTORE POP JUMP JUMPDEST PUSH1 0x1 PUSH1 0x0 SWAP1 SLOAD SWAP1 PUSH2 0x100 EXP SWAP1 DIV PUSH20 0xFFFFFFFFFFFFFFFFFFFFFFFFFFFFFFFFFFFFFFFF AND PUSH20 0xFFFFFFFFFFFFFFFFFFFFFFFFFFFFFFFFFFFFFFFF AND CALLER PUSH20 0xFFFFFFFFFFFFFFFFFFFFFFFFFFFFFFFFFFFFFFFF AND EQ PUSH2 0x283 JUMPI PUSH1 0x40 MLOAD PUSH32 0x8C379A000000000000000000000000000000000000000000000000000000000 DUP2 MSTORE PUSH1 0x4 ADD PUSH2 0x27A SWAP1 PUSH2 0x5CE JUMP JUMPDEST PUSH1 0x40 MLOAD DUP1 SWAP2 SUB SWAP1 REVERT JUMPDEST PUSH1 0x1 PUSH1 0x0 SWAP1 SLOAD SWAP1 PUSH2 0x100 EXP SWAP1 DIV PUSH20 0xFFFFFFFFFFFFFFFFFFFFFFFFFFFFFFFFFFFFFFFF AND PUSH20 0xFFFFFFFFFFFFFFFFFFFFFFFFFFFFFFFFFFFFFFFF AND SELFDESTRUCT JUMPDEST PUSH1 0x0 PUSH1 0x20 MSTORE DUP1 PUSH1 0x0 MSTORE PUSH1 0x40 PUSH1 0x0 KECCAK256 PUSH1 0x0 SWAP2 POP SWAP1 POP SLOAD DUP2 JUMP JUMPDEST PUSH1 0x0 DUP1 CALLER PUSH20 0xFFFFFFFFFFFFFFFFFFFFFFFFFFFFFFFFFFFFFFFF AND PUSH20 0xFFFFFFFFFFFFFFFFFFFFFFFFFFFFFFFFFFFFFFFF AND DUP2 MSTORE PUSH1 0x20 ADD SWAP1 DUP2 MSTORE PUSH1 0x20 ADD PUSH1 0x0 KECCAK256 SLOAD DUP2 GT ISZERO PUSH2 0x357 JUMPI PUSH1 0x40 MLOAD PUSH32 0x8C379A000000000000000000000000000000000000000000000000000000000 DUP2 MSTORE PUSH1 0x4 ADD PUSH2 0x34E SWAP1 PUSH2 0x5AE JUMP JUMPDEST PUSH1 0x40 MLOAD DUP1 SWAP2 SUB SWAP1 REVERT JUMPDEST DUP1 PUSH1 0x0 DUP1 CALLER PUSH20 0xFFFFFFFFFFFFFFFFFFFFFFFFFFFFFFFFFFFFFFFF AND PUSH20 0xFFFFFFFFFFFFFFFFFFFFFFFFFFFFFFFFFFFFFFFF AND DUP2 MSTORE PUSH1 0x20 ADD SWAP1 DUP2 MSTORE PUSH1 0x20 ADD PUSH1 0x0 KECCAK256 SLOAD PUSH2 0x3A1 SWAP2 SWAP1 PUSH2 0x670 JUMP JUMPDEST PUSH1 0x0 DUP1 CALLER PUSH20 0xFFFFFFFFFFFFFFFFFFFFFFFFFFFFFFFFFFFFFFFF AND PUSH20 0xFFFFFFFFFFFFFFFFFFFFFFFFFFFFFFFFFFFFFFFF AND DUP2 MSTORE PUSH1 0x20 ADD SWAP1 DUP2 MSTORE PUSH1 0x20 ADD PUSH1 0x0 KECCAK256 SLOAD LT ISZERO PUSH2 0x415 JUMPI PUSH32 0x4E487B7100000000000000000000000000000000000000000000000000000000 PUSH1 0x0 MSTORE PUSH1 0x1 PUSH1 0x4 MSTORE PUSH1 0x24 PUSH1 0x0 REVERT JUMPDEST DUP1 PUSH1 0x0 DUP1 CALLER PUSH20 0xFFFFFFFFFFFFFFFFFFFFFFFFFFFFFFFFFFFFFFFF AND PUSH20 0xFFFFFFFFFFFFFFFFFFFFFFFFFFFFFFFFFFFFFFFF AND DUP2 MSTORE PUSH1 0x20 ADD SWAP1 DUP2 MSTORE PUSH1 0x20 ADD PUSH1 0x0 KECCAK256 PUSH1 0x0 DUP3 DUP3 SLOAD PUSH2 0x463 SWAP2 SWAP1 PUSH2 0x670 JUMP JUMPDEST SWAP3 POP POP DUP2 SWAP1 SSTORE POP DUP2 PUSH20 0xFFFFFFFFFFFFFFFFFFFFFFFFFFFFFFFFFFFFFFFF AND PUSH2 0x8FC DUP3 SWAP1 DUP2 ISZERO MUL SWAP1 PUSH1 0x40 MLOAD PUSH1 0x0 PUSH1 0x40 MLOAD DUP1 DUP4 SUB DUP2 DUP6 DUP9 DUP9 CALL SWAP4 POP POP POP POP ISZERO DUP1 ISZERO PUSH2 0x4B0 JUMPI RETURNDATASIZE PUSH1 0x0 DUP1 RETURNDATACOPY RETURNDATASIZE PUSH1 0x0 REVERT JUMPDEST POP POP POP JUMP JUMPDEST PUSH1 0x0 DUP2 CALLDATALOAD SWAP1 POP PUSH2 0x4C4 DUP2 PUSH2 0x773 JUMP JUMPDEST SWAP3 SWAP2 POP POP JUMP JUMPDEST PUSH1 0x0 DUP2 CALLDATALOAD SWAP1 POP PUSH2 0x4D9 DUP2 PUSH2 0x78A JUMP JUMPDEST SWAP3 SWAP2 POP POP JUMP JUMPDEST PUSH1 0x0 DUP2 CALLDATALOAD SWAP1 POP PUSH2 0x4EE DUP2 PUSH2 0x7A1 JUMP JUMPDEST SWAP3 SWAP2 POP POP JUMP JUMPDEST PUSH1 0x0 PUSH1 0x20 DUP3 DUP5 SUB SLT ISZERO PUSH2 0x506 JUMPI PUSH1 0x0 DUP1 REVERT JUMPDEST PUSH1 0x0 PUSH2 0x514 DUP5 DUP3 DUP6 ADD PUSH2 0x4B5 JUMP JUMPDEST SWAP2 POP POP SWAP3 SWAP2 POP POP JUMP JUMPDEST PUSH1 0x0 DUP1 PUSH1 0x40 DUP4 DUP6 SUB SLT ISZERO PUSH2 0x530 JUMPI PUSH1 0x0 DUP1 REVERT JUMPDEST PUSH1 0x0 PUSH2 0x53E DUP6 DUP3 DUP7 ADD PUSH2 0x4CA JUMP JUMPDEST SWAP3 POP POP PUSH1 0x20 PUSH2 0x54F DUP6 DUP3 DUP7 ADD PUSH2 0x4DF JUMP JUMPDEST SWAP2 POP POP SWAP3 POP SWAP3 SWAP1 POP JUMP JUMPDEST PUSH1 0x0 PUSH2 0x566 PUSH1 0x11 DUP4 PUSH2 0x609 JUMP JUMPDEST SWAP2 POP PUSH2 0x571 DUP3 PUSH2 0x721 JUMP JUMPDEST PUSH1 0x20 DUP3 ADD SWAP1 POP SWAP2 SWAP1 POP JUMP JUMPDEST PUSH1 0x0 PUSH2 0x589 PUSH1 0x15 DUP4 PUSH2 0x609 JUMP JUMPDEST SWAP2 POP PUSH2 0x594 DUP3 PUSH2 0x74A JUMP JUMPDEST PUSH1 0x20 DUP3 ADD SWAP1 POP SWAP2 SWAP1 POP JUMP JUMPDEST PUSH2 0x5A8 DUP2 PUSH2 0x6E8 JUMP JUMPDEST DUP3 MSTORE POP POP JUMP JUMPDEST PUSH1 0x0 PUSH1 0x20 DUP3 ADD SWAP1 POP DUP2 DUP2 SUB PUSH1 0x0 DUP4 ADD MSTORE PUSH2 0x5C7 DUP2 PUSH2 0x559 JUMP JUMPDEST SWAP1 POP SWAP2 SWAP1 POP JUMP JUMPDEST PUSH1 0x0 PUSH1 0x20 DUP3 ADD SWAP1 POP DUP2 DUP2 SUB PUSH1 0x0 DUP4 ADD MSTORE PUSH2 0x5E7 DUP2 PUSH2 0x57C JUMP JUMPDEST SWAP1 POP SWAP2 SWAP1 POP JUMP JUMPDEST PUSH1 0x0 PUSH1 0x20 DUP3 ADD SWAP1 POP PUSH2 0x603 PUSH1 0x0 DUP4 ADD DUP5 PUSH2 0x59F JUMP JUMPDEST SWAP3 SWAP2 POP POP JUMP JUMPDEST PUSH1 0x0 DUP3 DUP3 MSTORE PUSH1 0x20 DUP3 ADD SWAP1 POP SWAP3 SWAP2 POP POP JUMP JUMPDEST PUSH1 0x0 PUSH2 0x625 DUP3 PUSH2 0x6E8 JUMP JUMPDEST SWAP2 POP PUSH2 0x630 DUP4 PUSH2 0x6E8 JUMP JUMPDEST SWAP3 POP DUP3 PUSH32 0xFFFFFFFFFFFFFFFFFFFFFFFFFFFFFFFFFFFFFFFFFFFFFFFFFFFFFFFFFFFFFFFF SUB DUP3 GT ISZERO PUSH2 0x665 JUMPI PUSH2 0x664 PUSH2 0x6F2 JUMP JUMPDEST JUMPDEST DUP3 DUP3 ADD SWAP1 POP SWAP3 SWAP2 POP POP JUMP JUMPDEST PUSH1 0x0 PUSH2 0x67B DUP3 PUSH2 0x6E8 JUMP JUMPDEST SWAP2 POP PUSH2 0x686 DUP4 PUSH2 0x6E8 JUMP JUMPDEST SWAP3 POP DUP3 DUP3 LT ISZERO PUSH2 0x699 JUMPI PUSH2 0x698 PUSH2 0x6F2 JUMP JUMPDEST JUMPDEST DUP3 DUP3 SUB SWAP1 POP SWAP3 SWAP2 POP POP JUMP JUMPDEST PUSH1 0x0 PUSH2 0x6AF DUP3 PUSH2 0x6C8 JUMP JUMPDEST SWAP1 POP SWAP2 SWAP1 POP JUMP JUMPDEST PUSH1 0x0 PUSH2 0x6C1 DUP3 PUSH2 0x6C8 JUMP JUMPDEST SWAP1 POP SWAP2 SWAP1 POP JUMP JUMPDEST PUSH1 0x0 PUSH20 0xFFFFFFFFFFFFFFFFFFFFFFFFFFFFFFFFFFFFFFFF DUP3 AND SWAP1 POP SWAP2 SWAP1 POP JUMP JUMPDEST PUSH1 0x0 DUP2 SWAP1 POP SWAP2 SWAP1 POP JUMP JUMPDEST PUSH32 0x4E487B7100000000000000000000000000000000000000000000000000000000 PUSH1 0x0 MSTORE PUSH1 0x11 PUSH1 0x4 MSTORE PUSH1 0x24 PUSH1 0x0 REVERT JUMPDEST PUSH32 0x6E6F7420656E6F7567682066756E64732E000000000000000000000000000000 PUSH1 0x0 DUP3 ADD MSTORE POP JUMP JUMPDEST PUSH32 0x596F7520617265206E6F7420746865206F776E65720000000000000000000000 PUSH1 0x0 DUP3 ADD MSTORE POP JUMP JUMPDEST PUSH2 0x77C DUP2 PUSH2 0x6A4 JUMP JUMPDEST DUP2 EQ PUSH2 0x787 JUMPI PUSH1 0x0 DUP1 REVERT JUMPDEST POP JUMP JUMPDEST PUSH2 0x793 DUP2 PUSH2 0x6B6 JUMP JUMPDEST DUP2 EQ PUSH2 0x79E JUMPI PUSH1 0x0 DUP1 REVERT JUMPDEST POP JUMP JUMPDEST PUSH2 0x7AA DUP2 PUSH2 0x6E8 JUMP JUMPDEST DUP2 EQ PUSH2 0x7B5 JUMPI PUSH1 0x0 DUP1 REVERT JUMPDEST POP JUMP INVALID LOG2 PUSH5 0x6970667358 0x22 SLT KECCAK256 SWAP5 0x49 EXTCODESIZE 0xC1 0x48 SWAP7 CALLDATALOAD 0xAA CALLDATALOAD 0xE3 ISZERO SWAP5 PUSH28 0x5CEC2A3D0554C387AB5168722EBF857C0CBBB764736F6C6343000803 STOP CALLER "
				},
				"gasEstimates": {
					"creation": {
						"codeDepositCost": "406000",
						"executionCost": "21309",
						"totalCost": "427309"
					},
					"external": {
						"balanceReceived(address)": "1536",
						"destroySmartContract()": "31850",
						"receiveMoney()": "infinite",
						"withdrawMoney(address,uint256)": "infinite"
					}
				},
				"methodIdentifiers": {
					"balanceReceived(address)": "d18a42e1",
					"destroySmartContract()": "85474728",
					"receiveMoney()": "6d26ec18",
					"withdrawMoney(address,uint256)": "f274c897"
				}
			},
			"storageLayout": {
				"storage": [
					{
						"astId": 5,
						"contract": "FunctionExample.sol:FunctionsExample",
						"label": "balanceReceived",
						"offset": 0,
						"slot": "0",
						"type": "t_mapping(t_address,t_uint256)"
					},
					{
						"astId": 7,
						"contract": "FunctionExample.sol:FunctionsExample",
						"label": "owner",
						"offset": 0,
						"slot": "1",
						"type": "t_address_payable"
					}
				],
				"types": {
					"t_address": {
						"encoding": "inplace",
						"label": "address",
						"numberOfBytes": "20"
					},
					"t_address_payable": {
						"encoding": "inplace",
						"label": "address payable",
						"numberOfBytes": "20"
					},
					"t_mapping(t_address,t_uint256)": {
						"encoding": "mapping",
						"key": "t_address",
						"label": "mapping(address => uint256)",
						"numberOfBytes": "32",
						"value": "t_uint256"
					},
					"t_uint256": {
						"encoding": "inplace",
						"label": "uint256",
						"numberOfBytes": "32"
					}
				}
			},
			"userdoc": {
				"kind": "user",
				"methods": {},
				"version": 1
			}
		}
	}
}