{
	"FunctionExample.sol": {
		"FunctionsExample": {
			"abi": [
				{
					"inputs": [],
					"stateMutability": "nonpayable",
					"type": "constructor"
				},
				{
					"inputs": [
						{
							"internalType": "address",
							"name": "",
							"type": "address"
						}
					],
					"name": "balanceReceived",
					"outputs": [
						{
							"internalType": "uint256",
							"name": "",
							"type": "uint256"
						}
					],
					"stateMutability": "view",
					"type": "function"
				},
				{
					"inputs": [],
					"name": "owner",
					"outputs": [
						{
							"internalType": "address payable",
							"name": "",
							"type": "address"
						}
					],
					"stateMutability": "view",
					"type": "function"
				},
				{
					"inputs": [],
					"name": "receiveMoney",
					"outputs": [],
					"stateMutability": "payable",
					"type": "function"
				},
				{
					"inputs": [
						{
							"internalType": "address payable",
							"name": "_to",
							"type": "address"
						},
						{
							"internalType": "uint256",
							"name": "_amount",
							"type": "uint256"
						}
					],
					"name": "withdrawMoney",
					"outputs": [],
					"stateMutability": "nonpayable",
					"type": "function"
				},
				{
					"stateMutability": "payable",
					"type": "receive"
				}
			],
			"devdoc": {
				"kind": "dev",
				"methods": {},
				"version": 1
			},
			"evm": {
				"assembly": "    /* \"FunctionExample.sol\":58:815  contract FunctionsExample {... */\n  mstore(0x40, 0x80)\n    /* \"FunctionExample.sol\":179:237  constructor() {... */\n  callvalue\n  dup1\n  iszero\n  tag_1\n  jumpi\n  0x00\n  dup1\n  revert\ntag_1:\n  pop\n    /* \"FunctionExample.sol\":219:229  msg.sender */\n  caller\n    /* \"FunctionExample.sol\":203:208  owner */\n  0x01\n  0x00\n    /* \"FunctionExample.sol\":203:230  owner = payable(msg.sender) */\n  0x0100\n  exp\n  dup2\n  sload\n  dup2\n  0xffffffffffffffffffffffffffffffffffffffff\n  mul\n  not\n  and\n  swap1\n  dup4\n  0xffffffffffffffffffffffffffffffffffffffff\n  and\n  mul\n  or\n  swap1\n  sstore\n  pop\n    /* \"FunctionExample.sol\":58:815  contract FunctionsExample {... */\n  dataSize(sub_0)\n  dup1\n  dataOffset(sub_0)\n  0x00\n  codecopy\n  0x00\n  return\nstop\n\nsub_0: assembly {\n        /* \"FunctionExample.sol\":58:815  contract FunctionsExample {... */\n      mstore(0x40, 0x80)\n      jumpi(tag_1, lt(calldatasize, 0x04))\n      shr(0xe0, calldataload(0x00))\n      dup1\n      0x6d26ec18\n      eq\n      tag_3\n      jumpi\n      dup1\n      0x8da5cb5b\n      eq\n      tag_4\n      jumpi\n      dup1\n      0xd18a42e1\n      eq\n      tag_5\n      jumpi\n      dup1\n      0xf274c897\n      eq\n      tag_6\n      jumpi\n      jump(tag_2)\n    tag_1:\n      jumpi(tag_2, calldatasize)\n        /* \"FunctionExample.sol\":792:806  receiveMoney() */\n      tag_9\n        /* \"FunctionExample.sol\":792:804  receiveMoney */\n      tag_10\n        /* \"FunctionExample.sol\":792:806  receiveMoney() */\n      jump\t// in\n    tag_9:\n        /* \"FunctionExample.sol\":58:815  contract FunctionsExample {... */\n      stop\n    tag_2:\n      0x00\n      dup1\n      revert\n        /* \"FunctionExample.sol\":243:427  function receiveMoney() public payable {... */\n    tag_3:\n      tag_11\n      tag_10\n      jump\t// in\n    tag_11:\n      stop\n        /* \"FunctionExample.sol\":144:172  address payable public owner */\n    tag_4:\n      callvalue\n      dup1\n      iszero\n      tag_12\n      jumpi\n      0x00\n      dup1\n      revert\n    tag_12:\n      pop\n      tag_13\n      tag_14\n      jump\t// in\n    tag_13:\n      mload(0x40)\n      tag_15\n      swap2\n      swap1\n      tag_16\n      jump\t// in\n    tag_15:\n      mload(0x40)\n      dup1\n      swap2\n      sub\n      swap1\n      return\n        /* \"FunctionExample.sol\":91:138  mapping(address => uint) public balanceReceived */\n    tag_5:\n      callvalue\n      dup1\n      iszero\n      tag_17\n      jumpi\n      0x00\n      dup1\n      revert\n    tag_17:\n      pop\n      tag_18\n      0x04\n      dup1\n      calldatasize\n      sub\n      dup2\n      add\n      swap1\n      tag_19\n      swap2\n      swap1\n      tag_20\n      jump\t// in\n    tag_19:\n      tag_21\n      jump\t// in\n    tag_18:\n      mload(0x40)\n      tag_22\n      swap2\n      swap1\n      tag_23\n      jump\t// in\n    tag_22:\n      mload(0x40)\n      dup1\n      swap2\n      sub\n      swap1\n      return\n        /* \"FunctionExample.sol\":433:748  function withdrawMoney(address payable _to, uint _amount) public {... */\n    tag_6:\n      callvalue\n      dup1\n      iszero\n      tag_24\n      jumpi\n      0x00\n      dup1\n      revert\n    tag_24:\n      pop\n      tag_25\n      0x04\n      dup1\n      calldatasize\n      sub\n      dup2\n      add\n      swap1\n      tag_26\n      swap2\n      swap1\n      tag_27\n      jump\t// in\n    tag_26:\n      tag_28\n      jump\t// in\n    tag_25:\n      stop\n        /* \"FunctionExample.sol\":243:427  function receiveMoney() public payable {... */\n    tag_10:\n        /* \"FunctionExample.sol\":342:357  balanceReceived */\n      0x00\n        /* \"FunctionExample.sol\":342:369  balanceReceived[msg.sender] */\n      dup1\n        /* \"FunctionExample.sol\":358:368  msg.sender */\n      caller\n        /* \"FunctionExample.sol\":342:369  balanceReceived[msg.sender] */\n      0xffffffffffffffffffffffffffffffffffffffff\n      and\n      0xffffffffffffffffffffffffffffffffffffffff\n      and\n      dup2\n      mstore\n      0x20\n      add\n      swap1\n      dup2\n      mstore\n      0x20\n      add\n      0x00\n      keccak256\n      sload\n        /* \"FunctionExample.sol\":329:338  msg.value */\n      callvalue\n        /* \"FunctionExample.sol\":299:314  balanceReceived */\n      0x00\n        /* \"FunctionExample.sol\":299:326  balanceReceived[msg.sender] */\n      dup1\n        /* \"FunctionExample.sol\":315:325  msg.sender */\n      caller\n        /* \"FunctionExample.sol\":299:326  balanceReceived[msg.sender] */\n      0xffffffffffffffffffffffffffffffffffffffff\n      and\n      0xffffffffffffffffffffffffffffffffffffffff\n      and\n      dup2\n      mstore\n      0x20\n      add\n      swap1\n      dup2\n      mstore\n      0x20\n      add\n      0x00\n      keccak256\n      sload\n        /* \"FunctionExample.sol\":299:338  balanceReceived[msg.sender] + msg.value */\n      tag_30\n      swap2\n      swap1\n      tag_31\n      jump\t// in\n    tag_30:\n        /* \"FunctionExample.sol\":299:369  balanceReceived[msg.sender] + msg.value >= balanceReceived[msg.sender] */\n      lt\n      iszero\n        /* \"FunctionExample.sol\":292:370  assert(balanceReceived[msg.sender] + msg.value >= balanceReceived[msg.sender]) */\n      tag_32\n      jumpi\n      mstore(0x00, 0x4e487b7100000000000000000000000000000000000000000000000000000000)\n      mstore(0x04, 0x01)\n      revert(0x00, 0x24)\n    tag_32:\n        /* \"FunctionExample.sol\":411:420  msg.value */\n      callvalue\n        /* \"FunctionExample.sol\":380:395  balanceReceived */\n      0x00\n        /* \"FunctionExample.sol\":380:407  balanceReceived[msg.sender] */\n      dup1\n        /* \"FunctionExample.sol\":396:406  msg.sender */\n      caller\n        /* \"FunctionExample.sol\":380:407  balanceReceived[msg.sender] */\n      0xffffffffffffffffffffffffffffffffffffffff\n      and\n      0xffffffffffffffffffffffffffffffffffffffff\n      and\n      dup2\n      mstore\n      0x20\n      add\n      swap1\n      dup2\n      mstore\n      0x20\n      add\n      0x00\n      keccak256\n      0x00\n        /* \"FunctionExample.sol\":380:420  balanceReceived[msg.sender] += msg.value */\n      dup3\n      dup3\n      sload\n      tag_33\n      swap2\n      swap1\n      tag_31\n      jump\t// in\n    tag_33:\n      swap3\n      pop\n      pop\n      dup2\n      swap1\n      sstore\n      pop\n        /* \"FunctionExample.sol\":243:427  function receiveMoney() public payable {... */\n      jump\t// out\n        /* \"FunctionExample.sol\":144:172  address payable public owner */\n    tag_14:\n      0x01\n      0x00\n      swap1\n      sload\n      swap1\n      0x0100\n      exp\n      swap1\n      div\n      0xffffffffffffffffffffffffffffffffffffffff\n      and\n      dup2\n      jump\t// out\n        /* \"FunctionExample.sol\":91:138  mapping(address => uint) public balanceReceived */\n    tag_21:\n      mstore(0x20, 0x00)\n      dup1\n      0x00\n      mstore\n      keccak256(0x00, 0x40)\n      0x00\n      swap2\n      pop\n      swap1\n      pop\n      sload\n      dup2\n      jump\t// out\n        /* \"FunctionExample.sol\":433:748  function withdrawMoney(address payable _to, uint _amount) public {... */\n    tag_28:\n        /* \"FunctionExample.sol\":527:542  balanceReceived */\n      0x00\n        /* \"FunctionExample.sol\":527:554  balanceReceived[msg.sender] */\n      dup1\n        /* \"FunctionExample.sol\":543:553  msg.sender */\n      caller\n        /* \"FunctionExample.sol\":527:554  balanceReceived[msg.sender] */\n      0xffffffffffffffffffffffffffffffffffffffff\n      and\n      0xffffffffffffffffffffffffffffffffffffffff\n      and\n      dup2\n      mstore\n      0x20\n      add\n      swap1\n      dup2\n      mstore\n      0x20\n      add\n      0x00\n      keccak256\n      sload\n        /* \"FunctionExample.sol\":516:523  _amount */\n      dup2\n        /* \"FunctionExample.sol\":516:554  _amount <= balanceReceived[msg.sender] */\n      gt\n      iszero\n        /* \"FunctionExample.sol\":508:576  require(_amount <= balanceReceived[msg.sender], \"not enough funds.\") */\n      tag_35\n      jumpi\n      mload(0x40)\n      0x08c379a000000000000000000000000000000000000000000000000000000000\n      dup2\n      mstore\n      0x04\n      add\n      tag_36\n      swap1\n      tag_37\n      jump\t// in\n    tag_36:\n      mload(0x40)\n      dup1\n      swap2\n      sub\n      swap1\n      revert\n    tag_35:\n        /* \"FunctionExample.sol\":654:661  _amount */\n      dup1\n        /* \"FunctionExample.sol\":624:639  balanceReceived */\n      0x00\n        /* \"FunctionExample.sol\":624:651  balanceReceived[msg.sender] */\n      dup1\n        /* \"FunctionExample.sol\":640:650  msg.sender */\n      caller\n        /* \"FunctionExample.sol\":624:651  balanceReceived[msg.sender] */\n      0xffffffffffffffffffffffffffffffffffffffff\n      and\n      0xffffffffffffffffffffffffffffffffffffffff\n      and\n      dup2\n      mstore\n      0x20\n      add\n      swap1\n      dup2\n      mstore\n      0x20\n      add\n      0x00\n      keccak256\n      sload\n        /* \"FunctionExample.sol\":624:661  balanceReceived[msg.sender] - _amount */\n      tag_38\n      swap2\n      swap1\n      tag_39\n      jump\t// in\n    tag_38:\n        /* \"FunctionExample.sol\":593:608  balanceReceived */\n      0x00\n        /* \"FunctionExample.sol\":593:620  balanceReceived[msg.sender] */\n      dup1\n        /* \"FunctionExample.sol\":609:619  msg.sender */\n      caller\n        /* \"FunctionExample.sol\":593:620  balanceReceived[msg.sender] */\n      0xffffffffffffffffffffffffffffffffffffffff\n      and\n      0xffffffffffffffffffffffffffffffffffffffff\n      and\n      dup2\n      mstore\n      0x20\n      add\n      swap1\n      dup2\n      mstore\n      0x20\n      add\n      0x00\n      keccak256\n      sload\n        /* \"FunctionExample.sol\":593:661  balanceReceived[msg.sender] >= balanceReceived[msg.sender] - _amount */\n      lt\n      iszero\n        /* \"FunctionExample.sol\":586:662  assert(balanceReceived[msg.sender] >= balanceReceived[msg.sender] - _amount) */\n      tag_40\n      jumpi\n      mstore(0x00, 0x4e487b7100000000000000000000000000000000000000000000000000000000)\n      mstore(0x04, 0x01)\n      revert(0x00, 0x24)\n    tag_40:\n        /* \"FunctionExample.sol\":703:710  _amount */\n      dup1\n        /* \"FunctionExample.sol\":672:687  balanceReceived */\n      0x00\n        /* \"FunctionExample.sol\":672:699  balanceReceived[msg.sender] */\n      dup1\n        /* \"FunctionExample.sol\":688:698  msg.sender */\n      caller\n        /* \"FunctionExample.sol\":672:699  balanceReceived[msg.sender] */\n      0xffffffffffffffffffffffffffffffffffffffff\n      and\n      0xffffffffffffffffffffffffffffffffffffffff\n      and\n      dup2\n      mstore\n      0x20\n      add\n      swap1\n      dup2\n      mstore\n      0x20\n      add\n      0x00\n      keccak256\n      0x00\n        /* \"FunctionExample.sol\":672:710  balanceReceived[msg.sender] -= _amount */\n      dup3\n      dup3\n      sload\n      tag_41\n      swap2\n      swap1\n      tag_39\n      jump\t// in\n    tag_41:\n      swap3\n      pop\n      pop\n      dup2\n      swap1\n      sstore\n      pop\n        /* \"FunctionExample.sol\":720:723  _to */\n      dup2\n        /* \"FunctionExample.sol\":720:732  _to.transfer */\n      0xffffffffffffffffffffffffffffffffffffffff\n      and\n        /* \"FunctionExample.sol\":720:741  _to.transfer(_amount) */\n      0x08fc\n        /* \"FunctionExample.sol\":733:740  _amount */\n      dup3\n        /* \"FunctionExample.sol\":720:741  _to.transfer(_amount) */\n      swap1\n      dup2\n      iszero\n      mul\n      swap1\n      mload(0x40)\n      0x00\n      mload(0x40)\n      dup1\n      dup4\n      sub\n      dup2\n      dup6\n      dup9\n      dup9\n      call\n      swap4\n      pop\n      pop\n      pop\n      pop\n      iszero\n      dup1\n      iszero\n      tag_43\n      jumpi\n      returndatasize\n      0x00\n      dup1\n      returndatacopy\n      revert(0x00, returndatasize)\n    tag_43:\n      pop\n        /* \"FunctionExample.sol\":433:748  function withdrawMoney(address payable _to, uint _amount) public {... */\n      pop\n      pop\n      jump\t// out\n        /* \"#utility.yul\":7:146   */\n    tag_45:\n      0x00\n        /* \"#utility.yul\":91:97   */\n      dup2\n        /* \"#utility.yul\":78:98   */\n      calldataload\n        /* \"#utility.yul\":69:98   */\n      swap1\n      pop\n        /* \"#utility.yul\":107:140   */\n      tag_47\n        /* \"#utility.yul\":134:139   */\n      dup2\n        /* \"#utility.yul\":107:140   */\n      tag_48\n      jump\t// in\n    tag_47:\n        /* \"#utility.yul\":59:146   */\n      swap3\n      swap2\n      pop\n      pop\n      jump\t// out\n        /* \"#utility.yul\":152:307   */\n    tag_49:\n      0x00\n        /* \"#utility.yul\":244:250   */\n      dup2\n        /* \"#utility.yul\":231:251   */\n      calldataload\n        /* \"#utility.yul\":222:251   */\n      swap1\n      pop\n        /* \"#utility.yul\":260:301   */\n      tag_51\n        /* \"#utility.yul\":295:300   */\n      dup2\n        /* \"#utility.yul\":260:301   */\n      tag_52\n      jump\t// in\n    tag_51:\n        /* \"#utility.yul\":212:307   */\n      swap3\n      swap2\n      pop\n      pop\n      jump\t// out\n        /* \"#utility.yul\":313:452   */\n    tag_53:\n      0x00\n        /* \"#utility.yul\":397:403   */\n      dup2\n        /* \"#utility.yul\":384:404   */\n      calldataload\n        /* \"#utility.yul\":375:404   */\n      swap1\n      pop\n        /* \"#utility.yul\":413:446   */\n      tag_55\n        /* \"#utility.yul\":440:445   */\n      dup2\n        /* \"#utility.yul\":413:446   */\n      tag_56\n      jump\t// in\n    tag_55:\n        /* \"#utility.yul\":365:452   */\n      swap3\n      swap2\n      pop\n      pop\n      jump\t// out\n        /* \"#utility.yul\":458:720   */\n    tag_20:\n      0x00\n        /* \"#utility.yul\":566:568   */\n      0x20\n        /* \"#utility.yul\":554:563   */\n      dup3\n        /* \"#utility.yul\":545:552   */\n      dup5\n        /* \"#utility.yul\":541:564   */\n      sub\n        /* \"#utility.yul\":537:569   */\n      slt\n        /* \"#utility.yul\":534:536   */\n      iszero\n      tag_58\n      jumpi\n        /* \"#utility.yul\":582:583   */\n      0x00\n        /* \"#utility.yul\":579:580   */\n      dup1\n        /* \"#utility.yul\":572:584   */\n      revert\n        /* \"#utility.yul\":534:536   */\n    tag_58:\n        /* \"#utility.yul\":625:626   */\n      0x00\n        /* \"#utility.yul\":650:703   */\n      tag_59\n        /* \"#utility.yul\":695:702   */\n      dup5\n        /* \"#utility.yul\":686:692   */\n      dup3\n        /* \"#utility.yul\":675:684   */\n      dup6\n        /* \"#utility.yul\":671:693   */\n      add\n        /* \"#utility.yul\":650:703   */\n      tag_45\n      jump\t// in\n    tag_59:\n        /* \"#utility.yul\":640:703   */\n      swap2\n      pop\n        /* \"#utility.yul\":596:713   */\n      pop\n        /* \"#utility.yul\":524:720   */\n      swap3\n      swap2\n      pop\n      pop\n      jump\t// out\n        /* \"#utility.yul\":726:1149   */\n    tag_27:\n      0x00\n      dup1\n        /* \"#utility.yul\":859:861   */\n      0x40\n        /* \"#utility.yul\":847:856   */\n      dup4\n        /* \"#utility.yul\":838:845   */\n      dup6\n        /* \"#utility.yul\":834:857   */\n      sub\n        /* \"#utility.yul\":830:862   */\n      slt\n        /* \"#utility.yul\":827:829   */\n      iszero\n      tag_61\n      jumpi\n        /* \"#utility.yul\":875:876   */\n      0x00\n        /* \"#utility.yul\":872:873   */\n      dup1\n        /* \"#utility.yul\":865:877   */\n      revert\n        /* \"#utility.yul\":827:829   */\n    tag_61:\n        /* \"#utility.yul\":918:919   */\n      0x00\n        /* \"#utility.yul\":943:1004   */\n      tag_62\n        /* \"#utility.yul\":996:1003   */\n      dup6\n        /* \"#utility.yul\":987:993   */\n      dup3\n        /* \"#utility.yul\":976:985   */\n      dup7\n        /* \"#utility.yul\":972:994   */\n      add\n        /* \"#utility.yul\":943:1004   */\n      tag_49\n      jump\t// in\n    tag_62:\n        /* \"#utility.yul\":933:1004   */\n      swap3\n      pop\n        /* \"#utility.yul\":889:1014   */\n      pop\n        /* \"#utility.yul\":1053:1055   */\n      0x20\n        /* \"#utility.yul\":1079:1132   */\n      tag_63\n        /* \"#utility.yul\":1124:1131   */\n      dup6\n        /* \"#utility.yul\":1115:1121   */\n      dup3\n        /* \"#utility.yul\":1104:1113   */\n      dup7\n        /* \"#utility.yul\":1100:1122   */\n      add\n        /* \"#utility.yul\":1079:1132   */\n      tag_53\n      jump\t// in\n    tag_63:\n        /* \"#utility.yul\":1069:1132   */\n      swap2\n      pop\n        /* \"#utility.yul\":1024:1142   */\n      pop\n        /* \"#utility.yul\":817:1149   */\n      swap3\n      pop\n      swap3\n      swap1\n      pop\n      jump\t// out\n        /* \"#utility.yul\":1155:1297   */\n    tag_64:\n        /* \"#utility.yul\":1258:1290   */\n      tag_66\n        /* \"#utility.yul\":1284:1289   */\n      dup2\n        /* \"#utility.yul\":1258:1290   */\n      tag_67\n      jump\t// in\n    tag_66:\n        /* \"#utility.yul\":1253:1256   */\n      dup3\n        /* \"#utility.yul\":1246:1291   */\n      mstore\n        /* \"#utility.yul\":1236:1297   */\n      pop\n      pop\n      jump\t// out\n        /* \"#utility.yul\":1303:1669   */\n    tag_68:\n      0x00\n        /* \"#utility.yul\":1466:1533   */\n      tag_70\n        /* \"#utility.yul\":1530:1532   */\n      0x11\n        /* \"#utility.yul\":1525:1528   */\n      dup4\n        /* \"#utility.yul\":1466:1533   */\n      tag_71\n      jump\t// in\n    tag_70:\n        /* \"#utility.yul\":1459:1533   */\n      swap2\n      pop\n        /* \"#utility.yul\":1542:1635   */\n      tag_72\n        /* \"#utility.yul\":1631:1634   */\n      dup3\n        /* \"#utility.yul\":1542:1635   */\n      tag_73\n      jump\t// in\n    tag_72:\n        /* \"#utility.yul\":1660:1662   */\n      0x20\n        /* \"#utility.yul\":1655:1658   */\n      dup3\n        /* \"#utility.yul\":1651:1663   */\n      add\n        /* \"#utility.yul\":1644:1663   */\n      swap1\n      pop\n        /* \"#utility.yul\":1449:1669   */\n      swap2\n      swap1\n      pop\n      jump\t// out\n        /* \"#utility.yul\":1675:1793   */\n    tag_74:\n        /* \"#utility.yul\":1762:1786   */\n      tag_76\n        /* \"#utility.yul\":1780:1785   */\n      dup2\n        /* \"#utility.yul\":1762:1786   */\n      tag_77\n      jump\t// in\n    tag_76:\n        /* \"#utility.yul\":1757:1760   */\n      dup3\n        /* \"#utility.yul\":1750:1787   */\n      mstore\n        /* \"#utility.yul\":1740:1793   */\n      pop\n      pop\n      jump\t// out\n        /* \"#utility.yul\":1799:2053   */\n    tag_16:\n      0x00\n        /* \"#utility.yul\":1946:1948   */\n      0x20\n        /* \"#utility.yul\":1935:1944   */\n      dup3\n        /* \"#utility.yul\":1931:1949   */\n      add\n        /* \"#utility.yul\":1923:1949   */\n      swap1\n      pop\n        /* \"#utility.yul\":1959:2046   */\n      tag_79\n        /* \"#utility.yul\":2043:2044   */\n      0x00\n        /* \"#utility.yul\":2032:2041   */\n      dup4\n        /* \"#utility.yul\":2028:2045   */\n      add\n        /* \"#utility.yul\":2019:2025   */\n      dup5\n        /* \"#utility.yul\":1959:2046   */\n      tag_64\n      jump\t// in\n    tag_79:\n        /* \"#utility.yul\":1913:2053   */\n      swap3\n      swap2\n      pop\n      pop\n      jump\t// out\n        /* \"#utility.yul\":2059:2478   */\n    tag_37:\n      0x00\n        /* \"#utility.yul\":2263:2265   */\n      0x20\n        /* \"#utility.yul\":2252:2261   */\n      dup3\n        /* \"#utility.yul\":2248:2266   */\n      add\n        /* \"#utility.yul\":2240:2266   */\n      swap1\n      pop\n        /* \"#utility.yul\":2312:2321   */\n      dup2\n        /* \"#utility.yul\":2306:2310   */\n      dup2\n        /* \"#utility.yul\":2302:2322   */\n      sub\n        /* \"#utility.yul\":2298:2299   */\n      0x00\n        /* \"#utility.yul\":2287:2296   */\n      dup4\n        /* \"#utility.yul\":2283:2300   */\n      add\n        /* \"#utility.yul\":2276:2323   */\n      mstore\n        /* \"#utility.yul\":2340:2471   */\n      tag_81\n        /* \"#utility.yul\":2466:2470   */\n      dup2\n        /* \"#utility.yul\":2340:2471   */\n      tag_68\n      jump\t// in\n    tag_81:\n        /* \"#utility.yul\":2332:2471   */\n      swap1\n      pop\n        /* \"#utility.yul\":2230:2478   */\n      swap2\n      swap1\n      pop\n      jump\t// out\n        /* \"#utility.yul\":2484:2706   */\n    tag_23:\n      0x00\n        /* \"#utility.yul\":2615:2617   */\n      0x20\n        /* \"#utility.yul\":2604:2613   */\n      dup3\n        /* \"#utility.yul\":2600:2618   */\n      add\n        /* \"#utility.yul\":2592:2618   */\n      swap1\n      pop\n        /* \"#utility.yul\":2628:2699   */\n      tag_83\n        /* \"#utility.yul\":2696:2697   */\n      0x00\n        /* \"#utility.yul\":2685:2694   */\n      dup4\n        /* \"#utility.yul\":2681:2698   */\n      add\n        /* \"#utility.yul\":2672:2678   */\n      dup5\n        /* \"#utility.yul\":2628:2699   */\n      tag_74\n      jump\t// in\n    tag_83:\n        /* \"#utility.yul\":2582:2706   */\n      swap3\n      swap2\n      pop\n      pop\n      jump\t// out\n        /* \"#utility.yul\":2712:2881   */\n    tag_71:\n      0x00\n        /* \"#utility.yul\":2830:2836   */\n      dup3\n        /* \"#utility.yul\":2825:2828   */\n      dup3\n        /* \"#utility.yul\":2818:2837   */\n      mstore\n        /* \"#utility.yul\":2870:2874   */\n      0x20\n        /* \"#utility.yul\":2865:2868   */\n      dup3\n        /* \"#utility.yul\":2861:2875   */\n      add\n        /* \"#utility.yul\":2846:2875   */\n      swap1\n      pop\n        /* \"#utility.yul\":2808:2881   */\n      swap3\n      swap2\n      pop\n      pop\n      jump\t// out\n        /* \"#utility.yul\":2887:3192   */\n    tag_31:\n      0x00\n        /* \"#utility.yul\":2946:2966   */\n      tag_86\n        /* \"#utility.yul\":2964:2965   */\n      dup3\n        /* \"#utility.yul\":2946:2966   */\n      tag_77\n      jump\t// in\n    tag_86:\n        /* \"#utility.yul\":2941:2966   */\n      swap2\n      pop\n        /* \"#utility.yul\":2980:3000   */\n      tag_87\n        /* \"#utility.yul\":2998:2999   */\n      dup4\n        /* \"#utility.yul\":2980:3000   */\n      tag_77\n      jump\t// in\n    tag_87:\n        /* \"#utility.yul\":2975:3000   */\n      swap3\n      pop\n        /* \"#utility.yul\":3134:3135   */\n      dup3\n        /* \"#utility.yul\":3066:3132   */\n      0xffffffffffffffffffffffffffffffffffffffffffffffffffffffffffffffff\n        /* \"#utility.yul\":3062:3136   */\n      sub\n        /* \"#utility.yul\":3059:3060   */\n      dup3\n        /* \"#utility.yul\":3056:3137   */\n      gt\n        /* \"#utility.yul\":3053:3055   */\n      iszero\n      tag_88\n      jumpi\n        /* \"#utility.yul\":3140:3158   */\n      tag_89\n      tag_90\n      jump\t// in\n    tag_89:\n        /* \"#utility.yul\":3053:3055   */\n    tag_88:\n        /* \"#utility.yul\":3184:3185   */\n      dup3\n        /* \"#utility.yul\":3181:3182   */\n      dup3\n        /* \"#utility.yul\":3177:3186   */\n      add\n        /* \"#utility.yul\":3170:3186   */\n      swap1\n      pop\n        /* \"#utility.yul\":2931:3192   */\n      swap3\n      swap2\n      pop\n      pop\n      jump\t// out\n        /* \"#utility.yul\":3198:3389   */\n    tag_39:\n      0x00\n        /* \"#utility.yul\":3258:3278   */\n      tag_92\n        /* \"#utility.yul\":3276:3277   */\n      dup3\n        /* \"#utility.yul\":3258:3278   */\n      tag_77\n      jump\t// in\n    tag_92:\n        /* \"#utility.yul\":3253:3278   */\n      swap2\n      pop\n        /* \"#utility.yul\":3292:3312   */\n      tag_93\n        /* \"#utility.yul\":3310:3311   */\n      dup4\n        /* \"#utility.yul\":3292:3312   */\n      tag_77\n      jump\t// in\n    tag_93:\n        /* \"#utility.yul\":3287:3312   */\n      swap3\n      pop\n        /* \"#utility.yul\":3331:3332   */\n      dup3\n        /* \"#utility.yul\":3328:3329   */\n      dup3\n        /* \"#utility.yul\":3325:3333   */\n      lt\n        /* \"#utility.yul\":3322:3324   */\n      iszero\n      tag_94\n      jumpi\n        /* \"#utility.yul\":3336:3354   */\n      tag_95\n      tag_90\n      jump\t// in\n    tag_95:\n        /* \"#utility.yul\":3322:3324   */\n    tag_94:\n        /* \"#utility.yul\":3381:3382   */\n      dup3\n        /* \"#utility.yul\":3378:3379   */\n      dup3\n        /* \"#utility.yul\":3374:3383   */\n      sub\n        /* \"#utility.yul\":3366:3383   */\n      swap1\n      pop\n        /* \"#utility.yul\":3243:3389   */\n      swap3\n      swap2\n      pop\n      pop\n      jump\t// out\n        /* \"#utility.yul\":3395:3491   */\n    tag_96:\n      0x00\n        /* \"#utility.yul\":3461:3485   */\n      tag_98\n        /* \"#utility.yul\":3479:3484   */\n      dup3\n        /* \"#utility.yul\":3461:3485   */\n      tag_99\n      jump\t// in\n    tag_98:\n        /* \"#utility.yul\":3450:3485   */\n      swap1\n      pop\n        /* \"#utility.yul\":3440:3491   */\n      swap2\n      swap1\n      pop\n      jump\t// out\n        /* \"#utility.yul\":3497:3601   */\n    tag_67:\n      0x00\n        /* \"#utility.yul\":3571:3595   */\n      tag_101\n        /* \"#utility.yul\":3589:3594   */\n      dup3\n        /* \"#utility.yul\":3571:3595   */\n      tag_99\n      jump\t// in\n    tag_101:\n        /* \"#utility.yul\":3560:3595   */\n      swap1\n      pop\n        /* \"#utility.yul\":3550:3601   */\n      swap2\n      swap1\n      pop\n      jump\t// out\n        /* \"#utility.yul\":3607:3733   */\n    tag_99:\n      0x00\n        /* \"#utility.yul\":3684:3726   */\n      0xffffffffffffffffffffffffffffffffffffffff\n        /* \"#utility.yul\":3677:3682   */\n      dup3\n        /* \"#utility.yul\":3673:3727   */\n      and\n        /* \"#utility.yul\":3662:3727   */\n      swap1\n      pop\n        /* \"#utility.yul\":3652:3733   */\n      swap2\n      swap1\n      pop\n      jump\t// out\n        /* \"#utility.yul\":3739:3816   */\n    tag_77:\n      0x00\n        /* \"#utility.yul\":3805:3810   */\n      dup2\n        /* \"#utility.yul\":3794:3810   */\n      swap1\n      pop\n        /* \"#utility.yul\":3784:3816   */\n      swap2\n      swap1\n      pop\n      jump\t// out\n        /* \"#utility.yul\":3822:4002   */\n    tag_90:\n        /* \"#utility.yul\":3870:3947   */\n      0x4e487b7100000000000000000000000000000000000000000000000000000000\n        /* \"#utility.yul\":3867:3868   */\n      0x00\n        /* \"#utility.yul\":3860:3948   */\n      mstore\n        /* \"#utility.yul\":3967:3971   */\n      0x11\n        /* \"#utility.yul\":3964:3965   */\n      0x04\n        /* \"#utility.yul\":3957:3972   */\n      mstore\n        /* \"#utility.yul\":3991:3995   */\n      0x24\n        /* \"#utility.yul\":3988:3989   */\n      0x00\n        /* \"#utility.yul\":3981:3996   */\n      revert\n        /* \"#utility.yul\":4008:4175   */\n    tag_73:\n        /* \"#utility.yul\":4148:4167   */\n      0x6e6f7420656e6f7567682066756e64732e000000000000000000000000000000\n        /* \"#utility.yul\":4144:4145   */\n      0x00\n        /* \"#utility.yul\":4136:4142   */\n      dup3\n        /* \"#utility.yul\":4132:4146   */\n      add\n        /* \"#utility.yul\":4125:4168   */\n      mstore\n        /* \"#utility.yul\":4114:4175   */\n      pop\n      jump\t// out\n        /* \"#utility.yul\":4181:4303   */\n    tag_48:\n        /* \"#utility.yul\":4254:4278   */\n      tag_107\n        /* \"#utility.yul\":4272:4277   */\n      dup2\n        /* \"#utility.yul\":4254:4278   */\n      tag_96\n      jump\t// in\n    tag_107:\n        /* \"#utility.yul\":4247:4252   */\n      dup2\n        /* \"#utility.yul\":4244:4279   */\n      eq\n        /* \"#utility.yul\":4234:4236   */\n      tag_108\n      jumpi\n        /* \"#utility.yul\":4293:4294   */\n      0x00\n        /* \"#utility.yul\":4290:4291   */\n      dup1\n        /* \"#utility.yul\":4283:4295   */\n      revert\n        /* \"#utility.yul\":4234:4236   */\n    tag_108:\n        /* \"#utility.yul\":4224:4303   */\n      pop\n      jump\t// out\n        /* \"#utility.yul\":4309:4447   */\n    tag_52:\n        /* \"#utility.yul\":4390:4422   */\n      tag_110\n        /* \"#utility.yul\":4416:4421   */\n      dup2\n        /* \"#utility.yul\":4390:4422   */\n      tag_67\n      jump\t// in\n    tag_110:\n        /* \"#utility.yul\":4383:4388   */\n      dup2\n        /* \"#utility.yul\":4380:4423   */\n      eq\n        /* \"#utility.yul\":4370:4372   */\n      tag_111\n      jumpi\n        /* \"#utility.yul\":4437:4438   */\n      0x00\n        /* \"#utility.yul\":4434:4435   */\n      dup1\n        /* \"#utility.yul\":4427:4439   */\n      revert\n        /* \"#utility.yul\":4370:4372   */\n    tag_111:\n        /* \"#utility.yul\":4360:4447   */\n      pop\n      jump\t// out\n        /* \"#utility.yul\":4453:4575   */\n    tag_56:\n        /* \"#utility.yul\":4526:4550   */\n      tag_113\n        /* \"#utility.yul\":4544:4549   */\n      dup2\n        /* \"#utility.yul\":4526:4550   */\n      tag_77\n      jump\t// in\n    tag_113:\n        /* \"#utility.yul\":4519:4524   */\n      dup2\n        /* \"#utility.yul\":4516:4551   */\n      eq\n        /* \"#utility.yul\":4506:4508   */\n      tag_114\n      jumpi\n        /* \"#utility.yul\":4565:4566   */\n      0x00\n        /* \"#utility.yul\":4562:4563   */\n      dup1\n        /* \"#utility.yul\":4555:4567   */\n      revert\n        /* \"#utility.yul\":4506:4508   */\n    tag_114:\n        /* \"#utility.yul\":4496:4575   */\n      pop\n      jump\t// out\n\n    auxdata: 0xa2646970667358221220db07f491aeb02515bba5f256e34fa69bc76cb68303c13939ed680bf9f6f44d9364736f6c63430008030033\n}\n",
				"bytecode": {
					"linkReferences": {},
					"object": "608060405234801561001057600080fd5b5033600160006101000a81548173ffffffffffffffffffffffffffffffffffffffff021916908373ffffffffffffffffffffffffffffffffffffffff16021790555061071b806100616000396000f3fe6080604052600436106100435760003560e01c80636d26ec18146100575780638da5cb5b14610061578063d18a42e11461008c578063f274c897146100c957610052565b36610052576100506100f2565b005b600080fd5b61005f6100f2565b005b34801561006d57600080fd5b50610076610207565b6040516100839190610509565b60405180910390f35b34801561009857600080fd5b506100b360048036038101906100ae9190610463565b61022d565b6040516100c09190610544565b60405180910390f35b3480156100d557600080fd5b506100f060048036038101906100eb919061048c565b610245565b005b6000803373ffffffffffffffffffffffffffffffffffffffff1673ffffffffffffffffffffffffffffffffffffffff16815260200190815260200160002054346000803373ffffffffffffffffffffffffffffffffffffffff1673ffffffffffffffffffffffffffffffffffffffff1681526020019081526020016000205461017b9190610570565b10156101b0577f4e487b7100000000000000000000000000000000000000000000000000000000600052600160045260246000fd5b346000803373ffffffffffffffffffffffffffffffffffffffff1673ffffffffffffffffffffffffffffffffffffffff16815260200190815260200160002060008282546101fe9190610570565b92505081905550565b600160009054906101000a900473ffffffffffffffffffffffffffffffffffffffff1681565b60006020528060005260406000206000915090505481565b6000803373ffffffffffffffffffffffffffffffffffffffff1673ffffffffffffffffffffffffffffffffffffffff168152602001908152602001600020548111156102c6576040517f08c379a00000000000000000000000000000000000000000000000000000000081526004016102bd90610524565b60405180910390fd5b806000803373ffffffffffffffffffffffffffffffffffffffff1673ffffffffffffffffffffffffffffffffffffffff1681526020019081526020016000205461031091906105c6565b6000803373ffffffffffffffffffffffffffffffffffffffff1673ffffffffffffffffffffffffffffffffffffffff168152602001908152602001600020541015610384577f4e487b7100000000000000000000000000000000000000000000000000000000600052600160045260246000fd5b806000803373ffffffffffffffffffffffffffffffffffffffff1673ffffffffffffffffffffffffffffffffffffffff16815260200190815260200160002060008282546103d291906105c6565b925050819055508173ffffffffffffffffffffffffffffffffffffffff166108fc829081150290604051600060405180830381858888f1935050505015801561041f573d6000803e3d6000fd5b505050565b600081359050610433816106a0565b92915050565b600081359050610448816106b7565b92915050565b60008135905061045d816106ce565b92915050565b60006020828403121561047557600080fd5b600061048384828501610424565b91505092915050565b6000806040838503121561049f57600080fd5b60006104ad85828601610439565b92505060206104be8582860161044e565b9150509250929050565b6104d18161060c565b82525050565b60006104e460118361055f565b91506104ef82610677565b602082019050919050565b6105038161063e565b82525050565b600060208201905061051e60008301846104c8565b92915050565b6000602082019050818103600083015261053d816104d7565b9050919050565b600060208201905061055960008301846104fa565b92915050565b600082825260208201905092915050565b600061057b8261063e565b91506105868361063e565b9250827fffffffffffffffffffffffffffffffffffffffffffffffffffffffffffffffff038211156105bb576105ba610648565b5b828201905092915050565b60006105d18261063e565b91506105dc8361063e565b9250828210156105ef576105ee610648565b5b828203905092915050565b60006106058261061e565b9050919050565b60006106178261061e565b9050919050565b600073ffffffffffffffffffffffffffffffffffffffff82169050919050565b6000819050919050565b7f4e487b7100000000000000000000000000000000000000000000000000000000600052601160045260246000fd5b7f6e6f7420656e6f7567682066756e64732e000000000000000000000000000000600082015250565b6106a9816105fa565b81146106b457600080fd5b50565b6106c08161060c565b81146106cb57600080fd5b50565b6106d78161063e565b81146106e257600080fd5b5056fea2646970667358221220db07f491aeb02515bba5f256e34fa69bc76cb68303c13939ed680bf9f6f44d9364736f6c63430008030033",
					"opcodes": "PUSH1 0x80 PUSH1 0x40 MSTORE CALLVALUE DUP1 ISZERO PUSH2 0x10 JUMPI PUSH1 0x0 DUP1 REVERT JUMPDEST POP CALLER PUSH1 0x1 PUSH1 0x0 PUSH2 0x100 EXP DUP2 SLOAD DUP2 PUSH20 0xFFFFFFFFFFFFFFFFFFFFFFFFFFFFFFFFFFFFFFFF MUL NOT AND SWAP1 DUP4 PUSH20 0xFFFFFFFFFFFFFFFFFFFFFFFFFFFFFFFFFFFFFFFF AND MUL OR SWAP1 SSTORE POP PUSH2 0x71B DUP1 PUSH2 0x61 PUSH1 0x0 CODECOPY PUSH1 0x0 RETURN INVALID PUSH1 0x80 PUSH1 0x40 MSTORE PUSH1 0x4 CALLDATASIZE LT PUSH2 0x43 JUMPI PUSH1 0x0 CALLDATALOAD PUSH1 0xE0 SHR DUP1 PUSH4 0x6D26EC18 EQ PUSH2 0x57 JUMPI DUP1 PUSH4 0x8DA5CB5B EQ PUSH2 0x61 JUMPI DUP1 PUSH4 0xD18A42E1 EQ PUSH2 0x8C JUMPI DUP1 PUSH4 0xF274C897 EQ PUSH2 0xC9 JUMPI PUSH2 0x52 JUMP JUMPDEST CALLDATASIZE PUSH2 0x52 JUMPI PUSH2 0x50 PUSH2 0xF2 JUMP JUMPDEST STOP JUMPDEST PUSH1 0x0 DUP1 REVERT JUMPDEST PUSH2 0x5F PUSH2 0xF2 JUMP JUMPDEST STOP JUMPDEST CALLVALUE DUP1 ISZERO PUSH2 0x6D JUMPI PUSH1 0x0 DUP1 REVERT JUMPDEST POP PUSH2 0x76 PUSH2 0x207 JUMP JUMPDEST PUSH1 0x40 MLOAD PUSH2 0x83 SWAP2 SWAP1 PUSH2 0x509 JUMP JUMPDEST PUSH1 0x40 MLOAD DUP1 SWAP2 SUB SWAP1 RETURN JUMPDEST CALLVALUE DUP1 ISZERO PUSH2 0x98 JUMPI PUSH1 0x0 DUP1 REVERT JUMPDEST POP PUSH2 0xB3 PUSH1 0x4 DUP1 CALLDATASIZE SUB DUP2 ADD SWAP1 PUSH2 0xAE SWAP2 SWAP1 PUSH2 0x463 JUMP JUMPDEST PUSH2 0x22D JUMP JUMPDEST PUSH1 0x40 MLOAD PUSH2 0xC0 SWAP2 SWAP1 PUSH2 0x544 JUMP JUMPDEST PUSH1 0x40 MLOAD DUP1 SWAP2 SUB SWAP1 RETURN JUMPDEST CALLVALUE DUP1 ISZERO PUSH2 0xD5 JUMPI PUSH1 0x0 DUP1 REVERT JUMPDEST POP PUSH2 0xF0 PUSH1 0x4 DUP1 CALLDATASIZE SUB DUP2 ADD SWAP1 PUSH2 0xEB SWAP2 SWAP1 PUSH2 0x48C JUMP JUMPDEST PUSH2 0x245 JUMP JUMPDEST STOP JUMPDEST PUSH1 0x0 DUP1 CALLER PUSH20 0xFFFFFFFFFFFFFFFFFFFFFFFFFFFFFFFFFFFFFFFF AND PUSH20 0xFFFFFFFFFFFFFFFFFFFFFFFFFFFFFFFFFFFFFFFF AND DUP2 MSTORE PUSH1 0x20 ADD SWAP1 DUP2 MSTORE PUSH1 0x20 ADD PUSH1 0x0 KECCAK256 SLOAD CALLVALUE PUSH1 0x0 DUP1 CALLER PUSH20 0xFFFFFFFFFFFFFFFFFFFFFFFFFFFFFFFFFFFFFFFF AND PUSH20 0xFFFFFFFFFFFFFFFFFFFFFFFFFFFFFFFFFFFFFFFF AND DUP2 MSTORE PUSH1 0x20 ADD SWAP1 DUP2 MSTORE PUSH1 0x20 ADD PUSH1 0x0 KECCAK256 SLOAD PUSH2 0x17B SWAP2 SWAP1 PUSH2 0x570 JUMP JUMPDEST LT ISZERO PUSH2 0x1B0 JUMPI PUSH32 0x4E487B7100000000000000000000000000000000000000000000000000000000 PUSH1 0x0 MSTORE PUSH1 0x1 PUSH1 0x4 MSTORE PUSH1 0x24 PUSH1 0x0 REVERT JUMPDEST CALLVALUE PUSH1 0x0 DUP1 CALLER PUSH20 0xFFFFFFFFFFFFFFFFFFFFFFFFFFFFFFFFFFFFFFFF AND PUSH20 0xFFFFFFFFFFFFFFFFFFFFFFFFFFFFFFFFFFFFFFFF AND DUP2 MSTORE PUSH1 0x20 ADD SWAP1 DUP2 MSTORE PUSH1 0x20 ADD PUSH1 0x0 KECCAK256 PUSH1 0x0 DUP3 DUP3 SLOAD PUSH2 0x1FE SWAP2 SWAP1 PUSH2 0x570 JUMP JUMPDEST SWAP3 POP POP DUP2 SWAP1 SSTORE POP JUMP JUMPDEST PUSH1 0x1 PUSH1 0x0 SWAP1 SLOAD SWAP1 PUSH2 0x100 EXP SWAP1 DIV PUSH20 0xFFFFFFFFFFFFFFFFFFFFFFFFFFFFFFFFFFFFFFFF AND DUP2 JUMP JUMPDEST PUSH1 0x0 PUSH1 0x20 MSTORE DUP1 PUSH1 0x0 MSTORE PUSH1 0x40 PUSH1 0x0 KECCAK256 PUSH1 0x0 SWAP2 POP SWAP1 POP SLOAD DUP2 JUMP JUMPDEST PUSH1 0x0 DUP1 CALLER PUSH20 0xFFFFFFFFFFFFFFFFFFFFFFFFFFFFFFFFFFFFFFFF AND PUSH20 0xFFFFFFFFFFFFFFFFFFFFFFFFFFFFFFFFFFFFFFFF AND DUP2 MSTORE PUSH1 0x20 ADD SWAP1 DUP2 MSTORE PUSH1 0x20 ADD PUSH1 0x0 KECCAK256 SLOAD DUP2 GT ISZERO PUSH2 0x2C6 JUMPI PUSH1 0x40 MLOAD PUSH32 0x8C379A000000000000000000000000000000000000000000000000000000000 DUP2 MSTORE PUSH1 0x4 ADD PUSH2 0x2BD SWAP1 PUSH2 0x524 JUMP JUMPDEST PUSH1 0x40 MLOAD DUP1 SWAP2 SUB SWAP1 REVERT JUMPDEST DUP1 PUSH1 0x0 DUP1 CALLER PUSH20 0xFFFFFFFFFFFFFFFFFFFFFFFFFFFFFFFFFFFFFFFF AND PUSH20 0xFFFFFFFFFFFFFFFFFFFFFFFFFFFFFFFFFFFFFFFF AND DUP2 MSTORE PUSH1 0x20 ADD SWAP1 DUP2 MSTORE PUSH1 0x20 ADD PUSH1 0x0 KECCAK256 SLOAD PUSH2 0x310 SWAP2 SWAP1 PUSH2 0x5C6 JUMP JUMPDEST PUSH1 0x0 DUP1 CALLER PUSH20 0xFFFFFFFFFFFFFFFFFFFFFFFFFFFFFFFFFFFFFFFF AND PUSH20 0xFFFFFFFFFFFFFFFFFFFFFFFFFFFFFFFFFFFFFFFF AND DUP2 MSTORE PUSH1 0x20 ADD SWAP1 DUP2 MSTORE PUSH1 0x20 ADD PUSH1 0x0 KECCAK256 SLOAD LT ISZERO PUSH2 0x384 JUMPI PUSH32 0x4E487B7100000000000000000000000000000000000000000000000000000000 PUSH1 0x0 MSTORE PUSH1 0x1 PUSH1 0x4 MSTORE PUSH1 0x24 PUSH1 0x0 REVERT JUMPDEST DUP1 PUSH1 0x0 DUP1 CALLER PUSH20 0xFFFFFFFFFFFFFFFFFFFFFFFFFFFFFFFFFFFFFFFF AND PUSH20 0xFFFFFFFFFFFFFFFFFFFFFFFFFFFFFFFFFFFFFFFF AND DUP2 MSTORE PUSH1 0x20 ADD SWAP1 DUP2 MSTORE PUSH1 0x20 ADD PUSH1 0x0 KECCAK256 PUSH1 0x0 DUP3 DUP3 SLOAD PUSH2 0x3D2 SWAP2 SWAP1 PUSH2 0x5C6 JUMP JUMPDEST SWAP3 POP POP DUP2 SWAP1 SSTORE POP DUP2 PUSH20 0xFFFFFFFFFFFFFFFFFFFFFFFFFFFFFFFFFFFFFFFF AND PUSH2 0x8FC DUP3 SWAP1 DUP2 ISZERO MUL SWAP1 PUSH1 0x40 MLOAD PUSH1 0x0 PUSH1 0x40 MLOAD DUP1 DUP4 SUB DUP2 DUP6 DUP9 DUP9 CALL SWAP4 POP POP POP POP ISZERO DUP1 ISZERO PUSH2 0x41F JUMPI RETURNDATASIZE PUSH1 0x0 DUP1 RETURNDATACOPY RETURNDATASIZE PUSH1 0x0 REVERT JUMPDEST POP POP POP JUMP JUMPDEST PUSH1 0x0 DUP2 CALLDATALOAD SWAP1 POP PUSH2 0x433 DUP2 PUSH2 0x6A0 JUMP JUMPDEST SWAP3 SWAP2 POP POP JUMP JUMPDEST PUSH1 0x0 DUP2 CALLDATALOAD SWAP1 POP PUSH2 0x448 DUP2 PUSH2 0x6B7 JUMP JUMPDEST SWAP3 SWAP2 POP POP JUMP JUMPDEST PUSH1 0x0 DUP2 CALLDATALOAD SWAP1 POP PUSH2 0x45D DUP2 PUSH2 0x6CE JUMP JUMPDEST SWAP3 SWAP2 POP POP JUMP JUMPDEST PUSH1 0x0 PUSH1 0x20 DUP3 DUP5 SUB SLT ISZERO PUSH2 0x475 JUMPI PUSH1 0x0 DUP1 REVERT JUMPDEST PUSH1 0x0 PUSH2 0x483 DUP5 DUP3 DUP6 ADD PUSH2 0x424 JUMP JUMPDEST SWAP2 POP POP SWAP3 SWAP2 POP POP JUMP JUMPDEST PUSH1 0x0 DUP1 PUSH1 0x40 DUP4 DUP6 SUB SLT ISZERO PUSH2 0x49F JUMPI PUSH1 0x0 DUP1 REVERT JUMPDEST PUSH1 0x0 PUSH2 0x4AD DUP6 DUP3 DUP7 ADD PUSH2 0x439 JUMP JUMPDEST SWAP3 POP POP PUSH1 0x20 PUSH2 0x4BE DUP6 DUP3 DUP7 ADD PUSH2 0x44E JUMP JUMPDEST SWAP2 POP POP SWAP3 POP SWAP3 SWAP1 POP JUMP JUMPDEST PUSH2 0x4D1 DUP2 PUSH2 0x60C JUMP JUMPDEST DUP3 MSTORE POP POP JUMP JUMPDEST PUSH1 0x0 PUSH2 0x4E4 PUSH1 0x11 DUP4 PUSH2 0x55F JUMP JUMPDEST SWAP2 POP PUSH2 0x4EF DUP3 PUSH2 0x677 JUMP JUMPDEST PUSH1 0x20 DUP3 ADD SWAP1 POP SWAP2 SWAP1 POP JUMP JUMPDEST PUSH2 0x503 DUP2 PUSH2 0x63E JUMP JUMPDEST DUP3 MSTORE POP POP JUMP JUMPDEST PUSH1 0x0 PUSH1 0x20 DUP3 ADD SWAP1 POP PUSH2 0x51E PUSH1 0x0 DUP4 ADD DUP5 PUSH2 0x4C8 JUMP JUMPDEST SWAP3 SWAP2 POP POP JUMP JUMPDEST PUSH1 0x0 PUSH1 0x20 DUP3 ADD SWAP1 POP DUP2 DUP2 SUB PUSH1 0x0 DUP4 ADD MSTORE PUSH2 0x53D DUP2 PUSH2 0x4D7 JUMP JUMPDEST SWAP1 POP SWAP2 SWAP1 POP JUMP JUMPDEST PUSH1 0x0 PUSH1 0x20 DUP3 ADD SWAP1 POP PUSH2 0x559 PUSH1 0x0 DUP4 ADD DUP5 PUSH2 0x4FA JUMP JUMPDEST SWAP3 SWAP2 POP POP JUMP JUMPDEST PUSH1 0x0 DUP3 DUP3 MSTORE PUSH1 0x20 DUP3 ADD SWAP1 POP SWAP3 SWAP2 POP POP JUMP JUMPDEST PUSH1 0x0 PUSH2 0x57B DUP3 PUSH2 0x63E JUMP JUMPDEST SWAP2 POP PUSH2 0x586 DUP4 PUSH2 0x63E JUMP JUMPDEST SWAP3 POP DUP3 PUSH32 0xFFFFFFFFFFFFFFFFFFFFFFFFFFFFFFFFFFFFFFFFFFFFFFFFFFFFFFFFFFFFFFFF SUB DUP3 GT ISZERO PUSH2 0x5BB JUMPI PUSH2 0x5BA PUSH2 0x648 JUMP JUMPDEST JUMPDEST DUP3 DUP3 ADD SWAP1 POP SWAP3 SWAP2 POP POP JUMP JUMPDEST PUSH1 0x0 PUSH2 0x5D1 DUP3 PUSH2 0x63E JUMP JUMPDEST SWAP2 POP PUSH2 0x5DC DUP4 PUSH2 0x63E JUMP JUMPDEST SWAP3 POP DUP3 DUP3 LT ISZERO PUSH2 0x5EF JUMPI PUSH2 0x5EE PUSH2 0x648 JUMP JUMPDEST JUMPDEST DUP3 DUP3 SUB SWAP1 POP SWAP3 SWAP2 POP POP JUMP JUMPDEST PUSH1 0x0 PUSH2 0x605 DUP3 PUSH2 0x61E JUMP JUMPDEST SWAP1 POP SWAP2 SWAP1 POP JUMP JUMPDEST PUSH1 0x0 PUSH2 0x617 DUP3 PUSH2 0x61E JUMP JUMPDEST SWAP1 POP SWAP2 SWAP1 POP JUMP JUMPDEST PUSH1 0x0 PUSH20 0xFFFFFFFFFFFFFFFFFFFFFFFFFFFFFFFFFFFFFFFF DUP3 AND SWAP1 POP SWAP2 SWAP1 POP JUMP JUMPDEST PUSH1 0x0 DUP2 SWAP1 POP SWAP2 SWAP1 POP JUMP JUMPDEST PUSH32 0x4E487B7100000000000000000000000000000000000000000000000000000000 PUSH1 0x0 MSTORE PUSH1 0x11 PUSH1 0x4 MSTORE PUSH1 0x24 PUSH1 0x0 REVERT JUMPDEST PUSH32 0x6E6F7420656E6F7567682066756E64732E000000000000000000000000000000 PUSH1 0x0 DUP3 ADD MSTORE POP JUMP JUMPDEST PUSH2 0x6A9 DUP2 PUSH2 0x5FA JUMP JUMPDEST DUP2 EQ PUSH2 0x6B4 JUMPI PUSH1 0x0 DUP1 REVERT JUMPDEST POP JUMP JUMPDEST PUSH2 0x6C0 DUP2 PUSH2 0x60C JUMP JUMPDEST DUP2 EQ PUSH2 0x6CB JUMPI PUSH1 0x0 DUP1 REVERT JUMPDEST POP JUMP JUMPDEST PUSH2 0x6D7 DUP2 PUSH2 0x63E JUMP JUMPDEST DUP2 EQ PUSH2 0x6E2 JUMPI PUSH1 0x0 DUP1 REVERT JUMPDEST POP JUMP INVALID LOG2 PUSH5 0x6970667358 0x22 SLT KECCAK256 0xDB SMOD DELEGATECALL SWAP2 0xAE 0xB0 0x25 ISZERO 0xBB 0xA5 CALLCODE JUMP 0xE3 0x4F 0xA6 SWAP12 0xC7 PUSH13 0xB68303C13939ED680BF9F6F44D SWAP4 PUSH5 0x736F6C6343 STOP ADDMOD SUB STOP CALLER "
				},
				"gasEstimates": {
					"creation": {
						"codeDepositCost": "363800",
						"executionCost": "21265",
						"totalCost": "385065"
					},
					"external": {
						"balanceReceived(address)": "1536",
						"owner()": "1214",
						"receiveMoney()": "infinite",
						"withdrawMoney(address,uint256)": "infinite"
					}
				},
				"methodIdentifiers": {
					"balanceReceived(address)": "d18a42e1",
					"owner()": "8da5cb5b",
					"receiveMoney()": "6d26ec18",
					"withdrawMoney(address,uint256)": "f274c897"
				}
			},
			"storageLayout": {
				"storage": [
					{
						"astId": 5,
						"contract": "FunctionExample.sol:FunctionsExample",
						"label": "balanceReceived",
						"offset": 0,
						"slot": "0",
						"type": "t_mapping(t_address,t_uint256)"
					},
					{
						"astId": 7,
						"contract": "FunctionExample.sol:FunctionsExample",
						"label": "owner",
						"offset": 0,
						"slot": "1",
						"type": "t_address_payable"
					}
				],
				"types": {
					"t_address": {
						"encoding": "inplace",
						"label": "address",
						"numberOfBytes": "20"
					},
					"t_address_payable": {
						"encoding": "inplace",
						"label": "address payable",
						"numberOfBytes": "20"
					},
					"t_mapping(t_address,t_uint256)": {
						"encoding": "mapping",
						"key": "t_address",
						"label": "mapping(address => uint256)",
						"numberOfBytes": "32",
						"value": "t_uint256"
					},
					"t_uint256": {
						"encoding": "inplace",
						"label": "uint256",
						"numberOfBytes": "32"
					}
				}
			},
			"userdoc": {
				"kind": "user",
				"methods": {},
				"version": 1
			}
		}
	}
}