{
	"FunctionExample.sol": {
		"FunctionsExample": {
			"abi": [
				{
					"inputs": [],
					"stateMutability": "nonpayable",
					"type": "constructor"
				},
				{
					"inputs": [
						{
							"internalType": "address",
							"name": "",
							"type": "address"
						}
					],
					"name": "balanceReceived",
					"outputs": [
						{
							"internalType": "uint64",
							"name": "",
							"type": "uint64"
						}
					],
					"stateMutability": "view",
					"type": "function"
				},
				{
					"inputs": [],
					"name": "destroySmartContr4act",
					"outputs": [],
					"stateMutability": "nonpayable",
					"type": "function"
				},
				{
					"inputs": [],
					"name": "receiveMoney",
					"outputs": [],
					"stateMutability": "payable",
					"type": "function"
				},
				{
					"inputs": [
						{
							"internalType": "address payable",
							"name": "_to",
							"type": "address"
						},
						{
							"internalType": "uint64",
							"name": "_amount",
							"type": "uint64"
						}
					],
					"name": "withdrawMoney",
					"outputs": [],
					"stateMutability": "nonpayable",
					"type": "function"
				}
			],
			"devdoc": {
				"kind": "dev",
				"methods": {},
				"version": 1
			},
			"evm": {
				"assembly": "    /* \"FunctionExample.sol\":58:980  contract FunctionsExample {... */\n  mstore(0x40, 0x80)\n    /* \"FunctionExample.sol\":174:232  constructor() {... */\n  callvalue\n  dup1\n  iszero\n  tag_1\n  jumpi\n  0x00\n  dup1\n  revert\ntag_1:\n  pop\n    /* \"FunctionExample.sol\":214:224  msg.sender */\n  caller\n    /* \"FunctionExample.sol\":198:203  owner */\n  0x01\n  0x00\n    /* \"FunctionExample.sol\":198:225  owner = payable(msg.sender) */\n  0x0100\n  exp\n  dup2\n  sload\n  dup2\n  0xffffffffffffffffffffffffffffffffffffffff\n  mul\n  not\n  and\n  swap1\n  dup4\n  0xffffffffffffffffffffffffffffffffffffffff\n  and\n  mul\n  or\n  swap1\n  sstore\n  pop\n    /* \"FunctionExample.sol\":58:980  contract FunctionsExample {... */\n  dataSize(sub_0)\n  dup1\n  dataOffset(sub_0)\n  0x00\n  codecopy\n  0x00\n  return\nstop\n\nsub_0: assembly {\n        /* \"FunctionExample.sol\":58:980  contract FunctionsExample {... */\n      mstore(0x40, 0x80)\n      jumpi(tag_1, lt(calldatasize, 0x04))\n      shr(0xe0, calldataload(0x00))\n      dup1\n      0x0ad19aeb\n      eq\n      tag_2\n      jumpi\n      dup1\n      0x6d26ec18\n      eq\n      tag_3\n      jumpi\n      dup1\n      0xd18a42e1\n      eq\n      tag_4\n      jumpi\n      dup1\n      0xeef5da9c\n      eq\n      tag_5\n      jumpi\n    tag_1:\n      0x00\n      dup1\n      revert\n        /* \"FunctionExample.sol\":599:903  function withdrawMoney(address payable _to, uint64 _amount) public {... */\n    tag_2:\n      callvalue\n      dup1\n      iszero\n      tag_6\n      jumpi\n      0x00\n      dup1\n      revert\n    tag_6:\n      pop\n      tag_7\n      0x04\n      dup1\n      calldatasize\n      sub\n      dup2\n      add\n      swap1\n      tag_8\n      swap2\n      swap1\n      tag_9\n      jump\t// in\n    tag_8:\n      tag_10\n      jump\t// in\n    tag_7:\n      stop\n        /* \"FunctionExample.sol\":383:593  function receiveMoney() public payable {... */\n    tag_3:\n      tag_11\n      tag_12\n      jump\t// in\n    tag_11:\n      stop\n        /* \"FunctionExample.sol\":90:139  mapping(address => uint64) public balanceReceived */\n    tag_4:\n      callvalue\n      dup1\n      iszero\n      tag_13\n      jumpi\n      0x00\n      dup1\n      revert\n    tag_13:\n      pop\n      tag_14\n      0x04\n      dup1\n      calldatasize\n      sub\n      dup2\n      add\n      swap1\n      tag_15\n      swap2\n      swap1\n      tag_16\n      jump\t// in\n    tag_15:\n      tag_17\n      jump\t// in\n    tag_14:\n      mload(0x40)\n      tag_18\n      swap2\n      swap1\n      tag_19\n      jump\t// in\n    tag_18:\n      mload(0x40)\n      dup1\n      swap2\n      sub\n      swap1\n      return\n        /* \"FunctionExample.sol\":238:377  function destroySmartContr4act() public {... */\n    tag_5:\n      callvalue\n      dup1\n      iszero\n      tag_20\n      jumpi\n      0x00\n      dup1\n      revert\n    tag_20:\n      pop\n      tag_21\n      tag_22\n      jump\t// in\n    tag_21:\n      stop\n        /* \"FunctionExample.sol\":599:903  function withdrawMoney(address payable _to, uint64 _amount) public {... */\n    tag_10:\n        /* \"FunctionExample.sol\":695:710  balanceReceived */\n      0x00\n        /* \"FunctionExample.sol\":695:722  balanceReceived[msg.sender] */\n      dup1\n        /* \"FunctionExample.sol\":711:721  msg.sender */\n      caller\n        /* \"FunctionExample.sol\":695:722  balanceReceived[msg.sender] */\n      0xffffffffffffffffffffffffffffffffffffffff\n      and\n      0xffffffffffffffffffffffffffffffffffffffff\n      and\n      dup2\n      mstore\n      0x20\n      add\n      swap1\n      dup2\n      mstore\n      0x20\n      add\n      0x00\n      keccak256\n      0x00\n      swap1\n      sload\n      swap1\n      0x0100\n      exp\n      swap1\n      div\n      0xffffffffffffffff\n      and\n        /* \"FunctionExample.sol\":684:722  _amount <= balanceReceived[msg.sender] */\n      0xffffffffffffffff\n      and\n        /* \"FunctionExample.sol\":684:691  _amount */\n      dup2\n        /* \"FunctionExample.sol\":684:722  _amount <= balanceReceived[msg.sender] */\n      0xffffffffffffffff\n      and\n      gt\n      iszero\n        /* \"FunctionExample.sol\":676:731  require(_amount <= balanceReceived[msg.sender], \"Nope\") */\n      tag_24\n      jumpi\n      mload(0x40)\n      0x08c379a000000000000000000000000000000000000000000000000000000000\n      dup2\n      mstore\n      0x04\n      add\n      tag_25\n      swap1\n      tag_26\n      jump\t// in\n    tag_25:\n      mload(0x40)\n      dup1\n      swap2\n      sub\n      swap1\n      revert\n    tag_24:\n        /* \"FunctionExample.sol\":789:804  balanceReceived */\n      0x00\n        /* \"FunctionExample.sol\":789:816  balanceReceived[msg.sender] */\n      dup1\n        /* \"FunctionExample.sol\":805:815  msg.sender */\n      caller\n        /* \"FunctionExample.sol\":789:816  balanceReceived[msg.sender] */\n      0xffffffffffffffffffffffffffffffffffffffff\n      and\n      0xffffffffffffffffffffffffffffffffffffffff\n      and\n      dup2\n      mstore\n      0x20\n      add\n      swap1\n      dup2\n      mstore\n      0x20\n      add\n      0x00\n      keccak256\n      0x00\n      swap1\n      sload\n      swap1\n      0x0100\n      exp\n      swap1\n      div\n      0xffffffffffffffff\n      and\n        /* \"FunctionExample.sol\":748:816  balanceReceived[msg.sender] - _amount <= balanceReceived[msg.sender] */\n      0xffffffffffffffff\n      and\n        /* \"FunctionExample.sol\":778:785  _amount */\n      dup2\n        /* \"FunctionExample.sol\":748:763  balanceReceived */\n      0x00\n        /* \"FunctionExample.sol\":748:775  balanceReceived[msg.sender] */\n      dup1\n        /* \"FunctionExample.sol\":764:774  msg.sender */\n      caller\n        /* \"FunctionExample.sol\":748:775  balanceReceived[msg.sender] */\n      0xffffffffffffffffffffffffffffffffffffffff\n      and\n      0xffffffffffffffffffffffffffffffffffffffff\n      and\n      dup2\n      mstore\n      0x20\n      add\n      swap1\n      dup2\n      mstore\n      0x20\n      add\n      0x00\n      keccak256\n      0x00\n      swap1\n      sload\n      swap1\n      0x0100\n      exp\n      swap1\n      div\n      0xffffffffffffffff\n      and\n        /* \"FunctionExample.sol\":748:785  balanceReceived[msg.sender] - _amount */\n      tag_27\n      swap2\n      swap1\n      tag_28\n      jump\t// in\n    tag_27:\n        /* \"FunctionExample.sol\":748:816  balanceReceived[msg.sender] - _amount <= balanceReceived[msg.sender] */\n      0xffffffffffffffff\n      and\n      gt\n      iszero\n        /* \"FunctionExample.sol\":741:817  assert(balanceReceived[msg.sender] - _amount <= balanceReceived[msg.sender]) */\n      tag_29\n      jumpi\n      tag_30\n      tag_31\n      jump\t// in\n    tag_30:\n    tag_29:\n        /* \"FunctionExample.sol\":858:865  _amount */\n      dup1\n        /* \"FunctionExample.sol\":827:842  balanceReceived */\n      0x00\n        /* \"FunctionExample.sol\":827:854  balanceReceived[msg.sender] */\n      dup1\n        /* \"FunctionExample.sol\":843:853  msg.sender */\n      caller\n        /* \"FunctionExample.sol\":827:854  balanceReceived[msg.sender] */\n      0xffffffffffffffffffffffffffffffffffffffff\n      and\n      0xffffffffffffffffffffffffffffffffffffffff\n      and\n      dup2\n      mstore\n      0x20\n      add\n      swap1\n      dup2\n      mstore\n      0x20\n      add\n      0x00\n      keccak256\n      0x00\n        /* \"FunctionExample.sol\":827:865  balanceReceived[msg.sender] -= _amount */\n      dup3\n      dup3\n      dup3\n      swap1\n      sload\n      swap1\n      0x0100\n      exp\n      swap1\n      div\n      0xffffffffffffffff\n      and\n      tag_32\n      swap2\n      swap1\n      tag_28\n      jump\t// in\n    tag_32:\n      swap3\n      pop\n      0x0100\n      exp\n      dup2\n      sload\n      dup2\n      0xffffffffffffffff\n      mul\n      not\n      and\n      swap1\n      dup4\n      0xffffffffffffffff\n      and\n      mul\n      or\n      swap1\n      sstore\n      pop\n        /* \"FunctionExample.sol\":875:878  _to */\n      dup2\n        /* \"FunctionExample.sol\":875:887  _to.transfer */\n      0xffffffffffffffffffffffffffffffffffffffff\n      and\n        /* \"FunctionExample.sol\":875:896  _to.transfer(_amount) */\n      0x08fc\n        /* \"FunctionExample.sol\":888:895  _amount */\n      dup3\n        /* \"FunctionExample.sol\":875:896  _to.transfer(_amount) */\n      0xffffffffffffffff\n      and\n      swap1\n      dup2\n      iszero\n      mul\n      swap1\n      mload(0x40)\n      0x00\n      mload(0x40)\n      dup1\n      dup4\n      sub\n      dup2\n      dup6\n      dup9\n      dup9\n      call\n      swap4\n      pop\n      pop\n      pop\n      pop\n      iszero\n      dup1\n      iszero\n      tag_34\n      jumpi\n      returndatasize\n      0x00\n      dup1\n      returndatacopy\n      revert(0x00, returndatasize)\n    tag_34:\n      pop\n        /* \"FunctionExample.sol\":599:903  function withdrawMoney(address payable _to, uint64 _amount) public {... */\n      pop\n      pop\n      jump\t// out\n        /* \"FunctionExample.sol\":383:593  function receiveMoney() public payable {... */\n    tag_12:\n        /* \"FunctionExample.sol\":459:468  msg.value */\n      callvalue\n        /* \"FunctionExample.sol\":439:469  msg.value == uint64(msg.value) */\n      0xffffffffffffffff\n      and\n        /* \"FunctionExample.sol\":439:448  msg.value */\n      callvalue\n        /* \"FunctionExample.sol\":439:469  msg.value == uint64(msg.value) */\n      eq\n        /* \"FunctionExample.sol\":432:470  assert(msg.value == uint64(msg.value)) */\n      tag_36\n      jumpi\n      tag_37\n      tag_31\n      jump\t// in\n    tag_37:\n    tag_36:\n        /* \"FunctionExample.sol\":518:527  msg.value */\n      callvalue\n        /* \"FunctionExample.sol\":480:495  balanceReceived */\n      0x00\n        /* \"FunctionExample.sol\":480:507  balanceReceived[msg.sender] */\n      dup1\n        /* \"FunctionExample.sol\":496:506  msg.sender */\n      caller\n        /* \"FunctionExample.sol\":480:507  balanceReceived[msg.sender] */\n      0xffffffffffffffffffffffffffffffffffffffff\n      and\n      0xffffffffffffffffffffffffffffffffffffffff\n      and\n      dup2\n      mstore\n      0x20\n      add\n      swap1\n      dup2\n      mstore\n      0x20\n      add\n      0x00\n      keccak256\n      0x00\n        /* \"FunctionExample.sol\":480:528  balanceReceived[msg.sender] += uint64(msg.value) */\n      dup3\n      dup3\n      dup3\n      swap1\n      sload\n      swap1\n      0x0100\n      exp\n      swap1\n      div\n      0xffffffffffffffff\n      and\n      tag_38\n      swap2\n      swap1\n      tag_39\n      jump\t// in\n    tag_38:\n      swap3\n      pop\n      0x0100\n      exp\n      dup2\n      sload\n      dup2\n      0xffffffffffffffff\n      mul\n      not\n      and\n      swap1\n      dup4\n      0xffffffffffffffff\n      and\n      mul\n      or\n      swap1\n      sstore\n      pop\n        /* \"FunctionExample.sol\":576:585  msg.value */\n      callvalue\n        /* \"FunctionExample.sol\":545:560  balanceReceived */\n      0x00\n        /* \"FunctionExample.sol\":545:572  balanceReceived[msg.sender] */\n      dup1\n        /* \"FunctionExample.sol\":561:571  msg.sender */\n      caller\n        /* \"FunctionExample.sol\":545:572  balanceReceived[msg.sender] */\n      0xffffffffffffffffffffffffffffffffffffffff\n      and\n      0xffffffffffffffffffffffffffffffffffffffff\n      and\n      dup2\n      mstore\n      0x20\n      add\n      swap1\n      dup2\n      mstore\n      0x20\n      add\n      0x00\n      keccak256\n      0x00\n      swap1\n      sload\n      swap1\n      0x0100\n      exp\n      swap1\n      div\n      0xffffffffffffffff\n      and\n        /* \"FunctionExample.sol\":545:585  balanceReceived[msg.sender] >= msg.value */\n      0xffffffffffffffff\n      and\n      lt\n      iszero\n        /* \"FunctionExample.sol\":538:586  assert(balanceReceived[msg.sender] >= msg.value) */\n      tag_40\n      jumpi\n      tag_41\n      tag_31\n      jump\t// in\n    tag_41:\n    tag_40:\n        /* \"FunctionExample.sol\":383:593  function receiveMoney() public payable {... */\n      jump\t// out\n        /* \"FunctionExample.sol\":90:139  mapping(address => uint64) public balanceReceived */\n    tag_17:\n      mstore(0x20, 0x00)\n      dup1\n      0x00\n      mstore\n      keccak256(0x00, 0x40)\n      0x00\n      swap2\n      pop\n      sload\n      swap1\n      0x0100\n      exp\n      swap1\n      div\n      0xffffffffffffffff\n      and\n      dup2\n      jump\t// out\n        /* \"FunctionExample.sol\":238:377  function destroySmartContr4act() public {... */\n    tag_22:\n        /* \"FunctionExample.sol\":310:315  owner */\n      0x01\n      0x00\n      swap1\n      sload\n      swap1\n      0x0100\n      exp\n      swap1\n      div\n      0xffffffffffffffffffffffffffffffffffffffff\n      and\n        /* \"FunctionExample.sol\":296:315  msg.sender == owner */\n      0xffffffffffffffffffffffffffffffffffffffff\n      and\n        /* \"FunctionExample.sol\":296:306  msg.sender */\n      caller\n        /* \"FunctionExample.sol\":296:315  msg.sender == owner */\n      0xffffffffffffffffffffffffffffffffffffffff\n      and\n      eq\n        /* \"FunctionExample.sol\":288:341  require(msg.sender == owner, \"you are not the owner\") */\n      tag_43\n      jumpi\n      mload(0x40)\n      0x08c379a000000000000000000000000000000000000000000000000000000000\n      dup2\n      mstore\n      0x04\n      add\n      tag_44\n      swap1\n      tag_45\n      jump\t// in\n    tag_44:\n      mload(0x40)\n      dup1\n      swap2\n      sub\n      swap1\n      revert\n    tag_43:\n        /* \"FunctionExample.sol\":364:369  owner */\n      0x01\n      0x00\n      swap1\n      sload\n      swap1\n      0x0100\n      exp\n      swap1\n      div\n      0xffffffffffffffffffffffffffffffffffffffff\n      and\n        /* \"FunctionExample.sol\":351:370  selfdestruct(owner) */\n      0xffffffffffffffffffffffffffffffffffffffff\n      and\n      selfdestruct\n        /* \"#utility.yul\":88:205   */\n    tag_47:\n        /* \"#utility.yul\":197:198   */\n      0x00\n        /* \"#utility.yul\":194:195   */\n      dup1\n        /* \"#utility.yul\":187:199   */\n      revert\n        /* \"#utility.yul\":334:460   */\n    tag_49:\n        /* \"#utility.yul\":371:378   */\n      0x00\n        /* \"#utility.yul\":411:453   */\n      0xffffffffffffffffffffffffffffffffffffffff\n        /* \"#utility.yul\":404:409   */\n      dup3\n        /* \"#utility.yul\":400:454   */\n      and\n        /* \"#utility.yul\":389:454   */\n      swap1\n      pop\n        /* \"#utility.yul\":334:460   */\n      swap2\n      swap1\n      pop\n      jump\t// out\n        /* \"#utility.yul\":466:570   */\n    tag_50:\n        /* \"#utility.yul\":511:518   */\n      0x00\n        /* \"#utility.yul\":540:564   */\n      tag_72\n        /* \"#utility.yul\":558:563   */\n      dup3\n        /* \"#utility.yul\":540:564   */\n      tag_49\n      jump\t// in\n    tag_72:\n        /* \"#utility.yul\":529:564   */\n      swap1\n      pop\n        /* \"#utility.yul\":466:570   */\n      swap2\n      swap1\n      pop\n      jump\t// out\n        /* \"#utility.yul\":576:714   */\n    tag_51:\n        /* \"#utility.yul\":657:689   */\n      tag_74\n        /* \"#utility.yul\":683:688   */\n      dup2\n        /* \"#utility.yul\":657:689   */\n      tag_50\n      jump\t// in\n    tag_74:\n        /* \"#utility.yul\":650:655   */\n      dup2\n        /* \"#utility.yul\":647:690   */\n      eq\n        /* \"#utility.yul\":637:708   */\n      tag_75\n      jumpi\n        /* \"#utility.yul\":704:705   */\n      0x00\n        /* \"#utility.yul\":701:702   */\n      dup1\n        /* \"#utility.yul\":694:706   */\n      revert\n        /* \"#utility.yul\":637:708   */\n    tag_75:\n        /* \"#utility.yul\":576:714   */\n      pop\n      jump\t// out\n        /* \"#utility.yul\":720:875   */\n    tag_52:\n        /* \"#utility.yul\":774:779   */\n      0x00\n        /* \"#utility.yul\":812:818   */\n      dup2\n        /* \"#utility.yul\":799:819   */\n      calldataload\n        /* \"#utility.yul\":790:819   */\n      swap1\n      pop\n        /* \"#utility.yul\":828:869   */\n      tag_77\n        /* \"#utility.yul\":863:868   */\n      dup2\n        /* \"#utility.yul\":828:869   */\n      tag_51\n      jump\t// in\n    tag_77:\n        /* \"#utility.yul\":720:875   */\n      swap3\n      swap2\n      pop\n      pop\n      jump\t// out\n        /* \"#utility.yul\":881:982   */\n    tag_53:\n        /* \"#utility.yul\":917:924   */\n      0x00\n        /* \"#utility.yul\":957:975   */\n      0xffffffffffffffff\n        /* \"#utility.yul\":950:955   */\n      dup3\n        /* \"#utility.yul\":946:976   */\n      and\n        /* \"#utility.yul\":935:976   */\n      swap1\n      pop\n        /* \"#utility.yul\":881:982   */\n      swap2\n      swap1\n      pop\n      jump\t// out\n        /* \"#utility.yul\":988:1108   */\n    tag_54:\n        /* \"#utility.yul\":1060:1083   */\n      tag_80\n        /* \"#utility.yul\":1077:1082   */\n      dup2\n        /* \"#utility.yul\":1060:1083   */\n      tag_53\n      jump\t// in\n    tag_80:\n        /* \"#utility.yul\":1053:1058   */\n      dup2\n        /* \"#utility.yul\":1050:1084   */\n      eq\n        /* \"#utility.yul\":1040:1102   */\n      tag_81\n      jumpi\n        /* \"#utility.yul\":1098:1099   */\n      0x00\n        /* \"#utility.yul\":1095:1096   */\n      dup1\n        /* \"#utility.yul\":1088:1100   */\n      revert\n        /* \"#utility.yul\":1040:1102   */\n    tag_81:\n        /* \"#utility.yul\":988:1108   */\n      pop\n      jump\t// out\n        /* \"#utility.yul\":1114:1251   */\n    tag_55:\n        /* \"#utility.yul\":1159:1164   */\n      0x00\n        /* \"#utility.yul\":1197:1203   */\n      dup2\n        /* \"#utility.yul\":1184:1204   */\n      calldataload\n        /* \"#utility.yul\":1175:1204   */\n      swap1\n      pop\n        /* \"#utility.yul\":1213:1245   */\n      tag_83\n        /* \"#utility.yul\":1239:1244   */\n      dup2\n        /* \"#utility.yul\":1213:1245   */\n      tag_54\n      jump\t// in\n    tag_83:\n        /* \"#utility.yul\":1114:1251   */\n      swap3\n      swap2\n      pop\n      pop\n      jump\t// out\n        /* \"#utility.yul\":1257:1745   */\n    tag_9:\n        /* \"#utility.yul\":1332:1338   */\n      0x00\n        /* \"#utility.yul\":1340:1346   */\n      dup1\n        /* \"#utility.yul\":1389:1391   */\n      0x40\n        /* \"#utility.yul\":1377:1386   */\n      dup4\n        /* \"#utility.yul\":1368:1375   */\n      dup6\n        /* \"#utility.yul\":1364:1387   */\n      sub\n        /* \"#utility.yul\":1360:1392   */\n      slt\n        /* \"#utility.yul\":1357:1476   */\n      iszero\n      tag_85\n      jumpi\n        /* \"#utility.yul\":1395:1474   */\n      tag_86\n      tag_47\n      jump\t// in\n    tag_86:\n        /* \"#utility.yul\":1357:1476   */\n    tag_85:\n        /* \"#utility.yul\":1515:1516   */\n      0x00\n        /* \"#utility.yul\":1540:1601   */\n      tag_87\n        /* \"#utility.yul\":1593:1600   */\n      dup6\n        /* \"#utility.yul\":1584:1590   */\n      dup3\n        /* \"#utility.yul\":1573:1582   */\n      dup7\n        /* \"#utility.yul\":1569:1591   */\n      add\n        /* \"#utility.yul\":1540:1601   */\n      tag_52\n      jump\t// in\n    tag_87:\n        /* \"#utility.yul\":1530:1601   */\n      swap3\n      pop\n        /* \"#utility.yul\":1486:1611   */\n      pop\n        /* \"#utility.yul\":1650:1652   */\n      0x20\n        /* \"#utility.yul\":1676:1728   */\n      tag_88\n        /* \"#utility.yul\":1720:1727   */\n      dup6\n        /* \"#utility.yul\":1711:1717   */\n      dup3\n        /* \"#utility.yul\":1700:1709   */\n      dup7\n        /* \"#utility.yul\":1696:1718   */\n      add\n        /* \"#utility.yul\":1676:1728   */\n      tag_55\n      jump\t// in\n    tag_88:\n        /* \"#utility.yul\":1666:1728   */\n      swap2\n      pop\n        /* \"#utility.yul\":1621:1738   */\n      pop\n        /* \"#utility.yul\":1257:1745   */\n      swap3\n      pop\n      swap3\n      swap1\n      pop\n      jump\t// out\n        /* \"#utility.yul\":1751:1847   */\n    tag_56:\n        /* \"#utility.yul\":1788:1795   */\n      0x00\n        /* \"#utility.yul\":1817:1841   */\n      tag_90\n        /* \"#utility.yul\":1835:1840   */\n      dup3\n        /* \"#utility.yul\":1817:1841   */\n      tag_49\n      jump\t// in\n    tag_90:\n        /* \"#utility.yul\":1806:1841   */\n      swap1\n      pop\n        /* \"#utility.yul\":1751:1847   */\n      swap2\n      swap1\n      pop\n      jump\t// out\n        /* \"#utility.yul\":1853:1975   */\n    tag_57:\n        /* \"#utility.yul\":1926:1950   */\n      tag_92\n        /* \"#utility.yul\":1944:1949   */\n      dup2\n        /* \"#utility.yul\":1926:1950   */\n      tag_56\n      jump\t// in\n    tag_92:\n        /* \"#utility.yul\":1919:1924   */\n      dup2\n        /* \"#utility.yul\":1916:1951   */\n      eq\n        /* \"#utility.yul\":1906:1969   */\n      tag_93\n      jumpi\n        /* \"#utility.yul\":1965:1966   */\n      0x00\n        /* \"#utility.yul\":1962:1963   */\n      dup1\n        /* \"#utility.yul\":1955:1967   */\n      revert\n        /* \"#utility.yul\":1906:1969   */\n    tag_93:\n        /* \"#utility.yul\":1853:1975   */\n      pop\n      jump\t// out\n        /* \"#utility.yul\":1981:2120   */\n    tag_58:\n        /* \"#utility.yul\":2027:2032   */\n      0x00\n        /* \"#utility.yul\":2065:2071   */\n      dup2\n        /* \"#utility.yul\":2052:2072   */\n      calldataload\n        /* \"#utility.yul\":2043:2072   */\n      swap1\n      pop\n        /* \"#utility.yul\":2081:2114   */\n      tag_95\n        /* \"#utility.yul\":2108:2113   */\n      dup2\n        /* \"#utility.yul\":2081:2114   */\n      tag_57\n      jump\t// in\n    tag_95:\n        /* \"#utility.yul\":1981:2120   */\n      swap3\n      swap2\n      pop\n      pop\n      jump\t// out\n        /* \"#utility.yul\":2126:2455   */\n    tag_16:\n        /* \"#utility.yul\":2185:2191   */\n      0x00\n        /* \"#utility.yul\":2234:2236   */\n      0x20\n        /* \"#utility.yul\":2222:2231   */\n      dup3\n        /* \"#utility.yul\":2213:2220   */\n      dup5\n        /* \"#utility.yul\":2209:2232   */\n      sub\n        /* \"#utility.yul\":2205:2237   */\n      slt\n        /* \"#utility.yul\":2202:2321   */\n      iszero\n      tag_97\n      jumpi\n        /* \"#utility.yul\":2240:2319   */\n      tag_98\n      tag_47\n      jump\t// in\n    tag_98:\n        /* \"#utility.yul\":2202:2321   */\n    tag_97:\n        /* \"#utility.yul\":2360:2361   */\n      0x00\n        /* \"#utility.yul\":2385:2438   */\n      tag_99\n        /* \"#utility.yul\":2430:2437   */\n      dup5\n        /* \"#utility.yul\":2421:2427   */\n      dup3\n        /* \"#utility.yul\":2410:2419   */\n      dup6\n        /* \"#utility.yul\":2406:2428   */\n      add\n        /* \"#utility.yul\":2385:2438   */\n      tag_58\n      jump\t// in\n    tag_99:\n        /* \"#utility.yul\":2375:2438   */\n      swap2\n      pop\n        /* \"#utility.yul\":2331:2448   */\n      pop\n        /* \"#utility.yul\":2126:2455   */\n      swap3\n      swap2\n      pop\n      pop\n      jump\t// out\n        /* \"#utility.yul\":2461:2576   */\n    tag_59:\n        /* \"#utility.yul\":2546:2569   */\n      tag_101\n        /* \"#utility.yul\":2563:2568   */\n      dup2\n        /* \"#utility.yul\":2546:2569   */\n      tag_53\n      jump\t// in\n    tag_101:\n        /* \"#utility.yul\":2541:2544   */\n      dup3\n        /* \"#utility.yul\":2534:2570   */\n      mstore\n        /* \"#utility.yul\":2461:2576   */\n      pop\n      pop\n      jump\t// out\n        /* \"#utility.yul\":2582:2800   */\n    tag_19:\n        /* \"#utility.yul\":2673:2677   */\n      0x00\n        /* \"#utility.yul\":2711:2713   */\n      0x20\n        /* \"#utility.yul\":2700:2709   */\n      dup3\n        /* \"#utility.yul\":2696:2714   */\n      add\n        /* \"#utility.yul\":2688:2714   */\n      swap1\n      pop\n        /* \"#utility.yul\":2724:2793   */\n      tag_103\n        /* \"#utility.yul\":2790:2791   */\n      0x00\n        /* \"#utility.yul\":2779:2788   */\n      dup4\n        /* \"#utility.yul\":2775:2792   */\n      add\n        /* \"#utility.yul\":2766:2772   */\n      dup5\n        /* \"#utility.yul\":2724:2793   */\n      tag_59\n      jump\t// in\n    tag_103:\n        /* \"#utility.yul\":2582:2800   */\n      swap3\n      swap2\n      pop\n      pop\n      jump\t// out\n        /* \"#utility.yul\":2806:2975   */\n    tag_60:\n        /* \"#utility.yul\":2890:2901   */\n      0x00\n        /* \"#utility.yul\":2924:2930   */\n      dup3\n        /* \"#utility.yul\":2919:2922   */\n      dup3\n        /* \"#utility.yul\":2912:2931   */\n      mstore\n        /* \"#utility.yul\":2964:2968   */\n      0x20\n        /* \"#utility.yul\":2959:2962   */\n      dup3\n        /* \"#utility.yul\":2955:2969   */\n      add\n        /* \"#utility.yul\":2940:2969   */\n      swap1\n      pop\n        /* \"#utility.yul\":2806:2975   */\n      swap3\n      swap2\n      pop\n      pop\n      jump\t// out\n        /* \"#utility.yul\":2981:3135   */\n    tag_61:\n        /* \"#utility.yul\":3121:3127   */\n      0x4e6f706500000000000000000000000000000000000000000000000000000000\n        /* \"#utility.yul\":3117:3118   */\n      0x00\n        /* \"#utility.yul\":3109:3115   */\n      dup3\n        /* \"#utility.yul\":3105:3119   */\n      add\n        /* \"#utility.yul\":3098:3128   */\n      mstore\n        /* \"#utility.yul\":2981:3135   */\n      pop\n      jump\t// out\n        /* \"#utility.yul\":3141:3506   */\n    tag_62:\n        /* \"#utility.yul\":3283:3286   */\n      0x00\n        /* \"#utility.yul\":3304:3370   */\n      tag_107\n        /* \"#utility.yul\":3368:3369   */\n      0x04\n        /* \"#utility.yul\":3363:3366   */\n      dup4\n        /* \"#utility.yul\":3304:3370   */\n      tag_60\n      jump\t// in\n    tag_107:\n        /* \"#utility.yul\":3297:3370   */\n      swap2\n      pop\n        /* \"#utility.yul\":3379:3472   */\n      tag_108\n        /* \"#utility.yul\":3468:3471   */\n      dup3\n        /* \"#utility.yul\":3379:3472   */\n      tag_61\n      jump\t// in\n    tag_108:\n        /* \"#utility.yul\":3497:3499   */\n      0x20\n        /* \"#utility.yul\":3492:3495   */\n      dup3\n        /* \"#utility.yul\":3488:3500   */\n      add\n        /* \"#utility.yul\":3481:3500   */\n      swap1\n      pop\n        /* \"#utility.yul\":3141:3506   */\n      swap2\n      swap1\n      pop\n      jump\t// out\n        /* \"#utility.yul\":3512:3931   */\n    tag_26:\n        /* \"#utility.yul\":3678:3682   */\n      0x00\n        /* \"#utility.yul\":3716:3718   */\n      0x20\n        /* \"#utility.yul\":3705:3714   */\n      dup3\n        /* \"#utility.yul\":3701:3719   */\n      add\n        /* \"#utility.yul\":3693:3719   */\n      swap1\n      pop\n        /* \"#utility.yul\":3765:3774   */\n      dup2\n        /* \"#utility.yul\":3759:3763   */\n      dup2\n        /* \"#utility.yul\":3755:3775   */\n      sub\n        /* \"#utility.yul\":3751:3752   */\n      0x00\n        /* \"#utility.yul\":3740:3749   */\n      dup4\n        /* \"#utility.yul\":3736:3753   */\n      add\n        /* \"#utility.yul\":3729:3776   */\n      mstore\n        /* \"#utility.yul\":3793:3924   */\n      tag_110\n        /* \"#utility.yul\":3919:3923   */\n      dup2\n        /* \"#utility.yul\":3793:3924   */\n      tag_62\n      jump\t// in\n    tag_110:\n        /* \"#utility.yul\":3785:3924   */\n      swap1\n      pop\n        /* \"#utility.yul\":3512:3931   */\n      swap2\n      swap1\n      pop\n      jump\t// out\n        /* \"#utility.yul\":3937:4117   */\n    tag_63:\n        /* \"#utility.yul\":3985:4062   */\n      0x4e487b7100000000000000000000000000000000000000000000000000000000\n        /* \"#utility.yul\":3982:3983   */\n      0x00\n        /* \"#utility.yul\":3975:4063   */\n      mstore\n        /* \"#utility.yul\":4082:4086   */\n      0x11\n        /* \"#utility.yul\":4079:4080   */\n      0x04\n        /* \"#utility.yul\":4072:4087   */\n      mstore\n        /* \"#utility.yul\":4106:4110   */\n      0x24\n        /* \"#utility.yul\":4103:4104   */\n      0x00\n        /* \"#utility.yul\":4096:4111   */\n      revert\n        /* \"#utility.yul\":4123:4331   */\n    tag_28:\n        /* \"#utility.yul\":4162:4166   */\n      0x00\n        /* \"#utility.yul\":4182:4201   */\n      tag_113\n        /* \"#utility.yul\":4199:4200   */\n      dup3\n        /* \"#utility.yul\":4182:4201   */\n      tag_53\n      jump\t// in\n    tag_113:\n        /* \"#utility.yul\":4177:4201   */\n      swap2\n      pop\n        /* \"#utility.yul\":4215:4234   */\n      tag_114\n        /* \"#utility.yul\":4232:4233   */\n      dup4\n        /* \"#utility.yul\":4215:4234   */\n      tag_53\n      jump\t// in\n    tag_114:\n        /* \"#utility.yul\":4210:4234   */\n      swap3\n      pop\n        /* \"#utility.yul\":4258:4259   */\n      dup3\n        /* \"#utility.yul\":4255:4256   */\n      dup3\n        /* \"#utility.yul\":4251:4260   */\n      sub\n        /* \"#utility.yul\":4243:4260   */\n      swap1\n      pop\n        /* \"#utility.yul\":4282:4300   */\n      0xffffffffffffffff\n        /* \"#utility.yul\":4276:4280   */\n      dup2\n        /* \"#utility.yul\":4273:4301   */\n      gt\n        /* \"#utility.yul\":4270:4324   */\n      iszero\n      tag_115\n      jumpi\n        /* \"#utility.yul\":4304:4322   */\n      tag_116\n      tag_63\n      jump\t// in\n    tag_116:\n        /* \"#utility.yul\":4270:4324   */\n    tag_115:\n        /* \"#utility.yul\":4123:4331   */\n      swap3\n      swap2\n      pop\n      pop\n      jump\t// out\n        /* \"#utility.yul\":4337:4517   */\n    tag_31:\n        /* \"#utility.yul\":4385:4462   */\n      0x4e487b7100000000000000000000000000000000000000000000000000000000\n        /* \"#utility.yul\":4382:4383   */\n      0x00\n        /* \"#utility.yul\":4375:4463   */\n      mstore\n        /* \"#utility.yul\":4482:4486   */\n      0x01\n        /* \"#utility.yul\":4479:4480   */\n      0x04\n        /* \"#utility.yul\":4472:4487   */\n      mstore\n        /* \"#utility.yul\":4506:4510   */\n      0x24\n        /* \"#utility.yul\":4503:4504   */\n      0x00\n        /* \"#utility.yul\":4496:4511   */\n      revert\n        /* \"#utility.yul\":4523:4728   */\n    tag_39:\n        /* \"#utility.yul\":4562:4565   */\n      0x00\n        /* \"#utility.yul\":4581:4600   */\n      tag_119\n        /* \"#utility.yul\":4598:4599   */\n      dup3\n        /* \"#utility.yul\":4581:4600   */\n      tag_53\n      jump\t// in\n    tag_119:\n        /* \"#utility.yul\":4576:4600   */\n      swap2\n      pop\n        /* \"#utility.yul\":4614:4633   */\n      tag_120\n        /* \"#utility.yul\":4631:4632   */\n      dup4\n        /* \"#utility.yul\":4614:4633   */\n      tag_53\n      jump\t// in\n    tag_120:\n        /* \"#utility.yul\":4609:4633   */\n      swap3\n      pop\n        /* \"#utility.yul\":4656:4657   */\n      dup3\n        /* \"#utility.yul\":4653:4654   */\n      dup3\n        /* \"#utility.yul\":4649:4658   */\n      add\n        /* \"#utility.yul\":4642:4658   */\n      swap1\n      pop\n        /* \"#utility.yul\":4679:4697   */\n      0xffffffffffffffff\n        /* \"#utility.yul\":4674:4677   */\n      dup2\n        /* \"#utility.yul\":4671:4698   */\n      gt\n        /* \"#utility.yul\":4668:4721   */\n      iszero\n      tag_121\n      jumpi\n        /* \"#utility.yul\":4701:4719   */\n      tag_122\n      tag_63\n      jump\t// in\n    tag_122:\n        /* \"#utility.yul\":4668:4721   */\n    tag_121:\n        /* \"#utility.yul\":4523:4728   */\n      swap3\n      swap2\n      pop\n      pop\n      jump\t// out\n        /* \"#utility.yul\":4734:4905   */\n    tag_64:\n        /* \"#utility.yul\":4874:4897   */\n      0x796f7520617265206e6f7420746865206f776e65720000000000000000000000\n        /* \"#utility.yul\":4870:4871   */\n      0x00\n        /* \"#utility.yul\":4862:4868   */\n      dup3\n        /* \"#utility.yul\":4858:4872   */\n      add\n        /* \"#utility.yul\":4851:4898   */\n      mstore\n        /* \"#utility.yul\":4734:4905   */\n      pop\n      jump\t// out\n        /* \"#utility.yul\":4911:5277   */\n    tag_65:\n        /* \"#utility.yul\":5053:5056   */\n      0x00\n        /* \"#utility.yul\":5074:5141   */\n      tag_125\n        /* \"#utility.yul\":5138:5140   */\n      0x15\n        /* \"#utility.yul\":5133:5136   */\n      dup4\n        /* \"#utility.yul\":5074:5141   */\n      tag_60\n      jump\t// in\n    tag_125:\n        /* \"#utility.yul\":5067:5141   */\n      swap2\n      pop\n        /* \"#utility.yul\":5150:5243   */\n      tag_126\n        /* \"#utility.yul\":5239:5242   */\n      dup3\n        /* \"#utility.yul\":5150:5243   */\n      tag_64\n      jump\t// in\n    tag_126:\n        /* \"#utility.yul\":5268:5270   */\n      0x20\n        /* \"#utility.yul\":5263:5266   */\n      dup3\n        /* \"#utility.yul\":5259:5271   */\n      add\n        /* \"#utility.yul\":5252:5271   */\n      swap1\n      pop\n        /* \"#utility.yul\":4911:5277   */\n      swap2\n      swap1\n      pop\n      jump\t// out\n        /* \"#utility.yul\":5283:5702   */\n    tag_45:\n        /* \"#utility.yul\":5449:5453   */\n      0x00\n        /* \"#utility.yul\":5487:5489   */\n      0x20\n        /* \"#utility.yul\":5476:5485   */\n      dup3\n        /* \"#utility.yul\":5472:5490   */\n      add\n        /* \"#utility.yul\":5464:5490   */\n      swap1\n      pop\n        /* \"#utility.yul\":5536:5545   */\n      dup2\n        /* \"#utility.yul\":5530:5534   */\n      dup2\n        /* \"#utility.yul\":5526:5546   */\n      sub\n        /* \"#utility.yul\":5522:5523   */\n      0x00\n        /* \"#utility.yul\":5511:5520   */\n      dup4\n        /* \"#utility.yul\":5507:5524   */\n      add\n        /* \"#utility.yul\":5500:5547   */\n      mstore\n        /* \"#utility.yul\":5564:5695   */\n      tag_128\n        /* \"#utility.yul\":5690:5694   */\n      dup2\n        /* \"#utility.yul\":5564:5695   */\n      tag_65\n      jump\t// in\n    tag_128:\n        /* \"#utility.yul\":5556:5695   */\n      swap1\n      pop\n        /* \"#utility.yul\":5283:5702   */\n      swap2\n      swap1\n      pop\n      jump\t// out\n\n    auxdata: 0xa2646970667358221220525bae2eb2ce36c8bed2b801afe972c2777e0161cde9ccb2f926432f94c5121964736f6c63430008100033\n}\n",
				"bytecode": {
					"linkReferences": {},
					"object": "608060405234801561001057600080fd5b5033600160006101000a81548173ffffffffffffffffffffffffffffffffffffffff021916908373ffffffffffffffffffffffffffffffffffffffff160217905550610893806100616000396000f3fe60806040526004361061003f5760003560e01c80630ad19aeb146100445780636d26ec181461006d578063d18a42e114610077578063eef5da9c146100b4575b600080fd5b34801561005057600080fd5b5061006b600480360381019061006691906105c9565b6100cb565b005b610075610324565b005b34801561008357600080fd5b5061009e60048036038101906100999190610647565b610434565b6040516100ab9190610683565b60405180910390f35b3480156100c057600080fd5b506100c961045b565b005b6000803373ffffffffffffffffffffffffffffffffffffffff1673ffffffffffffffffffffffffffffffffffffffff16815260200190815260200160002060009054906101000a900467ffffffffffffffff1667ffffffffffffffff168167ffffffffffffffff161115610174576040517f08c379a000000000000000000000000000000000000000000000000000000000815260040161016b906106fb565b60405180910390fd5b6000803373ffffffffffffffffffffffffffffffffffffffff1673ffffffffffffffffffffffffffffffffffffffff16815260200190815260200160002060009054906101000a900467ffffffffffffffff1667ffffffffffffffff16816000803373ffffffffffffffffffffffffffffffffffffffff1673ffffffffffffffffffffffffffffffffffffffff16815260200190815260200160002060009054906101000a900467ffffffffffffffff1661022f919061074a565b67ffffffffffffffff16111561024857610247610786565b5b806000803373ffffffffffffffffffffffffffffffffffffffff1673ffffffffffffffffffffffffffffffffffffffff16815260200190815260200160002060008282829054906101000a900467ffffffffffffffff166102a9919061074a565b92506101000a81548167ffffffffffffffff021916908367ffffffffffffffff1602179055508173ffffffffffffffffffffffffffffffffffffffff166108fc8267ffffffffffffffff169081150290604051600060405180830381858888f1935050505015801561031f573d6000803e3d6000fd5b505050565b3467ffffffffffffffff16341461033e5761033d610786565b5b346000803373ffffffffffffffffffffffffffffffffffffffff1673ffffffffffffffffffffffffffffffffffffffff16815260200190815260200160002060008282829054906101000a900467ffffffffffffffff1661039f91906107b5565b92506101000a81548167ffffffffffffffff021916908367ffffffffffffffff160217905550346000803373ffffffffffffffffffffffffffffffffffffffff1673ffffffffffffffffffffffffffffffffffffffff16815260200190815260200160002060009054906101000a900467ffffffffffffffff1667ffffffffffffffff16101561043257610431610786565b5b565b60006020528060005260406000206000915054906101000a900467ffffffffffffffff1681565b600160009054906101000a900473ffffffffffffffffffffffffffffffffffffffff1673ffffffffffffffffffffffffffffffffffffffff163373ffffffffffffffffffffffffffffffffffffffff16146104eb576040517f08c379a00000000000000000000000000000000000000000000000000000000081526004016104e29061083d565b60405180910390fd5b600160009054906101000a900473ffffffffffffffffffffffffffffffffffffffff1673ffffffffffffffffffffffffffffffffffffffff16ff5b600080fd5b600073ffffffffffffffffffffffffffffffffffffffff82169050919050565b60006105568261052b565b9050919050565b6105668161054b565b811461057157600080fd5b50565b6000813590506105838161055d565b92915050565b600067ffffffffffffffff82169050919050565b6105a681610589565b81146105b157600080fd5b50565b6000813590506105c38161059d565b92915050565b600080604083850312156105e0576105df610526565b5b60006105ee85828601610574565b92505060206105ff858286016105b4565b9150509250929050565b60006106148261052b565b9050919050565b61062481610609565b811461062f57600080fd5b50565b6000813590506106418161061b565b92915050565b60006020828403121561065d5761065c610526565b5b600061066b84828501610632565b91505092915050565b61067d81610589565b82525050565b60006020820190506106986000830184610674565b92915050565b600082825260208201905092915050565b7f4e6f706500000000000000000000000000000000000000000000000000000000600082015250565b60006106e560048361069e565b91506106f0826106af565b602082019050919050565b60006020820190508181036000830152610714816106d8565b9050919050565b7f4e487b7100000000000000000000000000000000000000000000000000000000600052601160045260246000fd5b600061075582610589565b915061076083610589565b9250828203905067ffffffffffffffff8111156107805761077f61071b565b5b92915050565b7f4e487b7100000000000000000000000000000000000000000000000000000000600052600160045260246000fd5b60006107c082610589565b91506107cb83610589565b9250828201905067ffffffffffffffff8111156107eb576107ea61071b565b5b92915050565b7f796f7520617265206e6f7420746865206f776e65720000000000000000000000600082015250565b600061082760158361069e565b9150610832826107f1565b602082019050919050565b600060208201905081810360008301526108568161081a565b905091905056fea2646970667358221220525bae2eb2ce36c8bed2b801afe972c2777e0161cde9ccb2f926432f94c5121964736f6c63430008100033",
					"opcodes": "PUSH1 0x80 PUSH1 0x40 MSTORE CALLVALUE DUP1 ISZERO PUSH2 0x10 JUMPI PUSH1 0x0 DUP1 REVERT JUMPDEST POP CALLER PUSH1 0x1 PUSH1 0x0 PUSH2 0x100 EXP DUP2 SLOAD DUP2 PUSH20 0xFFFFFFFFFFFFFFFFFFFFFFFFFFFFFFFFFFFFFFFF MUL NOT AND SWAP1 DUP4 PUSH20 0xFFFFFFFFFFFFFFFFFFFFFFFFFFFFFFFFFFFFFFFF AND MUL OR SWAP1 SSTORE POP PUSH2 0x893 DUP1 PUSH2 0x61 PUSH1 0x0 CODECOPY PUSH1 0x0 RETURN INVALID PUSH1 0x80 PUSH1 0x40 MSTORE PUSH1 0x4 CALLDATASIZE LT PUSH2 0x3F JUMPI PUSH1 0x0 CALLDATALOAD PUSH1 0xE0 SHR DUP1 PUSH4 0xAD19AEB EQ PUSH2 0x44 JUMPI DUP1 PUSH4 0x6D26EC18 EQ PUSH2 0x6D JUMPI DUP1 PUSH4 0xD18A42E1 EQ PUSH2 0x77 JUMPI DUP1 PUSH4 0xEEF5DA9C EQ PUSH2 0xB4 JUMPI JUMPDEST PUSH1 0x0 DUP1 REVERT JUMPDEST CALLVALUE DUP1 ISZERO PUSH2 0x50 JUMPI PUSH1 0x0 DUP1 REVERT JUMPDEST POP PUSH2 0x6B PUSH1 0x4 DUP1 CALLDATASIZE SUB DUP2 ADD SWAP1 PUSH2 0x66 SWAP2 SWAP1 PUSH2 0x5C9 JUMP JUMPDEST PUSH2 0xCB JUMP JUMPDEST STOP JUMPDEST PUSH2 0x75 PUSH2 0x324 JUMP JUMPDEST STOP JUMPDEST CALLVALUE DUP1 ISZERO PUSH2 0x83 JUMPI PUSH1 0x0 DUP1 REVERT JUMPDEST POP PUSH2 0x9E PUSH1 0x4 DUP1 CALLDATASIZE SUB DUP2 ADD SWAP1 PUSH2 0x99 SWAP2 SWAP1 PUSH2 0x647 JUMP JUMPDEST PUSH2 0x434 JUMP JUMPDEST PUSH1 0x40 MLOAD PUSH2 0xAB SWAP2 SWAP1 PUSH2 0x683 JUMP JUMPDEST PUSH1 0x40 MLOAD DUP1 SWAP2 SUB SWAP1 RETURN JUMPDEST CALLVALUE DUP1 ISZERO PUSH2 0xC0 JUMPI PUSH1 0x0 DUP1 REVERT JUMPDEST POP PUSH2 0xC9 PUSH2 0x45B JUMP JUMPDEST STOP JUMPDEST PUSH1 0x0 DUP1 CALLER PUSH20 0xFFFFFFFFFFFFFFFFFFFFFFFFFFFFFFFFFFFFFFFF AND PUSH20 0xFFFFFFFFFFFFFFFFFFFFFFFFFFFFFFFFFFFFFFFF AND DUP2 MSTORE PUSH1 0x20 ADD SWAP1 DUP2 MSTORE PUSH1 0x20 ADD PUSH1 0x0 KECCAK256 PUSH1 0x0 SWAP1 SLOAD SWAP1 PUSH2 0x100 EXP SWAP1 DIV PUSH8 0xFFFFFFFFFFFFFFFF AND PUSH8 0xFFFFFFFFFFFFFFFF AND DUP2 PUSH8 0xFFFFFFFFFFFFFFFF AND GT ISZERO PUSH2 0x174 JUMPI PUSH1 0x40 MLOAD PUSH32 0x8C379A000000000000000000000000000000000000000000000000000000000 DUP2 MSTORE PUSH1 0x4 ADD PUSH2 0x16B SWAP1 PUSH2 0x6FB JUMP JUMPDEST PUSH1 0x40 MLOAD DUP1 SWAP2 SUB SWAP1 REVERT JUMPDEST PUSH1 0x0 DUP1 CALLER PUSH20 0xFFFFFFFFFFFFFFFFFFFFFFFFFFFFFFFFFFFFFFFF AND PUSH20 0xFFFFFFFFFFFFFFFFFFFFFFFFFFFFFFFFFFFFFFFF AND DUP2 MSTORE PUSH1 0x20 ADD SWAP1 DUP2 MSTORE PUSH1 0x20 ADD PUSH1 0x0 KECCAK256 PUSH1 0x0 SWAP1 SLOAD SWAP1 PUSH2 0x100 EXP SWAP1 DIV PUSH8 0xFFFFFFFFFFFFFFFF AND PUSH8 0xFFFFFFFFFFFFFFFF AND DUP2 PUSH1 0x0 DUP1 CALLER PUSH20 0xFFFFFFFFFFFFFFFFFFFFFFFFFFFFFFFFFFFFFFFF AND PUSH20 0xFFFFFFFFFFFFFFFFFFFFFFFFFFFFFFFFFFFFFFFF AND DUP2 MSTORE PUSH1 0x20 ADD SWAP1 DUP2 MSTORE PUSH1 0x20 ADD PUSH1 0x0 KECCAK256 PUSH1 0x0 SWAP1 SLOAD SWAP1 PUSH2 0x100 EXP SWAP1 DIV PUSH8 0xFFFFFFFFFFFFFFFF AND PUSH2 0x22F SWAP2 SWAP1 PUSH2 0x74A JUMP JUMPDEST PUSH8 0xFFFFFFFFFFFFFFFF AND GT ISZERO PUSH2 0x248 JUMPI PUSH2 0x247 PUSH2 0x786 JUMP JUMPDEST JUMPDEST DUP1 PUSH1 0x0 DUP1 CALLER PUSH20 0xFFFFFFFFFFFFFFFFFFFFFFFFFFFFFFFFFFFFFFFF AND PUSH20 0xFFFFFFFFFFFFFFFFFFFFFFFFFFFFFFFFFFFFFFFF AND DUP2 MSTORE PUSH1 0x20 ADD SWAP1 DUP2 MSTORE PUSH1 0x20 ADD PUSH1 0x0 KECCAK256 PUSH1 0x0 DUP3 DUP3 DUP3 SWAP1 SLOAD SWAP1 PUSH2 0x100 EXP SWAP1 DIV PUSH8 0xFFFFFFFFFFFFFFFF AND PUSH2 0x2A9 SWAP2 SWAP1 PUSH2 0x74A JUMP JUMPDEST SWAP3 POP PUSH2 0x100 EXP DUP2 SLOAD DUP2 PUSH8 0xFFFFFFFFFFFFFFFF MUL NOT AND SWAP1 DUP4 PUSH8 0xFFFFFFFFFFFFFFFF AND MUL OR SWAP1 SSTORE POP DUP2 PUSH20 0xFFFFFFFFFFFFFFFFFFFFFFFFFFFFFFFFFFFFFFFF AND PUSH2 0x8FC DUP3 PUSH8 0xFFFFFFFFFFFFFFFF AND SWAP1 DUP2 ISZERO MUL SWAP1 PUSH1 0x40 MLOAD PUSH1 0x0 PUSH1 0x40 MLOAD DUP1 DUP4 SUB DUP2 DUP6 DUP9 DUP9 CALL SWAP4 POP POP POP POP ISZERO DUP1 ISZERO PUSH2 0x31F JUMPI RETURNDATASIZE PUSH1 0x0 DUP1 RETURNDATACOPY RETURNDATASIZE PUSH1 0x0 REVERT JUMPDEST POP POP POP JUMP JUMPDEST CALLVALUE PUSH8 0xFFFFFFFFFFFFFFFF AND CALLVALUE EQ PUSH2 0x33E JUMPI PUSH2 0x33D PUSH2 0x786 JUMP JUMPDEST JUMPDEST CALLVALUE PUSH1 0x0 DUP1 CALLER PUSH20 0xFFFFFFFFFFFFFFFFFFFFFFFFFFFFFFFFFFFFFFFF AND PUSH20 0xFFFFFFFFFFFFFFFFFFFFFFFFFFFFFFFFFFFFFFFF AND DUP2 MSTORE PUSH1 0x20 ADD SWAP1 DUP2 MSTORE PUSH1 0x20 ADD PUSH1 0x0 KECCAK256 PUSH1 0x0 DUP3 DUP3 DUP3 SWAP1 SLOAD SWAP1 PUSH2 0x100 EXP SWAP1 DIV PUSH8 0xFFFFFFFFFFFFFFFF AND PUSH2 0x39F SWAP2 SWAP1 PUSH2 0x7B5 JUMP JUMPDEST SWAP3 POP PUSH2 0x100 EXP DUP2 SLOAD DUP2 PUSH8 0xFFFFFFFFFFFFFFFF MUL NOT AND SWAP1 DUP4 PUSH8 0xFFFFFFFFFFFFFFFF AND MUL OR SWAP1 SSTORE POP CALLVALUE PUSH1 0x0 DUP1 CALLER PUSH20 0xFFFFFFFFFFFFFFFFFFFFFFFFFFFFFFFFFFFFFFFF AND PUSH20 0xFFFFFFFFFFFFFFFFFFFFFFFFFFFFFFFFFFFFFFFF AND DUP2 MSTORE PUSH1 0x20 ADD SWAP1 DUP2 MSTORE PUSH1 0x20 ADD PUSH1 0x0 KECCAK256 PUSH1 0x0 SWAP1 SLOAD SWAP1 PUSH2 0x100 EXP SWAP1 DIV PUSH8 0xFFFFFFFFFFFFFFFF AND PUSH8 0xFFFFFFFFFFFFFFFF AND LT ISZERO PUSH2 0x432 JUMPI PUSH2 0x431 PUSH2 0x786 JUMP JUMPDEST JUMPDEST JUMP JUMPDEST PUSH1 0x0 PUSH1 0x20 MSTORE DUP1 PUSH1 0x0 MSTORE PUSH1 0x40 PUSH1 0x0 KECCAK256 PUSH1 0x0 SWAP2 POP SLOAD SWAP1 PUSH2 0x100 EXP SWAP1 DIV PUSH8 0xFFFFFFFFFFFFFFFF AND DUP2 JUMP JUMPDEST PUSH1 0x1 PUSH1 0x0 SWAP1 SLOAD SWAP1 PUSH2 0x100 EXP SWAP1 DIV PUSH20 0xFFFFFFFFFFFFFFFFFFFFFFFFFFFFFFFFFFFFFFFF AND PUSH20 0xFFFFFFFFFFFFFFFFFFFFFFFFFFFFFFFFFFFFFFFF AND CALLER PUSH20 0xFFFFFFFFFFFFFFFFFFFFFFFFFFFFFFFFFFFFFFFF AND EQ PUSH2 0x4EB JUMPI PUSH1 0x40 MLOAD PUSH32 0x8C379A000000000000000000000000000000000000000000000000000000000 DUP2 MSTORE PUSH1 0x4 ADD PUSH2 0x4E2 SWAP1 PUSH2 0x83D JUMP JUMPDEST PUSH1 0x40 MLOAD DUP1 SWAP2 SUB SWAP1 REVERT JUMPDEST PUSH1 0x1 PUSH1 0x0 SWAP1 SLOAD SWAP1 PUSH2 0x100 EXP SWAP1 DIV PUSH20 0xFFFFFFFFFFFFFFFFFFFFFFFFFFFFFFFFFFFFFFFF AND PUSH20 0xFFFFFFFFFFFFFFFFFFFFFFFFFFFFFFFFFFFFFFFF AND SELFDESTRUCT JUMPDEST PUSH1 0x0 DUP1 REVERT JUMPDEST PUSH1 0x0 PUSH20 0xFFFFFFFFFFFFFFFFFFFFFFFFFFFFFFFFFFFFFFFF DUP3 AND SWAP1 POP SWAP2 SWAP1 POP JUMP JUMPDEST PUSH1 0x0 PUSH2 0x556 DUP3 PUSH2 0x52B JUMP JUMPDEST SWAP1 POP SWAP2 SWAP1 POP JUMP JUMPDEST PUSH2 0x566 DUP2 PUSH2 0x54B JUMP JUMPDEST DUP2 EQ PUSH2 0x571 JUMPI PUSH1 0x0 DUP1 REVERT JUMPDEST POP JUMP JUMPDEST PUSH1 0x0 DUP2 CALLDATALOAD SWAP1 POP PUSH2 0x583 DUP2 PUSH2 0x55D JUMP JUMPDEST SWAP3 SWAP2 POP POP JUMP JUMPDEST PUSH1 0x0 PUSH8 0xFFFFFFFFFFFFFFFF DUP3 AND SWAP1 POP SWAP2 SWAP1 POP JUMP JUMPDEST PUSH2 0x5A6 DUP2 PUSH2 0x589 JUMP JUMPDEST DUP2 EQ PUSH2 0x5B1 JUMPI PUSH1 0x0 DUP1 REVERT JUMPDEST POP JUMP JUMPDEST PUSH1 0x0 DUP2 CALLDATALOAD SWAP1 POP PUSH2 0x5C3 DUP2 PUSH2 0x59D JUMP JUMPDEST SWAP3 SWAP2 POP POP JUMP JUMPDEST PUSH1 0x0 DUP1 PUSH1 0x40 DUP4 DUP6 SUB SLT ISZERO PUSH2 0x5E0 JUMPI PUSH2 0x5DF PUSH2 0x526 JUMP JUMPDEST JUMPDEST PUSH1 0x0 PUSH2 0x5EE DUP6 DUP3 DUP7 ADD PUSH2 0x574 JUMP JUMPDEST SWAP3 POP POP PUSH1 0x20 PUSH2 0x5FF DUP6 DUP3 DUP7 ADD PUSH2 0x5B4 JUMP JUMPDEST SWAP2 POP POP SWAP3 POP SWAP3 SWAP1 POP JUMP JUMPDEST PUSH1 0x0 PUSH2 0x614 DUP3 PUSH2 0x52B JUMP JUMPDEST SWAP1 POP SWAP2 SWAP1 POP JUMP JUMPDEST PUSH2 0x624 DUP2 PUSH2 0x609 JUMP JUMPDEST DUP2 EQ PUSH2 0x62F JUMPI PUSH1 0x0 DUP1 REVERT JUMPDEST POP JUMP JUMPDEST PUSH1 0x0 DUP2 CALLDATALOAD SWAP1 POP PUSH2 0x641 DUP2 PUSH2 0x61B JUMP JUMPDEST SWAP3 SWAP2 POP POP JUMP JUMPDEST PUSH1 0x0 PUSH1 0x20 DUP3 DUP5 SUB SLT ISZERO PUSH2 0x65D JUMPI PUSH2 0x65C PUSH2 0x526 JUMP JUMPDEST JUMPDEST PUSH1 0x0 PUSH2 0x66B DUP5 DUP3 DUP6 ADD PUSH2 0x632 JUMP JUMPDEST SWAP2 POP POP SWAP3 SWAP2 POP POP JUMP JUMPDEST PUSH2 0x67D DUP2 PUSH2 0x589 JUMP JUMPDEST DUP3 MSTORE POP POP JUMP JUMPDEST PUSH1 0x0 PUSH1 0x20 DUP3 ADD SWAP1 POP PUSH2 0x698 PUSH1 0x0 DUP4 ADD DUP5 PUSH2 0x674 JUMP JUMPDEST SWAP3 SWAP2 POP POP JUMP JUMPDEST PUSH1 0x0 DUP3 DUP3 MSTORE PUSH1 0x20 DUP3 ADD SWAP1 POP SWAP3 SWAP2 POP POP JUMP JUMPDEST PUSH32 0x4E6F706500000000000000000000000000000000000000000000000000000000 PUSH1 0x0 DUP3 ADD MSTORE POP JUMP JUMPDEST PUSH1 0x0 PUSH2 0x6E5 PUSH1 0x4 DUP4 PUSH2 0x69E JUMP JUMPDEST SWAP2 POP PUSH2 0x6F0 DUP3 PUSH2 0x6AF JUMP JUMPDEST PUSH1 0x20 DUP3 ADD SWAP1 POP SWAP2 SWAP1 POP JUMP JUMPDEST PUSH1 0x0 PUSH1 0x20 DUP3 ADD SWAP1 POP DUP2 DUP2 SUB PUSH1 0x0 DUP4 ADD MSTORE PUSH2 0x714 DUP2 PUSH2 0x6D8 JUMP JUMPDEST SWAP1 POP SWAP2 SWAP1 POP JUMP JUMPDEST PUSH32 0x4E487B7100000000000000000000000000000000000000000000000000000000 PUSH1 0x0 MSTORE PUSH1 0x11 PUSH1 0x4 MSTORE PUSH1 0x24 PUSH1 0x0 REVERT JUMPDEST PUSH1 0x0 PUSH2 0x755 DUP3 PUSH2 0x589 JUMP JUMPDEST SWAP2 POP PUSH2 0x760 DUP4 PUSH2 0x589 JUMP JUMPDEST SWAP3 POP DUP3 DUP3 SUB SWAP1 POP PUSH8 0xFFFFFFFFFFFFFFFF DUP2 GT ISZERO PUSH2 0x780 JUMPI PUSH2 0x77F PUSH2 0x71B JUMP JUMPDEST JUMPDEST SWAP3 SWAP2 POP POP JUMP JUMPDEST PUSH32 0x4E487B7100000000000000000000000000000000000000000000000000000000 PUSH1 0x0 MSTORE PUSH1 0x1 PUSH1 0x4 MSTORE PUSH1 0x24 PUSH1 0x0 REVERT JUMPDEST PUSH1 0x0 PUSH2 0x7C0 DUP3 PUSH2 0x589 JUMP JUMPDEST SWAP2 POP PUSH2 0x7CB DUP4 PUSH2 0x589 JUMP JUMPDEST SWAP3 POP DUP3 DUP3 ADD SWAP1 POP PUSH8 0xFFFFFFFFFFFFFFFF DUP2 GT ISZERO PUSH2 0x7EB JUMPI PUSH2 0x7EA PUSH2 0x71B JUMP JUMPDEST JUMPDEST SWAP3 SWAP2 POP POP JUMP JUMPDEST PUSH32 0x796F7520617265206E6F7420746865206F776E65720000000000000000000000 PUSH1 0x0 DUP3 ADD MSTORE POP JUMP JUMPDEST PUSH1 0x0 PUSH2 0x827 PUSH1 0x15 DUP4 PUSH2 0x69E JUMP JUMPDEST SWAP2 POP PUSH2 0x832 DUP3 PUSH2 0x7F1 JUMP JUMPDEST PUSH1 0x20 DUP3 ADD SWAP1 POP SWAP2 SWAP1 POP JUMP JUMPDEST PUSH1 0x0 PUSH1 0x20 DUP3 ADD SWAP1 POP DUP2 DUP2 SUB PUSH1 0x0 DUP4 ADD MSTORE PUSH2 0x856 DUP2 PUSH2 0x81A JUMP JUMPDEST SWAP1 POP SWAP2 SWAP1 POP JUMP INVALID LOG2 PUSH5 0x6970667358 0x22 SLT KECCAK256 MSTORE JUMPDEST 0xAE 0x2E 0xB2 0xCE CALLDATASIZE 0xC8 0xBE 0xD2 0xB8 ADD 0xAF 0xE9 PUSH19 0xC2777E0161CDE9CCB2F926432F94C512196473 PUSH16 0x6C634300081000330000000000000000 "
				},
				"gasEstimates": {
					"creation": {
						"codeDepositCost": "439000",
						"executionCost": "24740",
						"totalCost": "463740"
					},
					"external": {
						"balanceReceived(address)": "2867",
						"destroySmartContr4act()": "32094",
						"receiveMoney()": "infinite",
						"withdrawMoney(address,uint64)": "infinite"
					}
				},
				"methodIdentifiers": {
					"balanceReceived(address)": "d18a42e1",
					"destroySmartContr4act()": "eef5da9c",
					"receiveMoney()": "6d26ec18",
					"withdrawMoney(address,uint64)": "0ad19aeb"
				}
			},
			"storageLayout": {
				"storage": [
					{
						"astId": 5,
						"contract": "FunctionExample.sol:FunctionsExample",
						"label": "balanceReceived",
						"offset": 0,
						"slot": "0",
						"type": "t_mapping(t_address,t_uint64)"
					},
					{
						"astId": 7,
						"contract": "FunctionExample.sol:FunctionsExample",
						"label": "owner",
						"offset": 0,
						"slot": "1",
						"type": "t_address_payable"
					}
				],
				"types": {
					"t_address": {
						"encoding": "inplace",
						"label": "address",
						"numberOfBytes": "20"
					},
					"t_address_payable": {
						"encoding": "inplace",
						"label": "address payable",
						"numberOfBytes": "20"
					},
					"t_mapping(t_address,t_uint64)": {
						"encoding": "mapping",
						"key": "t_address",
						"label": "mapping(address => uint64)",
						"numberOfBytes": "32",
						"value": "t_uint64"
					},
					"t_uint64": {
						"encoding": "inplace",
						"label": "uint64",
						"numberOfBytes": "8"
					}
				}
			},
			"userdoc": {
				"kind": "user",
				"methods": {},
				"version": 1
			}
		}
	}
}