{
	"FunctionExample.sol": {
		"FunctionsExample": {
			"abi": [
				{
					"inputs": [],
					"stateMutability": "nonpayable",
					"type": "constructor"
				},
				{
					"inputs": [
						{
							"internalType": "address",
							"name": "",
							"type": "address"
						}
					],
					"name": "balanceReceived",
					"outputs": [
						{
							"internalType": "uint256",
							"name": "",
							"type": "uint256"
						}
					],
					"stateMutability": "view",
					"type": "function"
				},
				{
					"inputs": [],
					"name": "destroySmartContract",
					"outputs": [],
					"stateMutability": "nonpayable",
					"type": "function"
				},
				{
					"inputs": [],
					"name": "owner",
					"outputs": [
						{
							"internalType": "address payable",
							"name": "",
							"type": "address"
						}
					],
					"stateMutability": "view",
					"type": "function"
				},
				{
					"inputs": [],
					"name": "receiveMoney",
					"outputs": [],
					"stateMutability": "payable",
					"type": "function"
				},
				{
					"inputs": [
						{
							"internalType": "address payable",
							"name": "_to",
							"type": "address"
						},
						{
							"internalType": "uint256",
							"name": "_amount",
							"type": "uint256"
						}
					],
					"name": "withdrawMoney",
					"outputs": [],
					"stateMutability": "nonpayable",
					"type": "function"
				},
				{
					"stateMutability": "payable",
					"type": "receive"
				}
			],
			"devdoc": {
				"kind": "dev",
				"methods": {},
				"version": 1
			},
			"evm": {
				"assembly": "    /* \"FunctionExample.sol\":58:959  contract FunctionsExample {... */\n  mstore(0x40, 0x80)\n    /* \"FunctionExample.sol\":179:237  constructor() {... */\n  callvalue\n  dup1\n  iszero\n  tag_1\n  jumpi\n  0x00\n  dup1\n  revert\ntag_1:\n  pop\n    /* \"FunctionExample.sol\":219:229  msg.sender */\n  caller\n    /* \"FunctionExample.sol\":203:208  owner */\n  0x01\n  0x00\n    /* \"FunctionExample.sol\":203:230  owner = payable(msg.sender) */\n  0x0100\n  exp\n  dup2\n  sload\n  dup2\n  0xffffffffffffffffffffffffffffffffffffffff\n  mul\n  not\n  and\n  swap1\n  dup4\n  0xffffffffffffffffffffffffffffffffffffffff\n  and\n  mul\n  or\n  swap1\n  sstore\n  pop\n    /* \"FunctionExample.sol\":58:959  contract FunctionsExample {... */\n  dataSize(sub_0)\n  dup1\n  dataOffset(sub_0)\n  0x00\n  codecopy\n  0x00\n  return\nstop\n\nsub_0: assembly {\n        /* \"FunctionExample.sol\":58:959  contract FunctionsExample {... */\n      mstore(0x40, 0x80)\n      jumpi(tag_1, lt(calldatasize, 0x04))\n      shr(0xe0, calldataload(0x00))\n      dup1\n      0x6d26ec18\n      eq\n      tag_3\n      jumpi\n      dup1\n      0x85474728\n      eq\n      tag_4\n      jumpi\n      dup1\n      0x8da5cb5b\n      eq\n      tag_5\n      jumpi\n      dup1\n      0xd18a42e1\n      eq\n      tag_6\n      jumpi\n      dup1\n      0xf274c897\n      eq\n      tag_7\n      jumpi\n      jump(tag_2)\n    tag_1:\n      jumpi(tag_2, calldatasize)\n        /* \"FunctionExample.sol\":936:950  receiveMoney() */\n      tag_10\n        /* \"FunctionExample.sol\":936:948  receiveMoney */\n      tag_11\n        /* \"FunctionExample.sol\":936:950  receiveMoney() */\n      jump\t// in\n    tag_10:\n        /* \"FunctionExample.sol\":58:959  contract FunctionsExample {... */\n      stop\n    tag_2:\n      0x00\n      dup1\n      revert\n        /* \"FunctionExample.sol\":387:571  function receiveMoney() public payable {... */\n    tag_3:\n      tag_12\n      tag_11\n      jump\t// in\n    tag_12:\n      stop\n        /* \"FunctionExample.sol\":243:381  function destroySmartContract() public {... */\n    tag_4:\n      callvalue\n      dup1\n      iszero\n      tag_13\n      jumpi\n      0x00\n      dup1\n      revert\n    tag_13:\n      pop\n      tag_14\n      tag_15\n      jump\t// in\n    tag_14:\n      stop\n        /* \"FunctionExample.sol\":144:172  address payable public owner */\n    tag_5:\n      callvalue\n      dup1\n      iszero\n      tag_16\n      jumpi\n      0x00\n      dup1\n      revert\n    tag_16:\n      pop\n      tag_17\n      tag_18\n      jump\t// in\n    tag_17:\n      mload(0x40)\n      tag_19\n      swap2\n      swap1\n      tag_20\n      jump\t// in\n    tag_19:\n      mload(0x40)\n      dup1\n      swap2\n      sub\n      swap1\n      return\n        /* \"FunctionExample.sol\":91:138  mapping(address => uint) public balanceReceived */\n    tag_6:\n      callvalue\n      dup1\n      iszero\n      tag_21\n      jumpi\n      0x00\n      dup1\n      revert\n    tag_21:\n      pop\n      tag_22\n      0x04\n      dup1\n      calldatasize\n      sub\n      dup2\n      add\n      swap1\n      tag_23\n      swap2\n      swap1\n      tag_24\n      jump\t// in\n    tag_23:\n      tag_25\n      jump\t// in\n    tag_22:\n      mload(0x40)\n      tag_26\n      swap2\n      swap1\n      tag_27\n      jump\t// in\n    tag_26:\n      mload(0x40)\n      dup1\n      swap2\n      sub\n      swap1\n      return\n        /* \"FunctionExample.sol\":577:892  function withdrawMoney(address payable _to, uint _amount) public {... */\n    tag_7:\n      callvalue\n      dup1\n      iszero\n      tag_28\n      jumpi\n      0x00\n      dup1\n      revert\n    tag_28:\n      pop\n      tag_29\n      0x04\n      dup1\n      calldatasize\n      sub\n      dup2\n      add\n      swap1\n      tag_30\n      swap2\n      swap1\n      tag_31\n      jump\t// in\n    tag_30:\n      tag_32\n      jump\t// in\n    tag_29:\n      stop\n        /* \"FunctionExample.sol\":387:571  function receiveMoney() public payable {... */\n    tag_11:\n        /* \"FunctionExample.sol\":486:501  balanceReceived */\n      0x00\n        /* \"FunctionExample.sol\":486:513  balanceReceived[msg.sender] */\n      dup1\n        /* \"FunctionExample.sol\":502:512  msg.sender */\n      caller\n        /* \"FunctionExample.sol\":486:513  balanceReceived[msg.sender] */\n      0xffffffffffffffffffffffffffffffffffffffff\n      and\n      0xffffffffffffffffffffffffffffffffffffffff\n      and\n      dup2\n      mstore\n      0x20\n      add\n      swap1\n      dup2\n      mstore\n      0x20\n      add\n      0x00\n      keccak256\n      sload\n        /* \"FunctionExample.sol\":473:482  msg.value */\n      callvalue\n        /* \"FunctionExample.sol\":443:458  balanceReceived */\n      0x00\n        /* \"FunctionExample.sol\":443:470  balanceReceived[msg.sender] */\n      dup1\n        /* \"FunctionExample.sol\":459:469  msg.sender */\n      caller\n        /* \"FunctionExample.sol\":443:470  balanceReceived[msg.sender] */\n      0xffffffffffffffffffffffffffffffffffffffff\n      and\n      0xffffffffffffffffffffffffffffffffffffffff\n      and\n      dup2\n      mstore\n      0x20\n      add\n      swap1\n      dup2\n      mstore\n      0x20\n      add\n      0x00\n      keccak256\n      sload\n        /* \"FunctionExample.sol\":443:482  balanceReceived[msg.sender] + msg.value */\n      tag_34\n      swap2\n      swap1\n      tag_35\n      jump\t// in\n    tag_34:\n        /* \"FunctionExample.sol\":443:513  balanceReceived[msg.sender] + msg.value >= balanceReceived[msg.sender] */\n      lt\n      iszero\n        /* \"FunctionExample.sol\":436:514  assert(balanceReceived[msg.sender] + msg.value >= balanceReceived[msg.sender]) */\n      tag_36\n      jumpi\n      mstore(0x00, 0x4e487b7100000000000000000000000000000000000000000000000000000000)\n      mstore(0x04, 0x01)\n      revert(0x00, 0x24)\n    tag_36:\n        /* \"FunctionExample.sol\":555:564  msg.value */\n      callvalue\n        /* \"FunctionExample.sol\":524:539  balanceReceived */\n      0x00\n        /* \"FunctionExample.sol\":524:551  balanceReceived[msg.sender] */\n      dup1\n        /* \"FunctionExample.sol\":540:550  msg.sender */\n      caller\n        /* \"FunctionExample.sol\":524:551  balanceReceived[msg.sender] */\n      0xffffffffffffffffffffffffffffffffffffffff\n      and\n      0xffffffffffffffffffffffffffffffffffffffff\n      and\n      dup2\n      mstore\n      0x20\n      add\n      swap1\n      dup2\n      mstore\n      0x20\n      add\n      0x00\n      keccak256\n      0x00\n        /* \"FunctionExample.sol\":524:564  balanceReceived[msg.sender] += msg.value */\n      dup3\n      dup3\n      sload\n      tag_37\n      swap2\n      swap1\n      tag_35\n      jump\t// in\n    tag_37:\n      swap3\n      pop\n      pop\n      dup2\n      swap1\n      sstore\n      pop\n        /* \"FunctionExample.sol\":387:571  function receiveMoney() public payable {... */\n      jump\t// out\n        /* \"FunctionExample.sol\":243:381  function destroySmartContract() public {... */\n    tag_15:\n        /* \"FunctionExample.sol\":314:319  owner */\n      0x01\n      0x00\n      swap1\n      sload\n      swap1\n      0x0100\n      exp\n      swap1\n      div\n      0xffffffffffffffffffffffffffffffffffffffff\n      and\n        /* \"FunctionExample.sol\":300:319  msg.sender == owner */\n      0xffffffffffffffffffffffffffffffffffffffff\n      and\n        /* \"FunctionExample.sol\":300:310  msg.sender */\n      caller\n        /* \"FunctionExample.sol\":300:319  msg.sender == owner */\n      0xffffffffffffffffffffffffffffffffffffffff\n      and\n      eq\n        /* \"FunctionExample.sol\":292:345  require(msg.sender == owner, \"You are not the owner\") */\n      tag_39\n      jumpi\n      mload(0x40)\n      0x08c379a000000000000000000000000000000000000000000000000000000000\n      dup2\n      mstore\n      0x04\n      add\n      tag_40\n      swap1\n      tag_41\n      jump\t// in\n    tag_40:\n      mload(0x40)\n      dup1\n      swap2\n      sub\n      swap1\n      revert\n    tag_39:\n        /* \"FunctionExample.sol\":368:373  owner */\n      0x01\n      0x00\n      swap1\n      sload\n      swap1\n      0x0100\n      exp\n      swap1\n      div\n      0xffffffffffffffffffffffffffffffffffffffff\n      and\n        /* \"FunctionExample.sol\":355:374  selfdestruct(owner) */\n      0xffffffffffffffffffffffffffffffffffffffff\n      and\n      selfdestruct\n        /* \"FunctionExample.sol\":144:172  address payable public owner */\n    tag_18:\n      0x01\n      0x00\n      swap1\n      sload\n      swap1\n      0x0100\n      exp\n      swap1\n      div\n      0xffffffffffffffffffffffffffffffffffffffff\n      and\n      dup2\n      jump\t// out\n        /* \"FunctionExample.sol\":91:138  mapping(address => uint) public balanceReceived */\n    tag_25:\n      mstore(0x20, 0x00)\n      dup1\n      0x00\n      mstore\n      keccak256(0x00, 0x40)\n      0x00\n      swap2\n      pop\n      swap1\n      pop\n      sload\n      dup2\n      jump\t// out\n        /* \"FunctionExample.sol\":577:892  function withdrawMoney(address payable _to, uint _amount) public {... */\n    tag_32:\n        /* \"FunctionExample.sol\":671:686  balanceReceived */\n      0x00\n        /* \"FunctionExample.sol\":671:698  balanceReceived[msg.sender] */\n      dup1\n        /* \"FunctionExample.sol\":687:697  msg.sender */\n      caller\n        /* \"FunctionExample.sol\":671:698  balanceReceived[msg.sender] */\n      0xffffffffffffffffffffffffffffffffffffffff\n      and\n      0xffffffffffffffffffffffffffffffffffffffff\n      and\n      dup2\n      mstore\n      0x20\n      add\n      swap1\n      dup2\n      mstore\n      0x20\n      add\n      0x00\n      keccak256\n      sload\n        /* \"FunctionExample.sol\":660:667  _amount */\n      dup2\n        /* \"FunctionExample.sol\":660:698  _amount <= balanceReceived[msg.sender] */\n      gt\n      iszero\n        /* \"FunctionExample.sol\":652:720  require(_amount <= balanceReceived[msg.sender], \"not enough funds.\") */\n      tag_43\n      jumpi\n      mload(0x40)\n      0x08c379a000000000000000000000000000000000000000000000000000000000\n      dup2\n      mstore\n      0x04\n      add\n      tag_44\n      swap1\n      tag_45\n      jump\t// in\n    tag_44:\n      mload(0x40)\n      dup1\n      swap2\n      sub\n      swap1\n      revert\n    tag_43:\n        /* \"FunctionExample.sol\":798:805  _amount */\n      dup1\n        /* \"FunctionExample.sol\":768:783  balanceReceived */\n      0x00\n        /* \"FunctionExample.sol\":768:795  balanceReceived[msg.sender] */\n      dup1\n        /* \"FunctionExample.sol\":784:794  msg.sender */\n      caller\n        /* \"FunctionExample.sol\":768:795  balanceReceived[msg.sender] */\n      0xffffffffffffffffffffffffffffffffffffffff\n      and\n      0xffffffffffffffffffffffffffffffffffffffff\n      and\n      dup2\n      mstore\n      0x20\n      add\n      swap1\n      dup2\n      mstore\n      0x20\n      add\n      0x00\n      keccak256\n      sload\n        /* \"FunctionExample.sol\":768:805  balanceReceived[msg.sender] - _amount */\n      tag_46\n      swap2\n      swap1\n      tag_47\n      jump\t// in\n    tag_46:\n        /* \"FunctionExample.sol\":737:752  balanceReceived */\n      0x00\n        /* \"FunctionExample.sol\":737:764  balanceReceived[msg.sender] */\n      dup1\n        /* \"FunctionExample.sol\":753:763  msg.sender */\n      caller\n        /* \"FunctionExample.sol\":737:764  balanceReceived[msg.sender] */\n      0xffffffffffffffffffffffffffffffffffffffff\n      and\n      0xffffffffffffffffffffffffffffffffffffffff\n      and\n      dup2\n      mstore\n      0x20\n      add\n      swap1\n      dup2\n      mstore\n      0x20\n      add\n      0x00\n      keccak256\n      sload\n        /* \"FunctionExample.sol\":737:805  balanceReceived[msg.sender] >= balanceReceived[msg.sender] - _amount */\n      lt\n      iszero\n        /* \"FunctionExample.sol\":730:806  assert(balanceReceived[msg.sender] >= balanceReceived[msg.sender] - _amount) */\n      tag_48\n      jumpi\n      mstore(0x00, 0x4e487b7100000000000000000000000000000000000000000000000000000000)\n      mstore(0x04, 0x01)\n      revert(0x00, 0x24)\n    tag_48:\n        /* \"FunctionExample.sol\":847:854  _amount */\n      dup1\n        /* \"FunctionExample.sol\":816:831  balanceReceived */\n      0x00\n        /* \"FunctionExample.sol\":816:843  balanceReceived[msg.sender] */\n      dup1\n        /* \"FunctionExample.sol\":832:842  msg.sender */\n      caller\n        /* \"FunctionExample.sol\":816:843  balanceReceived[msg.sender] */\n      0xffffffffffffffffffffffffffffffffffffffff\n      and\n      0xffffffffffffffffffffffffffffffffffffffff\n      and\n      dup2\n      mstore\n      0x20\n      add\n      swap1\n      dup2\n      mstore\n      0x20\n      add\n      0x00\n      keccak256\n      0x00\n        /* \"FunctionExample.sol\":816:854  balanceReceived[msg.sender] -= _amount */\n      dup3\n      dup3\n      sload\n      tag_49\n      swap2\n      swap1\n      tag_47\n      jump\t// in\n    tag_49:\n      swap3\n      pop\n      pop\n      dup2\n      swap1\n      sstore\n      pop\n        /* \"FunctionExample.sol\":864:867  _to */\n      dup2\n        /* \"FunctionExample.sol\":864:876  _to.transfer */\n      0xffffffffffffffffffffffffffffffffffffffff\n      and\n        /* \"FunctionExample.sol\":864:885  _to.transfer(_amount) */\n      0x08fc\n        /* \"FunctionExample.sol\":877:884  _amount */\n      dup3\n        /* \"FunctionExample.sol\":864:885  _to.transfer(_amount) */\n      swap1\n      dup2\n      iszero\n      mul\n      swap1\n      mload(0x40)\n      0x00\n      mload(0x40)\n      dup1\n      dup4\n      sub\n      dup2\n      dup6\n      dup9\n      dup9\n      call\n      swap4\n      pop\n      pop\n      pop\n      pop\n      iszero\n      dup1\n      iszero\n      tag_51\n      jumpi\n      returndatasize\n      0x00\n      dup1\n      returndatacopy\n      revert(0x00, returndatasize)\n    tag_51:\n      pop\n        /* \"FunctionExample.sol\":577:892  function withdrawMoney(address payable _to, uint _amount) public {... */\n      pop\n      pop\n      jump\t// out\n        /* \"#utility.yul\":7:146   */\n    tag_53:\n      0x00\n        /* \"#utility.yul\":91:97   */\n      dup2\n        /* \"#utility.yul\":78:98   */\n      calldataload\n        /* \"#utility.yul\":69:98   */\n      swap1\n      pop\n        /* \"#utility.yul\":107:140   */\n      tag_55\n        /* \"#utility.yul\":134:139   */\n      dup2\n        /* \"#utility.yul\":107:140   */\n      tag_56\n      jump\t// in\n    tag_55:\n        /* \"#utility.yul\":59:146   */\n      swap3\n      swap2\n      pop\n      pop\n      jump\t// out\n        /* \"#utility.yul\":152:307   */\n    tag_57:\n      0x00\n        /* \"#utility.yul\":244:250   */\n      dup2\n        /* \"#utility.yul\":231:251   */\n      calldataload\n        /* \"#utility.yul\":222:251   */\n      swap1\n      pop\n        /* \"#utility.yul\":260:301   */\n      tag_59\n        /* \"#utility.yul\":295:300   */\n      dup2\n        /* \"#utility.yul\":260:301   */\n      tag_60\n      jump\t// in\n    tag_59:\n        /* \"#utility.yul\":212:307   */\n      swap3\n      swap2\n      pop\n      pop\n      jump\t// out\n        /* \"#utility.yul\":313:452   */\n    tag_61:\n      0x00\n        /* \"#utility.yul\":397:403   */\n      dup2\n        /* \"#utility.yul\":384:404   */\n      calldataload\n        /* \"#utility.yul\":375:404   */\n      swap1\n      pop\n        /* \"#utility.yul\":413:446   */\n      tag_63\n        /* \"#utility.yul\":440:445   */\n      dup2\n        /* \"#utility.yul\":413:446   */\n      tag_64\n      jump\t// in\n    tag_63:\n        /* \"#utility.yul\":365:452   */\n      swap3\n      swap2\n      pop\n      pop\n      jump\t// out\n        /* \"#utility.yul\":458:720   */\n    tag_24:\n      0x00\n        /* \"#utility.yul\":566:568   */\n      0x20\n        /* \"#utility.yul\":554:563   */\n      dup3\n        /* \"#utility.yul\":545:552   */\n      dup5\n        /* \"#utility.yul\":541:564   */\n      sub\n        /* \"#utility.yul\":537:569   */\n      slt\n        /* \"#utility.yul\":534:536   */\n      iszero\n      tag_66\n      jumpi\n        /* \"#utility.yul\":582:583   */\n      0x00\n        /* \"#utility.yul\":579:580   */\n      dup1\n        /* \"#utility.yul\":572:584   */\n      revert\n        /* \"#utility.yul\":534:536   */\n    tag_66:\n        /* \"#utility.yul\":625:626   */\n      0x00\n        /* \"#utility.yul\":650:703   */\n      tag_67\n        /* \"#utility.yul\":695:702   */\n      dup5\n        /* \"#utility.yul\":686:692   */\n      dup3\n        /* \"#utility.yul\":675:684   */\n      dup6\n        /* \"#utility.yul\":671:693   */\n      add\n        /* \"#utility.yul\":650:703   */\n      tag_53\n      jump\t// in\n    tag_67:\n        /* \"#utility.yul\":640:703   */\n      swap2\n      pop\n        /* \"#utility.yul\":596:713   */\n      pop\n        /* \"#utility.yul\":524:720   */\n      swap3\n      swap2\n      pop\n      pop\n      jump\t// out\n        /* \"#utility.yul\":726:1149   */\n    tag_31:\n      0x00\n      dup1\n        /* \"#utility.yul\":859:861   */\n      0x40\n        /* \"#utility.yul\":847:856   */\n      dup4\n        /* \"#utility.yul\":838:845   */\n      dup6\n        /* \"#utility.yul\":834:857   */\n      sub\n        /* \"#utility.yul\":830:862   */\n      slt\n        /* \"#utility.yul\":827:829   */\n      iszero\n      tag_69\n      jumpi\n        /* \"#utility.yul\":875:876   */\n      0x00\n        /* \"#utility.yul\":872:873   */\n      dup1\n        /* \"#utility.yul\":865:877   */\n      revert\n        /* \"#utility.yul\":827:829   */\n    tag_69:\n        /* \"#utility.yul\":918:919   */\n      0x00\n        /* \"#utility.yul\":943:1004   */\n      tag_70\n        /* \"#utility.yul\":996:1003   */\n      dup6\n        /* \"#utility.yul\":987:993   */\n      dup3\n        /* \"#utility.yul\":976:985   */\n      dup7\n        /* \"#utility.yul\":972:994   */\n      add\n        /* \"#utility.yul\":943:1004   */\n      tag_57\n      jump\t// in\n    tag_70:\n        /* \"#utility.yul\":933:1004   */\n      swap3\n      pop\n        /* \"#utility.yul\":889:1014   */\n      pop\n        /* \"#utility.yul\":1053:1055   */\n      0x20\n        /* \"#utility.yul\":1079:1132   */\n      tag_71\n        /* \"#utility.yul\":1124:1131   */\n      dup6\n        /* \"#utility.yul\":1115:1121   */\n      dup3\n        /* \"#utility.yul\":1104:1113   */\n      dup7\n        /* \"#utility.yul\":1100:1122   */\n      add\n        /* \"#utility.yul\":1079:1132   */\n      tag_61\n      jump\t// in\n    tag_71:\n        /* \"#utility.yul\":1069:1132   */\n      swap2\n      pop\n        /* \"#utility.yul\":1024:1142   */\n      pop\n        /* \"#utility.yul\":817:1149   */\n      swap3\n      pop\n      swap3\n      swap1\n      pop\n      jump\t// out\n        /* \"#utility.yul\":1155:1297   */\n    tag_72:\n        /* \"#utility.yul\":1258:1290   */\n      tag_74\n        /* \"#utility.yul\":1284:1289   */\n      dup2\n        /* \"#utility.yul\":1258:1290   */\n      tag_75\n      jump\t// in\n    tag_74:\n        /* \"#utility.yul\":1253:1256   */\n      dup3\n        /* \"#utility.yul\":1246:1291   */\n      mstore\n        /* \"#utility.yul\":1236:1297   */\n      pop\n      pop\n      jump\t// out\n        /* \"#utility.yul\":1303:1669   */\n    tag_76:\n      0x00\n        /* \"#utility.yul\":1466:1533   */\n      tag_78\n        /* \"#utility.yul\":1530:1532   */\n      0x11\n        /* \"#utility.yul\":1525:1528   */\n      dup4\n        /* \"#utility.yul\":1466:1533   */\n      tag_79\n      jump\t// in\n    tag_78:\n        /* \"#utility.yul\":1459:1533   */\n      swap2\n      pop\n        /* \"#utility.yul\":1542:1635   */\n      tag_80\n        /* \"#utility.yul\":1631:1634   */\n      dup3\n        /* \"#utility.yul\":1542:1635   */\n      tag_81\n      jump\t// in\n    tag_80:\n        /* \"#utility.yul\":1660:1662   */\n      0x20\n        /* \"#utility.yul\":1655:1658   */\n      dup3\n        /* \"#utility.yul\":1651:1663   */\n      add\n        /* \"#utility.yul\":1644:1663   */\n      swap1\n      pop\n        /* \"#utility.yul\":1449:1669   */\n      swap2\n      swap1\n      pop\n      jump\t// out\n        /* \"#utility.yul\":1675:2041   */\n    tag_82:\n      0x00\n        /* \"#utility.yul\":1838:1905   */\n      tag_84\n        /* \"#utility.yul\":1902:1904   */\n      0x15\n        /* \"#utility.yul\":1897:1900   */\n      dup4\n        /* \"#utility.yul\":1838:1905   */\n      tag_79\n      jump\t// in\n    tag_84:\n        /* \"#utility.yul\":1831:1905   */\n      swap2\n      pop\n        /* \"#utility.yul\":1914:2007   */\n      tag_85\n        /* \"#utility.yul\":2003:2006   */\n      dup3\n        /* \"#utility.yul\":1914:2007   */\n      tag_86\n      jump\t// in\n    tag_85:\n        /* \"#utility.yul\":2032:2034   */\n      0x20\n        /* \"#utility.yul\":2027:2030   */\n      dup3\n        /* \"#utility.yul\":2023:2035   */\n      add\n        /* \"#utility.yul\":2016:2035   */\n      swap1\n      pop\n        /* \"#utility.yul\":1821:2041   */\n      swap2\n      swap1\n      pop\n      jump\t// out\n        /* \"#utility.yul\":2047:2165   */\n    tag_87:\n        /* \"#utility.yul\":2134:2158   */\n      tag_89\n        /* \"#utility.yul\":2152:2157   */\n      dup2\n        /* \"#utility.yul\":2134:2158   */\n      tag_90\n      jump\t// in\n    tag_89:\n        /* \"#utility.yul\":2129:2132   */\n      dup3\n        /* \"#utility.yul\":2122:2159   */\n      mstore\n        /* \"#utility.yul\":2112:2165   */\n      pop\n      pop\n      jump\t// out\n        /* \"#utility.yul\":2171:2425   */\n    tag_20:\n      0x00\n        /* \"#utility.yul\":2318:2320   */\n      0x20\n        /* \"#utility.yul\":2307:2316   */\n      dup3\n        /* \"#utility.yul\":2303:2321   */\n      add\n        /* \"#utility.yul\":2295:2321   */\n      swap1\n      pop\n        /* \"#utility.yul\":2331:2418   */\n      tag_92\n        /* \"#utility.yul\":2415:2416   */\n      0x00\n        /* \"#utility.yul\":2404:2413   */\n      dup4\n        /* \"#utility.yul\":2400:2417   */\n      add\n        /* \"#utility.yul\":2391:2397   */\n      dup5\n        /* \"#utility.yul\":2331:2418   */\n      tag_72\n      jump\t// in\n    tag_92:\n        /* \"#utility.yul\":2285:2425   */\n      swap3\n      swap2\n      pop\n      pop\n      jump\t// out\n        /* \"#utility.yul\":2431:2850   */\n    tag_45:\n      0x00\n        /* \"#utility.yul\":2635:2637   */\n      0x20\n        /* \"#utility.yul\":2624:2633   */\n      dup3\n        /* \"#utility.yul\":2620:2638   */\n      add\n        /* \"#utility.yul\":2612:2638   */\n      swap1\n      pop\n        /* \"#utility.yul\":2684:2693   */\n      dup2\n        /* \"#utility.yul\":2678:2682   */\n      dup2\n        /* \"#utility.yul\":2674:2694   */\n      sub\n        /* \"#utility.yul\":2670:2671   */\n      0x00\n        /* \"#utility.yul\":2659:2668   */\n      dup4\n        /* \"#utility.yul\":2655:2672   */\n      add\n        /* \"#utility.yul\":2648:2695   */\n      mstore\n        /* \"#utility.yul\":2712:2843   */\n      tag_94\n        /* \"#utility.yul\":2838:2842   */\n      dup2\n        /* \"#utility.yul\":2712:2843   */\n      tag_76\n      jump\t// in\n    tag_94:\n        /* \"#utility.yul\":2704:2843   */\n      swap1\n      pop\n        /* \"#utility.yul\":2602:2850   */\n      swap2\n      swap1\n      pop\n      jump\t// out\n        /* \"#utility.yul\":2856:3275   */\n    tag_41:\n      0x00\n        /* \"#utility.yul\":3060:3062   */\n      0x20\n        /* \"#utility.yul\":3049:3058   */\n      dup3\n        /* \"#utility.yul\":3045:3063   */\n      add\n        /* \"#utility.yul\":3037:3063   */\n      swap1\n      pop\n        /* \"#utility.yul\":3109:3118   */\n      dup2\n        /* \"#utility.yul\":3103:3107   */\n      dup2\n        /* \"#utility.yul\":3099:3119   */\n      sub\n        /* \"#utility.yul\":3095:3096   */\n      0x00\n        /* \"#utility.yul\":3084:3093   */\n      dup4\n        /* \"#utility.yul\":3080:3097   */\n      add\n        /* \"#utility.yul\":3073:3120   */\n      mstore\n        /* \"#utility.yul\":3137:3268   */\n      tag_96\n        /* \"#utility.yul\":3263:3267   */\n      dup2\n        /* \"#utility.yul\":3137:3268   */\n      tag_82\n      jump\t// in\n    tag_96:\n        /* \"#utility.yul\":3129:3268   */\n      swap1\n      pop\n        /* \"#utility.yul\":3027:3275   */\n      swap2\n      swap1\n      pop\n      jump\t// out\n        /* \"#utility.yul\":3281:3503   */\n    tag_27:\n      0x00\n        /* \"#utility.yul\":3412:3414   */\n      0x20\n        /* \"#utility.yul\":3401:3410   */\n      dup3\n        /* \"#utility.yul\":3397:3415   */\n      add\n        /* \"#utility.yul\":3389:3415   */\n      swap1\n      pop\n        /* \"#utility.yul\":3425:3496   */\n      tag_98\n        /* \"#utility.yul\":3493:3494   */\n      0x00\n        /* \"#utility.yul\":3482:3491   */\n      dup4\n        /* \"#utility.yul\":3478:3495   */\n      add\n        /* \"#utility.yul\":3469:3475   */\n      dup5\n        /* \"#utility.yul\":3425:3496   */\n      tag_87\n      jump\t// in\n    tag_98:\n        /* \"#utility.yul\":3379:3503   */\n      swap3\n      swap2\n      pop\n      pop\n      jump\t// out\n        /* \"#utility.yul\":3509:3678   */\n    tag_79:\n      0x00\n        /* \"#utility.yul\":3627:3633   */\n      dup3\n        /* \"#utility.yul\":3622:3625   */\n      dup3\n        /* \"#utility.yul\":3615:3634   */\n      mstore\n        /* \"#utility.yul\":3667:3671   */\n      0x20\n        /* \"#utility.yul\":3662:3665   */\n      dup3\n        /* \"#utility.yul\":3658:3672   */\n      add\n        /* \"#utility.yul\":3643:3672   */\n      swap1\n      pop\n        /* \"#utility.yul\":3605:3678   */\n      swap3\n      swap2\n      pop\n      pop\n      jump\t// out\n        /* \"#utility.yul\":3684:3989   */\n    tag_35:\n      0x00\n        /* \"#utility.yul\":3743:3763   */\n      tag_101\n        /* \"#utility.yul\":3761:3762   */\n      dup3\n        /* \"#utility.yul\":3743:3763   */\n      tag_90\n      jump\t// in\n    tag_101:\n        /* \"#utility.yul\":3738:3763   */\n      swap2\n      pop\n        /* \"#utility.yul\":3777:3797   */\n      tag_102\n        /* \"#utility.yul\":3795:3796   */\n      dup4\n        /* \"#utility.yul\":3777:3797   */\n      tag_90\n      jump\t// in\n    tag_102:\n        /* \"#utility.yul\":3772:3797   */\n      swap3\n      pop\n        /* \"#utility.yul\":3931:3932   */\n      dup3\n        /* \"#utility.yul\":3863:3929   */\n      0xffffffffffffffffffffffffffffffffffffffffffffffffffffffffffffffff\n        /* \"#utility.yul\":3859:3933   */\n      sub\n        /* \"#utility.yul\":3856:3857   */\n      dup3\n        /* \"#utility.yul\":3853:3934   */\n      gt\n        /* \"#utility.yul\":3850:3852   */\n      iszero\n      tag_103\n      jumpi\n        /* \"#utility.yul\":3937:3955   */\n      tag_104\n      tag_105\n      jump\t// in\n    tag_104:\n        /* \"#utility.yul\":3850:3852   */\n    tag_103:\n        /* \"#utility.yul\":3981:3982   */\n      dup3\n        /* \"#utility.yul\":3978:3979   */\n      dup3\n        /* \"#utility.yul\":3974:3983   */\n      add\n        /* \"#utility.yul\":3967:3983   */\n      swap1\n      pop\n        /* \"#utility.yul\":3728:3989   */\n      swap3\n      swap2\n      pop\n      pop\n      jump\t// out\n        /* \"#utility.yul\":3995:4186   */\n    tag_47:\n      0x00\n        /* \"#utility.yul\":4055:4075   */\n      tag_107\n        /* \"#utility.yul\":4073:4074   */\n      dup3\n        /* \"#utility.yul\":4055:4075   */\n      tag_90\n      jump\t// in\n    tag_107:\n        /* \"#utility.yul\":4050:4075   */\n      swap2\n      pop\n        /* \"#utility.yul\":4089:4109   */\n      tag_108\n        /* \"#utility.yul\":4107:4108   */\n      dup4\n        /* \"#utility.yul\":4089:4109   */\n      tag_90\n      jump\t// in\n    tag_108:\n        /* \"#utility.yul\":4084:4109   */\n      swap3\n      pop\n        /* \"#utility.yul\":4128:4129   */\n      dup3\n        /* \"#utility.yul\":4125:4126   */\n      dup3\n        /* \"#utility.yul\":4122:4130   */\n      lt\n        /* \"#utility.yul\":4119:4121   */\n      iszero\n      tag_109\n      jumpi\n        /* \"#utility.yul\":4133:4151   */\n      tag_110\n      tag_105\n      jump\t// in\n    tag_110:\n        /* \"#utility.yul\":4119:4121   */\n    tag_109:\n        /* \"#utility.yul\":4178:4179   */\n      dup3\n        /* \"#utility.yul\":4175:4176   */\n      dup3\n        /* \"#utility.yul\":4171:4180   */\n      sub\n        /* \"#utility.yul\":4163:4180   */\n      swap1\n      pop\n        /* \"#utility.yul\":4040:4186   */\n      swap3\n      swap2\n      pop\n      pop\n      jump\t// out\n        /* \"#utility.yul\":4192:4288   */\n    tag_111:\n      0x00\n        /* \"#utility.yul\":4258:4282   */\n      tag_113\n        /* \"#utility.yul\":4276:4281   */\n      dup3\n        /* \"#utility.yul\":4258:4282   */\n      tag_114\n      jump\t// in\n    tag_113:\n        /* \"#utility.yul\":4247:4282   */\n      swap1\n      pop\n        /* \"#utility.yul\":4237:4288   */\n      swap2\n      swap1\n      pop\n      jump\t// out\n        /* \"#utility.yul\":4294:4398   */\n    tag_75:\n      0x00\n        /* \"#utility.yul\":4368:4392   */\n      tag_116\n        /* \"#utility.yul\":4386:4391   */\n      dup3\n        /* \"#utility.yul\":4368:4392   */\n      tag_114\n      jump\t// in\n    tag_116:\n        /* \"#utility.yul\":4357:4392   */\n      swap1\n      pop\n        /* \"#utility.yul\":4347:4398   */\n      swap2\n      swap1\n      pop\n      jump\t// out\n        /* \"#utility.yul\":4404:4530   */\n    tag_114:\n      0x00\n        /* \"#utility.yul\":4481:4523   */\n      0xffffffffffffffffffffffffffffffffffffffff\n        /* \"#utility.yul\":4474:4479   */\n      dup3\n        /* \"#utility.yul\":4470:4524   */\n      and\n        /* \"#utility.yul\":4459:4524   */\n      swap1\n      pop\n        /* \"#utility.yul\":4449:4530   */\n      swap2\n      swap1\n      pop\n      jump\t// out\n        /* \"#utility.yul\":4536:4613   */\n    tag_90:\n      0x00\n        /* \"#utility.yul\":4602:4607   */\n      dup2\n        /* \"#utility.yul\":4591:4607   */\n      swap1\n      pop\n        /* \"#utility.yul\":4581:4613   */\n      swap2\n      swap1\n      pop\n      jump\t// out\n        /* \"#utility.yul\":4619:4799   */\n    tag_105:\n        /* \"#utility.yul\":4667:4744   */\n      0x4e487b7100000000000000000000000000000000000000000000000000000000\n        /* \"#utility.yul\":4664:4665   */\n      0x00\n        /* \"#utility.yul\":4657:4745   */\n      mstore\n        /* \"#utility.yul\":4764:4768   */\n      0x11\n        /* \"#utility.yul\":4761:4762   */\n      0x04\n        /* \"#utility.yul\":4754:4769   */\n      mstore\n        /* \"#utility.yul\":4788:4792   */\n      0x24\n        /* \"#utility.yul\":4785:4786   */\n      0x00\n        /* \"#utility.yul\":4778:4793   */\n      revert\n        /* \"#utility.yul\":4805:4972   */\n    tag_81:\n        /* \"#utility.yul\":4945:4964   */\n      0x6e6f7420656e6f7567682066756e64732e000000000000000000000000000000\n        /* \"#utility.yul\":4941:4942   */\n      0x00\n        /* \"#utility.yul\":4933:4939   */\n      dup3\n        /* \"#utility.yul\":4929:4943   */\n      add\n        /* \"#utility.yul\":4922:4965   */\n      mstore\n        /* \"#utility.yul\":4911:4972   */\n      pop\n      jump\t// out\n        /* \"#utility.yul\":4978:5149   */\n    tag_86:\n        /* \"#utility.yul\":5118:5141   */\n      0x596f7520617265206e6f7420746865206f776e65720000000000000000000000\n        /* \"#utility.yul\":5114:5115   */\n      0x00\n        /* \"#utility.yul\":5106:5112   */\n      dup3\n        /* \"#utility.yul\":5102:5116   */\n      add\n        /* \"#utility.yul\":5095:5142   */\n      mstore\n        /* \"#utility.yul\":5084:5149   */\n      pop\n      jump\t// out\n        /* \"#utility.yul\":5155:5277   */\n    tag_56:\n        /* \"#utility.yul\":5228:5252   */\n      tag_123\n        /* \"#utility.yul\":5246:5251   */\n      dup2\n        /* \"#utility.yul\":5228:5252   */\n      tag_111\n      jump\t// in\n    tag_123:\n        /* \"#utility.yul\":5221:5226   */\n      dup2\n        /* \"#utility.yul\":5218:5253   */\n      eq\n        /* \"#utility.yul\":5208:5210   */\n      tag_124\n      jumpi\n        /* \"#utility.yul\":5267:5268   */\n      0x00\n        /* \"#utility.yul\":5264:5265   */\n      dup1\n        /* \"#utility.yul\":5257:5269   */\n      revert\n        /* \"#utility.yul\":5208:5210   */\n    tag_124:\n        /* \"#utility.yul\":5198:5277   */\n      pop\n      jump\t// out\n        /* \"#utility.yul\":5283:5421   */\n    tag_60:\n        /* \"#utility.yul\":5364:5396   */\n      tag_126\n        /* \"#utility.yul\":5390:5395   */\n      dup2\n        /* \"#utility.yul\":5364:5396   */\n      tag_75\n      jump\t// in\n    tag_126:\n        /* \"#utility.yul\":5357:5362   */\n      dup2\n        /* \"#utility.yul\":5354:5397   */\n      eq\n        /* \"#utility.yul\":5344:5346   */\n      tag_127\n      jumpi\n        /* \"#utility.yul\":5411:5412   */\n      0x00\n        /* \"#utility.yul\":5408:5409   */\n      dup1\n        /* \"#utility.yul\":5401:5413   */\n      revert\n        /* \"#utility.yul\":5344:5346   */\n    tag_127:\n        /* \"#utility.yul\":5334:5421   */\n      pop\n      jump\t// out\n        /* \"#utility.yul\":5427:5549   */\n    tag_64:\n        /* \"#utility.yul\":5500:5524   */\n      tag_129\n        /* \"#utility.yul\":5518:5523   */\n      dup2\n        /* \"#utility.yul\":5500:5524   */\n      tag_90\n      jump\t// in\n    tag_129:\n        /* \"#utility.yul\":5493:5498   */\n      dup2\n        /* \"#utility.yul\":5490:5525   */\n      eq\n        /* \"#utility.yul\":5480:5482   */\n      tag_130\n      jumpi\n        /* \"#utility.yul\":5539:5540   */\n      0x00\n        /* \"#utility.yul\":5536:5537   */\n      dup1\n        /* \"#utility.yul\":5529:5541   */\n      revert\n        /* \"#utility.yul\":5480:5482   */\n    tag_130:\n        /* \"#utility.yul\":5470:5549   */\n      pop\n      jump\t// out\n\n    auxdata: 0xa2646970667358221220187b83f12115719b3d3d549ce2bb53018b86bfc2315b51a899bdc64a825c5e6364736f6c63430008030033\n}\n",
				"bytecode": {
					"linkReferences": {},
					"object": "608060405234801561001057600080fd5b5033600160006101000a81548173ffffffffffffffffffffffffffffffffffffffff021916908373ffffffffffffffffffffffffffffffffffffffff160217905550610874806100616000396000f3fe60806040526004361061004e5760003560e01c80636d26ec1814610062578063854747281461006c5780638da5cb5b14610083578063d18a42e1146100ae578063f274c897146100eb5761005d565b3661005d5761005b610114565b005b600080fd5b61006a610114565b005b34801561007857600080fd5b50610081610229565b005b34801561008f57600080fd5b506100986102f4565b6040516100a59190610619565b60405180910390f35b3480156100ba57600080fd5b506100d560048036038101906100d09190610550565b61031a565b6040516100e29190610674565b60405180910390f35b3480156100f757600080fd5b50610112600480360381019061010d9190610579565b610332565b005b6000803373ffffffffffffffffffffffffffffffffffffffff1673ffffffffffffffffffffffffffffffffffffffff16815260200190815260200160002054346000803373ffffffffffffffffffffffffffffffffffffffff1673ffffffffffffffffffffffffffffffffffffffff1681526020019081526020016000205461019d91906106a0565b10156101d2577f4e487b7100000000000000000000000000000000000000000000000000000000600052600160045260246000fd5b346000803373ffffffffffffffffffffffffffffffffffffffff1673ffffffffffffffffffffffffffffffffffffffff168152602001908152602001600020600082825461022091906106a0565b92505081905550565b600160009054906101000a900473ffffffffffffffffffffffffffffffffffffffff1673ffffffffffffffffffffffffffffffffffffffff163373ffffffffffffffffffffffffffffffffffffffff16146102b9576040517f08c379a00000000000000000000000000000000000000000000000000000000081526004016102b090610654565b60405180910390fd5b600160009054906101000a900473ffffffffffffffffffffffffffffffffffffffff1673ffffffffffffffffffffffffffffffffffffffff16ff5b600160009054906101000a900473ffffffffffffffffffffffffffffffffffffffff1681565b60006020528060005260406000206000915090505481565b6000803373ffffffffffffffffffffffffffffffffffffffff1673ffffffffffffffffffffffffffffffffffffffff168152602001908152602001600020548111156103b3576040517f08c379a00000000000000000000000000000000000000000000000000000000081526004016103aa90610634565b60405180910390fd5b806000803373ffffffffffffffffffffffffffffffffffffffff1673ffffffffffffffffffffffffffffffffffffffff168152602001908152602001600020546103fd91906106f6565b6000803373ffffffffffffffffffffffffffffffffffffffff1673ffffffffffffffffffffffffffffffffffffffff168152602001908152602001600020541015610471577f4e487b7100000000000000000000000000000000000000000000000000000000600052600160045260246000fd5b806000803373ffffffffffffffffffffffffffffffffffffffff1673ffffffffffffffffffffffffffffffffffffffff16815260200190815260200160002060008282546104bf91906106f6565b925050819055508173ffffffffffffffffffffffffffffffffffffffff166108fc829081150290604051600060405180830381858888f1935050505015801561050c573d6000803e3d6000fd5b505050565b600081359050610520816107f9565b92915050565b60008135905061053581610810565b92915050565b60008135905061054a81610827565b92915050565b60006020828403121561056257600080fd5b600061057084828501610511565b91505092915050565b6000806040838503121561058c57600080fd5b600061059a85828601610526565b92505060206105ab8582860161053b565b9150509250929050565b6105be8161073c565b82525050565b60006105d160118361068f565b91506105dc826107a7565b602082019050919050565b60006105f460158361068f565b91506105ff826107d0565b602082019050919050565b6106138161076e565b82525050565b600060208201905061062e60008301846105b5565b92915050565b6000602082019050818103600083015261064d816105c4565b9050919050565b6000602082019050818103600083015261066d816105e7565b9050919050565b6000602082019050610689600083018461060a565b92915050565b600082825260208201905092915050565b60006106ab8261076e565b91506106b68361076e565b9250827fffffffffffffffffffffffffffffffffffffffffffffffffffffffffffffffff038211156106eb576106ea610778565b5b828201905092915050565b60006107018261076e565b915061070c8361076e565b92508282101561071f5761071e610778565b5b828203905092915050565b60006107358261074e565b9050919050565b60006107478261074e565b9050919050565b600073ffffffffffffffffffffffffffffffffffffffff82169050919050565b6000819050919050565b7f4e487b7100000000000000000000000000000000000000000000000000000000600052601160045260246000fd5b7f6e6f7420656e6f7567682066756e64732e000000000000000000000000000000600082015250565b7f596f7520617265206e6f7420746865206f776e65720000000000000000000000600082015250565b6108028161072a565b811461080d57600080fd5b50565b6108198161073c565b811461082457600080fd5b50565b6108308161076e565b811461083b57600080fd5b5056fea2646970667358221220187b83f12115719b3d3d549ce2bb53018b86bfc2315b51a899bdc64a825c5e6364736f6c63430008030033",
					"opcodes": "PUSH1 0x80 PUSH1 0x40 MSTORE CALLVALUE DUP1 ISZERO PUSH2 0x10 JUMPI PUSH1 0x0 DUP1 REVERT JUMPDEST POP CALLER PUSH1 0x1 PUSH1 0x0 PUSH2 0x100 EXP DUP2 SLOAD DUP2 PUSH20 0xFFFFFFFFFFFFFFFFFFFFFFFFFFFFFFFFFFFFFFFF MUL NOT AND SWAP1 DUP4 PUSH20 0xFFFFFFFFFFFFFFFFFFFFFFFFFFFFFFFFFFFFFFFF AND MUL OR SWAP1 SSTORE POP PUSH2 0x874 DUP1 PUSH2 0x61 PUSH1 0x0 CODECOPY PUSH1 0x0 RETURN INVALID PUSH1 0x80 PUSH1 0x40 MSTORE PUSH1 0x4 CALLDATASIZE LT PUSH2 0x4E JUMPI PUSH1 0x0 CALLDATALOAD PUSH1 0xE0 SHR DUP1 PUSH4 0x6D26EC18 EQ PUSH2 0x62 JUMPI DUP1 PUSH4 0x85474728 EQ PUSH2 0x6C JUMPI DUP1 PUSH4 0x8DA5CB5B EQ PUSH2 0x83 JUMPI DUP1 PUSH4 0xD18A42E1 EQ PUSH2 0xAE JUMPI DUP1 PUSH4 0xF274C897 EQ PUSH2 0xEB JUMPI PUSH2 0x5D JUMP JUMPDEST CALLDATASIZE PUSH2 0x5D JUMPI PUSH2 0x5B PUSH2 0x114 JUMP JUMPDEST STOP JUMPDEST PUSH1 0x0 DUP1 REVERT JUMPDEST PUSH2 0x6A PUSH2 0x114 JUMP JUMPDEST STOP JUMPDEST CALLVALUE DUP1 ISZERO PUSH2 0x78 JUMPI PUSH1 0x0 DUP1 REVERT JUMPDEST POP PUSH2 0x81 PUSH2 0x229 JUMP JUMPDEST STOP JUMPDEST CALLVALUE DUP1 ISZERO PUSH2 0x8F JUMPI PUSH1 0x0 DUP1 REVERT JUMPDEST POP PUSH2 0x98 PUSH2 0x2F4 JUMP JUMPDEST PUSH1 0x40 MLOAD PUSH2 0xA5 SWAP2 SWAP1 PUSH2 0x619 JUMP JUMPDEST PUSH1 0x40 MLOAD DUP1 SWAP2 SUB SWAP1 RETURN JUMPDEST CALLVALUE DUP1 ISZERO PUSH2 0xBA JUMPI PUSH1 0x0 DUP1 REVERT JUMPDEST POP PUSH2 0xD5 PUSH1 0x4 DUP1 CALLDATASIZE SUB DUP2 ADD SWAP1 PUSH2 0xD0 SWAP2 SWAP1 PUSH2 0x550 JUMP JUMPDEST PUSH2 0x31A JUMP JUMPDEST PUSH1 0x40 MLOAD PUSH2 0xE2 SWAP2 SWAP1 PUSH2 0x674 JUMP JUMPDEST PUSH1 0x40 MLOAD DUP1 SWAP2 SUB SWAP1 RETURN JUMPDEST CALLVALUE DUP1 ISZERO PUSH2 0xF7 JUMPI PUSH1 0x0 DUP1 REVERT JUMPDEST POP PUSH2 0x112 PUSH1 0x4 DUP1 CALLDATASIZE SUB DUP2 ADD SWAP1 PUSH2 0x10D SWAP2 SWAP1 PUSH2 0x579 JUMP JUMPDEST PUSH2 0x332 JUMP JUMPDEST STOP JUMPDEST PUSH1 0x0 DUP1 CALLER PUSH20 0xFFFFFFFFFFFFFFFFFFFFFFFFFFFFFFFFFFFFFFFF AND PUSH20 0xFFFFFFFFFFFFFFFFFFFFFFFFFFFFFFFFFFFFFFFF AND DUP2 MSTORE PUSH1 0x20 ADD SWAP1 DUP2 MSTORE PUSH1 0x20 ADD PUSH1 0x0 KECCAK256 SLOAD CALLVALUE PUSH1 0x0 DUP1 CALLER PUSH20 0xFFFFFFFFFFFFFFFFFFFFFFFFFFFFFFFFFFFFFFFF AND PUSH20 0xFFFFFFFFFFFFFFFFFFFFFFFFFFFFFFFFFFFFFFFF AND DUP2 MSTORE PUSH1 0x20 ADD SWAP1 DUP2 MSTORE PUSH1 0x20 ADD PUSH1 0x0 KECCAK256 SLOAD PUSH2 0x19D SWAP2 SWAP1 PUSH2 0x6A0 JUMP JUMPDEST LT ISZERO PUSH2 0x1D2 JUMPI PUSH32 0x4E487B7100000000000000000000000000000000000000000000000000000000 PUSH1 0x0 MSTORE PUSH1 0x1 PUSH1 0x4 MSTORE PUSH1 0x24 PUSH1 0x0 REVERT JUMPDEST CALLVALUE PUSH1 0x0 DUP1 CALLER PUSH20 0xFFFFFFFFFFFFFFFFFFFFFFFFFFFFFFFFFFFFFFFF AND PUSH20 0xFFFFFFFFFFFFFFFFFFFFFFFFFFFFFFFFFFFFFFFF AND DUP2 MSTORE PUSH1 0x20 ADD SWAP1 DUP2 MSTORE PUSH1 0x20 ADD PUSH1 0x0 KECCAK256 PUSH1 0x0 DUP3 DUP3 SLOAD PUSH2 0x220 SWAP2 SWAP1 PUSH2 0x6A0 JUMP JUMPDEST SWAP3 POP POP DUP2 SWAP1 SSTORE POP JUMP JUMPDEST PUSH1 0x1 PUSH1 0x0 SWAP1 SLOAD SWAP1 PUSH2 0x100 EXP SWAP1 DIV PUSH20 0xFFFFFFFFFFFFFFFFFFFFFFFFFFFFFFFFFFFFFFFF AND PUSH20 0xFFFFFFFFFFFFFFFFFFFFFFFFFFFFFFFFFFFFFFFF AND CALLER PUSH20 0xFFFFFFFFFFFFFFFFFFFFFFFFFFFFFFFFFFFFFFFF AND EQ PUSH2 0x2B9 JUMPI PUSH1 0x40 MLOAD PUSH32 0x8C379A000000000000000000000000000000000000000000000000000000000 DUP2 MSTORE PUSH1 0x4 ADD PUSH2 0x2B0 SWAP1 PUSH2 0x654 JUMP JUMPDEST PUSH1 0x40 MLOAD DUP1 SWAP2 SUB SWAP1 REVERT JUMPDEST PUSH1 0x1 PUSH1 0x0 SWAP1 SLOAD SWAP1 PUSH2 0x100 EXP SWAP1 DIV PUSH20 0xFFFFFFFFFFFFFFFFFFFFFFFFFFFFFFFFFFFFFFFF AND PUSH20 0xFFFFFFFFFFFFFFFFFFFFFFFFFFFFFFFFFFFFFFFF AND SELFDESTRUCT JUMPDEST PUSH1 0x1 PUSH1 0x0 SWAP1 SLOAD SWAP1 PUSH2 0x100 EXP SWAP1 DIV PUSH20 0xFFFFFFFFFFFFFFFFFFFFFFFFFFFFFFFFFFFFFFFF AND DUP2 JUMP JUMPDEST PUSH1 0x0 PUSH1 0x20 MSTORE DUP1 PUSH1 0x0 MSTORE PUSH1 0x40 PUSH1 0x0 KECCAK256 PUSH1 0x0 SWAP2 POP SWAP1 POP SLOAD DUP2 JUMP JUMPDEST PUSH1 0x0 DUP1 CALLER PUSH20 0xFFFFFFFFFFFFFFFFFFFFFFFFFFFFFFFFFFFFFFFF AND PUSH20 0xFFFFFFFFFFFFFFFFFFFFFFFFFFFFFFFFFFFFFFFF AND DUP2 MSTORE PUSH1 0x20 ADD SWAP1 DUP2 MSTORE PUSH1 0x20 ADD PUSH1 0x0 KECCAK256 SLOAD DUP2 GT ISZERO PUSH2 0x3B3 JUMPI PUSH1 0x40 MLOAD PUSH32 0x8C379A000000000000000000000000000000000000000000000000000000000 DUP2 MSTORE PUSH1 0x4 ADD PUSH2 0x3AA SWAP1 PUSH2 0x634 JUMP JUMPDEST PUSH1 0x40 MLOAD DUP1 SWAP2 SUB SWAP1 REVERT JUMPDEST DUP1 PUSH1 0x0 DUP1 CALLER PUSH20 0xFFFFFFFFFFFFFFFFFFFFFFFFFFFFFFFFFFFFFFFF AND PUSH20 0xFFFFFFFFFFFFFFFFFFFFFFFFFFFFFFFFFFFFFFFF AND DUP2 MSTORE PUSH1 0x20 ADD SWAP1 DUP2 MSTORE PUSH1 0x20 ADD PUSH1 0x0 KECCAK256 SLOAD PUSH2 0x3FD SWAP2 SWAP1 PUSH2 0x6F6 JUMP JUMPDEST PUSH1 0x0 DUP1 CALLER PUSH20 0xFFFFFFFFFFFFFFFFFFFFFFFFFFFFFFFFFFFFFFFF AND PUSH20 0xFFFFFFFFFFFFFFFFFFFFFFFFFFFFFFFFFFFFFFFF AND DUP2 MSTORE PUSH1 0x20 ADD SWAP1 DUP2 MSTORE PUSH1 0x20 ADD PUSH1 0x0 KECCAK256 SLOAD LT ISZERO PUSH2 0x471 JUMPI PUSH32 0x4E487B7100000000000000000000000000000000000000000000000000000000 PUSH1 0x0 MSTORE PUSH1 0x1 PUSH1 0x4 MSTORE PUSH1 0x24 PUSH1 0x0 REVERT JUMPDEST DUP1 PUSH1 0x0 DUP1 CALLER PUSH20 0xFFFFFFFFFFFFFFFFFFFFFFFFFFFFFFFFFFFFFFFF AND PUSH20 0xFFFFFFFFFFFFFFFFFFFFFFFFFFFFFFFFFFFFFFFF AND DUP2 MSTORE PUSH1 0x20 ADD SWAP1 DUP2 MSTORE PUSH1 0x20 ADD PUSH1 0x0 KECCAK256 PUSH1 0x0 DUP3 DUP3 SLOAD PUSH2 0x4BF SWAP2 SWAP1 PUSH2 0x6F6 JUMP JUMPDEST SWAP3 POP POP DUP2 SWAP1 SSTORE POP DUP2 PUSH20 0xFFFFFFFFFFFFFFFFFFFFFFFFFFFFFFFFFFFFFFFF AND PUSH2 0x8FC DUP3 SWAP1 DUP2 ISZERO MUL SWAP1 PUSH1 0x40 MLOAD PUSH1 0x0 PUSH1 0x40 MLOAD DUP1 DUP4 SUB DUP2 DUP6 DUP9 DUP9 CALL SWAP4 POP POP POP POP ISZERO DUP1 ISZERO PUSH2 0x50C JUMPI RETURNDATASIZE PUSH1 0x0 DUP1 RETURNDATACOPY RETURNDATASIZE PUSH1 0x0 REVERT JUMPDEST POP POP POP JUMP JUMPDEST PUSH1 0x0 DUP2 CALLDATALOAD SWAP1 POP PUSH2 0x520 DUP2 PUSH2 0x7F9 JUMP JUMPDEST SWAP3 SWAP2 POP POP JUMP JUMPDEST PUSH1 0x0 DUP2 CALLDATALOAD SWAP1 POP PUSH2 0x535 DUP2 PUSH2 0x810 JUMP JUMPDEST SWAP3 SWAP2 POP POP JUMP JUMPDEST PUSH1 0x0 DUP2 CALLDATALOAD SWAP1 POP PUSH2 0x54A DUP2 PUSH2 0x827 JUMP JUMPDEST SWAP3 SWAP2 POP POP JUMP JUMPDEST PUSH1 0x0 PUSH1 0x20 DUP3 DUP5 SUB SLT ISZERO PUSH2 0x562 JUMPI PUSH1 0x0 DUP1 REVERT JUMPDEST PUSH1 0x0 PUSH2 0x570 DUP5 DUP3 DUP6 ADD PUSH2 0x511 JUMP JUMPDEST SWAP2 POP POP SWAP3 SWAP2 POP POP JUMP JUMPDEST PUSH1 0x0 DUP1 PUSH1 0x40 DUP4 DUP6 SUB SLT ISZERO PUSH2 0x58C JUMPI PUSH1 0x0 DUP1 REVERT JUMPDEST PUSH1 0x0 PUSH2 0x59A DUP6 DUP3 DUP7 ADD PUSH2 0x526 JUMP JUMPDEST SWAP3 POP POP PUSH1 0x20 PUSH2 0x5AB DUP6 DUP3 DUP7 ADD PUSH2 0x53B JUMP JUMPDEST SWAP2 POP POP SWAP3 POP SWAP3 SWAP1 POP JUMP JUMPDEST PUSH2 0x5BE DUP2 PUSH2 0x73C JUMP JUMPDEST DUP3 MSTORE POP POP JUMP JUMPDEST PUSH1 0x0 PUSH2 0x5D1 PUSH1 0x11 DUP4 PUSH2 0x68F JUMP JUMPDEST SWAP2 POP PUSH2 0x5DC DUP3 PUSH2 0x7A7 JUMP JUMPDEST PUSH1 0x20 DUP3 ADD SWAP1 POP SWAP2 SWAP1 POP JUMP JUMPDEST PUSH1 0x0 PUSH2 0x5F4 PUSH1 0x15 DUP4 PUSH2 0x68F JUMP JUMPDEST SWAP2 POP PUSH2 0x5FF DUP3 PUSH2 0x7D0 JUMP JUMPDEST PUSH1 0x20 DUP3 ADD SWAP1 POP SWAP2 SWAP1 POP JUMP JUMPDEST PUSH2 0x613 DUP2 PUSH2 0x76E JUMP JUMPDEST DUP3 MSTORE POP POP JUMP JUMPDEST PUSH1 0x0 PUSH1 0x20 DUP3 ADD SWAP1 POP PUSH2 0x62E PUSH1 0x0 DUP4 ADD DUP5 PUSH2 0x5B5 JUMP JUMPDEST SWAP3 SWAP2 POP POP JUMP JUMPDEST PUSH1 0x0 PUSH1 0x20 DUP3 ADD SWAP1 POP DUP2 DUP2 SUB PUSH1 0x0 DUP4 ADD MSTORE PUSH2 0x64D DUP2 PUSH2 0x5C4 JUMP JUMPDEST SWAP1 POP SWAP2 SWAP1 POP JUMP JUMPDEST PUSH1 0x0 PUSH1 0x20 DUP3 ADD SWAP1 POP DUP2 DUP2 SUB PUSH1 0x0 DUP4 ADD MSTORE PUSH2 0x66D DUP2 PUSH2 0x5E7 JUMP JUMPDEST SWAP1 POP SWAP2 SWAP1 POP JUMP JUMPDEST PUSH1 0x0 PUSH1 0x20 DUP3 ADD SWAP1 POP PUSH2 0x689 PUSH1 0x0 DUP4 ADD DUP5 PUSH2 0x60A JUMP JUMPDEST SWAP3 SWAP2 POP POP JUMP JUMPDEST PUSH1 0x0 DUP3 DUP3 MSTORE PUSH1 0x20 DUP3 ADD SWAP1 POP SWAP3 SWAP2 POP POP JUMP JUMPDEST PUSH1 0x0 PUSH2 0x6AB DUP3 PUSH2 0x76E JUMP JUMPDEST SWAP2 POP PUSH2 0x6B6 DUP4 PUSH2 0x76E JUMP JUMPDEST SWAP3 POP DUP3 PUSH32 0xFFFFFFFFFFFFFFFFFFFFFFFFFFFFFFFFFFFFFFFFFFFFFFFFFFFFFFFFFFFFFFFF SUB DUP3 GT ISZERO PUSH2 0x6EB JUMPI PUSH2 0x6EA PUSH2 0x778 JUMP JUMPDEST JUMPDEST DUP3 DUP3 ADD SWAP1 POP SWAP3 SWAP2 POP POP JUMP JUMPDEST PUSH1 0x0 PUSH2 0x701 DUP3 PUSH2 0x76E JUMP JUMPDEST SWAP2 POP PUSH2 0x70C DUP4 PUSH2 0x76E JUMP JUMPDEST SWAP3 POP DUP3 DUP3 LT ISZERO PUSH2 0x71F JUMPI PUSH2 0x71E PUSH2 0x778 JUMP JUMPDEST JUMPDEST DUP3 DUP3 SUB SWAP1 POP SWAP3 SWAP2 POP POP JUMP JUMPDEST PUSH1 0x0 PUSH2 0x735 DUP3 PUSH2 0x74E JUMP JUMPDEST SWAP1 POP SWAP2 SWAP1 POP JUMP JUMPDEST PUSH1 0x0 PUSH2 0x747 DUP3 PUSH2 0x74E JUMP JUMPDEST SWAP1 POP SWAP2 SWAP1 POP JUMP JUMPDEST PUSH1 0x0 PUSH20 0xFFFFFFFFFFFFFFFFFFFFFFFFFFFFFFFFFFFFFFFF DUP3 AND SWAP1 POP SWAP2 SWAP1 POP JUMP JUMPDEST PUSH1 0x0 DUP2 SWAP1 POP SWAP2 SWAP1 POP JUMP JUMPDEST PUSH32 0x4E487B7100000000000000000000000000000000000000000000000000000000 PUSH1 0x0 MSTORE PUSH1 0x11 PUSH1 0x4 MSTORE PUSH1 0x24 PUSH1 0x0 REVERT JUMPDEST PUSH32 0x6E6F7420656E6F7567682066756E64732E000000000000000000000000000000 PUSH1 0x0 DUP3 ADD MSTORE POP JUMP JUMPDEST PUSH32 0x596F7520617265206E6F7420746865206F776E65720000000000000000000000 PUSH1 0x0 DUP3 ADD MSTORE POP JUMP JUMPDEST PUSH2 0x802 DUP2 PUSH2 0x72A JUMP JUMPDEST DUP2 EQ PUSH2 0x80D JUMPI PUSH1 0x0 DUP1 REVERT JUMPDEST POP JUMP JUMPDEST PUSH2 0x819 DUP2 PUSH2 0x73C JUMP JUMPDEST DUP2 EQ PUSH2 0x824 JUMPI PUSH1 0x0 DUP1 REVERT JUMPDEST POP JUMP JUMPDEST PUSH2 0x830 DUP2 PUSH2 0x76E JUMP JUMPDEST DUP2 EQ PUSH2 0x83B JUMPI PUSH1 0x0 DUP1 REVERT JUMPDEST POP JUMP INVALID LOG2 PUSH5 0x6970667358 0x22 SLT KECCAK256 XOR PUSH28 0x83F12115719B3D3D549CE2BB53018B86BFC2315B51A899BDC64A825C 0x5E PUSH4 0x64736F6C PUSH4 0x43000803 STOP CALLER "
				},
				"gasEstimates": {
					"creation": {
						"codeDepositCost": "432800",
						"executionCost": "21334",
						"totalCost": "454134"
					},
					"external": {
						"balanceReceived(address)": "1558",
						"destroySmartContract()": "31850",
						"owner()": "1236",
						"receiveMoney()": "infinite",
						"withdrawMoney(address,uint256)": "infinite"
					}
				},
				"methodIdentifiers": {
					"balanceReceived(address)": "d18a42e1",
					"destroySmartContract()": "85474728",
					"owner()": "8da5cb5b",
					"receiveMoney()": "6d26ec18",
					"withdrawMoney(address,uint256)": "f274c897"
				}
			},
			"storageLayout": {
				"storage": [
					{
						"astId": 5,
						"contract": "FunctionExample.sol:FunctionsExample",
						"label": "balanceReceived",
						"offset": 0,
						"slot": "0",
						"type": "t_mapping(t_address,t_uint256)"
					},
					{
						"astId": 7,
						"contract": "FunctionExample.sol:FunctionsExample",
						"label": "owner",
						"offset": 0,
						"slot": "1",
						"type": "t_address_payable"
					}
				],
				"types": {
					"t_address": {
						"encoding": "inplace",
						"label": "address",
						"numberOfBytes": "20"
					},
					"t_address_payable": {
						"encoding": "inplace",
						"label": "address payable",
						"numberOfBytes": "20"
					},
					"t_mapping(t_address,t_uint256)": {
						"encoding": "mapping",
						"key": "t_address",
						"label": "mapping(address => uint256)",
						"numberOfBytes": "32",
						"value": "t_uint256"
					},
					"t_uint256": {
						"encoding": "inplace",
						"label": "uint256",
						"numberOfBytes": "32"
					}
				}
			},
			"userdoc": {
				"kind": "user",
				"methods": {},
				"version": 1
			}
		}
	}
}