{
	"ExceptionExample.sol": {
		"ExceptionExample": {
			"abi": [
				{
					"inputs": [
						{
							"internalType": "address",
							"name": "",
							"type": "address"
						}
					],
					"name": "balanceReceived",
					"outputs": [
						{
							"internalType": "uint64",
							"name": "",
							"type": "uint64"
						}
					],
					"stateMutability": "view",
					"type": "function"
				},
				{
					"inputs": [],
					"name": "receiveMoney",
					"outputs": [],
					"stateMutability": "payable",
					"type": "function"
				},
				{
					"inputs": [
						{
							"internalType": "address payable",
							"name": "_to",
							"type": "address"
						},
						{
							"internalType": "uint64",
							"name": "_amount",
							"type": "uint64"
						}
					],
					"name": "withdrawMoney",
					"outputs": [],
					"stateMutability": "nonpayable",
					"type": "function"
				}
			],
			"devdoc": {
				"kind": "dev",
				"methods": {},
				"version": 1
			},
			"evm": {
				"assembly": "    /* \"ExceptionExample.sol\":58:476  contract ExceptionExample {... */\n  mstore(0x40, 0x80)\n  callvalue\n  dup1\n  iszero\n  tag_1\n  jumpi\n  0x00\n  dup1\n  revert\ntag_1:\n  pop\n  dataSize(sub_0)\n  dup1\n  dataOffset(sub_0)\n  0x00\n  codecopy\n  0x00\n  return\nstop\n\nsub_0: assembly {\n        /* \"ExceptionExample.sol\":58:476  contract ExceptionExample {... */\n      mstore(0x40, 0x80)\n      jumpi(tag_1, lt(calldatasize, 0x04))\n      shr(0xe0, calldataload(0x00))\n      dup1\n      0x0ad19aeb\n      eq\n      tag_2\n      jumpi\n      dup1\n      0x6d26ec18\n      eq\n      tag_3\n      jumpi\n      dup1\n      0xd18a42e1\n      eq\n      tag_4\n      jumpi\n    tag_1:\n      0x00\n      dup1\n      revert\n        /* \"ExceptionExample.sol\":256:474  function withdrawMoney(address payable _to, uint64 _amount) public {... */\n    tag_2:\n      callvalue\n      dup1\n      iszero\n      tag_5\n      jumpi\n      0x00\n      dup1\n      revert\n    tag_5:\n      pop\n      tag_6\n      0x04\n      dup1\n      calldatasize\n      sub\n      dup2\n      add\n      swap1\n      tag_7\n      swap2\n      swap1\n      tag_8\n      jump\t// in\n    tag_7:\n      tag_9\n      jump\t// in\n    tag_6:\n      stop\n        /* \"ExceptionExample.sol\":146:250  function receiveMoney() public payable {... */\n    tag_3:\n      tag_10\n      tag_11\n      jump\t// in\n    tag_10:\n      stop\n        /* \"ExceptionExample.sol\":90:139  mapping(address => uint64) public balanceReceived */\n    tag_4:\n      callvalue\n      dup1\n      iszero\n      tag_12\n      jumpi\n      0x00\n      dup1\n      revert\n    tag_12:\n      pop\n      tag_13\n      0x04\n      dup1\n      calldatasize\n      sub\n      dup2\n      add\n      swap1\n      tag_14\n      swap2\n      swap1\n      tag_15\n      jump\t// in\n    tag_14:\n      tag_16\n      jump\t// in\n    tag_13:\n      mload(0x40)\n      tag_17\n      swap2\n      swap1\n      tag_18\n      jump\t// in\n    tag_17:\n      mload(0x40)\n      dup1\n      swap2\n      sub\n      swap1\n      return\n        /* \"ExceptionExample.sol\":256:474  function withdrawMoney(address payable _to, uint64 _amount) public {... */\n    tag_9:\n        /* \"ExceptionExample.sol\":352:367  balanceReceived */\n      0x00\n        /* \"ExceptionExample.sol\":352:379  balanceReceived[msg.sender] */\n      dup1\n        /* \"ExceptionExample.sol\":368:378  msg.sender */\n      caller\n        /* \"ExceptionExample.sol\":352:379  balanceReceived[msg.sender] */\n      0xffffffffffffffffffffffffffffffffffffffff\n      and\n      0xffffffffffffffffffffffffffffffffffffffff\n      and\n      dup2\n      mstore\n      0x20\n      add\n      swap1\n      dup2\n      mstore\n      0x20\n      add\n      0x00\n      keccak256\n      0x00\n      swap1\n      sload\n      swap1\n      0x0100\n      exp\n      swap1\n      div\n      0xffffffffffffffff\n      and\n        /* \"ExceptionExample.sol\":341:379  _amount <= balanceReceived[msg.sender] */\n      0xffffffffffffffff\n      and\n        /* \"ExceptionExample.sol\":341:348  _amount */\n      dup2\n        /* \"ExceptionExample.sol\":341:379  _amount <= balanceReceived[msg.sender] */\n      0xffffffffffffffff\n      and\n      gt\n      iszero\n        /* \"ExceptionExample.sol\":333:388  require(_amount <= balanceReceived[msg.sender], \"Nope\") */\n      tag_20\n      jumpi\n      mload(0x40)\n      0x08c379a000000000000000000000000000000000000000000000000000000000\n      dup2\n      mstore\n      0x04\n      add\n      tag_21\n      swap1\n      tag_22\n      jump\t// in\n    tag_21:\n      mload(0x40)\n      dup1\n      swap2\n      sub\n      swap1\n      revert\n    tag_20:\n        /* \"ExceptionExample.sol\":429:436  _amount */\n      dup1\n        /* \"ExceptionExample.sol\":398:413  balanceReceived */\n      0x00\n        /* \"ExceptionExample.sol\":398:425  balanceReceived[msg.sender] */\n      dup1\n        /* \"ExceptionExample.sol\":414:424  msg.sender */\n      caller\n        /* \"ExceptionExample.sol\":398:425  balanceReceived[msg.sender] */\n      0xffffffffffffffffffffffffffffffffffffffff\n      and\n      0xffffffffffffffffffffffffffffffffffffffff\n      and\n      dup2\n      mstore\n      0x20\n      add\n      swap1\n      dup2\n      mstore\n      0x20\n      add\n      0x00\n      keccak256\n      0x00\n        /* \"ExceptionExample.sol\":398:436  balanceReceived[msg.sender] -= _amount */\n      dup3\n      dup3\n      dup3\n      swap1\n      sload\n      swap1\n      0x0100\n      exp\n      swap1\n      div\n      0xffffffffffffffff\n      and\n      tag_23\n      swap2\n      swap1\n      tag_24\n      jump\t// in\n    tag_23:\n      swap3\n      pop\n      0x0100\n      exp\n      dup2\n      sload\n      dup2\n      0xffffffffffffffff\n      mul\n      not\n      and\n      swap1\n      dup4\n      0xffffffffffffffff\n      and\n      mul\n      or\n      swap1\n      sstore\n      pop\n        /* \"ExceptionExample.sol\":446:449  _to */\n      dup2\n        /* \"ExceptionExample.sol\":446:458  _to.transfer */\n      0xffffffffffffffffffffffffffffffffffffffff\n      and\n        /* \"ExceptionExample.sol\":446:467  _to.transfer(_amount) */\n      0x08fc\n        /* \"ExceptionExample.sol\":459:466  _amount */\n      dup3\n        /* \"ExceptionExample.sol\":446:467  _to.transfer(_amount) */\n      0xffffffffffffffff\n      and\n      swap1\n      dup2\n      iszero\n      mul\n      swap1\n      mload(0x40)\n      0x00\n      mload(0x40)\n      dup1\n      dup4\n      sub\n      dup2\n      dup6\n      dup9\n      dup9\n      call\n      swap4\n      pop\n      pop\n      pop\n      pop\n      iszero\n      dup1\n      iszero\n      tag_26\n      jumpi\n      returndatasize\n      0x00\n      dup1\n      returndatacopy\n      revert(0x00, returndatasize)\n    tag_26:\n      pop\n        /* \"ExceptionExample.sol\":256:474  function withdrawMoney(address payable _to, uint64 _amount) public {... */\n      pop\n      pop\n      jump\t// out\n        /* \"ExceptionExample.sol\":146:250  function receiveMoney() public payable {... */\n    tag_11:\n        /* \"ExceptionExample.sol\":233:242  msg.value */\n      callvalue\n        /* \"ExceptionExample.sol\":195:210  balanceReceived */\n      0x00\n        /* \"ExceptionExample.sol\":195:222  balanceReceived[msg.sender] */\n      dup1\n        /* \"ExceptionExample.sol\":211:221  msg.sender */\n      caller\n        /* \"ExceptionExample.sol\":195:222  balanceReceived[msg.sender] */\n      0xffffffffffffffffffffffffffffffffffffffff\n      and\n      0xffffffffffffffffffffffffffffffffffffffff\n      and\n      dup2\n      mstore\n      0x20\n      add\n      swap1\n      dup2\n      mstore\n      0x20\n      add\n      0x00\n      keccak256\n      0x00\n        /* \"ExceptionExample.sol\":195:243  balanceReceived[msg.sender] += uint64(msg.value) */\n      dup3\n      dup3\n      dup3\n      swap1\n      sload\n      swap1\n      0x0100\n      exp\n      swap1\n      div\n      0xffffffffffffffff\n      and\n      tag_28\n      swap2\n      swap1\n      tag_29\n      jump\t// in\n    tag_28:\n      swap3\n      pop\n      0x0100\n      exp\n      dup2\n      sload\n      dup2\n      0xffffffffffffffff\n      mul\n      not\n      and\n      swap1\n      dup4\n      0xffffffffffffffff\n      and\n      mul\n      or\n      swap1\n      sstore\n      pop\n        /* \"ExceptionExample.sol\":146:250  function receiveMoney() public payable {... */\n      jump\t// out\n        /* \"ExceptionExample.sol\":90:139  mapping(address => uint64) public balanceReceived */\n    tag_16:\n      mstore(0x20, 0x00)\n      dup1\n      0x00\n      mstore\n      keccak256(0x00, 0x40)\n      0x00\n      swap2\n      pop\n      sload\n      swap1\n      0x0100\n      exp\n      swap1\n      div\n      0xffffffffffffffff\n      and\n      dup2\n      jump\t// out\n        /* \"#utility.yul\":88:205   */\n    tag_31:\n        /* \"#utility.yul\":197:198   */\n      0x00\n        /* \"#utility.yul\":194:195   */\n      dup1\n        /* \"#utility.yul\":187:199   */\n      revert\n        /* \"#utility.yul\":334:460   */\n    tag_33:\n        /* \"#utility.yul\":371:378   */\n      0x00\n        /* \"#utility.yul\":411:453   */\n      0xffffffffffffffffffffffffffffffffffffffff\n        /* \"#utility.yul\":404:409   */\n      dup3\n        /* \"#utility.yul\":400:454   */\n      and\n        /* \"#utility.yul\":389:454   */\n      swap1\n      pop\n        /* \"#utility.yul\":334:460   */\n      swap2\n      swap1\n      pop\n      jump\t// out\n        /* \"#utility.yul\":466:570   */\n    tag_34:\n        /* \"#utility.yul\":511:518   */\n      0x00\n        /* \"#utility.yul\":540:564   */\n      tag_54\n        /* \"#utility.yul\":558:563   */\n      dup3\n        /* \"#utility.yul\":540:564   */\n      tag_33\n      jump\t// in\n    tag_54:\n        /* \"#utility.yul\":529:564   */\n      swap1\n      pop\n        /* \"#utility.yul\":466:570   */\n      swap2\n      swap1\n      pop\n      jump\t// out\n        /* \"#utility.yul\":576:714   */\n    tag_35:\n        /* \"#utility.yul\":657:689   */\n      tag_56\n        /* \"#utility.yul\":683:688   */\n      dup2\n        /* \"#utility.yul\":657:689   */\n      tag_34\n      jump\t// in\n    tag_56:\n        /* \"#utility.yul\":650:655   */\n      dup2\n        /* \"#utility.yul\":647:690   */\n      eq\n        /* \"#utility.yul\":637:708   */\n      tag_57\n      jumpi\n        /* \"#utility.yul\":704:705   */\n      0x00\n        /* \"#utility.yul\":701:702   */\n      dup1\n        /* \"#utility.yul\":694:706   */\n      revert\n        /* \"#utility.yul\":637:708   */\n    tag_57:\n        /* \"#utility.yul\":576:714   */\n      pop\n      jump\t// out\n        /* \"#utility.yul\":720:875   */\n    tag_36:\n        /* \"#utility.yul\":774:779   */\n      0x00\n        /* \"#utility.yul\":812:818   */\n      dup2\n        /* \"#utility.yul\":799:819   */\n      calldataload\n        /* \"#utility.yul\":790:819   */\n      swap1\n      pop\n        /* \"#utility.yul\":828:869   */\n      tag_59\n        /* \"#utility.yul\":863:868   */\n      dup2\n        /* \"#utility.yul\":828:869   */\n      tag_35\n      jump\t// in\n    tag_59:\n        /* \"#utility.yul\":720:875   */\n      swap3\n      swap2\n      pop\n      pop\n      jump\t// out\n        /* \"#utility.yul\":881:982   */\n    tag_37:\n        /* \"#utility.yul\":917:924   */\n      0x00\n        /* \"#utility.yul\":957:975   */\n      0xffffffffffffffff\n        /* \"#utility.yul\":950:955   */\n      dup3\n        /* \"#utility.yul\":946:976   */\n      and\n        /* \"#utility.yul\":935:976   */\n      swap1\n      pop\n        /* \"#utility.yul\":881:982   */\n      swap2\n      swap1\n      pop\n      jump\t// out\n        /* \"#utility.yul\":988:1108   */\n    tag_38:\n        /* \"#utility.yul\":1060:1083   */\n      tag_62\n        /* \"#utility.yul\":1077:1082   */\n      dup2\n        /* \"#utility.yul\":1060:1083   */\n      tag_37\n      jump\t// in\n    tag_62:\n        /* \"#utility.yul\":1053:1058   */\n      dup2\n        /* \"#utility.yul\":1050:1084   */\n      eq\n        /* \"#utility.yul\":1040:1102   */\n      tag_63\n      jumpi\n        /* \"#utility.yul\":1098:1099   */\n      0x00\n        /* \"#utility.yul\":1095:1096   */\n      dup1\n        /* \"#utility.yul\":1088:1100   */\n      revert\n        /* \"#utility.yul\":1040:1102   */\n    tag_63:\n        /* \"#utility.yul\":988:1108   */\n      pop\n      jump\t// out\n        /* \"#utility.yul\":1114:1251   */\n    tag_39:\n        /* \"#utility.yul\":1159:1164   */\n      0x00\n        /* \"#utility.yul\":1197:1203   */\n      dup2\n        /* \"#utility.yul\":1184:1204   */\n      calldataload\n        /* \"#utility.yul\":1175:1204   */\n      swap1\n      pop\n        /* \"#utility.yul\":1213:1245   */\n      tag_65\n        /* \"#utility.yul\":1239:1244   */\n      dup2\n        /* \"#utility.yul\":1213:1245   */\n      tag_38\n      jump\t// in\n    tag_65:\n        /* \"#utility.yul\":1114:1251   */\n      swap3\n      swap2\n      pop\n      pop\n      jump\t// out\n        /* \"#utility.yul\":1257:1745   */\n    tag_8:\n        /* \"#utility.yul\":1332:1338   */\n      0x00\n        /* \"#utility.yul\":1340:1346   */\n      dup1\n        /* \"#utility.yul\":1389:1391   */\n      0x40\n        /* \"#utility.yul\":1377:1386   */\n      dup4\n        /* \"#utility.yul\":1368:1375   */\n      dup6\n        /* \"#utility.yul\":1364:1387   */\n      sub\n        /* \"#utility.yul\":1360:1392   */\n      slt\n        /* \"#utility.yul\":1357:1476   */\n      iszero\n      tag_67\n      jumpi\n        /* \"#utility.yul\":1395:1474   */\n      tag_68\n      tag_31\n      jump\t// in\n    tag_68:\n        /* \"#utility.yul\":1357:1476   */\n    tag_67:\n        /* \"#utility.yul\":1515:1516   */\n      0x00\n        /* \"#utility.yul\":1540:1601   */\n      tag_69\n        /* \"#utility.yul\":1593:1600   */\n      dup6\n        /* \"#utility.yul\":1584:1590   */\n      dup3\n        /* \"#utility.yul\":1573:1582   */\n      dup7\n        /* \"#utility.yul\":1569:1591   */\n      add\n        /* \"#utility.yul\":1540:1601   */\n      tag_36\n      jump\t// in\n    tag_69:\n        /* \"#utility.yul\":1530:1601   */\n      swap3\n      pop\n        /* \"#utility.yul\":1486:1611   */\n      pop\n        /* \"#utility.yul\":1650:1652   */\n      0x20\n        /* \"#utility.yul\":1676:1728   */\n      tag_70\n        /* \"#utility.yul\":1720:1727   */\n      dup6\n        /* \"#utility.yul\":1711:1717   */\n      dup3\n        /* \"#utility.yul\":1700:1709   */\n      dup7\n        /* \"#utility.yul\":1696:1718   */\n      add\n        /* \"#utility.yul\":1676:1728   */\n      tag_39\n      jump\t// in\n    tag_70:\n        /* \"#utility.yul\":1666:1728   */\n      swap2\n      pop\n        /* \"#utility.yul\":1621:1738   */\n      pop\n        /* \"#utility.yul\":1257:1745   */\n      swap3\n      pop\n      swap3\n      swap1\n      pop\n      jump\t// out\n        /* \"#utility.yul\":1751:1847   */\n    tag_40:\n        /* \"#utility.yul\":1788:1795   */\n      0x00\n        /* \"#utility.yul\":1817:1841   */\n      tag_72\n        /* \"#utility.yul\":1835:1840   */\n      dup3\n        /* \"#utility.yul\":1817:1841   */\n      tag_33\n      jump\t// in\n    tag_72:\n        /* \"#utility.yul\":1806:1841   */\n      swap1\n      pop\n        /* \"#utility.yul\":1751:1847   */\n      swap2\n      swap1\n      pop\n      jump\t// out\n        /* \"#utility.yul\":1853:1975   */\n    tag_41:\n        /* \"#utility.yul\":1926:1950   */\n      tag_74\n        /* \"#utility.yul\":1944:1949   */\n      dup2\n        /* \"#utility.yul\":1926:1950   */\n      tag_40\n      jump\t// in\n    tag_74:\n        /* \"#utility.yul\":1919:1924   */\n      dup2\n        /* \"#utility.yul\":1916:1951   */\n      eq\n        /* \"#utility.yul\":1906:1969   */\n      tag_75\n      jumpi\n        /* \"#utility.yul\":1965:1966   */\n      0x00\n        /* \"#utility.yul\":1962:1963   */\n      dup1\n        /* \"#utility.yul\":1955:1967   */\n      revert\n        /* \"#utility.yul\":1906:1969   */\n    tag_75:\n        /* \"#utility.yul\":1853:1975   */\n      pop\n      jump\t// out\n        /* \"#utility.yul\":1981:2120   */\n    tag_42:\n        /* \"#utility.yul\":2027:2032   */\n      0x00\n        /* \"#utility.yul\":2065:2071   */\n      dup2\n        /* \"#utility.yul\":2052:2072   */\n      calldataload\n        /* \"#utility.yul\":2043:2072   */\n      swap1\n      pop\n        /* \"#utility.yul\":2081:2114   */\n      tag_77\n        /* \"#utility.yul\":2108:2113   */\n      dup2\n        /* \"#utility.yul\":2081:2114   */\n      tag_41\n      jump\t// in\n    tag_77:\n        /* \"#utility.yul\":1981:2120   */\n      swap3\n      swap2\n      pop\n      pop\n      jump\t// out\n        /* \"#utility.yul\":2126:2455   */\n    tag_15:\n        /* \"#utility.yul\":2185:2191   */\n      0x00\n        /* \"#utility.yul\":2234:2236   */\n      0x20\n        /* \"#utility.yul\":2222:2231   */\n      dup3\n        /* \"#utility.yul\":2213:2220   */\n      dup5\n        /* \"#utility.yul\":2209:2232   */\n      sub\n        /* \"#utility.yul\":2205:2237   */\n      slt\n        /* \"#utility.yul\":2202:2321   */\n      iszero\n      tag_79\n      jumpi\n        /* \"#utility.yul\":2240:2319   */\n      tag_80\n      tag_31\n      jump\t// in\n    tag_80:\n        /* \"#utility.yul\":2202:2321   */\n    tag_79:\n        /* \"#utility.yul\":2360:2361   */\n      0x00\n        /* \"#utility.yul\":2385:2438   */\n      tag_81\n        /* \"#utility.yul\":2430:2437   */\n      dup5\n        /* \"#utility.yul\":2421:2427   */\n      dup3\n        /* \"#utility.yul\":2410:2419   */\n      dup6\n        /* \"#utility.yul\":2406:2428   */\n      add\n        /* \"#utility.yul\":2385:2438   */\n      tag_42\n      jump\t// in\n    tag_81:\n        /* \"#utility.yul\":2375:2438   */\n      swap2\n      pop\n        /* \"#utility.yul\":2331:2448   */\n      pop\n        /* \"#utility.yul\":2126:2455   */\n      swap3\n      swap2\n      pop\n      pop\n      jump\t// out\n        /* \"#utility.yul\":2461:2576   */\n    tag_43:\n        /* \"#utility.yul\":2546:2569   */\n      tag_83\n        /* \"#utility.yul\":2563:2568   */\n      dup2\n        /* \"#utility.yul\":2546:2569   */\n      tag_37\n      jump\t// in\n    tag_83:\n        /* \"#utility.yul\":2541:2544   */\n      dup3\n        /* \"#utility.yul\":2534:2570   */\n      mstore\n        /* \"#utility.yul\":2461:2576   */\n      pop\n      pop\n      jump\t// out\n        /* \"#utility.yul\":2582:2800   */\n    tag_18:\n        /* \"#utility.yul\":2673:2677   */\n      0x00\n        /* \"#utility.yul\":2711:2713   */\n      0x20\n        /* \"#utility.yul\":2700:2709   */\n      dup3\n        /* \"#utility.yul\":2696:2714   */\n      add\n        /* \"#utility.yul\":2688:2714   */\n      swap1\n      pop\n        /* \"#utility.yul\":2724:2793   */\n      tag_85\n        /* \"#utility.yul\":2790:2791   */\n      0x00\n        /* \"#utility.yul\":2779:2788   */\n      dup4\n        /* \"#utility.yul\":2775:2792   */\n      add\n        /* \"#utility.yul\":2766:2772   */\n      dup5\n        /* \"#utility.yul\":2724:2793   */\n      tag_43\n      jump\t// in\n    tag_85:\n        /* \"#utility.yul\":2582:2800   */\n      swap3\n      swap2\n      pop\n      pop\n      jump\t// out\n        /* \"#utility.yul\":2806:2975   */\n    tag_44:\n        /* \"#utility.yul\":2890:2901   */\n      0x00\n        /* \"#utility.yul\":2924:2930   */\n      dup3\n        /* \"#utility.yul\":2919:2922   */\n      dup3\n        /* \"#utility.yul\":2912:2931   */\n      mstore\n        /* \"#utility.yul\":2964:2968   */\n      0x20\n        /* \"#utility.yul\":2959:2962   */\n      dup3\n        /* \"#utility.yul\":2955:2969   */\n      add\n        /* \"#utility.yul\":2940:2969   */\n      swap1\n      pop\n        /* \"#utility.yul\":2806:2975   */\n      swap3\n      swap2\n      pop\n      pop\n      jump\t// out\n        /* \"#utility.yul\":2981:3135   */\n    tag_45:\n        /* \"#utility.yul\":3121:3127   */\n      0x4e6f706500000000000000000000000000000000000000000000000000000000\n        /* \"#utility.yul\":3117:3118   */\n      0x00\n        /* \"#utility.yul\":3109:3115   */\n      dup3\n        /* \"#utility.yul\":3105:3119   */\n      add\n        /* \"#utility.yul\":3098:3128   */\n      mstore\n        /* \"#utility.yul\":2981:3135   */\n      pop\n      jump\t// out\n        /* \"#utility.yul\":3141:3506   */\n    tag_46:\n        /* \"#utility.yul\":3283:3286   */\n      0x00\n        /* \"#utility.yul\":3304:3370   */\n      tag_89\n        /* \"#utility.yul\":3368:3369   */\n      0x04\n        /* \"#utility.yul\":3363:3366   */\n      dup4\n        /* \"#utility.yul\":3304:3370   */\n      tag_44\n      jump\t// in\n    tag_89:\n        /* \"#utility.yul\":3297:3370   */\n      swap2\n      pop\n        /* \"#utility.yul\":3379:3472   */\n      tag_90\n        /* \"#utility.yul\":3468:3471   */\n      dup3\n        /* \"#utility.yul\":3379:3472   */\n      tag_45\n      jump\t// in\n    tag_90:\n        /* \"#utility.yul\":3497:3499   */\n      0x20\n        /* \"#utility.yul\":3492:3495   */\n      dup3\n        /* \"#utility.yul\":3488:3500   */\n      add\n        /* \"#utility.yul\":3481:3500   */\n      swap1\n      pop\n        /* \"#utility.yul\":3141:3506   */\n      swap2\n      swap1\n      pop\n      jump\t// out\n        /* \"#utility.yul\":3512:3931   */\n    tag_22:\n        /* \"#utility.yul\":3678:3682   */\n      0x00\n        /* \"#utility.yul\":3716:3718   */\n      0x20\n        /* \"#utility.yul\":3705:3714   */\n      dup3\n        /* \"#utility.yul\":3701:3719   */\n      add\n        /* \"#utility.yul\":3693:3719   */\n      swap1\n      pop\n        /* \"#utility.yul\":3765:3774   */\n      dup2\n        /* \"#utility.yul\":3759:3763   */\n      dup2\n        /* \"#utility.yul\":3755:3775   */\n      sub\n        /* \"#utility.yul\":3751:3752   */\n      0x00\n        /* \"#utility.yul\":3740:3749   */\n      dup4\n        /* \"#utility.yul\":3736:3753   */\n      add\n        /* \"#utility.yul\":3729:3776   */\n      mstore\n        /* \"#utility.yul\":3793:3924   */\n      tag_92\n        /* \"#utility.yul\":3919:3923   */\n      dup2\n        /* \"#utility.yul\":3793:3924   */\n      tag_46\n      jump\t// in\n    tag_92:\n        /* \"#utility.yul\":3785:3924   */\n      swap1\n      pop\n        /* \"#utility.yul\":3512:3931   */\n      swap2\n      swap1\n      pop\n      jump\t// out\n        /* \"#utility.yul\":3937:4117   */\n    tag_47:\n        /* \"#utility.yul\":3985:4062   */\n      0x4e487b7100000000000000000000000000000000000000000000000000000000\n        /* \"#utility.yul\":3982:3983   */\n      0x00\n        /* \"#utility.yul\":3975:4063   */\n      mstore\n        /* \"#utility.yul\":4082:4086   */\n      0x11\n        /* \"#utility.yul\":4079:4080   */\n      0x04\n        /* \"#utility.yul\":4072:4087   */\n      mstore\n        /* \"#utility.yul\":4106:4110   */\n      0x24\n        /* \"#utility.yul\":4103:4104   */\n      0x00\n        /* \"#utility.yul\":4096:4111   */\n      revert\n        /* \"#utility.yul\":4123:4331   */\n    tag_24:\n        /* \"#utility.yul\":4162:4166   */\n      0x00\n        /* \"#utility.yul\":4182:4201   */\n      tag_95\n        /* \"#utility.yul\":4199:4200   */\n      dup3\n        /* \"#utility.yul\":4182:4201   */\n      tag_37\n      jump\t// in\n    tag_95:\n        /* \"#utility.yul\":4177:4201   */\n      swap2\n      pop\n        /* \"#utility.yul\":4215:4234   */\n      tag_96\n        /* \"#utility.yul\":4232:4233   */\n      dup4\n        /* \"#utility.yul\":4215:4234   */\n      tag_37\n      jump\t// in\n    tag_96:\n        /* \"#utility.yul\":4210:4234   */\n      swap3\n      pop\n        /* \"#utility.yul\":4258:4259   */\n      dup3\n        /* \"#utility.yul\":4255:4256   */\n      dup3\n        /* \"#utility.yul\":4251:4260   */\n      sub\n        /* \"#utility.yul\":4243:4260   */\n      swap1\n      pop\n        /* \"#utility.yul\":4282:4300   */\n      0xffffffffffffffff\n        /* \"#utility.yul\":4276:4280   */\n      dup2\n        /* \"#utility.yul\":4273:4301   */\n      gt\n        /* \"#utility.yul\":4270:4324   */\n      iszero\n      tag_97\n      jumpi\n        /* \"#utility.yul\":4304:4322   */\n      tag_98\n      tag_47\n      jump\t// in\n    tag_98:\n        /* \"#utility.yul\":4270:4324   */\n    tag_97:\n        /* \"#utility.yul\":4123:4331   */\n      swap3\n      swap2\n      pop\n      pop\n      jump\t// out\n        /* \"#utility.yul\":4337:4542   */\n    tag_29:\n        /* \"#utility.yul\":4376:4379   */\n      0x00\n        /* \"#utility.yul\":4395:4414   */\n      tag_100\n        /* \"#utility.yul\":4412:4413   */\n      dup3\n        /* \"#utility.yul\":4395:4414   */\n      tag_37\n      jump\t// in\n    tag_100:\n        /* \"#utility.yul\":4390:4414   */\n      swap2\n      pop\n        /* \"#utility.yul\":4428:4447   */\n      tag_101\n        /* \"#utility.yul\":4445:4446   */\n      dup4\n        /* \"#utility.yul\":4428:4447   */\n      tag_37\n      jump\t// in\n    tag_101:\n        /* \"#utility.yul\":4423:4447   */\n      swap3\n      pop\n        /* \"#utility.yul\":4470:4471   */\n      dup3\n        /* \"#utility.yul\":4467:4468   */\n      dup3\n        /* \"#utility.yul\":4463:4472   */\n      add\n        /* \"#utility.yul\":4456:4472   */\n      swap1\n      pop\n        /* \"#utility.yul\":4493:4511   */\n      0xffffffffffffffff\n        /* \"#utility.yul\":4488:4491   */\n      dup2\n        /* \"#utility.yul\":4485:4512   */\n      gt\n        /* \"#utility.yul\":4482:4535   */\n      iszero\n      tag_102\n      jumpi\n        /* \"#utility.yul\":4515:4533   */\n      tag_103\n      tag_47\n      jump\t// in\n    tag_103:\n        /* \"#utility.yul\":4482:4535   */\n    tag_102:\n        /* \"#utility.yul\":4337:4542   */\n      swap3\n      swap2\n      pop\n      pop\n      jump\t// out\n\n    auxdata: 0xa26469706673582212203e73f8375686d71b8408a80148bd7496dfc2f2d081f3e20e34498fb31357b7f564736f6c63430008100033\n}\n",
				"bytecode": {
					"linkReferences": {},
					"object": "608060405234801561001057600080fd5b506105b0806100206000396000f3fe6080604052600436106100345760003560e01c80630ad19aeb146100395780636d26ec1814610062578063d18a42e11461006c575b600080fd5b34801561004557600080fd5b50610060600480360381019061005b9190610381565b6100a9565b005b61006a61022e565b005b34801561007857600080fd5b50610093600480360381019061008e91906103ff565b6102b7565b6040516100a0919061043b565b60405180910390f35b6000803373ffffffffffffffffffffffffffffffffffffffff1673ffffffffffffffffffffffffffffffffffffffff16815260200190815260200160002060009054906101000a900467ffffffffffffffff1667ffffffffffffffff168167ffffffffffffffff161115610152576040517f08c379a0000000000000000000000000000000000000000000000000000000008152600401610149906104b3565b60405180910390fd5b806000803373ffffffffffffffffffffffffffffffffffffffff1673ffffffffffffffffffffffffffffffffffffffff16815260200190815260200160002060008282829054906101000a900467ffffffffffffffff166101b39190610502565b92506101000a81548167ffffffffffffffff021916908367ffffffffffffffff1602179055508173ffffffffffffffffffffffffffffffffffffffff166108fc8267ffffffffffffffff169081150290604051600060405180830381858888f19350505050158015610229573d6000803e3d6000fd5b505050565b346000803373ffffffffffffffffffffffffffffffffffffffff1673ffffffffffffffffffffffffffffffffffffffff16815260200190815260200160002060008282829054906101000a900467ffffffffffffffff1661028f919061053e565b92506101000a81548167ffffffffffffffff021916908367ffffffffffffffff160217905550565b60006020528060005260406000206000915054906101000a900467ffffffffffffffff1681565b600080fd5b600073ffffffffffffffffffffffffffffffffffffffff82169050919050565b600061030e826102e3565b9050919050565b61031e81610303565b811461032957600080fd5b50565b60008135905061033b81610315565b92915050565b600067ffffffffffffffff82169050919050565b61035e81610341565b811461036957600080fd5b50565b60008135905061037b81610355565b92915050565b60008060408385031215610398576103976102de565b5b60006103a68582860161032c565b92505060206103b78582860161036c565b9150509250929050565b60006103cc826102e3565b9050919050565b6103dc816103c1565b81146103e757600080fd5b50565b6000813590506103f9816103d3565b92915050565b600060208284031215610415576104146102de565b5b6000610423848285016103ea565b91505092915050565b61043581610341565b82525050565b6000602082019050610450600083018461042c565b92915050565b600082825260208201905092915050565b7f4e6f706500000000000000000000000000000000000000000000000000000000600082015250565b600061049d600483610456565b91506104a882610467565b602082019050919050565b600060208201905081810360008301526104cc81610490565b9050919050565b7f4e487b7100000000000000000000000000000000000000000000000000000000600052601160045260246000fd5b600061050d82610341565b915061051883610341565b9250828203905067ffffffffffffffff811115610538576105376104d3565b5b92915050565b600061054982610341565b915061055483610341565b9250828201905067ffffffffffffffff811115610574576105736104d3565b5b9291505056fea26469706673582212203e73f8375686d71b8408a80148bd7496dfc2f2d081f3e20e34498fb31357b7f564736f6c63430008100033",
					"opcodes": "PUSH1 0x80 PUSH1 0x40 MSTORE CALLVALUE DUP1 ISZERO PUSH2 0x10 JUMPI PUSH1 0x0 DUP1 REVERT JUMPDEST POP PUSH2 0x5B0 DUP1 PUSH2 0x20 PUSH1 0x0 CODECOPY PUSH1 0x0 RETURN INVALID PUSH1 0x80 PUSH1 0x40 MSTORE PUSH1 0x4 CALLDATASIZE LT PUSH2 0x34 JUMPI PUSH1 0x0 CALLDATALOAD PUSH1 0xE0 SHR DUP1 PUSH4 0xAD19AEB EQ PUSH2 0x39 JUMPI DUP1 PUSH4 0x6D26EC18 EQ PUSH2 0x62 JUMPI DUP1 PUSH4 0xD18A42E1 EQ PUSH2 0x6C JUMPI JUMPDEST PUSH1 0x0 DUP1 REVERT JUMPDEST CALLVALUE DUP1 ISZERO PUSH2 0x45 JUMPI PUSH1 0x0 DUP1 REVERT JUMPDEST POP PUSH2 0x60 PUSH1 0x4 DUP1 CALLDATASIZE SUB DUP2 ADD SWAP1 PUSH2 0x5B SWAP2 SWAP1 PUSH2 0x381 JUMP JUMPDEST PUSH2 0xA9 JUMP JUMPDEST STOP JUMPDEST PUSH2 0x6A PUSH2 0x22E JUMP JUMPDEST STOP JUMPDEST CALLVALUE DUP1 ISZERO PUSH2 0x78 JUMPI PUSH1 0x0 DUP1 REVERT JUMPDEST POP PUSH2 0x93 PUSH1 0x4 DUP1 CALLDATASIZE SUB DUP2 ADD SWAP1 PUSH2 0x8E SWAP2 SWAP1 PUSH2 0x3FF JUMP JUMPDEST PUSH2 0x2B7 JUMP JUMPDEST PUSH1 0x40 MLOAD PUSH2 0xA0 SWAP2 SWAP1 PUSH2 0x43B JUMP JUMPDEST PUSH1 0x40 MLOAD DUP1 SWAP2 SUB SWAP1 RETURN JUMPDEST PUSH1 0x0 DUP1 CALLER PUSH20 0xFFFFFFFFFFFFFFFFFFFFFFFFFFFFFFFFFFFFFFFF AND PUSH20 0xFFFFFFFFFFFFFFFFFFFFFFFFFFFFFFFFFFFFFFFF AND DUP2 MSTORE PUSH1 0x20 ADD SWAP1 DUP2 MSTORE PUSH1 0x20 ADD PUSH1 0x0 KECCAK256 PUSH1 0x0 SWAP1 SLOAD SWAP1 PUSH2 0x100 EXP SWAP1 DIV PUSH8 0xFFFFFFFFFFFFFFFF AND PUSH8 0xFFFFFFFFFFFFFFFF AND DUP2 PUSH8 0xFFFFFFFFFFFFFFFF AND GT ISZERO PUSH2 0x152 JUMPI PUSH1 0x40 MLOAD PUSH32 0x8C379A000000000000000000000000000000000000000000000000000000000 DUP2 MSTORE PUSH1 0x4 ADD PUSH2 0x149 SWAP1 PUSH2 0x4B3 JUMP JUMPDEST PUSH1 0x40 MLOAD DUP1 SWAP2 SUB SWAP1 REVERT JUMPDEST DUP1 PUSH1 0x0 DUP1 CALLER PUSH20 0xFFFFFFFFFFFFFFFFFFFFFFFFFFFFFFFFFFFFFFFF AND PUSH20 0xFFFFFFFFFFFFFFFFFFFFFFFFFFFFFFFFFFFFFFFF AND DUP2 MSTORE PUSH1 0x20 ADD SWAP1 DUP2 MSTORE PUSH1 0x20 ADD PUSH1 0x0 KECCAK256 PUSH1 0x0 DUP3 DUP3 DUP3 SWAP1 SLOAD SWAP1 PUSH2 0x100 EXP SWAP1 DIV PUSH8 0xFFFFFFFFFFFFFFFF AND PUSH2 0x1B3 SWAP2 SWAP1 PUSH2 0x502 JUMP JUMPDEST SWAP3 POP PUSH2 0x100 EXP DUP2 SLOAD DUP2 PUSH8 0xFFFFFFFFFFFFFFFF MUL NOT AND SWAP1 DUP4 PUSH8 0xFFFFFFFFFFFFFFFF AND MUL OR SWAP1 SSTORE POP DUP2 PUSH20 0xFFFFFFFFFFFFFFFFFFFFFFFFFFFFFFFFFFFFFFFF AND PUSH2 0x8FC DUP3 PUSH8 0xFFFFFFFFFFFFFFFF AND SWAP1 DUP2 ISZERO MUL SWAP1 PUSH1 0x40 MLOAD PUSH1 0x0 PUSH1 0x40 MLOAD DUP1 DUP4 SUB DUP2 DUP6 DUP9 DUP9 CALL SWAP4 POP POP POP POP ISZERO DUP1 ISZERO PUSH2 0x229 JUMPI RETURNDATASIZE PUSH1 0x0 DUP1 RETURNDATACOPY RETURNDATASIZE PUSH1 0x0 REVERT JUMPDEST POP POP POP JUMP JUMPDEST CALLVALUE PUSH1 0x0 DUP1 CALLER PUSH20 0xFFFFFFFFFFFFFFFFFFFFFFFFFFFFFFFFFFFFFFFF AND PUSH20 0xFFFFFFFFFFFFFFFFFFFFFFFFFFFFFFFFFFFFFFFF AND DUP2 MSTORE PUSH1 0x20 ADD SWAP1 DUP2 MSTORE PUSH1 0x20 ADD PUSH1 0x0 KECCAK256 PUSH1 0x0 DUP3 DUP3 DUP3 SWAP1 SLOAD SWAP1 PUSH2 0x100 EXP SWAP1 DIV PUSH8 0xFFFFFFFFFFFFFFFF AND PUSH2 0x28F SWAP2 SWAP1 PUSH2 0x53E JUMP JUMPDEST SWAP3 POP PUSH2 0x100 EXP DUP2 SLOAD DUP2 PUSH8 0xFFFFFFFFFFFFFFFF MUL NOT AND SWAP1 DUP4 PUSH8 0xFFFFFFFFFFFFFFFF AND MUL OR SWAP1 SSTORE POP JUMP JUMPDEST PUSH1 0x0 PUSH1 0x20 MSTORE DUP1 PUSH1 0x0 MSTORE PUSH1 0x40 PUSH1 0x0 KECCAK256 PUSH1 0x0 SWAP2 POP SLOAD SWAP1 PUSH2 0x100 EXP SWAP1 DIV PUSH8 0xFFFFFFFFFFFFFFFF AND DUP2 JUMP JUMPDEST PUSH1 0x0 DUP1 REVERT JUMPDEST PUSH1 0x0 PUSH20 0xFFFFFFFFFFFFFFFFFFFFFFFFFFFFFFFFFFFFFFFF DUP3 AND SWAP1 POP SWAP2 SWAP1 POP JUMP JUMPDEST PUSH1 0x0 PUSH2 0x30E DUP3 PUSH2 0x2E3 JUMP JUMPDEST SWAP1 POP SWAP2 SWAP1 POP JUMP JUMPDEST PUSH2 0x31E DUP2 PUSH2 0x303 JUMP JUMPDEST DUP2 EQ PUSH2 0x329 JUMPI PUSH1 0x0 DUP1 REVERT JUMPDEST POP JUMP JUMPDEST PUSH1 0x0 DUP2 CALLDATALOAD SWAP1 POP PUSH2 0x33B DUP2 PUSH2 0x315 JUMP JUMPDEST SWAP3 SWAP2 POP POP JUMP JUMPDEST PUSH1 0x0 PUSH8 0xFFFFFFFFFFFFFFFF DUP3 AND SWAP1 POP SWAP2 SWAP1 POP JUMP JUMPDEST PUSH2 0x35E DUP2 PUSH2 0x341 JUMP JUMPDEST DUP2 EQ PUSH2 0x369 JUMPI PUSH1 0x0 DUP1 REVERT JUMPDEST POP JUMP JUMPDEST PUSH1 0x0 DUP2 CALLDATALOAD SWAP1 POP PUSH2 0x37B DUP2 PUSH2 0x355 JUMP JUMPDEST SWAP3 SWAP2 POP POP JUMP JUMPDEST PUSH1 0x0 DUP1 PUSH1 0x40 DUP4 DUP6 SUB SLT ISZERO PUSH2 0x398 JUMPI PUSH2 0x397 PUSH2 0x2DE JUMP JUMPDEST JUMPDEST PUSH1 0x0 PUSH2 0x3A6 DUP6 DUP3 DUP7 ADD PUSH2 0x32C JUMP JUMPDEST SWAP3 POP POP PUSH1 0x20 PUSH2 0x3B7 DUP6 DUP3 DUP7 ADD PUSH2 0x36C JUMP JUMPDEST SWAP2 POP POP SWAP3 POP SWAP3 SWAP1 POP JUMP JUMPDEST PUSH1 0x0 PUSH2 0x3CC DUP3 PUSH2 0x2E3 JUMP JUMPDEST SWAP1 POP SWAP2 SWAP1 POP JUMP JUMPDEST PUSH2 0x3DC DUP2 PUSH2 0x3C1 JUMP JUMPDEST DUP2 EQ PUSH2 0x3E7 JUMPI PUSH1 0x0 DUP1 REVERT JUMPDEST POP JUMP JUMPDEST PUSH1 0x0 DUP2 CALLDATALOAD SWAP1 POP PUSH2 0x3F9 DUP2 PUSH2 0x3D3 JUMP JUMPDEST SWAP3 SWAP2 POP POP JUMP JUMPDEST PUSH1 0x0 PUSH1 0x20 DUP3 DUP5 SUB SLT ISZERO PUSH2 0x415 JUMPI PUSH2 0x414 PUSH2 0x2DE JUMP JUMPDEST JUMPDEST PUSH1 0x0 PUSH2 0x423 DUP5 DUP3 DUP6 ADD PUSH2 0x3EA JUMP JUMPDEST SWAP2 POP POP SWAP3 SWAP2 POP POP JUMP JUMPDEST PUSH2 0x435 DUP2 PUSH2 0x341 JUMP JUMPDEST DUP3 MSTORE POP POP JUMP JUMPDEST PUSH1 0x0 PUSH1 0x20 DUP3 ADD SWAP1 POP PUSH2 0x450 PUSH1 0x0 DUP4 ADD DUP5 PUSH2 0x42C JUMP JUMPDEST SWAP3 SWAP2 POP POP JUMP JUMPDEST PUSH1 0x0 DUP3 DUP3 MSTORE PUSH1 0x20 DUP3 ADD SWAP1 POP SWAP3 SWAP2 POP POP JUMP JUMPDEST PUSH32 0x4E6F706500000000000000000000000000000000000000000000000000000000 PUSH1 0x0 DUP3 ADD MSTORE POP JUMP JUMPDEST PUSH1 0x0 PUSH2 0x49D PUSH1 0x4 DUP4 PUSH2 0x456 JUMP JUMPDEST SWAP2 POP PUSH2 0x4A8 DUP3 PUSH2 0x467 JUMP JUMPDEST PUSH1 0x20 DUP3 ADD SWAP1 POP SWAP2 SWAP1 POP JUMP JUMPDEST PUSH1 0x0 PUSH1 0x20 DUP3 ADD SWAP1 POP DUP2 DUP2 SUB PUSH1 0x0 DUP4 ADD MSTORE PUSH2 0x4CC DUP2 PUSH2 0x490 JUMP JUMPDEST SWAP1 POP SWAP2 SWAP1 POP JUMP JUMPDEST PUSH32 0x4E487B7100000000000000000000000000000000000000000000000000000000 PUSH1 0x0 MSTORE PUSH1 0x11 PUSH1 0x4 MSTORE PUSH1 0x24 PUSH1 0x0 REVERT JUMPDEST PUSH1 0x0 PUSH2 0x50D DUP3 PUSH2 0x341 JUMP JUMPDEST SWAP2 POP PUSH2 0x518 DUP4 PUSH2 0x341 JUMP JUMPDEST SWAP3 POP DUP3 DUP3 SUB SWAP1 POP PUSH8 0xFFFFFFFFFFFFFFFF DUP2 GT ISZERO PUSH2 0x538 JUMPI PUSH2 0x537 PUSH2 0x4D3 JUMP JUMPDEST JUMPDEST SWAP3 SWAP2 POP POP JUMP JUMPDEST PUSH1 0x0 PUSH2 0x549 DUP3 PUSH2 0x341 JUMP JUMPDEST SWAP2 POP PUSH2 0x554 DUP4 PUSH2 0x341 JUMP JUMPDEST SWAP3 POP DUP3 DUP3 ADD SWAP1 POP PUSH8 0xFFFFFFFFFFFFFFFF DUP2 GT ISZERO PUSH2 0x574 JUMPI PUSH2 0x573 PUSH2 0x4D3 JUMP JUMPDEST JUMPDEST SWAP3 SWAP2 POP POP JUMP INVALID LOG2 PUSH5 0x6970667358 0x22 SLT KECCAK256 RETURNDATACOPY PUSH20 0xF8375686D71B8408A80148BD7496DFC2F2D081F3 0xE2 0xE CALLVALUE 0x49 DUP16 0xB3 SGT JUMPI 0xB7 CREATE2 PUSH5 0x736F6C6343 STOP ADDMOD LT STOP CALLER "
				},
				"gasEstimates": {
					"creation": {
						"codeDepositCost": "291200",
						"executionCost": "331",
						"totalCost": "291531"
					},
					"external": {
						"balanceReceived(address)": "2867",
						"receiveMoney()": "infinite",
						"withdrawMoney(address,uint64)": "infinite"
					}
				},
				"methodIdentifiers": {
					"balanceReceived(address)": "d18a42e1",
					"receiveMoney()": "6d26ec18",
					"withdrawMoney(address,uint64)": "0ad19aeb"
				}
			},
			"storageLayout": {
				"storage": [
					{
						"astId": 5,
						"contract": "ExceptionExample.sol:ExceptionExample",
						"label": "balanceReceived",
						"offset": 0,
						"slot": "0",
						"type": "t_mapping(t_address,t_uint64)"
					}
				],
				"types": {
					"t_address": {
						"encoding": "inplace",
						"label": "address",
						"numberOfBytes": "20"
					},
					"t_mapping(t_address,t_uint64)": {
						"encoding": "mapping",
						"key": "t_address",
						"label": "mapping(address => uint64)",
						"numberOfBytes": "32",
						"value": "t_uint64"
					},
					"t_uint64": {
						"encoding": "inplace",
						"label": "uint64",
						"numberOfBytes": "8"
					}
				}
			},
			"userdoc": {
				"kind": "user",
				"methods": {},
				"version": 1
			}
		}
	}
}